:020000040000fa
:080000000002040000000000f2
:020000040000fa
:100008009a0200009a0200009a0200009a02000078
:100018009a0200009a0200009a0200009a02000068
:100028009a0200009a0200009a02000034050000bb
:100038009a0200009a0200009a020000540600008a
:10004800ec0700009a0200009a0200009a020000e1
:100058009a0200009a0200009a0200009a02000028
:100068009a0200009a0200009a0200009a02000018
:100078009a0200009a0200009a0200009a02000008
:100088009a0200009a0200009a020000e4080000a8
:100098009a0200009a0200009a0200009a020000e8
:1000a8009a0200009a0200009a0200009a020000d8
:1000b8009a0200009a0200009a0200009a020000c8
:1000c8009a0200009a0200009a0200009a020000b8
:1000d8009a0200009a0200009a0200009a020000a8
:1000e8009a0200009a0200009a0200009a02000098
:1000f8009a0200009a0200009a0200009a02000088
:100108009a0200009a0200009a0200009a02000077
:100118009a0200009a0200009a0200009a02000067
:100128009a0200009a0200009a0200009a02000057
:100138009a0200009a0200009a0200009a02000047
:100148009a0200009a0200009a0200009a02000037
:100158009a0200009a0200009a0200009a02000027
:100168009a0200009a0200009a0200009a02000017
:100178009a0200009a0200009a0200009a02000007
:100188009a0200009a0200009a0200009a020000f7
:100198009a0200009a0200009a0200009a020000e7
:1001a8009a0200009a0200009a0200009a020000d7
:1001b8009a0200009a0200009a0200009a020000c7
:1001c8009a0200009a0200009a0200009a020000b7
:1001d8009a0200009a0200009a0200009a020000a7
:1001e8009a0200009a0200009a0200009a02000097
:0801f8009a0200009a020000c7
:020000040000fa
:100208009a0200009a0200009a0200009a02000076
:100218009a0200009a0200009a0200009a02000066
:100228009a0200009a0200009a02000034050000b9
:100238009a0200009a0200009a0200005406000088
:10024800ec0700009a0200009a0200009a020000df
:100258009a0200009a0200009a0200009a02000026
:100268009a0200009a0200009a0200009a02000016
:100278009a0200009a0200009a0200009a02000006
:100288009a0200009a0200009a020000e4080000a6
:100298009a0200009a0200009a0200009a020000e6
:1002a8009a0200009a0200009a0200009a020000d6
:1002b8009a0200009a0200009a0200009a020000c6
:1002c8009a0200009a0200009a0200009a020000b6
:1002d8009a0200009a0200009a0200009a020000a6
:1002e8009a0200009a0200009a0200009a02000096
:1002f8009a0200009a0200009a0200009a02000086
:100308009a0200009a0200009a0200009a02000075
:100318009a0200009a0200009a0200009a02000065
:100328009a0200009a0200009a0200009a02000055
:100338009a0200009a0200009a0200009a02000045
:100348009a0200009a0200009a0200009a02000035
:100358009a0200009a0200009a0200009a02000025
:100368009a0200009a0200009a0200009a02000015
:100378009a0200009a0200009a0200009a02000005
:100388009a0200009a0200009a0200009a020000f5
:100398009a0200009a0200009a0200009a020000e5
:1003a8009a0200009a0200009a0200009a020000d5
:1003b8009a0200009a0200009a0200009a020000c5
:1003c8009a0200009a0200009a0200009a020000b5
:1003d8009a0200009a0200009a0200009a020000a5
:1003e8009a0200009a0200009a0200009a02000095
:0803f8009a0200009a020000c5
:020000040000fa
:100400006f8020000e7f24000e0188000000000095
:10041000000020000000e000020032000001200087
:10042000200288000c000700209b20000100200013
:1004300011000700000020000000e0000200320070
:1004400000000200000000009a0902000000000005
:100450000040da000000fe004440a9000000200037
:100460000000e0000300320000002000a00188002e
:100470004440a80000000600910188008000780038
:100480000000eb0015003700e280400032a0b4000d
:100490009101ba00e280400032a0b4009102ba009b
:1004a000e280400032a0b4000002eb00472bde00e7
:1004b000f507b200602ce10004003a000059eb009f
:1004c0008301e900fdff3e00040037006128e100e0
:1004d000010032000082eb00040007001101ba00a5
:1004e0000200e000e8ff3a00000006003159ba00bf
:1004f0008301e9000c0032002159ba008301e900b0
:10050000080032000400e00003003a00e2804000ee
:1005100032a0b400f5ff370011d9ba008301e90019
:10052000faff3a008100e800e180400032a0b40008
:10053000000006000040da000000fe00889fbe00b8
:100540008a9fbe008c1f78009c000700a300330028
:1005500003866c006450e1002e0032006420e1004c
:10056000330032006150e1002f0032006120e100d1
:100570003100320085855500eb07b00009002000ee
:1005800008042000050037000804440089844c005a
:100590000a0031000603430087834b00000153002b
:1005a00081815b00f8ff33000203be000800a00059
:1005b0000804440089844c00f6ff3900c639dd0088
:1005c0008301730001003200130020008904d10070
:1005d0000884d3000998a300050032000800a70092
:1005e0000300a0008904d1000884d3008b05e80033
:1005f0008904d1000884d3000001eb000281d200fd
:100600003300070001f0a1000cf0a70001f0a000ea
:100610007b0037006420e1007d0032000801be004d
:100620000200be00f7ff37006120e10078003200d1
:100630006000b800f3ff37000000200001f8270039
:10064000f0ff3700f4ff2f00740037000001be00f8
:10065000450007000470a70003f0a1006509b10080
:10066000160032000d0035006828e1000600350054
:10067000f0ff2f00f1ff27000300e00013003b0014
:1006800001002800000005000000400081804800b3
:100690008502e900fcff3a0008003700f88f4200ad
:1006a00002003c008000eb00000005008100d1004a
:1006b0000080d3008502e800fcff3a000300e00060
:1006c00002003b0060001000e080180000000600ff
:1006d00081002000618055000b003d000b002000d0
:1006e00061fe2f000100e1001d00340082817100d5
:1006f000610164008904d1000884d3000000e8008f
:10070000faff3a00710020006100640003007000ed
:10071000020060000900320061044400e0844c00e3
:100720000988a500050032008b05e8006808e10093
:1007300002003a008904d1000884d300f20f20009f
:100740000258e10005003d00c75ddd00f907b20079
:100750008980750008007800000006000bf827006b
:100760008b00780000000500c70ade00f107b20028
:10077000f50fb20008003200e1cf42000200320063
:100780000170a00024000500810f700001003200fc
:100790000408050044000500810f700002003a00c3
:1007a000140005008502e9000000400081c04800f7
:1007b000fcff3b000170a000240005000004be0007
:1007c000e9ff07000003be000405be000200be00f2
:1007d000e5ff0700844f7500000006000200be0020
:1007e0006450e100050036006420e100020036009c
:1007f0000968a30001003a000800be000160a000e3
:100800004f0678004f05be004f04be0000000600f2
:10081000f0ff2f00f1ff2700f9ff3700889fbe008f
:100820008a9fbe00841f7800e4ff07004f00780015
:1008300011003300f0ff2f00838f6c0006003b0097
:10084000040565000a00a7000800370009f0a600ab
:100850001000200008003700820f5400838f5c00d6
:10086000030039001000200001003e0000002000bd
:1008700009f0a7000000ea004f05be004f04be00cb
:080880000000e000000006008a
:020000040000fa
:100888000000fa0005e1a90005a1a90004c1a9001a
:100898000421a90000002c00a16524000500070020
:1008a8008460a9009460a80005e1a8000080fa000f
:1008b800000006000400fa00881f7800008fbe00c0
:1008c800200880000040a1000050a10020088800f6
:1008d8001e01be000068290081c1240015ff070021
:1008e80018c0b30002f02f00f377240053ff07006d
:1008f8000000e00001003c000044eb000804e000b8
:100908004d003200200880000040a0000050a100e7
:10091800200888001e01be000068290081c124004b
:1009280004ff0700020020000310240001ff070055
:1009380018c0b30002f02f00f37724003fff070030
:100948000000e00001003c000044eb000804e00067
:100958002e003200200880000040a1000050a000b6
:10096800200888001e01be000068290081c12400fb
:10097800f0fe07000200200003282400edfe070017
:1009880018c0b30002f02f00f37724002bff0700f4
:100998000000e00001003c000044eb000804e00017
:1009a8000f003200200880000040a0000050a00086
:1009b800200888001e01be000068290081c12400ab
:1009c800dcfe07000200200003382400d9fe0700df
:1009d8001cff070000007800100888001d00370081
:1009e8001e01be000068290081c12400d1fe070055
:1009f8000200200003282400cefe070011ff070094
:100a08000000780010088800120037001e01be00a0
:100a18000068290081c12400c6fe070002002000ea
:100a280003102400c3fe070006ff0700000078003b
:100a380010088800070037001e01be000068290062
:100a480081c12400bbfe0700fefe070000007800fd
:100a5800100888004f0478000080fa0000000600a3
:100a6800809fbe00821f78000000fa008460a90001
:100a7800a1168000000820000080600000f0a70098
:100a88000000ea000000e9004f00de0000407800a6
:100a98000080fb00610060004700dd00a2168000b6
:100aa800f1f72f008100610001007000a016880096
:100ab8000080fa004f0178004f00be000040060099
:100ac8000000fa0011e1a90011a1a90010c1a900b4
:100ad8001021a900000020000112240005000700d1
:100ae80084e0a90094e0a80011e1a8000080fa00c1
:100af800000006000400fa00881f7800008fbe007e
:100b0800800880000040a1000050a10080088800f3
:100b18001e01be000068290081c1240085fe07006f
:100b280018c0b30002f02f00f3772400c3fe0700bb
:100b38000000e00001003c000044eb000804e00075
:100b48004d003200800880000040a0000050a10045
:100b5800800888001e01be000068290081c12400a9
:100b680074fe0700020020000310240071fe070035
:100b780018c0b30002f02f00f3772400affe07007f
:100b88000000e00001003c000044eb000804e00025
:100b98002e003200800880000040a1000050a00014
:100ba800800888001e01be000068290081c1240059
:100bb80060fe070002002000032824005dfe0700f5
:100bc80018c0b30002f02f00f37724009bfe070043
:100bd8000000e00001003c000044eb000804e000d5
:100be8000f003200800880000040a0000050a000e4
:100bf800800888001e01be000068290081c1240009
:100c08004cfe0700020020000338240049fe0700bc
:100c18008cfe070000007800600888001d0037007f
:100c28001e01be000068290081c1240041fe0700a2
:100c380002002000032824003efe070081fe070072
:100c48000000780060088800120037001e01be000e
:100c58000068290081c1240036fe07000200200038
:100c68000310240033fe070076fe0700000078001a
:100c780060088800070037001e01be0000682900d0
:100c880081c124002bfe07006efe070000007800db
:100c9800600888004f0478000080fa000000060011
:100ca8003600f800809fbe00821f78000000fa001e
:100cb80084e0a900004080000000e80000408800af
:100cc8000140800020032000808f50000100340084
:100cd8000028ef0000408000ee0f500028003c0084
:100ce800004080008000e80020002000000178001b
:100cf800110009008200d8008000fd000040780043
:100d0800614060000080fb00610060004700dd007a
:100d180022168000f1f72f008100610001007000a9
:100d280020168800201680004700de006140600021
:100d38000080fb00610060004900dd002216800091
:100d4800f1df2f008100610001007000201688008b
:100d5800201680004700de00614060000080fb0034
:100d6800610060004a00dd0022168000f1bf2f00fc
:100d7800810061000100700020168800170037000c
:100d8800c4e2a900201680004700de006140600030
:100d98000080fb00610060004900dd002216800031
:100da800f1df2f008100610001007000201688002b
:100db800201680004700de00614060000080fb00d4
:100dc800610060004a00dd0022168000f1bf2f009c
:100dd8008100610001007000201688000080fa0080
:100de8004f0178004f00be003600f90000400600b1
:100df8000000fa0013e1a90013a1a90012c1a9007b
:100e08001221a90000002000812424000500070009
:100e18008500a9009500a80013e1a8000080fa0049
:100e2800000006000400fa00881f7800008fbe004a
:100e3800900880000040a1000050a10090088800a0
:100e48001e01be000068290081c12400b9fd070009
:100e580018c0b30002f02f00f3772400f7fd070055
:100e68000000e00001003c000044eb000804e00042
:100e78004d003200900880000040a0000050a10002
:100e8800900888001e01be000068290081c1240066
:100e9800a8fd07000200200003102400a5fd07009c
:100ea80018c0b30002f02f00f3772400e3fd070019
:100eb8000000e00001003c000044eb000804e000f2
:100ec8002e003200900880000040a1000050a000d1
:100ed800900888001e01be000068290081c1240016
:100ee80094fd0700020020000328240091fd07005c
:100ef80018c0b30002f02f00f3772400cffd0700dd
:100f08000000e00001003c000044eb000804e000a1
:100f18000f003200900880000040a0000050a000a0
:100f2800900888001e01be000068290081c12400c5
:100f380080fd070002002000033824007dfd070023
:100f4800c0fd070000007800700888001d00370009
:100f58001e01be000068290081c1240075fd07003c
:100f6800020020000328240072fd0700b5fd0700d9
:100f78000000780070088800120037001e01be00cb
:100f88000068290081c124006afd070002002000d2
:100f98000310240067fd0700aafd07000000780081
:100fa80070088800070037001e01be00006829008d
:100fb80081c124005ffd0700a2fd07000000780042
:100fc800700888004f0478000080fa0000000600ce
:100fd8000000fa008500a9000080fa000040060021
:100fe8000000fa001fe1a9001fa1a9001ec1a90065
:100ff8001e21a90000002000a147240005000700c9
:101008008760a9009760a8001fe1a8000080fa0087
:10101800000006000400fa00881f7800008fbe0058
:10102800f00880000040a1000050a100f0088800ee
:101038001e01be000068290081c124003dfd070093
:1010480018c0b30002f02f00f37724007bfd0700df
:101058000000e00001003c000044eb000804e00050
:101068004d003200f00880000040a0000050a100b0
:10107800f00888001e01be000068290081c1240014
:101088002cfd0700020020000310240029fd0700a2
:1010980018c0b30002f02f00f377240067fd0700a3
:1010a8000000e00001003c000044eb000804e00000
:1010b8002e003200f00880000040a1000050a0007f
:1010c800f00888001e01be000068290081c12400c4
:1010d80018fd0700020020000328240015fd070062
:1010e80018c0b30002f02f00f377240053fd070067
:1010f8000000e00001003c000044eb000804e000b0
:101108000f003200f00880000040a0000050a0004e
:10111800f00888001e01be000068290081c1240073
:1011280004fd0700020020000338240001fd070029
:1011380044fd070000007800d00888001d00370033
:101148001e01be000068290081c12400f9fc0700c7
:101158000200200003282400f6fc070039fd0700e0
:1011680000007800d0088800120037001e01be0079
:101178000068290081c12400eefc0700020020005d
:1011880003102400ebfc07002efd07000000780088
:10119800d0088800070037001e01be00006829003b
:1011a80081c12400e3fc070026fd07000000780049
:1011b800d00888004f0478000080fa00000006007c
:1011c8003600f800809fbe00829fbe00849fbe004c
:1011d800869fbe000000fa008760a90010408000ca
:1011e8002140800061004000e080480010408800f5
:1011f80021408800560007000080fa004f03be0017
:101208004f02be004f01be004f00be003600f9007d
:10121800004006000000fa0020012000303a880053
:10122800213a800000fe2f00008060000010a0001e
:10123800203a8800203a80000060a1000070a100d8
:10124800203a88003200200080072000a1092000f1
:1012580033742000804978008149780082497800f9
:101268001200200060042000710520002374200073
:1012780080497800814978008249780000000000a0
:10128800113a8000000027008080600000002300e1
:10129800808f5000faff3a0000000000113a8000e9
:1012a80000022000008060000000e000fbff320028
:1012b8000080fa00000006000000fa000080eb0041
:1012c80060198800c0e2a900c122a900c142a90092
:1012d800d0e2a9000c000700020007000080fa0015
:1012e800000006000000fa002174200062042000bb
:1012f80073052000824878008348780042c7a80018
:101308000080fa00000006000000fa0021742000a6
:101318006204200073052000824878008348780022
:1013280042c7a9000080fa00000006000000fa0089
:10133800b8ff0700e0ff070051fd0700e0fd0700c8
:10134800c4e2a900c522a900c542a900ffff3700d1
:0c1358000000fa000080fa00000006000f
:020000040000fa
:10136400000800000600000000000000000000006b
:020000040000fa
:0200000401f009
:0400080007000000ed
:020000040000fa
:0200000401f009
:04000c008000000070
:020000040000fa
:0200000401f009
:0400100042000000aa
:020000040000fa
:0200000401f009
:040014005f00000089
:020000040000fa
:0200000401f009
:04001800f7000000ed
:020000040000fa
:0200000401f009
:04001c00dfff000002
:00000001FF
