:020000040000fa
:080000000002040000000000f2
:020000040000fa
:04000800c40300002d
:020000040000fa
:04000c00c403000029
:020000040000fa
:04001000c403000025
:020000040000fa
:04001400c403000021
:020000040000fa
:04001800c40300001d
:020000040000fa
:04001c00c403000019
:020000040000fa
:04002000c403000015
:020000040000fa
:04002400c403000011
:020000040000fa
:04002800c40300000d
:020000040000fa
:04002c00c403000009
:020000040000fa
:04003000c403000005
:020000040000fa
:04003400d4020000f2
:020000040000fa
:04003800c4030000fd
:020000040000fa
:04003c00c4030000f9
:020000040000fa
:04004000c4030000f5
:020000040000fa
:04004400fa020000bc
:020000040000fa
:040048002003000091
:020000040000fa
:04004c00c4030000e9
:020000040000fa
:04005000c4030000e5
:020000040000fa
:04005400c4030000e1
:020000040000fa
:04005800c4030000dd
:020000040000fa
:04005c00920300000b
:020000040000fa
:04006000c4030000d5
:020000040000fa
:04006400c4030000d1
:020000040000fa
:04006800c4030000cd
:020000040000fa
:04006c00c4030000c9
:020000040000fa
:04007000c4030000c5
:020000040000fa
:04007400c4030000c1
:020000040000fa
:04007800c4030000bd
:020000040000fa
:04007c00c4030000b9
:020000040000fa
:04008000c4030000b5
:020000040000fa
:04008400c4030000b1
:020000040000fa
:04008800c4030000ad
:020000040000fa
:04008c00c4030000a9
:020000040000fa
:04009000c4030000a5
:020000040000fa
:04009400460300001f
:020000040000fa
:040098006c030000f5
:020000040000fa
:04009c00c403000099
:020000040000fa
:0400a000c403000095
:020000040000fa
:0400a400c403000091
:020000040000fa
:0400a800c40300008d
:020000040000fa
:0400ac00c403000089
:020000040000fa
:0400b000c403000085
:020000040000fa
:0400b400c403000081
:020000040000fa
:0400b800c40300007d
:020000040000fa
:0400bc00c403000079
:020000040000fa
:0400c000c403000075
:020000040000fa
:0400c400c403000071
:020000040000fa
:0400c800c40300006d
:020000040000fa
:0400cc00c403000069
:020000040000fa
:0400d000c403000065
:020000040000fa
:0400d400c403000061
:020000040000fa
:0400d800c40300005d
:020000040000fa
:0400dc00c403000059
:020000040000fa
:0400e000c403000055
:020000040000fa
:0400e400c403000051
:020000040000fa
:0400e800c40300004d
:020000040000fa
:0400ec00c403000049
:020000040000fa
:0400f000c403000045
:020000040000fa
:0400f400c403000041
:020000040000fa
:0400f800c40300003d
:020000040000fa
:0400fc00c403000039
:020000040000fa
:04010000c403000034
:020000040000fa
:04010400c403000030
:020000040000fa
:04010800c40300002c
:020000040000fa
:04010c00c403000028
:020000040000fa
:04011000c403000024
:020000040000fa
:04011400c403000020
:020000040000fa
:04011800c40300001c
:020000040000fa
:04011c00c403000018
:020000040000fa
:04012000c403000014
:020000040000fa
:04012400c403000010
:020000040000fa
:04012800c40300000c
:020000040000fa
:04012c00c403000008
:020000040000fa
:04013000c403000004
:020000040000fa
:04013400c403000000
:020000040000fa
:04013800c4030000fc
:020000040000fa
:04013c00c4030000f8
:020000040000fa
:04014000c4030000f4
:020000040000fa
:04014400c4030000f0
:020000040000fa
:04014800c4030000ec
:020000040000fa
:04014c00c4030000e8
:020000040000fa
:04015000c4030000e4
:020000040000fa
:04015400c4030000e0
:020000040000fa
:04015800c4030000dc
:020000040000fa
:04015c00c4030000d8
:020000040000fa
:04016000c4030000d4
:020000040000fa
:04016400c4030000d0
:020000040000fa
:04020800c40300002b
:020000040000fa
:04020c00c403000027
:020000040000fa
:04021000c403000023
:020000040000fa
:04021400c40300001f
:020000040000fa
:04021800c40300001b
:020000040000fa
:04021c00c403000017
:020000040000fa
:04022000c403000013
:020000040000fa
:04022400c40300000f
:020000040000fa
:04022800c40300000b
:020000040000fa
:04022c00c403000007
:020000040000fa
:04023000c403000003
:020000040000fa
:04023400c4030000ff
:020000040000fa
:04023800c4030000fb
:020000040000fa
:04023c00c4030000f7
:020000040000fa
:04024000c4030000f3
:020000040000fa
:04024400c4030000ef
:020000040000fa
:04024800c4030000eb
:020000040000fa
:04024c00c4030000e7
:020000040000fa
:04025000c4030000e3
:020000040000fa
:04025400c4030000df
:020000040000fa
:04025800c4030000db
:020000040000fa
:04025c00c4030000d7
:020000040000fa
:04026000c4030000d3
:020000040000fa
:04026400c4030000cf
:020000040000fa
:04026800c4030000cb
:020000040000fa
:04026c00c4030000c7
:020000040000fa
:04027000c4030000c3
:020000040000fa
:04027400c4030000bf
:020000040000fa
:04027800c4030000bb
:020000040000fa
:04027c00c4030000b7
:020000040000fa
:04028000c4030000b3
:020000040000fa
:04028400c4030000af
:020000040000fa
:04028800c4030000ab
:020000040000fa
:04028c00c4030000a7
:020000040000fa
:04029000c4030000a3
:020000040000fa
:04029400c40300009f
:020000040000fa
:04029800c40300009b
:020000040000fa
:04029c00c403000097
:020000040000fa
:0402a000c403000093
:020000040000fa
:0402a400c40300008f
:020000040000fa
:0402a800c40300008b
:020000040000fa
:0402ac00c403000087
:020000040000fa
:0402b000c403000083
:020000040000fa
:0402b400c40300007f
:020000040000fa
:0402b800c40300007b
:020000040000fa
:0402bc00c403000077
:020000040000fa
:0402c000c403000073
:020000040000fa
:0402c400c40300006f
:020000040000fa
:0402c800c40300006b
:020000040000fa
:0402cc00c403000067
:020000040000fa
:0402d000c403000063
:020000040000fa
:0402d400c40300005f
:020000040000fa
:0402d800c40300005b
:020000040000fa
:0402dc00c403000057
:020000040000fa
:0402e000c403000053
:020000040000fa
:0402e400c40300004f
:020000040000fa
:0402e800c40300004b
:020000040000fa
:0402ec00c403000047
:020000040000fa
:0402f000c403000043
:020000040000fa
:0402f400c40300003f
:020000040000fa
:0402f800c40300003b
:020000040000fa
:0402fc00c403000037
:020000040000fa
:04030000c403000032
:020000040000fa
:04030400c40300002e
:020000040000fa
:04030800c40300002a
:020000040000fa
:04030c00c403000026
:020000040000fa
:04031000c403000022
:020000040000fa
:04031400c40300001e
:020000040000fa
:04031800c40300001a
:020000040000fa
:04031c00c403000016
:020000040000fa
:04032000c403000012
:020000040000fa
:04032400c40300000e
:020000040000fa
:04032800c40300000a
:020000040000fa
:04032c00c403000006
:020000040000fa
:04033000c403000002
:020000040000fa
:04033400c4030000fe
:020000040000fa
:04033800c4030000fa
:020000040000fa
:04033c00c4030000f6
:020000040000fa
:04034000c4030000f2
:020000040000fa
:04034400c4030000ee
:020000040000fa
:04034800c4030000ea
:020000040000fa
:04034c00c4030000e6
:020000040000fa
:04035000c4030000e2
:020000040000fa
:04035400c4030000de
:020000040000fa
:04035800c4030000da
:020000040000fa
:04035c00c4030000d6
:020000040000fa
:04036000c4030000d2
:020000040000fa
:04036400c4030000ce
:020000040000fa
:100400008f8520000e7f24000e0188000000000070
:10041000000020000000e000020032000001200087
:100420002002880014000700d90007000000e00047
:1004300003003a006045210001002000020037005f
:100440000000200001002000810f70000100320038
:1004500014000700000020000000e000020032004d
:100460000000020000000000020e02000000000078
:100470000040da000000fe004440a9000000200017
:100480000000e0000300320000002000a00188000e
:100490004440a800000006008a1f78008b1f7800e7
:1004a0000000060091018800800478000000eb0045
:1004b0001a003700e284440032a0b4009905ba0063
:1004c000e284440032a0b4009906ba00e2844400f9
:1004d00032a0b4000006eb00476fde00fd07b2005b
:1004e000636ce10003003a00ebff07000000eb0043
:1004f0000a003700606ce10004003a00005deb0088
:100500008b05e900fdff3e00040037006168e10053
:10051000010032000086eb000b00070019c7ba008b
:100520001905ba000e04e00003003a000a00e000da
:10053000e0ff3a0000000600fe07b2009e018800be
:100540008a047800f5ff3700395dba008b05e900b1
:100550000c003200295dba008b05e900080032006a
:100560000c00e00003003a00e284440032a0b40032
:10057000f5ff370019ddba008b05e900faff3a00f4
:100580008904e800e184440032a0b40000000600c1
:10059000540f0400000000005a0f04000000000087
:1005a000f40f0400000000003600f800809fbe0039
:1005b000829fbe00849fbe00869fbe000000fa009e
:1005c0008460a900204280000000e00002003200a8
:1005d00020428000000001000080fa004f03be00ae
:1005e0004f02be004f01be004f00be003600f900b2
:1005f000004006003600f800809fbe00829fbe00cb
:10060000849fbe00869fbe000000fa0084e0a9001f
:10061000304280000000e0000200320030428000e2
:10062000000001000080fa004f03be004f02be0030
:100630004f01be004f00be003600f900004006002a
:100640003600f800809fbe00829fbe00849fbe00df
:10065000869fbe000000fa008500a900404280008d
:100660000000e00002003200404280000000010073
:100670000080fa004f03be004f02be004f01be00d3
:100680004f00be003600f900004006003600f800ba
:10069000809fbe00829fbe00849fbe00869fbe00da
:1006a0000000fa008760a900504280000000e000ce
:1006b0000200320050428000000001000080fa0079
:1006c0004f03be004f02be004f01be004f00be00f0
:1006d0003600f900004006003600f800809fbe009a
:1006e000829fbe00849fbe00869fbe000000fa006d
:1006f0008780a900604280000000e0000200320014
:1007000060428000000001000080fa004f03be003c
:100710004f02be004f01be004f00be003600f90080
:1007200000400600809fbe00821f78000000fa0093
:1007300085a0a90042c8bf000080fb00011880000e
:1007400000014000e0842000000041000108780022
:1007500042c8bf00e34f500004003e0042c8bf0043
:100760000040e80042e8b700030037004268ef00ad
:1007700010c0b30043e8b7000080fa004f017800d2
:100780004f00be00004006000040da000000fe00fe
:100790000000050003f0a200889fbe008a9fbe00f3
:1007a0008c1f7800180107001f0133006450e1001e
:1007b0004f0032006420e1005200320003826c00de
:1007c00007003b000905d0000306d000820f54004b
:1007d0000c065d0002003900020032008901780039
:1007e000030678008582550004003d000003fd00eb
:1007f0008103fd008502ea008b854200840f7200b0
:1008000002003b0060001000e08018006011b8009a
:100810000005eb007a28e1000a00390006007800a4
:10082000c75ddd00f707b200878075002d00370037
:10083000828171000a017800610560008180d10029
:100840000080d3008502e900f9ff3b000604400068
:100850008784480002003b0060041400e0841c0010
:100860000988a300070032008a817100828171002b
:10087000610164008904d1000884d3008b05e8007d
:10088000170037000978a30013003a000b00e000be
:10089000130034008b05e9000804440089844c00ef
:1008a0000a4474000978a3000d003a000b00e00030
:1008b000070034008b05e9000804440089844c00db
:1008c00001003a000b0020000978a300f7ff320076
:1008d0000001eb0002003700828171000a017800fc
:1008e0008e0007000cf0a70001f0a000d700370031
:1008f0006420e10002003a00838f6c00d7003300cf
:100900000801be000200be00d0003700889fbe0074
:100910008a9fbe008c1f7800bb000700c200330016
:1009200003866c006450e1002e0032006420e10078
:10093000330032006150e1002f0032006120e100fd
:100940003100320085855500eb07b000090020001a
:1009500008042000050037000804440089844c0086
:100960000a0031000603430087834b000001530057
:1009700081815b00f8ff33000203be000800a00085
:100980000804440089844c00f6ff3900c639dd00b4
:100990008301730001003200130020008904d1009c
:1009a0000884d3000998a300050032000800a700be
:1009b0000300a0008904d1000884d3008b05e8005f
:1009c0008904d1000884d3000001eb000281d20029
:1009d0005200070001f0a1000cf0a70001f0a000f8
:1009e0009a0037006420e1009c0032000801be003c
:1009f0000200be00f7ff37006120e10097003200df
:100a00006000b800f3ff37000000200001f8270065
:100a1000f0ff370014002000c7003700f4ff2f005c
:100a2000c50037000001be00620007000470a70087
:100a300003f0a1006509b100160032000d00350079
:100a40006828e10006003500f0ff2f00f1ff2700c5
:100a50000300e00013003b00010028000000050037
:100a600000004000818048008502e900fcff3a0058
:100a700008003700f88f420002003c008000eb00c5
:100a8000000005008100d1000080d3008502e8004d
:100a9000fcff3a000300e00002003b006000100091
:100aa000e0801800000006000001be0041000700c1
:100ab0000470a70003f0a10003f8a30013003a009c
:100ac0006509b10010003200090035006928e10015
:100ad0000200350001002800000005000000400071
:100ae000818048008502e900fcff3a000000060012
:100af000f88f4200050035008100d1000080d3004e
:100b00008502e800fcff3a00000006008000eb00d0
:100b1000000005006011b800a2003700810020002d
:100b2000618055000b003d000b00200061fe2f008e
:100b30000100e1001d003400828171006101640048
:100b40008904d1000884d3000000e800faff3a00cd
:100b5000710020006100640003007000020060006a
:100b60000900320061044400e0844c000988a500bb
:100b7000050032008b05e8006808e10002003a0039
:100b80008904d1000884d300f20f20000258e1004c
:100b900005003d00c75ddd00f907b20089807500e2
:100ba00008007800000006000bf827008b00780092
:100bb00000000500c70ade00f107b200f50fb20021
:100bc00008003200e1cf4200020032000170a000b4
:100bd00024000500810f70000100320004080500a8
:100be00044000500810f700002003a001400050067
:100bf0008502e9000000400081c04800fcff3b0086
:100c00000170a000240005000004be00e9ff0700f9
:100c10000003be000405be000200be00e5ff0700a1
:100c2000844f7500000006000200be006450e10021
:100c3000050036006420e100020036000968a300c8
:100c400001003a000800be000160a0004f067800d5
:100c50004f05be004f04be0000000600f0ff2f004d
:100c6000f1ff2700f9ff3700889fbe008a9fbe0072
:100c70008c1f7800e4ff0700ebff330003866c0055
:100c80006450e100240032006420e10027003200bb
:100c90006150e100220032006120e10021003200b9
:100ca0008b854200eb07b1000134b800003ab80070
:100cb0000804420089844a00013ab8000030b800b4
:100cc0008880400009014a00040033000000400011
:100cd00081804800020149008b05e900c909dd0057
:100ce000830170000100320013002000c814de00f0
:100cf0004814dd004709de001200b200c808de001b
:100d00000884700085ff070001f0a1000cf0a70027
:100d100001f0a000cdff37006120e100cfff3200dd
:100d20000801be000200be00f7ff37006150e1007d
:100d3000fcff3a00c9ff3700889fbe008a9fbe00b3
:100d4000841f7800b0ff07004f00780011003300c7
:100d5000f0ff2f00838f6c0006003b000405650048
:100d60000a00a7000800370009f0a60010002000c4
:100d700008003700820f5400838f5c0003003900a5
:100d80001000200001003e000000200009f0a70034
:100d90000000ea004f05be004f04be000000e00066
:100da00000000600889fbe008a9fbe00008270007f
:100db0000402710004827100260032000004be00ab
:100dc0000200be006011b8006b09200095022000ef
:100dd0000182cf000a0039000541b1000082cf0036
:100de000070039000541b1000982cf000400390035
:100df0000541b1000882cf00010039000541b10072
:100e000005425200120032000a003b00828171004c
:100e1000610164008100d1000080d3008984d30087
:100e20000884d3008b05e8000442e800f7ff3a008d
:100e3000070037000804440089844c000000480083
:100e4000818048008b05e9000442e900f9ff3a007f
:100e500032ff07004f05be004f04be000000060031
:020000040000fa
:100e60000600fa00881f7800004f780012079800eb
:100e7000230798001e80fb00e20f5000ea003200ba
:100e8000e20f500005003c000000e00008003200c6
:100e9000e10f50007500320030023700e30f5000c0
:100ea00050013200e40f5000bd0132002b02370028
:100eb00021088000f0fc2f000080600020088800de
:100ec0001e019000ae0190000068290081c124003d
:100ed0008efe070018c0b30002f02f00f377240045
:100ee000cefe07000000e00001003c000044eb00e3
:100ef0000804e0005400320021088000f0fc2f00bc
:100f0000008060000040a000200888001e019000c2
:100f1000ae0190000068290081c124007bfe07001b
:100f2000020020000310240078fe070018c0b30060
:100f300002f02f00f3772400b8fe07000000e00065
:100f400001003c000044eb000804e00032003200e5
:100f500021088000f0fc2f00008060000050a000fd
:100f6000200888001e019000ae0190000068290052
:100f700081c1240065fe0700020020000328240030
:100f800062fe070018c0b30002f02f00f3772400c0
:100f9000a2fe07000000e00001003c000044eb005e
:100fa0000804e00010003200210880000003200047
:100fb00001007000200888001e019000ae01900022
:100fc0000068290081c1240050fe070002002000b3
:100fd000033824004dfe070092fe07000000780051
:100fe00010088800dd0137001e019000ae0190005e
:100ff0000068290081c1240044fe0700020020008f
:101000000328240041fe070086fe07000000780048
:1010100010088800d10137001e019000ae01900039
:101020000068290081c1240038fe0700020020006a
:101030000310240035fe07007afe07000000780048
:1010400010088800c50137001e019000ae01900015
:101050000068290081c124002cfe070071fe0700f2
:101060000000780010088800bc013700810880006b
:10107000f0fc2f0000806000800888001e019000b6
:10108000ae0190000068290081c124001ffe070006
:1010900018c0b30002f02f00f37724005ffe0700b2
:1010a0000000e00001003c000044eb000804e00008
:1010b0005400320081088000f0fc2f0000806000a6
:1010c0000040a000800888001e019000ae01900042
:1010d0000068290081c124000cfe070002002000e6
:1010e0000310240009fe070018c0b30002f02f000f
:1010f000f377240049fe07000000e00001003c00f7
:101100000044eb000804e000320032008108800057
:10111000f0fc2f00008060000050a00080088800d4
:101120001e019000ae0190000068290081c12400da
:10113000f6fd07000200200003282400f3fd07004d
:1011400018c0b30002f02f00f377240033fe07002d
:101150000000e00001003c000044eb000804e00057
:1011600010003200810880000003200001007000a0
:10117000800888001e019000ae01900000682900e0
:1011800081c12400e1fd0700020020000338240093
:10119000defd070023fe07000000780060088800dd
:1011a0006e0137001e019000ae019000006829001a
:1011b00081c12400d5fd070002002000032824007f
:1011c000d2fd070017fe07000000780060088800c5
:1011d000620137001e019000ae01900000682900f6
:1011e00081c12400c9fd0700020020000310240073
:1011f000c6fd07000bfe07000000780060088800ad
:10120000560137001e019000ae01900000682900d1
:1012100081c12400bdfd070002fe07000000780028
:10122000600888004d01370091088000f0fc2f0015
:1012300000806000900888001e019000ae019000c0
:101240000068290081c12400b0fd070018c0b30068
:1012500002f02f00f3772400f0fd07000000e0000b
:1012600001003c000044eb000804e00054003200a0
:1012700091088000f0fc2f00008060000040a0007a
:10128000900888001e019000ae01900000682900bf
:1012900081c124009dfd07000200200003102400ee
:1012a0009afd070018c0b30002f02f00f377240066
:1012b000dafd07000000e00001003c000044eb0004
:1012c0000804e0003200320091088000f0fc2f009a
:1012d000008060000050a000900888001e0190006f
:1012e000ae0190000068290081c1240087fd07003d
:1012f000020020000328240084fd070018c0b3006a
:1013000002f02f00f3772400c4fd07000000e00086
:1013100001003c000044eb000804e0001000320033
:1013200091088000000320000100700090088800f0
:101330001e019000ae0190000068290081c12400c8
:1013400072fd070002002000033824006ffd070033
:10135000b4fd07000000780070088800ff00370027
:101360001e019000ae0190000068290081c1240098
:1013700066fd0700020020000328240063fd07002b
:10138000a8fd07000000780070088800f30037000f
:101390001e019000ae0190000068290081c1240068
:1013a0005afd0700020020000310240057fd07002b
:1013b0009cfd07000000780070088800e7003700f7
:1013c0001e019000ae0190000068290081c1240038
:1013d0004efd070093fd07000000780070088800ac
:1013e000de003700f1088000f0fc2f000080600074
:1013f000f00888001e019000ae01900000682900ee
:1014000081c1240041fd070018c0b30002f02f0085
:10141000f377240081fd07000000e00001003c009c
:101420000044eb000804e00054003200f1088000a2
:10143000f0fc2f00008060000040a000f008880051
:101440001e019000ae0190000068290081c12400b7
:101450002efd070002002000031024002bfd0700d2
:1014600018c0b30002f02f00f37724006bfd0700d3
:101470000000e00001003c000044eb000804e00034
:1014800032003200f1088000f0fc2f000080600084
:101490000050a000f00888001e019000ae019000ee
:1014a0000068290081c1240018fd07000200200007
:1014b0000328240015fd070018c0b30002f02f0018
:1014c000f377240055fd07000000e00001003c0018
:1014d0000044eb000804e00010003200f108800036
:1014e0000003200001007000f00888001e01900039
:1014f000ae0190000068290081c1240003fd0700af
:10150000020020000338240000fd070045fd07000d
:1015100000007800d0088800900037001e0190007d
:10152000ae0190000068290081c12400f7fc07008b
:101530000200200003282400f4fc070039fd070006
:1015400000007800d0088800840037001e01900059
:10155000ae0190000068290081c12400ebfc070067
:101560000200200003102400e8fc07002dfd070006
:1015700000007800d0088800780037001e01900035
:10158000ae0190000068290081c12400dffc070043
:1015900024fd070000007800d00888006f003700a5
:1015a00001098000f0fc2f00008060000009880025
:1015b0001e019000ae0190000068290081c1240046
:1015c000d2fc070018c0b30002f02f00f37724000c
:1015d00012fd07000000e00001003c000044eb00a9
:1015e0000804e0005400320001098000f0fc2f00e4
:1015f000008060000040a000000988001e019000eb
:10160000ae0190000068290081c12400bffc0700e2
:101610000200200003102400bcfc070018c0b30027
:1016200002f02f00f3772400fcfc07000000e0002c
:1016300001003c000044eb000804e00032003200ee
:1016400001098000f0fc2f00008060000050a00025
:10165000000988001e019000ae019000006829007a
:1016600081c12400a9fc07000200200003282400f7
:10167000a6fc070018c0b30002f02f00f377240087
:10168000e6fc07000000e00001003c000044eb0025
:101690000804e0001000320001098000000320006f
:1016a00001007000000988001e019000ae0190004a
:1016b0000068290081c1240094fc0700020020007a
:1016c0000338240091fc0700d6fc070000007800d6
:1016d000e0088800210037001e019000ae01900054
:1016e0000068290081c1240088fc07000200200056
:1016f0000328240085fc0700cafc070000007800ce
:10170000e0088800150037001e019000ae0190002f
:101710000068290081c124007cfc07000200200031
:101720000310240079fc0700befc070000007800cd
:10173000e0088800090037001e019000ae0190000b
:101740000068290081c1240070fc0700b5fc070077
:1017500000007800e0088800000000004f047800d6
:101760000080fa00000006000400fa00004f780034
:1017700011479800224798001e80fb00e20f50009e
:1017800036003200e20f500005003c000000e0008f
:1017900008003200e10f50001b0032006c003700df
:1017a000e30f500041003200e40f500054003200bb
:1017b000670037008460a9001e4090000080fb0095
:1017c000610060004300dd00a204800071ff2f0073
:1017d0008100610001007000a00488002e4090008c
:1017e000674060000080fb00670060004c00dd0087
:1017f00022058000f1ff28008100610001007000d7
:10180000200588005200370084e0a9001e409000a7
:101810000080fb00610060004700dd00a204800042
:10182000f1f72f008100610001007000a004880022
:101830002e409000674060000080fb006700600061
:101840004c00dd0032058000f1ff280081006100be
:1018500001007000300588003d0037008500a900b8
:101860001e4090000080fb00610060004800dd0029
:10187000a2048000f1ef2f008100610001007000e0
:10188000a00488002e409000674060000080fb00ac
:10189000670060004205800081ff2f008100610029
:1018a0000100700040058800290037008760a9000a
:1018b0001e4090000080fb00610060004b00dd00d6
:1018c000b2048000f17f2f008100610001007000f0
:1018d000b00488002e409000674060000080fb004c
:1018e000670060004c00dd0082058000f1ff2800e9
:1018f000810061000100700080058800140037003d
:101900008780a9001e4090000080fb0061006000fd
:101910004c00dd00b2048000f1ff2e008100610068
:1019200001007000b00488002e4090006740600005
:101930000080fb00670060009205800081ff2f009f
:101940008100610001007000900588000000000027
:101950000080fa00000006000400fa00004f780042
:10196000110798001e4078000004e0000c003200cf
:101970001e407800e54f500009003e001e00900018
:101980000000e000060032001e80fb0080004000e6
:1019900040842000008040009e00900001087800f4
:1019a0000080fa00000006000800fa004047980096
:1019b000310798003e0090008000eb0055fc0700c6
:1019c00002002000a3472400d0fb07000001be0056
:1019d0000000200001f82300ccfb0700008fbe00b0
:1019e0001e01be004e4090001dfd07000080fa0061
:1019f000000006000800fa004047980031079800f0
:101a00003e0090008000eb0042fc070002402200f4
:101a100043972400bdfb07000001be00000020002a
:101a200001f82300b9fb0700008fbe001e01be00b5
:101a30004e4090000afd07000080fa0000000600fa
:101a40000200fa00004f7800114798001e80fb004a
:101a5000e20f50001e003200e20f500005003c0073
:101a60000000e00008003200e10f50000f003200db
:101a700032003700e30f50001e003200e40f500028
:101a8000250032002d0037001e4090000080fb0032
:101a90004f00dd0022088000f1ff27008100610077
:101aa0000100700020088800240037001e409000cc
:101ab0000080fb004f00dd0082088000f1ff27005e
:101ac0008100610001007000800888001b00370061
:101ad0001e4090000080fb004f00dd009208800057
:101ae000f1ff27008100610001007000900888006c
:101af000120037001e4090000080fb004f00dd0008
:101b0000f2088000f1ff27008100610001007000f1
:101b1000f0088800090037001e4090000080fb009c
:101b20004f00dd0002098000f1ff27008100610005
:101b30000100700000098800000000000080fa0029
:101b4000000006000a00fa00004f78001207980013
:101b50002307980031079800044f98008040eb005d
:101b60001e407800b6ff07001e019000ae019000f5
:101b70001e407800bafc0700be0090001e407800ae
:101b800075ff07008e4890001e407800acff0700ec
:101b90000080fa00000006000c00fa00004f7800f8
:101ba000120798002307980031079800044f980007
:101bb000154f9800264f98008040eb001e4078009b
:101bc0009fff07001e019000ae0190001e407800ac
:101bd000a3fc0700be0090001e4078005eff0700d7
:101be0001e4990008e4890001e407800defe0700df
:101bf000ae4890001e40780091ff07000080fa0078
:101c0000000006000c00fa00ff020700ce020700e9
:101c1000f60207009002070016c0b30035c0b300fb
:101c200014c0b30041f5200002002400c361240069
:101c300010c0b300d8ff070016c0b30055c0b300f2
:101c400014c0b300a1f5200002002000a33f24002f
:101c500020c0b300d0ff070016c0b30065c0b300ba
:101c600014c0b30041ff200002002000a34724005d
:101c700030c0b300c8ff070027030700c4e2a80074
:101c8000c542a80050168000680060000000e00017
:101c900003003a006000b800f0418800014288006b
:101ca000a10207000004e0002a003200a20207009f
:101cb00099020700000f78001e00780010007800dd
:101cc000100798001e80e800100078002007980098
:101cd0009e00780064804000100078003007980073
:101ce0009e00780066804000100078004007980051
:101cf0009e0078006880400010007800500798002f
:101d00003e0090008000eb0082fb070002002000f4
:101d1000a3df2300d4fb0700304188004141880045
:101d20004e0090008000eb007afb070002002800c4
:101d300023ea2300ccfb0700504188006141880062
:101d400050418000614180000001be0020c0b3000e
:101d500043fc0700c0408000e20f50002600320024
:101d6000e20f500005003e000000e00008003200d5
:101d7000e10f50000700320049003700e30f500028
:101d80003c003200e40f50002700320044003700ce
:101d90004400370092418000a34180001041800040
:101da0002141800002014000838148007041800091
:101db00081418000800f5100818f59000d003e004d
:101dc000704180008141800090418800a1418800dd
:101dd000c542a80010c0b3003ce8b700c522a80067
:101de00011c0b30020c0b30015ff07002000200081
:101df000c04088002b00370036c8bf000004e00058
:101e000008003200c542a9003668ef00704180002a
:101e10008141800090418800a1418800400020005d
:101e2000c04088001f00370092418000a34180001d
:101e3000f0408000014180000201400083814800a1
:101e40007041800081418000800f5100818f5900d6
:101e500007003e003c68ef00c522a90011c0b30096
:101e600020c0b300f6fe070030002000c04088000c
:101e70000c00370037c8bf000004e0000700320044
:101e80003768ef00704180008141800090418800f8
:101e9000a141880010002000c040880001003700e8
:101ea0000000000077ff37000000fa000080fa0011
:101eb000000006000000fa00881f7800211680004c
:101ec000000820000080600000f0a7000000ea0089
:101ed0000000e9004f00de00004078000080fb00b9
:101ee000610060004700dd0022168000f1f72f003e
:101ef0008100610001007000201688003cc8bf000e
:101f0000e14f50001b003a008d020700f0418000b5
:101f1000014280000200200003f823001efa07009f
:101f2000f041880001428800f441800005428000b1
:101f3000304180004141800018c0b3000001be0064
:101f40000400be00b5fa07000000e00001003d00fb
:101f50000044eb000804e0002000320010c0b30091
:101f600036e8b7008040eb0020c0b300b4fe0700a5
:101f70001a00370072020700f04180000142800021
:101f80000200200003f8230002fa0700f041880055
:101f900001428800f441800005428000c041800079
:101fa000d141800018c0b3000001be000400be0093
:101fb00098fa07000000e000010034000044eb0044
:101fc0000804e0000500320010c0b30037e8b70095
:101fd0008040eb0020c0b30099fe07004f0478005a
:101fe0000080fa00000006000000fa007041800046
:101ff0008141800061004000e0804800704188001d
:1020000081418800c00107000080fa00000006003e
:102010000400fa00008fbe000080fa0000000600f5
:102020000400fa00881f7800008fbe00050037000a
:1020300002002000433b24001e00be00d5f907002b
:10204000008fbe0018c0b3000200200043332400fc
:102050001e00be0071fa07000000e00001003c0015
:102060000044eb000804e000f1ff3a0005003700ef
:1020700002002000433b24001e00be00c6f90700fa
:10208000008fbe0018c0b3000200200043332c00b4
:102090001e00be005ffa07000000e00001003500ee
:1020a0000044eb000804e000f1ff3a001e00be000f
:1020b0004f0478000080fa00000006000400fa00d7
:1020c000881f7800008fbe0018c0b3006011b800f0
:1020d0001e00be0051fa07000000e00001003d00b4
:1020e0000044eb000804e000020032001e00be00c5
:1020f000020037001e00be0001f0a2004f0478006d
:102100000080fa00000006000800fa00881f78002e
:10211000008fbe00220798003307980018c0b30054
:102120002e019000be0190001e00be003bfa070089
:102130000000e00001003c000044eb000804e00067
:10214000020032001e00be00020037002e00900088
:10215000be0090004f0478000080fa0000000600e6
:102160000800fa00881f7800008fbe002207980040
:102170003307980018c0b3002e019000be019000f4
:102180001e00be0023fa07000000e0000100350039
:102190000044eb000804e000020032001e00be0014
:1021a000020037002e009000be0090004f0478001f
:1021b0000080fa00000006000400fa00881f780082
:1021c000008fbe0005003700b2fd2000930c2400f4
:1021d0001e00be006ff90700008fbe0018c0b300dc
:1021e000b2fd2000930424001e00be000bfa07007d
:1021f0000000e00001003c000044eb000804e000a7
:10220000f1ff3a0005003700b2fd2000930c2400d6
:102210001e00be0060f90700008fbe0018c0b300aa
:10222000b2fd200093042c001e00be00f9f9070047
:102230000000e000010035000044eb000804e0006d
:10224000f1ff3a001e00be004f0478000080fa0043
:10225000000006000400fa00881f7800008fbe000e
:1022600005003700b2fd2000930424001e00be00cc
:1022700048f90700008fbe0018c0b300b2fd20006f
:1022800093fc23001e00be00e4f907000000e000fc
:1022900001003c000044eb000804e000f1ff3a00bc
:1022a00005003700b2fd2000930424001e00be008c
:1022b00039f90700008fbe0018c0b300b2fd20003e
:1022c00093fc2b001e00be00d2f907000000e000c6
:1022d000010035000044eb000804e000f1ff3a0083
:1022e0001e00be004f0478000080fa0000000600c7
:1022f0000c00fa00881f7800008fbe0022079800ab
:1023000033079800440798005507980018c0b30099
:102310004e019000de0190001e00be00bff90700d4
:102320000000e00001003c000044eb000804e00075
:10233000040032004e019000de019000028fbe00ca
:102340000d00370018c0b3002e019000be019000b0
:102350001e00be00aff907000000e00001003500dc
:102360000044eb000804e000030032002e0190005e
:10237000be019000028fbe001e00be004f04780018
:102380000080fa00000006000400fa00008fbe0082
:10239000b2fd2000930424001e00be005bf907007c
:1023a00002002000433324002ffa07000080fa00c7
:1023b000000006000400fa00008fbe00b2fd2000fd
:1023c000930424001e00be0027fa0700020020002c
:1023d000433324004df907000080fa000000060096
:1023e0000000fa00010e8000c0ff2f000080600096
:1023f000000e8800010e800030ff2f00008060007a
:10240000000e8800010e8000f0f02f0000806000b8
:10241000000e8800803e2000200e8800c901a80020
:10242000c921a800c941a800ca41a800d521a80017
:10243000d501a800d561a800d541a800d5a1a80064
:10244000d581a800c1e1a8000080fa0000000600c4
:102450000000fa00012e8000c0ff2f000080600005
:10246000002e8800002e8000c000b300002e8800df
:10247000012e8000f0f02f0000806000002e880008
:10248000409c2000202e8800c905a800ca45a8004d
:10249000d525a800d505a800c1e5a8000080fa0050
:1024a000000006000400fa00008fbe0002002000b9
:1024b000832c24001e00be0029ff0700008fbe00f1
:1024c00002002000832c2c001e00be000eff07001f
:1024d000008fbe001e01be00a2408800b3408800ed
:1024e0000080fa00000006000000fa00881f780053
:1024f00020032000c00e8800a0408000b140800072
:1025000018c0b3006011b80044f907000000e000f3
:1025100001003c000044eb000804e000030032002e
:10252000c522a900c8a1a80002003700c522a80042
:10253000c8a1a800a0408000b14080000200200097
:10254000831c2400c8f907000001be00000024001d
:10255000c15124008ff8070053f9070000007800ec
:10256000202e88004f0478000080fa00000006004a
:102570000600fa00008fbe004247980002002000cb
:10258000832c24001e00be00f5fe0700008fbe0055
:1025900002002000832c2c001e00be00dafe070083
:1025a000008fbe004e4090000000fb00e10f500085
:1025b00005003a001e01be0082408800934088005a
:1025c0000000000001003700000000000080fa0059
:1025d000000006000000fa00881f7800804080009c
:1025e0009140800018c0b3006011b8000bf90700db
:1025f0000000e00001003c000044eb000804e000a3
:1026000003003200c801a900c881a80002003700f9
:10261000c881a900c801a8008040800091408000c6
:10262000a6fe07000001be0000002000812c24004f
:1026300058f8070002002000031a24008af9070056
:1026400019f9070000007800b00e88004f047800e8
:102650000080fa00000006000000fa0021e3a90053
:102660002143a80001198000f0cf2f0000806000f6
:10267000001988002043a90001198000000e2000e5
:10268000010070000019880011198000f0ff21007e
:1026900000806000101988002343a80011198000f1
:1026a00030fc2f00008060000040a000101988005e
:1026b00025e3a9002119800000f02100010070002d
:1026c0002019880010c0b30024e3b7002c03a90030
:1026d0002c23a9002cc3a9002ce3a9002d03a900d9
:1026e0003003a8003023a80030c3a80030e3a800be
:1026f0003103a80085a0a90095a0a80021e3a800a7
:102700000080fa00000006000000fa002023a80064
:102710000080fa00000006000000fa00e0842000bb
:102720000080fa00000006000000fa0043c8bf0065
:102730000080fa00000006000000fa004368ef0085
:102740000080fa00000006000000fa000080eb00a4
:1027500060198800c0e2a900c122a900c142a900f5
:10276000c8a2a900d0c2a900d0e2a900c842a8000e
:10277000c862a800d002a800d022a800d042a800b9
:1027800011000700b136800000fe2f0000806000bd
:102790002001b300b0368800020007000080fa0074
:1027a000000006000000fa002174200062042000ee
:1027b00073052000824878008348780042c7a8004b
:1027c0000080fa00000006000000fa0021742000da
:1027d0006204200073052000824878008348780056
:1027e00042c7a9000080fa00000006000000fa00bd
:1027f00060c0a90068c0a80060e0a90068e0a80067
:102800000080fa00000006000000fa00200120000d
:10281000303a8800213a800000fe2f0000806000de
:102820000010a000203a8800213a8000f0f32f0029
:1028300000806000203a88003200200080072000dd
:10284000a109200033742000804978008149780074
:1028500082497800120020006004200071052000e9
:1028600023742000804978008149780082497800eb
:1028700000000000113a8000000027008080600006
:1028800000002300808f5000faff3a000000000093
:10289000113a800000022000008060000000e0008b
:0c28a000fbff32000080fa000000060080
:020000040000fa
:1028ac002e080000140000000000000018080000b2
:1028bc0016000000020000000100000000004000b3
:1028cc00e803000000e8030000000000007a440068
:1028dc000080a20044000000000800001800000066
:1028ec0000000000440800000a0000000000000086
:1028fc004e0800000a000000000000004208000022
:0c290c00020000000000000000000000bd
:020000040000fa
:102918000000fa008461a900210c800080ff2f00cc
:1029280000806000200c8800a0002000100c8800a7
:102938000080fa00000006000000fa00210c800068
:1029480080ff2f00008060000010a000200c88008d
:082958000080fa0000000600f7
:020000040000fa
:0200000401f009
:04000800ffff0000f6
:020000040000fa
:0200000401f009
:04000c008000000070
:020000040000fa
:0200000401f009
:0400100042000000aa
:020000040000fa
:0200000401f009
:040014005f00000089
:020000040000fa
:0200000401f009
:04001800f7000000ed
:020000040000fa
:0200000401f009
:04001c00dfff000002
:00000001FF
