:020000040000fa
:080000000002040000000000f2
:020000040000fa
:040008009c03000055
:020000040000fa
:04000c009c03000051
:020000040000fa
:040010009c0300004d
:020000040000fa
:040014009c03000049
:020000040000fa
:040018009c03000045
:020000040000fa
:04001c009c03000041
:020000040000fa
:040020009c0300003d
:020000040000fa
:040024009c03000039
:020000040000fa
:040028009c03000035
:020000040000fa
:04002c009c03000031
:020000040000fa
:040030009c0300002d
:020000040000fa
:04003400c8020000fe
:020000040000fa
:040038009c03000025
:020000040000fa
:04003c009c03000021
:020000040000fa
:040040009c0300001d
:020000040000fa
:04004400fe020000b8
:020000040000fa
:040048007c03000035
:020000040000fa
:04004c009c03000011
:020000040000fa
:040050009c0300000d
:020000040000fa
:040054009c03000009
:020000040000fa
:040058009c03000005
:020000040000fa
:04005c009c03000001
:020000040000fa
:040060009c030000fd
:020000040000fa
:040064009c030000f9
:020000040000fa
:040068009c030000f5
:020000040000fa
:04006c009c030000f1
:020000040000fa
:040070009c030000ed
:020000040000fa
:040074009c030000e9
:020000040000fa
:040078009c030000e5
:020000040000fa
:04007c009c030000e1
:020000040000fa
:040080009c030000dd
:020000040000fa
:040084009c030000d9
:020000040000fa
:040088009c030000d5
:020000040000fa
:04008c009c030000d1
:020000040000fa
:040090009c030000cd
:020000040000fa
:0400940084030000e1
:020000040000fa
:040098009c030000c5
:020000040000fa
:04009c009c030000c1
:020000040000fa
:0400a0009c030000bd
:020000040000fa
:0400a4009c030000b9
:020000040000fa
:0400a8009c030000b5
:020000040000fa
:0400ac009c030000b1
:020000040000fa
:0400b0009c030000ad
:020000040000fa
:0400b4009c030000a9
:020000040000fa
:0400b8009c030000a5
:020000040000fa
:0400bc009c030000a1
:020000040000fa
:0400c0009c0300009d
:020000040000fa
:0400c4009c03000099
:020000040000fa
:0400c8009c03000095
:020000040000fa
:0400cc009c03000091
:020000040000fa
:0400d0009c0300008d
:020000040000fa
:0400d4009c03000089
:020000040000fa
:0400d8009c03000085
:020000040000fa
:0400dc009c03000081
:020000040000fa
:0400e0009c0300007d
:020000040000fa
:0400e4009c03000079
:020000040000fa
:0400e8009c03000075
:020000040000fa
:0400ec009c03000071
:020000040000fa
:0400f0009c0300006d
:020000040000fa
:0400f4009c03000069
:020000040000fa
:0400f8009c03000065
:020000040000fa
:0400fc009c03000061
:020000040000fa
:040100009c0300005c
:020000040000fa
:040104009c03000058
:020000040000fa
:040108009c03000054
:020000040000fa
:04010c009c03000050
:020000040000fa
:040110009c0300004c
:020000040000fa
:040114009c03000048
:020000040000fa
:040118009c03000044
:020000040000fa
:04011c009c03000040
:020000040000fa
:040120009c0300003c
:020000040000fa
:040124009c03000038
:020000040000fa
:040128009c03000034
:020000040000fa
:04012c009c03000030
:020000040000fa
:040130009c0300002c
:020000040000fa
:040134009c03000028
:020000040000fa
:040138009c03000024
:020000040000fa
:04013c009c03000020
:020000040000fa
:040140009c0300001c
:020000040000fa
:040144009c03000018
:020000040000fa
:040148009c03000014
:020000040000fa
:04014c009c03000010
:020000040000fa
:040150009c0300000c
:020000040000fa
:040154009c03000008
:020000040000fa
:040158009c03000004
:020000040000fa
:04015c009c03000000
:020000040000fa
:040160009c030000fc
:020000040000fa
:040164009c030000f8
:020000040000fa
:040208009c03000053
:020000040000fa
:04020c009c0300004f
:020000040000fa
:040210009c0300004b
:020000040000fa
:040214009c03000047
:020000040000fa
:040218009c03000043
:020000040000fa
:04021c009c0300003f
:020000040000fa
:040220009c0300003b
:020000040000fa
:040224009c03000037
:020000040000fa
:040228009c03000033
:020000040000fa
:04022c009c0300002f
:020000040000fa
:040230009c0300002b
:020000040000fa
:040234009c03000027
:020000040000fa
:040238009c03000023
:020000040000fa
:04023c009c0300001f
:020000040000fa
:040240009c0300001b
:020000040000fa
:040244009c03000017
:020000040000fa
:040248009c03000013
:020000040000fa
:04024c009c0300000f
:020000040000fa
:040250009c0300000b
:020000040000fa
:040254009c03000007
:020000040000fa
:040258009c03000003
:020000040000fa
:04025c009c030000ff
:020000040000fa
:040260009c030000fb
:020000040000fa
:040264009c030000f7
:020000040000fa
:040268009c030000f3
:020000040000fa
:04026c009c030000ef
:020000040000fa
:040270009c030000eb
:020000040000fa
:040274009c030000e7
:020000040000fa
:040278009c030000e3
:020000040000fa
:04027c009c030000df
:020000040000fa
:040280009c030000db
:020000040000fa
:040284009c030000d7
:020000040000fa
:040288009c030000d3
:020000040000fa
:04028c009c030000cf
:020000040000fa
:040290009c030000cb
:020000040000fa
:040294009c030000c7
:020000040000fa
:040298009c030000c3
:020000040000fa
:04029c009c030000bf
:020000040000fa
:0402a0009c030000bb
:020000040000fa
:0402a4009c030000b7
:020000040000fa
:0402a8009c030000b3
:020000040000fa
:0402ac009c030000af
:020000040000fa
:0402b0009c030000ab
:020000040000fa
:0402b4009c030000a7
:020000040000fa
:0402b8009c030000a3
:020000040000fa
:0402bc009c0300009f
:020000040000fa
:0402c0009c0300009b
:020000040000fa
:0402c4009c03000097
:020000040000fa
:0402c8009c03000093
:020000040000fa
:0402cc009c0300008f
:020000040000fa
:0402d0009c0300008b
:020000040000fa
:0402d4009c03000087
:020000040000fa
:0402d8009c03000083
:020000040000fa
:0402dc009c0300007f
:020000040000fa
:0402e0009c0300007b
:020000040000fa
:0402e4009c03000077
:020000040000fa
:0402e8009c03000073
:020000040000fa
:0402ec009c0300006f
:020000040000fa
:0402f0009c0300006b
:020000040000fa
:0402f4009c03000067
:020000040000fa
:0402f8009c03000063
:020000040000fa
:0402fc009c0300005f
:020000040000fa
:040300009c0300005a
:020000040000fa
:040304009c03000056
:020000040000fa
:040308009c03000052
:020000040000fa
:04030c009c0300004e
:020000040000fa
:040310009c0300004a
:020000040000fa
:040314009c03000046
:020000040000fa
:040318009c03000042
:020000040000fa
:04031c009c0300003e
:020000040000fa
:040320009c0300003a
:020000040000fa
:040324009c03000036
:020000040000fa
:040328009c03000032
:020000040000fa
:04032c009c0300002e
:020000040000fa
:040330009c0300002a
:020000040000fa
:040334009c03000026
:020000040000fa
:040338009c03000022
:020000040000fa
:04033c009c0300001e
:020000040000fa
:040340009c0300001a
:020000040000fa
:040344009c03000016
:020000040000fa
:040348009c03000012
:020000040000fa
:04034c009c0300000e
:020000040000fa
:040350009c0300000a
:020000040000fa
:040354009c03000006
:020000040000fa
:040358009c03000002
:020000040000fa
:04035c009c030000fe
:020000040000fa
:040360009c030000fa
:020000040000fa
:040364009c030000f6
:020000040000fa
:100400000f8320000e7f24000e01880000000000f2
:10041000000020000000e000020032000001200087
:100420002002880014000700c50007000000e0005b
:1004300003003a00e0e6200001002000020037003f
:100440000000200001002000810f70000100320038
:1004500014000700000020000000e000020032004d
:100460000000020000000000540e02000000000026
:100470000040da000000fe004440a9000000200017
:100480000000e0000300320000002000a00188000e
:100490004440a800000006008a1f78008b1f7800e7
:1004a0000000060091018800800478000000eb0045
:1004b0001a003700e284440032a0b4009905ba0063
:1004c000e284440032a0b4009906ba00e2844400f9
:1004d00032a0b4000006eb00476fde00fd07b2005b
:1004e000636ce10003003a00ebff07000000eb0043
:1004f0000a003700606ce10004003a00005deb0088
:100500008b05e900fdff3e00040037006168e10053
:10051000010032000086eb000b00070019c7ba008b
:100520001905ba000e04e00003003a000a00e000da
:10053000e0ff3a0000000600fe07b2009e018800be
:100540008a047800f5ff3700395dba008b05e900b1
:100550000c003200295dba008b05e900080032006a
:100560000c00e00003003a00e284440032a0b40032
:10057000f5ff370019ddba008b05e900faff3a00f4
:100580008904e800e184440032a0b40000000600c1
:100590003600f800809fbe00829fbe00849fbe0090
:1005a000869fbe000000fa008460a9000041800020
:1005b0000000e8000041880000418000e90f500081
:1005c000070034002028ef00c0408000d1408000a8
:1005d0000200200003f023005b000700e404070092
:1005e0000080fa004f03be004f02be004f01be0064
:1005f0004f00be003600f900004006003600f8004b
:10060000809fbe00829fbe00849fbe00869fbe006a
:10061000881f78000000fa0084e0a900e5040700c4
:1006200030418000414180000200200003f8230097
:100630004500070030418800414188003441800076
:1006400045418000e0408000f140800018c0b300c8
:100650000001be000400be00dc0007000000e00056
:1006600001003c000044eb000804e0001a003200e6
:10067000304180004141800002002000a347240057
:10068000d00007000000e00013003a006000b8004e
:100690003041880041418800211680000020200060
:1006a0000080600000f0a7000000ea000000e90000
:1006b0004f00de00004078000080fb006100600019
:1006c0004900dd0022168000f1df2f00810061006b
:1006d00001007000201688000080fa004f047800a6
:1006e0004f03be004f02be004f01be004f00be00d0
:1006f0003600f900004006000000fa008500a9005d
:100700000080fa0000400600809fbe000000fa0052
:100710008760a90050418000614180006100400075
:10072000e080480050418800614188000080fa0064
:100730004f00be00004006000040da000000fe004e
:100740000000050003f0a200889fbe008a9fbe0043
:100750008c1f7800160107001d0133006450e10072
:100760004f0032006420e1005200320003826c002e
:1007700007003b000905d0000306d000820f54009b
:100780000c065d0002003900020032008901780089
:10079000030678008582550004003d000003fd003b
:1007a0008103fd008502ea008b854200840f720000
:1007b00002003b0060001000e08018006011b800eb
:1007c0000005eb007a28e1000a00390006007800f5
:1007d000c75ddd00f707b200878075002d00370088
:1007e000828171000a017800610560008180d1007a
:1007f0000080d3008502e900f9ff3b0006044000b9
:100800008784480002003b0060041400e0841c0060
:100810000988a300070032008a817100828171007b
:10082000610164008904d1000884d3008b05e800cd
:10083000170037000978a30013003a000b00e0000e
:10084000130034008b05e9000804440089844c003f
:100850000a4474000978a3000d003a000b00e00080
:10086000070034008b05e9000804440089844c002b
:1008700001003a000b0020000978a300f7ff3200c6
:100880000001eb0002003700828171000a0178004c
:100890008c0007000cf0a70001f0a000d500370085
:1008a0006420e10002003a00838f6c00d500330021
:1008b0000801be000200be00ce003700889fbe00c7
:1008c0008a9fbe008c1f7800b9000700c00033006b
:1008d00003866c006450e1002e0032006420e100c9
:1008e000330032006150e1002f0032006120e1004e
:1008f0003100320085855500eb07b000090020006b
:1009000008042000050037000804440089844c00d6
:100910000a0031000603430087834b0000015300a7
:1009200081815b00f8ff33000203be000800a000d5
:100930000804440089844c00f6ff3900c639dd0004
:100940008301730001003200130020008904d100ec
:100950000884d3000998a300050032000800a7000e
:100960000300a0008904d1000884d3008b05e800af
:100970008904d1000884d3000001eb000281d20079
:100980005000070001f0a1000cf0a70001f0a0004a
:10099000980037006420e1009a0032000801be0090
:1009a0000200be00f7ff37006120e1009500320031
:1009b0006000b800f3ff37000000200001f82700b6
:1009c000f0ff370014002000c5003700f4ff2f00af
:1009d000c30037000001be00600007000470a700dc
:1009e00003f0a1006509b100160032000d003500ca
:1009f0006828e10006003500f0ff2f00f1ff270016
:100a00000300e00013003b00010028000000050087
:100a100000004000818048008502e900fcff3a00a8
:100a200008003700f88f420002003c008000eb0015
:100a3000000005008100d1000080d3008502e8009d
:100a4000fcff3a000300e00002003b0060001000e1
:100a5000e0801800000006000001be003f00070013
:100a60000470a70003f0a10003f8a30013003a00ec
:100a70006509b10010003200090035006928e10065
:100a800002003500010028000000050000004000c1
:100a9000818048008502e900fcff3a000000060062
:100aa000f88f4200050035008100d1000080d3009e
:100ab0008502e800fcff3a00000006008000eb0021
:100ac0000000050081002000618055000b003d0002
:100ad0000b00200061fe2f000100e1001d0034002a
:100ae00082817100610164008904d1000884d3000f
:100af0000000e800faff3a00710020006100640085
:100b0000030070000200600009003200610444002c
:100b1000e0844c000988a500050032008b05e80040
:100b20006808e10002003a008904d1000884d3007b
:100b3000f20f20000258e10005003d00c75ddd0016
:100b4000f907b200898075000800780000000600ef
:100b50000bf827008b00780000000500c70ade00b4
:100b6000f107b200f50fb20008003200e1cf4200f9
:100b7000020032000170a00024000500810f700007
:100b8000010032000408050044000500810f7000d8
:100b900002003a00140005008502e9000000400050
:100ba00081c04800fcff3b000170a000240005004c
:100bb0000004be00e9ff07000003be000405be00fc
:100bc0000200be00e5ff0700844f7500000006002c
:100bd0000200be006450e100050036006420e10020
:100be000020036000968a30001003a000800be00b8
:100bf0000160a0004f0678004f05be004f04be0004
:100c000000000600f0ff2f00f1ff2700f9ff37007a
:100c1000889fbe008a9fbe008c1f7800e4ff0700fb
:100c2000ebff330003866c006450e10024003200c7
:100c30006420e100270032006150e1002200320010
:100c40006120e100210032008b854200eb07b100fa
:100c50000134b800003ab8000804420089844a0010
:100c6000013ab8000030b8008880400009014a000d
:100c70000400330000004000818048000201490068
:100c80008b05e900c909dd00830170000100320015
:100c900013002000c814de004814dd004709de0000
:100ca0001200b200c808de000884700085ff07004b
:100cb00001f0a1000cf0a70001f0a000cdff37006b
:100cc0006120e100cfff32000801be000200be003b
:100cd000f7ff37006150e100fcff3a00c9ff370021
:100ce000889fbe008a9fbe00841f7800b0ff070067
:100cf0004f00780011003300f0ff2f00838f6c004d
:100d000006003b00040565000a00a7000800370044
:100d100009f0a6001000200008003700820f5400e0
:100d2000838f5c00030039001000200001003e00aa
:100d30000000200009f0a7000000ea004f05be00f7
:0c0d40004f04be000000e00000000600b0
:020000040000fa
:100d4c000000fa0005e1a90005a1a90004c1a90051
:100d5c000421a90000002000011224000500070056
:100d6c008460a9009460a80005e1a8000080fa0046
:100d7c00000006000400fa00881f7800008fbe00f7
:100d8c0021088000f0fc2f00008060002008880003
:100d9c001e01be000068290081c12400c4fe0700aa
:100dac0018c0b30002f02f00f377240004ff0700f3
:100dbc000000e00001003c000044eb000804e000ef
:100dcc004f00320021088000f0fc2f0000806000f2
:100ddc000040a000200888001e01be000068290009
:100dec0081c12400b2fe0700020020000310240081
:100dfc00affe070018c0b30002f02f00f3772400f9
:100e0c00effe07000000e00001003c000044eb0096
:100e1c000804e0002f00320021088000f0fc2f00b5
:100e2c00008060000050a000200888001e01be0059
:100e3c000068290081c124009dfe070002002000eb
:100e4c00032824009afe070018c0b30002f02f00fc
:100e5c00f3772400dafe07000000e00001003c00fc
:100e6c000044eb000804e0000f0032002108800071
:100e7c000003200001007000200888001e01be0045
:100e8c000068290081c1240089fe070002002000af
:100e9c000338240086fe0700cbfe07000000780014
:100eac00100888001d0037001e01be0000682900d4
:100ebc0081c124007efe07000200200003282400cc
:100ecc007bfe0700c0fe07000000780010088800b9
:100edc00120037001e01be000068290081c12400e9
:100eec0073fe0700020020000310240070fe0700b0
:100efc00b5fe0700000078001008880007003700d6
:100f0c001e01be000068290081c1240068fe070094
:100f1c00adfe070000007800100888004f04780030
:100f2c000080fa00000006000000fa0011e1a900a0
:100f3c0011a1a90010c1a9001021a90000002000d6
:100f4c00a14724000500070084e0a90094e0a80054
:100f5c0011e1a8000080fa00000006000400fa006d
:100f6c00881f7800008fbe0081088000f0fc2f00e5
:100f7c0000806000800888001e01be000068290007
:100f8c0081c124004afe070018c0b30002f02f00f4
:100f9c00f37724008afe07000000e00001003c000b
:100fac000044eb000804e0004f0032008108800090
:100fbc00f0fc2f00008060000040a000800888003a
:100fcc001e01be000068290081c1240038fe070004
:100fdc00020020000310240035fe070018c0b300e7
:100fec0002f02f00f377240075fe07000000e000ec
:100ffc0001003c000044eb000804e0002f0032002c
:10100c0081088000f0fc2f00008060000050a000e0
:10101c00800888001e01be000068290081c12400e0
:10102c0023fe0700020020000328240020fe0700f6
:10103c0018c0b30002f02f00f377240060fe070005
:10104c000000e00001003c000044eb000804e0005c
:10105c000f003200810880000003200001007000a6
:10106c00800888001e01be000068290081c1240090
:10107c000ffe070002002000033824000cfe0700be
:10108c0051fe070000007800600888001d00370042
:10109c001e01be000068290081c1240004fe070067
:1010ac00020020000328240001fe070046fe070072
:1010bc000000780060088800120037001e01be0096
:1010cc000068290081c12400f9fd070002002000fe
:1010dc0003102400f6fd07003bfe0700000078001b
:1010ec0060088800070037001e01be000068290058
:1010fc0081c12400eefd070033fe070000007800dc
:10110c00600888004f0478000080fa000000060098
:10111c000000fa0013e1a90013a1a90012c1a90053
:10112c001221a900000020008124240005000700e2
:10113c008500a9009500a80013e1a8000080fa0022
:10114c00000006000400fa00881f7800008fbe0023
:10115c0091088000f0fc2f0000806000900888004f
:10116c001e01be000068290081c12400d0fd0700cb
:10117c0018c0b30002f02f00f377240010fe070014
:10118c000000e00001003c000044eb000804e0001b
:10119c004f00320091088000f0fc2f0000806000ae
:1011ac000040a000900888001e01be0000682900c5
:1011bc0081c12400befd07000200200003102400a2
:1011cc00bbfd070018c0b30002f02f00f37724001a
:1011dc00fbfd07000000e00001003c000044eb00b8
:1011ec000804e0002f00320091088000f0fc2f0072
:1011fc00008060000050a000900888001e01be0016
:10120c000068290081c12400a9fd0700020020000c
:10121c0003282400a6fd070018c0b30002f02f001d
:10122c00f3772400e6fd07000000e00001003c001d
:10123c000044eb000804e0000f003200910880002d
:10124c000003200001007000900888001e01be0001
:10125c000068290081c1240095fd070002002000d0
:10126c000338240092fd0700d7fd0700000078002a
:10127c00700888001d0037001e01be0000682900a0
:10128c0081c124008afd07000200200003282400ed
:10129c0087fd0700ccfd070000007800700888006f
:1012ac00120037001e01be000068290081c1240015
:1012bc007ffd070002002000031024007cfd0700c6
:1012cc00c1fd070000007800700888000700370097
:1012dc001e01be000068290081c1240074fd0700b6
:1012ec00b9fd070000007800700888004f047800f2
:1012fc000080fa00000006000000fa001fe1a900bf
:10130c001fa1a9001ec1a9001e21a90000002000d8
:10131c00a1472400050007008760a9009760a8007a
:10132c001fe1a8000080fa00000006000400fa008b
:10133c00881f7800008fbe00f1088000f0fc2f00a1
:10134c0000806000f00888001e01be0000682900c3
:10135c0081c1240056fd070018c0b30002f02f0015
:10136c00f377240096fd07000000e00001003c002c
:10137c000044eb000804e0004f003200f10880004c
:10138c00f0fc2f00008060000040a000f0088800f6
:10139c001e01be000068290081c1240044fd070025
:1013ac00020020000310240041fd070018c0b30008
:1013bc0002f02f00f377240081fd07000000e0000d
:1013cc0001003c000044eb000804e0002f00320058
:1013dc00f1088000f0fc2f00008060000050a0009d
:1013ec00f00888001e01be000068290081c124009d
:1013fc002ffd070002002000032824002cfd07000d
:10140c0018c0b30002f02f00f37724006cfd070026
:10141c000000e00001003c000044eb000804e00088
:10142c000f003200f1088000000320000100700062
:10143c00f00888001e01be000068290081c124004c
:10144c001bfd0700020020000338240018fd0700d4
:10145c005dfd070000007800d00888001d003700f3
:10146c001e01be000068290081c1240010fd070088
:10147c0002002000032824000dfd070052fd070088
:10148c0000007800d0088800120037001e01be0052
:10149c000068290081c1240005fd0700020020001e
:1014ac000310240002fd070047fd07000000780030
:1014bc00d0088800070037001e01be000068290014
:1014cc0081c12400fafc07003ffd070000007800f2
:1014dc00d00888004f0478000080fa000000060055
:1014ec000400fa00881f7800008fbe00050037004a
:1014fc0002002000433b24001e00be008efc0700af
:10150c00008fbe0018c0b30002002000433324003b
:10151c001e00be002afd07000000e00001003c0098
:10152c000044eb000804e000f1ff3a00050037002e
:10153c0002002000433b24001e00be007ffc07007d
:10154c00008fbe0018c0b3000200200043332c00f3
:10155c001e00be0018fd07000000e0000100350071
:10156c000044eb000804e000f1ff3a001e00be004e
:10157c004f0478000080fa00000006000400fa0016
:10158c00881f7800008fbe0018c0b3006011b8002f
:10159c001e00be000afd07000000e00001003d0037
:1015ac000044eb000804e000020032001e00be0004
:1015bc00020037001e00be0001f0a2004f047800ac
:1015cc000080fa00000006000800fa00881f78006e
:1015dc00008fbe00220798003307980018c0b30094
:1015ec002e019000be0190001e00be00f4fc07000e
:1015fc000000e00001003c000044eb000804e000a7
:10160c00020032001e00be00020037002e009000c7
:10161c00be0090004f0478000080fa000000060025
:10162c000800fa00881f7800008fbe00220798007f
:10163c003307980018c0b3002e019000be01900033
:10164c001e00be00dcfc07000000e00001003500bd
:10165c000044eb000804e000020032001e00be0053
:10166c00020037002e009000be0090004f0478005e
:10167c000080fa00000006000400fa00881f7800c1
:10168c00008fbe0005003700b2fd2000930c240033
:10169c001e00be0028fc0700008fbe0018c0b3005f
:1016ac00b2fd2000930424001e00be00c4fc070001
:1016bc000000e00001003c000044eb000804e000e6
:1016cc00f1ff3a0005003700b2fd2000930c240016
:1016dc001e00be0019fc0700008fbe0018c0b3002e
:1016ec00b2fd200093042c001e00be00b2fc0700cb
:1016fc000000e000010035000044eb000804e000ad
:10170c00f1ff3a001e00be004f0478000080fa0082
:10171c00000006000400fa00881f7800008fbe004d
:10172c0005003700b2fd2000930424001e00be000b
:10173c0001fc0700008fbe0018c0b300b2fd2000f2
:10174c0093fc23001e00be009dfc07000000e0007f
:10175c0001003c000044eb000804e000f1ff3a00fb
:10176c0005003700b2fd2000930424001e00be00cb
:10177c00f2fb0700008fbe0018c0b300b2fd2000c2
:10178c0093fc2b001e00be008bfc07000000e00049
:10179c00010035000044eb000804e000f1ff3a00c2
:1017ac001e00be004f0478000080fa000000060006
:1017bc000c00fa00881f7800008fbe0022079800ea
:1017cc0033079800440798005507980018c0b300d9
:1017dc004e019000de0190001e00be0078fc070058
:1017ec000000e00001003c000044eb000804e000b5
:1017fc00040032004e019000de019000028fbe000a
:10180c000d00370018c0b3002e019000be019000ef
:10181c001e00be0068fc07000000e000010035005f
:10182c000044eb000804e000030032002e0190009d
:10183c00be019000028fbe001e00be004f04780057
:10184c000080fa00000006000400fa00008fbe00c1
:10185c00b2fd2000930424001e00be0014fc0700ff
:10186c000200200043332400e6fc07000080fa004d
:10187c00000006000400fa00008fbe00b2fd20003c
:10188c00930424001e00be00defc070002002000b2
:10189c004333240006fc07000080fa000000060019
:1018ac000000fa00010e8000c0ff2f0000806000d5
:1018bc00000e8800010e800030ff2f0000806000b9
:1018cc00000e8800010e8000f0f02f0000806000f8
:1018dc00000e8800803e2000200e8800c901a80060
:1018ec00c921a800c941a800ca41a800d521a80057
:1018fc00d501a800d561a800d541a800d5a1a800a4
:10190c00d581a800c1e1a8000080fa000000060003
:10191c000000fa00012e8000c0ff2f000080600044
:10192c00002e8800002e8000c000b300002e88001e
:10193c00012e8000f0f02f0000806000002e880047
:10194c00409c2000202e8800c905a800ca45a8008c
:10195c00d525a800d505a800c1e5a8000080fa008f
:10196c00000006000400fa00008fbe0002002000f8
:10197c00832c24001e00be0029ff0700008fbe0030
:10198c0002002000832c2c001e00be000eff07005e
:10199c00008fbe001e01be00a2408800b34088002c
:1019ac000080fa00000006000000fa00881f780092
:1019bc0020032000c00e8800a0408000b1408000b1
:1019cc0018c0b3006011b800fdfb07000000e00078
:1019dc0001003c000044eb000804e000030032006e
:1019ec00c522a900c8a1a80002003700c522a80082
:1019fc00c8a1a800a0408000b140800002002000d7
:101a0c00831c24007ffc07000001be0000002400a2
:101a1c00c151240048fb07000cfc070000007800b3
:101a2c00202e88004f0478000080fa000000060089
:101a3c000600fa00008fbe0042479800020020000a
:101a4c00832c24001e00be00f5fe0700008fbe0094
:101a5c0002002000832c2c001e00be00dafe0700c2
:101a6c00008fbe004e4090000000fb00e10f5000c4
:101a7c0005003a001e01be00824088009340880099
:101a8c000000000001003700000000000080fa0098
:101a9c00000006000000fa00881f780080408000db
:101aac009140800018c0b3006011b800c4fb07005f
:101abc000000e00001003c000044eb000804e000e2
:101acc0003003200c801a900c881a8000200370039
:101adc00c881a900c801a800804080009140800006
:101aec00a6fe07000001be0000002000812c24008f
:101afc0011fb070002002000031a240041fc070020
:101b0c00d2fb070000007800b00e88004f0478006c
:101b1c000080fa00000006000000fa0020012000fe
:101b2c00303a8800213a800000fe2f0000806000cf
:101b3c000010a000203a8800213a8000f0f32f001a
:101b4c0000806000203a88003200200080072000ce
:101b5c00a109200033742000804978008149780065
:101b6c0082497800120020006004200071052000da
:101b7c0023742000804978008149780082497800dc
:101b8c0000000000113a80000000270080806000f7
:101b9c0000002300808f5000faff3a000000000084
:101bac00113a800000022000008060000000e0007c
:101bbc00fbff32000080fa00000006000000fa0073
:101bcc000080eb0060198800c0e2a900c122a900c6
:101bdc00c142a900c842a800c862a800c8a2a900b6
:101bec00d0c2a900d0e2a90011000700b1368000d4
:101bfc0000fe2f00008060002001b300b03688008a
:101c0c00020007000080fa00000006000000fa0045
:101c1c0021742000620420007305200082487800a3
:101c2c008348780042c7a8000080fa000000060034
:101c3c000000fa00217420006204200073052000cb
:101c4c00824878008348780042c7a9000080fa00d7
:101c5c00000006000000fa008461a900210c80003d
:101c6c0080ff2f0000806000200c880040062000c0
:101c7c00100c88000080fa00000006000000fa003a
:101c8c00210c800080ff2f00008060000010a0005d
:101c9c00200c88000080fa00000006000000fa000a
:101cac009dff0700c5ff070025fc07009efc0700f1
:101cbc00fbfe070016ff0700c4e2a800c542a800ff
:101ccc00ffff37000000fa000080fa000000060059
:020000040000fa
:101cdc002e0800000200000002000000c8000000f6
:101cec0018080000160000000000000000080000aa
:0c1cfc00180000000000000000000000c4
:020000040000fa
:0200000401f009
:04000800ffff0000f6
:020000040000fa
:0200000401f009
:04000c008000000070
:020000040000fa
:0200000401f009
:0400100042000000aa
:020000040000fa
:0200000401f009
:040014005f00000089
:020000040000fa
:0200000401f009
:04001800f7000000ed
:020000040000fa
:0200000401f009
:04001c00dfff000002
:00000001FF
