:020000040000fa
:080000000002040000000000f2
:020000040000fa
:0400080044040000ac
:020000040000fa
:04000c0044040000a8
:020000040000fa
:0400100044040000a4
:020000040000fa
:0400140044040000a0
:020000040000fa
:04001800440400009c
:020000040000fa
:04001c004404000098
:020000040000fa
:040020004404000094
:020000040000fa
:040024004404000090
:020000040000fa
:04002800440400008c
:020000040000fa
:04002c004404000088
:020000040000fa
:040030004404000084
:020000040000fa
:04003400d4020000f2
:020000040000fa
:04003800440400007c
:020000040000fa
:04003c004404000078
:020000040000fa
:040040004404000074
:020000040000fa
:04004400fa020000bc
:020000040000fa
:040048002003000091
:020000040000fa
:04004c004404000068
:020000040000fa
:040050004404000064
:020000040000fa
:04005400c4030000e1
:020000040000fa
:040058001c04000084
:020000040000fa
:04005c00920300000b
:020000040000fa
:040060004404000054
:020000040000fa
:040064004404000050
:020000040000fa
:04006800440400004c
:020000040000fa
:04006c004404000048
:020000040000fa
:040070004404000044
:020000040000fa
:040074004404000040
:020000040000fa
:04007800440400003c
:020000040000fa
:04007c004404000038
:020000040000fa
:040080004404000034
:020000040000fa
:040084004404000030
:020000040000fa
:04008800440400002c
:020000040000fa
:04008c004404000028
:020000040000fa
:040090004404000024
:020000040000fa
:04009400460300001f
:020000040000fa
:040098006c030000f5
:020000040000fa
:04009c004404000018
:020000040000fa
:0400a0004404000014
:020000040000fa
:0400a4004404000010
:020000040000fa
:0400a800440400000c
:020000040000fa
:0400ac004404000008
:020000040000fa
:0400b0004404000004
:020000040000fa
:0400b4004404000000
:020000040000fa
:0400b80044040000fc
:020000040000fa
:0400bc0044040000f8
:020000040000fa
:0400c00044040000f4
:020000040000fa
:0400c40044040000f0
:020000040000fa
:0400c80044040000ec
:020000040000fa
:0400cc0044040000e8
:020000040000fa
:0400d00044040000e4
:020000040000fa
:0400d40044040000e0
:020000040000fa
:0400d80044040000dc
:020000040000fa
:0400dc0044040000d8
:020000040000fa
:0400e00044040000d4
:020000040000fa
:0400e40044040000d0
:020000040000fa
:0400e80044040000cc
:020000040000fa
:0400ec0044040000c8
:020000040000fa
:0400f00044040000c4
:020000040000fa
:0400f40044040000c0
:020000040000fa
:0400f80044040000bc
:020000040000fa
:0400fc0044040000b8
:020000040000fa
:0401000044040000b3
:020000040000fa
:0401040044040000af
:020000040000fa
:0401080044040000ab
:020000040000fa
:04010c0044040000a7
:020000040000fa
:0401100044040000a3
:020000040000fa
:04011400440400009f
:020000040000fa
:04011800440400009b
:020000040000fa
:04011c004404000097
:020000040000fa
:040120004404000093
:020000040000fa
:04012400440400008f
:020000040000fa
:04012800440400008b
:020000040000fa
:04012c00f2030000da
:020000040000fa
:040130004404000083
:020000040000fa
:04013400440400007f
:020000040000fa
:04013800440400007b
:020000040000fa
:04013c004404000077
:020000040000fa
:040140004404000073
:020000040000fa
:04014400440400006f
:020000040000fa
:04014800440400006b
:020000040000fa
:04014c004404000067
:020000040000fa
:040150004404000063
:020000040000fa
:04015400440400005f
:020000040000fa
:04015800440400005b
:020000040000fa
:04015c004404000057
:020000040000fa
:040160004404000053
:020000040000fa
:04016400440400004f
:020000040000fa
:0402080044040000aa
:020000040000fa
:04020c0044040000a6
:020000040000fa
:0402100044040000a2
:020000040000fa
:04021400440400009e
:020000040000fa
:04021800440400009a
:020000040000fa
:04021c004404000096
:020000040000fa
:040220004404000092
:020000040000fa
:04022400440400008e
:020000040000fa
:04022800440400008a
:020000040000fa
:04022c004404000086
:020000040000fa
:040230004404000082
:020000040000fa
:04023400440400007e
:020000040000fa
:04023800440400007a
:020000040000fa
:04023c004404000076
:020000040000fa
:040240004404000072
:020000040000fa
:04024400440400006e
:020000040000fa
:04024800440400006a
:020000040000fa
:04024c004404000066
:020000040000fa
:040250004404000062
:020000040000fa
:04025400440400005e
:020000040000fa
:04025800440400005a
:020000040000fa
:04025c004404000056
:020000040000fa
:040260004404000052
:020000040000fa
:04026400440400004e
:020000040000fa
:04026800440400004a
:020000040000fa
:04026c004404000046
:020000040000fa
:040270004404000042
:020000040000fa
:04027400440400003e
:020000040000fa
:04027800440400003a
:020000040000fa
:04027c004404000036
:020000040000fa
:040280004404000032
:020000040000fa
:04028400440400002e
:020000040000fa
:04028800440400002a
:020000040000fa
:04028c004404000026
:020000040000fa
:040290004404000022
:020000040000fa
:04029400440400001e
:020000040000fa
:04029800440400001a
:020000040000fa
:04029c004404000016
:020000040000fa
:0402a0004404000012
:020000040000fa
:0402a400440400000e
:020000040000fa
:0402a800440400000a
:020000040000fa
:0402ac004404000006
:020000040000fa
:0402b0004404000002
:020000040000fa
:0402b40044040000fe
:020000040000fa
:0402b80044040000fa
:020000040000fa
:0402bc0044040000f6
:020000040000fa
:0402c00044040000f2
:020000040000fa
:0402c40044040000ee
:020000040000fa
:0402c80044040000ea
:020000040000fa
:0402cc0044040000e6
:020000040000fa
:0402d00044040000e2
:020000040000fa
:0402d40044040000de
:020000040000fa
:0402d80044040000da
:020000040000fa
:0402dc0044040000d6
:020000040000fa
:0402e00044040000d2
:020000040000fa
:0402e40044040000ce
:020000040000fa
:0402e80044040000ca
:020000040000fa
:0402ec0044040000c6
:020000040000fa
:0402f00044040000c2
:020000040000fa
:0402f40044040000be
:020000040000fa
:0402f80044040000ba
:020000040000fa
:0402fc0044040000b6
:020000040000fa
:0403000044040000b1
:020000040000fa
:0403040044040000ad
:020000040000fa
:0403080044040000a9
:020000040000fa
:04030c0044040000a5
:020000040000fa
:0403100044040000a1
:020000040000fa
:04031400440400009d
:020000040000fa
:040318004404000099
:020000040000fa
:04031c004404000095
:020000040000fa
:040320004404000091
:020000040000fa
:04032400440400008d
:020000040000fa
:040328004404000089
:020000040000fa
:04032c004404000085
:020000040000fa
:040330004404000081
:020000040000fa
:04033400440400007d
:020000040000fa
:040338004404000079
:020000040000fa
:04033c004404000075
:020000040000fa
:040340004404000071
:020000040000fa
:04034400440400006d
:020000040000fa
:040348004404000069
:020000040000fa
:04034c004404000065
:020000040000fa
:040350004404000061
:020000040000fa
:04035400440400005d
:020000040000fa
:040358004404000059
:020000040000fa
:04035c004404000055
:020000040000fa
:040360004404000051
:020000040000fa
:04036400440400004d
:020000040000fa
:10040000cfbe20000e7f24000e01880000000000f7
:10041000000020000000e000020032000001200087
:100420002002880014000700190107000000e00006
:1004300003003a0080c021000100200002003700c4
:100440000000200001002000810f70000100320038
:1004500014000700000020000000e000020032004d
:100460000000020000000000241202000000000052
:100470000040da000000fe004440a9000000200017
:100480000000e0000300320000002000a00188000e
:100490004440a800000006008a1f78008b1f7800e7
:1004a0000000060091018800800478000000eb0045
:1004b0001a003700e284440032a0b4009905ba0063
:1004c000e284440032a0b4009906ba00e2844400f9
:1004d00032a0b4000006eb00476fde00fd07b2005b
:1004e000636ce10003003a00ebff07000000eb0043
:1004f0000a003700606ce10004003a00005deb0088
:100500008b05e900fdff3e00040037006168e10053
:10051000010032000086eb000b00070019c7ba008b
:100520001905ba000e04e00003003a000a00e000da
:10053000e0ff3a0000000600fe07b2009e018800be
:100540008a047800f5ff3700395dba008b05e900b1
:100550000c003200295dba008b05e900080032006a
:100560000c00e00003003a00e284440032a0b40032
:10057000f5ff370019ddba008b05e900faff3a00f4
:100580008904e800e184440032a0b40000000600c1
:100590000214040000000000081404000000000021
:1005a000a4140400000000003600f800809fbe0084
:1005b000829fbe00849fbe00869fbe000000fa009e
:1005c0008460a900c05e80000000e00002003200ec
:1005d000c05e8000000001000080fa004f03be00f2
:1005e0004f02be004f01be004f00be003600f900b2
:1005f000004006003600f800809fbe00829fbe00cb
:10060000849fbe00869fbe000000fa0084e0a9001f
:10061000d05e80000000e00002003200d05e80006a
:10062000000001000080fa004f03be004f02be0030
:100630004f01be004f00be003600f900004006002a
:100640003600f800809fbe00829fbe00849fbe00df
:10065000869fbe000000fa008500a900e05e8000d1
:100660000000e00002003200e05e800000000100b7
:100670000080fa004f03be004f02be004f01be00d3
:100680004f00be003600f900004006003600f800ba
:10069000809fbe00829fbe00849fbe00869fbe00da
:1006a0000000fa008760a900f05e80000000e00012
:1006b00002003200f05e8000000001000080fa00bd
:1006c0004f03be004f02be004f01be004f00be00f0
:1006d0003600f900004006003600f800809fbe009a
:1006e000829fbe00849fbe00869fbe000000fa006d
:1006f0008780a900005f80000000e0000200320057
:10070000005f8000000001000080fa004f03be007f
:100710004f02be004f01be004f00be003600f90080
:1007200000400600809fbe00821f78000000fa0093
:1007300085a0a9003cc8bf000080fb000118800014
:100740000001400020be20000000410001087800a8
:100750003cc8bf00e34f500004003e003cc8bf004f
:100760000040e8003ce8b700030037003c68ef00b9
:1007700010c0b3003de8b7000080fa004f017800d8
:100780004f00be00004006003600f800809fbe000b
:10079000829fbe00849fbe00869fbe000200fa00ba
:1007a0008560a9000400370030118000004f7800f8
:1007b0001e80fb00810507001011800061006000b1
:1007c0000000e000f8ff3a000080fa004f03be008e
:1007d0004f02be004f01be004f00be003600f900c0
:1007e00000400600801f78000000fa008c20a9005d
:1007f00010118000680060000000e000010032007d
:100800002262a90010118000640060000000e00076
:10081000010032002242a900101180006200600035
:100820000000e000010032002222a9000080fa004e
:100830004f007800004006003600f800809fbe00a0
:10084000829fbe00849fbe00869fbe000000fa000b
:100850008580a900b6090700e14f500002003a0068
:10086000bd090700010037002468ef000080fa008e
:100870004f03be004f02be004f01be004f00be003e
:100880003600f900004006000040da000000fe00db
:100890000000050003f0a200889fbe008a9fbe00f2
:1008a0008c1f7800180107001f0133006450e1001d
:1008b0004f0032006420e1005200320003826c00dd
:1008c00007003b000905d0000306d000820f54004a
:1008d0000c065d0002003900020032008901780038
:1008e000030678008582550004003d000003fd00ea
:1008f0008103fd008502ea008b854200840f7200af
:1009000002003b0060001000e08018006011b80099
:100910000005eb007a28e1000a00390006007800a3
:10092000c75ddd00f707b200878075002d00370036
:10093000828171000a017800610560008180d10028
:100940000080d3008502e900f9ff3b000604400067
:100950008784480002003b0060041400e0841c000f
:100960000988a300070032008a817100828171002a
:10097000610164008904d1000884d3008b05e8007c
:10098000170037000978a30013003a000b00e000bd
:10099000130034008b05e9000804440089844c00ee
:1009a0000a4474000978a3000d003a000b00e0002f
:1009b000070034008b05e9000804440089844c00da
:1009c00001003a000b0020000978a300f7ff320075
:1009d0000001eb0002003700828171000a017800fb
:1009e0008e0007000cf0a70001f0a000d700370030
:1009f0006420e10002003a00838f6c00d7003300ce
:100a00000801be000200be00d0003700889fbe0073
:100a10008a9fbe008c1f7800bb000700c200330015
:100a200003866c006450e1002e0032006420e10077
:100a3000330032006150e1002f0032006120e100fc
:100a40003100320085855500eb07b0000900200019
:100a500008042000050037000804440089844c0085
:100a60000a0031000603430087834b000001530056
:100a700081815b00f8ff33000203be000800a00084
:100a80000804440089844c00f6ff3900c639dd00b3
:100a90008301730001003200130020008904d1009b
:100aa0000884d3000998a300050032000800a700bd
:100ab0000300a0008904d1000884d3008b05e8005e
:100ac0008904d1000884d3000001eb000281d20028
:100ad0005200070001f0a1000cf0a70001f0a000f7
:100ae0009a0037006420e1009c0032000801be003b
:100af0000200be00f7ff37006120e10097003200de
:100b00006000b800f3ff37000000200001f8270064
:100b1000f0ff370014002000c7003700f4ff2f005b
:100b2000c50037000001be00620007000470a70086
:100b300003f0a1006509b100160032000d00350078
:100b40006828e10006003500f0ff2f00f1ff2700c4
:100b50000300e00013003b00010028000000050036
:100b600000004000818048008502e900fcff3a0057
:100b700008003700f88f420002003c008000eb00c4
:100b8000000005008100d1000080d3008502e8004c
:100b9000fcff3a000300e00002003b006000100090
:100ba000e0801800000006000001be0041000700c0
:100bb0000470a70003f0a10003f8a30013003a009b
:100bc0006509b10010003200090035006928e10014
:100bd0000200350001002800000005000000400070
:100be000818048008502e900fcff3a000000060011
:100bf000f88f4200050035008100d1000080d3004d
:100c00008502e800fcff3a00000006008000eb00cf
:100c1000000005006011b800a2003700810020002c
:100c2000618055000b003d000b00200061fe2f008d
:100c30000100e1001d003400828171006101640047
:100c40008904d1000884d3000000e800faff3a00cc
:100c50007100200061006400030070000200600069
:100c60000900320061044400e0844c000988a500ba
:100c7000050032008b05e8006808e10002003a0038
:100c80008904d1000884d300f20f20000258e1004b
:100c900005003d00c75ddd00f907b20089807500e1
:100ca00008007800000006000bf827008b00780091
:100cb00000000500c70ade00f107b200f50fb20020
:100cc00008003200e1cf4200020032000170a000b3
:100cd00024000500810f70000100320004080500a7
:100ce00044000500810f700002003a001400050066
:100cf0008502e9000000400081c04800fcff3b0085
:100d00000170a000240005000004be00e9ff0700f8
:100d10000003be000405be000200be00e5ff0700a0
:100d2000844f7500000006000200be006450e10020
:100d3000050036006420e100020036000968a300c7
:100d400001003a000800be000160a0004f067800d4
:100d50004f05be004f04be0000000600f0ff2f004c
:100d6000f1ff2700f9ff3700889fbe008a9fbe0071
:100d70008c1f7800e4ff0700ebff330003866c0054
:100d80006450e100240032006420e10027003200ba
:100d90006150e100220032006120e10021003200b8
:100da0008b854200eb07b1000134b800003ab8006f
:100db0000804420089844a00013ab8000030b800b3
:100dc0008880400009014a00040033000000400010
:100dd00081804800020149008b05e900c909dd0056
:100de000830170000100320013002000c814de00ef
:100df0004814dd004709de001200b200c808de001a
:100e00000884700085ff070001f0a1000cf0a70026
:100e100001f0a000cdff37006120e100cfff3200dc
:100e20000801be000200be00f7ff37006150e1007c
:100e3000fcff3a00c9ff3700889fbe008a9fbe00b2
:100e4000841f7800b0ff07004f00780011003300c6
:100e5000f0ff2f00838f6c0006003b000405650047
:100e60000a00a7000800370009f0a60010002000c3
:100e700008003700820f5400838f5c0003003900a4
:100e80001000200001003e000000200009f0a70033
:100e90000000ea004f05be004f04be000000e00065
:100ea00000000600889fbe008a9fbe00008270007e
:100eb0000402710004827100260032000004be00aa
:100ec0000200be006011b8006b09200095022000ee
:100ed0000182cf000a0039000541b1000082cf0035
:100ee000070039000541b1000982cf000400390034
:100ef0000541b1000882cf00010039000541b10071
:100f000005425200120032000a003b00828171004b
:100f1000610164008100d1000080d3008984d30086
:100f20000884d3008b05e8000442e800f7ff3a008c
:100f3000070037000804440089844c000000480082
:100f4000818048008b05e9000442e900f9ff3a007e
:100f500032ff07004f05be004f04be000000060030
:100f6000800078003104e000feff3a000080ea00d3
:080f70000080400000000600b3
:020000040000fa
:100f78000600fa00881f7800004f780012079800d2
:100f8800230798001e80fb00e20f5000ea003200a1
:100f9800e20f500005003c000000e00008003200ad
:100fa800e10f50007500320030023700e30f5000a7
:100fb80050013200e40f5000bd0132002b0237000f
:100fc80021088000f0fc2f000080600020088800c5
:100fd8001e019000ae0190000068290081c1240024
:100fe80088fe070018c0b30002f02f00f377240032
:100ff800c8fe07000000e00001003c000044eb00d0
:101008000804e0005400320021088000f0fc2f00a2
:10101800008060000040a000200888001e019000a9
:10102800ae0190000068290081c1240075fe070008
:10103800020020000310240072fe070018c0b3004d
:1010480002f02f00f3772400b2fe07000000e00052
:1010580001003c000044eb000804e00032003200cc
:1010680021088000f0fc2f00008060000050a000e4
:10107800200888001e019000ae0190000068290039
:1010880081c124005ffe070002002000032824001d
:101098005cfe070018c0b30002f02f00f3772400ad
:1010a8009cfe07000000e00001003c000044eb004b
:1010b8000804e0001000320021088000000320002e
:1010c80001007000200888001e019000ae01900009
:1010d8000068290081c124004afe070002002000a0
:1010e8000338240047fe07008cfe07000000780044
:1010f80010088800dd0137001e019000ae01900045
:101108000068290081c124003efe0700020020007b
:10111800032824003bfe070080fe0700000078003b
:1011280010088800d10137001e019000ae01900020
:101138000068290081c1240032fe07000200200057
:10114800031024002ffe070074fe0700000078003b
:1011580010088800c50137001e019000ae019000fc
:101168000068290081c1240026fe07006bfe0700e5
:101178000000780010088800bc0137008108800052
:10118800f0fc2f0000806000800888001e0190009d
:10119800ae0190000068290081c1240019fe0700f3
:1011a80018c0b30002f02f00f377240059fe07009f
:1011b8000000e00001003c000044eb000804e000ef
:1011c8005400320081088000f0fc2f00008060008d
:1011d8000040a000800888001e019000ae01900029
:1011e8000068290081c1240006fe070002002000d3
:1011f8000310240003fe070018c0b30002f02f00fc
:10120800f377240043fe07000000e00001003c00e3
:101218000044eb000804e00032003200810880003e
:10122800f0fc2f00008060000050a00080088800bb
:101238001e019000ae0190000068290081c12400c1
:10124800f0fd07000200200003282400edfd070040
:1012580018c0b30002f02f00f37724002dfe07001a
:101268000000e00001003c000044eb000804e0003e
:101278001000320081088000000320000100700087
:10128800800888001e019000ae01900000682900c7
:1012980081c12400dbfd0700020020000338240080
:1012a800d8fd07001dfe07000000780060088800d0
:1012b8006e0137001e019000ae0190000068290001
:1012c80081c12400cffd070002002000032824006c
:1012d800ccfd070011fe07000000780060088800b8
:1012e800620137001e019000ae01900000682900dd
:1012f80081c12400c3fd0700020020000310240060
:10130800c0fd070005fe070000007800600888009f
:10131800560137001e019000ae01900000682900b8
:1013280081c12400b7fd0700fcfd0700000078001c
:10133800600888004d01370091088000f0fc2f00fc
:1013480000806000900888001e019000ae019000a7
:101358000068290081c12400aafd070018c0b30055
:1013680002f02f00f3772400eafd07000000e000f8
:1013780001003c000044eb000804e0005400320087
:1013880091088000f0fc2f00008060000040a00061
:10139800900888001e019000ae01900000682900a6
:1013a80081c1240097fd07000200200003102400db
:1013b80094fd070018c0b30002f02f00f377240053
:1013c800d4fd07000000e00001003c000044eb00f1
:1013d8000804e0003200320091088000f0fc2f0081
:1013e800008060000050a000900888001e01900056
:1013f800ae0190000068290081c1240081fd07002a
:1014080002002000032824007efd070018c0b30056
:1014180002f02f00f3772400befd07000000e00073
:1014280001003c000044eb000804e000100032001a
:1014380091088000000320000100700090088800d7
:101448001e019000ae0190000068290081c12400af
:101458006cfd0700020020000338240069fd070026
:10146800aefd07000000780070088800ff00370014
:101478001e019000ae0190000068290081c124007f
:1014880060fd070002002000032824005dfd07001e
:10149800a2fd07000000780070088800f3003700fc
:1014a8001e019000ae0190000068290081c124004f
:1014b80054fd0700020020000310240051fd07001e
:1014c80096fd07000000780070088800e7003700e4
:1014d8001e019000ae0190000068290081c124001f
:1014e80048fd07008dfd070000007800700888009f
:1014f800de003700f1088000f0fc2f00008060005b
:10150800f00888001e019000ae01900000682900d4
:1015180081c124003bfd070018c0b30002f02f0072
:10152800f37724007bfd07000000e00001003c0089
:101538000044eb000804e00054003200f108800089
:10154800f0fc2f00008060000040a000f008880038
:101558001e019000ae0190000068290081c124009e
:1015680028fd0700020020000310240025fd0700c5
:1015780018c0b30002f02f00f377240065fd0700c0
:101588000000e00001003c000044eb000804e0001b
:1015980032003200f1088000f0fc2f00008060006b
:1015a8000050a000f00888001e019000ae019000d5
:1015b8000068290081c1240012fd070002002000f4
:1015c800032824000ffd070018c0b30002f02f0005
:1015d800f37724004ffd07000000e00001003c0005
:1015e8000044eb000804e00010003200f10880001d
:1015f8000003200001007000f00888001e01900020
:10160800ae0190000068290081c12400fdfc07009c
:101618000200200003382400fafc07003ffd070001
:1016280000007800d0088800900037001e01900064
:10163800ae0190000068290081c12400f1fc070078
:101648000200200003282400eefc070033fd0700f9
:1016580000007800d0088800840037001e01900040
:10166800ae0190000068290081c12400e5fc070054
:101678000200200003102400e2fc070027fd0700f9
:1016880000007800d0088800780037001e0190001c
:10169800ae0190000068290081c12400d9fc070030
:1016a8001efd070000007800d00888006f00370092
:1016b80001098000f0fc2f0000806000000988000c
:1016c8001e019000ae0190000068290081c124002d
:1016d800ccfc070018c0b30002f02f00f3772400f9
:1016e8000cfd07000000e00001003c000044eb0096
:1016f8000804e0005400320001098000f0fc2f00cb
:10170800008060000040a000000988001e019000d1
:10171800ae0190000068290081c12400b9fc0700cf
:101728000200200003102400b6fc070018c0b30014
:1017380002f02f00f3772400f6fc07000000e00019
:1017480001003c000044eb000804e00032003200d5
:1017580001098000f0fc2f00008060000050a0000c
:10176800000988001e019000ae0190000068290061
:1017780081c12400a3fc07000200200003282400e4
:10178800a0fc070018c0b30002f02f00f377240074
:10179800e0fc07000000e00001003c000044eb0012
:1017a8000804e00010003200010980000003200056
:1017b80001007000000988001e019000ae01900031
:1017c8000068290081c124008efc07000200200067
:1017d800033824008bfc0700d0fc070000007800c9
:1017e800e0088800210037001e019000ae0190003b
:1017f8000068290081c1240082fc07000200200043
:10180800032824007ffc0700c4fc070000007800c0
:10181800e0088800150037001e019000ae01900016
:101828000068290081c1240076fc0700020020001e
:101838000310240073fc0700b8fc070000007800c0
:10184800e0088800090037001e019000ae019000f2
:101858000068290081c124006afc0700affc07006a
:1018680000007800e0088800000000004f047800bd
:101878000080fa00000006000400fa00004f78001b
:1018880011479800224798001e80fb00e20f500085
:1018980036003200e20f500005003c000000e00076
:1018a80008003200e10f50001b0032006c003700c6
:1018b800e30f500041003200e40f500054003200a2
:1018c800670037008460a9001e4090000080fb007c
:1018d800610060004300dd00a204800071ff2f005a
:1018e8008100610001007000a00488002e40900073
:1018f800674060000080fb00670060004c00dd006e
:1019080022058000f1ff28008100610001007000bd
:10191800200588005200370084e0a9001e4090008e
:101928000080fb00610060004700dd00a204800029
:10193800f1f72f008100610001007000a004880009
:101948002e409000674060000080fb006700600048
:101958004c00dd0032058000f1ff280081006100a5
:1019680001007000300588003d0037008500a9009f
:101978001e4090000080fb00610060004800dd0010
:10198800a2048000f1ef2f008100610001007000c7
:10199800a00488002e409000674060000080fb0093
:1019a800670060004205800081ff2f008100610010
:1019b8000100700040058800290037008760a900f1
:1019c8001e4090000080fb00610060004b00dd00bd
:1019d800b2048000f17f2f008100610001007000d7
:1019e800b00488002e409000674060000080fb0033
:1019f800670060004c00dd0082058000f1ff2800d0
:101a08008100610001007000800588001400370023
:101a18008780a9001e4090000080fb0061006000e4
:101a28004c00dd00b2048000f1ff2e00810061004f
:101a380001007000b00488002e40900067406000ec
:101a48000080fb00670060009205800081ff2f0086
:101a5800810061000100700090058800000000000e
:101a68000080fa00000006000400fa00004f780029
:101a7800110798001e4078000004e0000c003200b6
:101a88001e407800e54f500009003e001e009000ff
:101a98000000e000060032001e80fb0080004000cd
:101aa80080bd2000008040009e0090000108780062
:101ab8000080fa00000006000800fa00404798007d
:101ac800310798003e0090008000eb004ffc0700b3
:101ad80002002000a3472400cafb07000001be0043
:101ae8000000200001f82300c6fb0700008fbe009d
:101af8001e01be004e4090001dfd07000080fa0048
:101b0800000006000800fa004047980031079800d6
:101b18003e0090008000eb003cfc070002402200e1
:101b280043972400b7fb07000001be000000200017
:101b380001f82300b3fb0700008fbe001e01be00a2
:101b48004e4090000afd07000080fa0000000600e1
:101b58000200fa00004f7800114798001e80fb0031
:101b6800e20f50001e003200e20f500005003c005a
:101b78000000e00008003200e10f50000f003200c2
:101b880032003700e30f50001e003200e40f50000f
:101b9800250032002d0037001e4090000080fb0019
:101ba8004f00dd0022088000f1ff2700810061005e
:101bb8000100700020088800240037001e409000b3
:101bc8000080fb004f00dd0082088000f1ff270045
:101bd8008100610001007000800888001b00370048
:101be8001e4090000080fb004f00dd00920880003e
:101bf800f1ff270081006100010070009008880053
:101c0800120037001e4090000080fb004f00dd00ee
:101c1800f2088000f1ff27008100610001007000d8
:101c2800f0088800090037001e4090000080fb0083
:101c38004f00dd0002098000f1ff270081006100ec
:101c48000100700000098800000000000080fa0010
:101c5800000006000a00fa00004f780012079800fa
:101c68002307980031079800044f98008040eb0044
:101c78001e407800b6ff07001e019000ae019000dc
:101c88001e407800bafc0700be0090001e40780095
:101c980075ff07008e4890001e407800acff0700d3
:101ca8000080fa00000006000c00fa00004f7800df
:101cb800120798002307980031079800044f9800ee
:101cc800154f9800264f98008040eb001e40780082
:101cd8009fff07001e019000ae0190001e40780093
:101ce800a3fc0700be0090001e4078005eff0700be
:101cf8001e4990008e4890001e407800defe0700c6
:101d0800ae4890001e40780091ff07000080fa005e
:101d1800000006000a00fa00200798003107980022
:101d2800420798000040eb00004f78000000eb00ed
:101d3800100798002e0090004800de000040780050
:101d48001e4f68002e009000004078001e4f68006b
:101d58003e0090004800de00004078001e4f6800fa
:101d68003e009000004078001e4f68000000eb0025
:101d78001007980008003700ce0090001e00900061
:101d880000804000104078001e4f68001e00900040
:101d98000000e800100798009e0090003e009000a8
:101da800808f5000f4ff39001e4078000080fa0050
:101db800000006000200fa00004f780032c8bf0099
:101dc8000080fb00e30f500023003200e30f5000b7
:101dd80007003c00e10f500012003200e10f5000f4
:101de80016003c000000e000080032004e003700fa
:101df800e50f500031003200e50f50001c0035009f
:101e0800e60f50003c003200470037001e407800c3
:101e1800e24f400047003a0010c0b30032e8b70074
:101e2800470037001e80fb004800dd00a041880005
:101e380020c0b30032e8b700410037009e80fb00a5
:101e4800a041800000804000a041880030c0b3005d
:101e580032e8b7003a0037001e80fb004800dd007a
:101e6800b041880040c0b30032e8b7003400370002
:101e78009e80fb00b041800000804000b041880097
:101e8800b141800000102000808f50000200360011
:101e98003268ef002a003700b04180000000e000ff
:101ea80003003a0060c0b30032e8b70024003700ee
:101eb80050c0b30032e8b70021003700c0418000ad
:101ec800e1a320001e41780082707800c0418000a4
:101ed8000000e800c0418800c1418000b041800096
:101ee800808f500015003a003828ef0060c0b3001a
:101ef80032e8b70012003700b1418000a0418000ed
:101f0800e2a3200083ff07009e4f500004003a0020
:101f1800b1418000a0418000e2a320001100070029
:101f28003268ef00060037003268ef00000000005a
:101f38000300370000000000010037000000000027
:101f48000080fa00000006000400fa00000f780084
:101f5800214798009580a8000000eb000080fa0057
:101f6800000006000c00fa003007980041079800ae
:101f7800520798000040eb00004f78000000eb008b
:101f8800100798000040eb00404798003e00900082
:101f9800e90f500062003200e90f500010003e00c7
:101fa800e40f50009f003200e40f500005003e008f
:101fb800e10f50001b003200e30f50009b0032007d
:101fc80090003700e60f50002a003200e60f50005c
:101fd8001d003900e80f50004d003200890037001d
:101fe800f50f50003c003200f50f500005003e0090
:101ff800ea0f500051003200f40f50002800320060
:102008008000370091072000810f500052003200f5
:10201800e10f400078003200f60f50003500320022
:10202800780037005e009000104078000004e0005f
:102038000300320010c0b3003ae8b7007c00370054
:102048003a68ef007a0037005e0090000000e80070
:10205800104078008080fb005e00900010407800ff
:102068000080fb004800dd0000804000405e8800e2
:102078006f0037005e0090000000e8001040780014
:102088008080fb005e009000104078000080fb001c
:102098004800dd0000804000505e88006400370082
:1020a8005e0090000000e800104078008080fb008f
:1020b8005e009000104078000080fb004800dd00c2
:1020c800008040008000eb00d0fa0700705e8800b6
:1020d800815e880056003700410020005e009000b5
:1020e800a0040700aefa0700005e8800115e8800b1
:1020f8004f003700410020005e009000990407005f
:10210800a7fa0700205e8800315e88004800370083
:102118004e4090000080fb001007980044003700f4
:102128004e4090000080fb0010079800e0b32000ac
:1021380011c0b300014878003d0037004e409000c0
:102148000080fb0010079800e0b3200011c0b30026
:10215800014878003600370010c0b300004f7800ff
:102168005e009000104078000081fb008001eb00c9
:102178005e0090000000e800104078000082fb003c
:102188008002eb004828dd00c820de0081007000d6
:102198004820dd0002014000838148005e00900075
:1021a8000080e800104078000080fb008000eb0011
:1021b800c000dd00000020000201400083814800cb
:1021c8005e00900063004000104078000080fb0033
:1021d8008000eb00c800dd00000020000200400085
:1021e8008380480030418800414188000000eb00ae
:1021f800100798000e00370010c0b300004f780099
:102208000b00370010c0b300004f7800100020000a
:1022180010079800e0b320008040eb0001487800e8
:102228000300370000000000010037000000000034
:102238001e4078000004e00004003a00e2b32000e9
:102248009e0090003e009000040007000040eb0054
:10225800004f78000080fa00000006000c00fa0029
:10226800889fbe008a1f78003007980041079800b1
:10227800520798000f0478000f0078008004780057
:102288004e00900066004000800078008100e90060
:10229800110798000000e8000000e8000000d100e5
:1022a800800040000f007800818747000000e800a8
:1022b8000000d10000004000200798002e00900088
:1022c800e1cfb300014878003e0090004800de00ee
:1022d800804078002e009000114098003e00900049
:1022e800804078002e009000214098004e00900019
:1022f8004800de00804078002e00900031409800b1
:102308004e009000804078002e00900041409800d8
:102318000000eb00000f7800090037009e007800ed
:10232800658040009e0078005e01900081004100b9
:1023380011417800ae009000827078001e0fe8000e
:102348009e0078004e009000808f5000f3ff390007
:102358004e009000650540005e019000ce009000a0
:102368003e0090006bfe0700ae00900080707d007c
:10237800ae0090004e009000660040000600070086
:1023880089077800880778004f0578004f04be0059
:102398000080fa00000006000600fa001007980006
:1023a800210798000e030700ae009000810f50002f
:1023b8000d0036000000eb00000f78000600370023
:1023c8001e0078009e0090000080400010407800b9
:1023d800c00207001e0fe8009e0078002e00900043
:1023e800808f5000f6ff39000080fa0000000600d8
:1023f8000200fa000e0178008000eb0000192000ae
:1024080096ff07000080fa00000006000400fa00aa
:10241800100798001e009000cffa0700000f780000
:102428009e0090001e00780001017800800078006e
:10243800e0ee2e0089ff07000080fa000000060089
:102448000c00fa00c70407008b040700be0407004d
:102458004d04070016c0b30035c0b30014c0b30064
:102468002140210002002400c361240010c0b300f1
:102478000dfe070016c0b30055c0b30014c0b3006a
:102488008140210002002000a33f240020c0b300a7
:1024980005fe070016c0b30065c0b30014c0b30042
:1024a800414a210002002000a347240030c0b300a5
:1024b800fdfd0700f304070022020700c4e2a8009c
:1024c800c542a800b01d2000605e8800c05d2000e5
:1024d80001002000205e8800315e8800c05d200079
:1024e80001002000005e8800115e88000000eb00fb
:1024f800505e88000000eb00405e88006000b80075
:10250800a05e8800b15e8800e0bb20008040eb0040
:102518000148780000002800214a2400705e8800e5
:10252800815e880050168000680060000000e000ae
:1025380003003a006000b800a05e8800b15e880021
:10254800450407000004e0002f003200460407009d
:102558003d040700000f78001e0078001000780086
:10256800100798001e80e8001000780020079800e7
:102578009e007800648040001000780030079800c2
:102588009e007800668040001000780040079800a0
:102598009e0078006880400010007800500798007e
:1025a800e0bb2000104078000004e0001600320074
:1025b8003e0090008000eb0094f907000200200024
:1025c800a3df2300e6f9070075f90700000078008b
:1025d800605e88004e0090008000eb008bf90700d9
:1025e8000200280023ea2300ddf90700705e880056
:1025f800815e8800705e8000815e80000001be0000
:1026080020c0b3005afa070050418000e20f500082
:1026180037003200e20f500005003e000000e000e5
:1026280008003200e10f500010003200710037003e
:10263800e30f50005d003200e40f50003f0032000d
:102648006c0037003ac8bf000004e0000600320002
:102658001000200050418800304180004141800036
:10266800604188007141880063003700225e800065
:10267800335e8000604180007141800002014000ab
:10268800838148003041800041418000800f510023
:10269800818f59000e003e0030418000414180008a
:1026a8006041880071418800c542a80020bd200013
:1026b80011c0b30001487800c522a80011c0b300ba
:1026c80020c0b30022fd07002000200050418800f0
:1026d8003ac8bf000004e00004003a008040eb0064
:1026e80020c0b3001afd07002a28ef004200370077
:1026f80030c8bf000004e00008003200c542a9004d
:102708003068ef003041800041418000604188001e
:102718007141880040002000504188003ac8bf003d
:102728000004e00004003a008040eb0020c0b30041
:1027380007fd07002a28ef002f003700025e8000ff
:10274800135e8000604180007141800002014000fa
:10275800838148003041800041418000800f510052
:10276800818f590009003e0020bd20008040eb0009
:1027780001487800c522a90011c0b30020c0b300e9
:10278800f3fc070030002000504188003ac8bf0021
:102798000004e00004003a008040eb0020c0b300d1
:1027a800ebfc07002a28ef001300370031c8bf00f0
:1027b8000004e000070032003168ef00304180007b
:1027c800414180006041880071418800100020006c
:1027d800504188003ac8bf000004e00004003a00f5
:1027e8008040eb0020c0b300d9fc07002a28ef0086
:1027f80001003700000000004aff37000000fa001f
:102808000080fa00000006000000fa00889fbe0061
:102818008a1f7800211680000008200000806000d0
:1028280000f0a7000000ea000000e9004f00de0009
:10283800004078000080fb00610060004700dd0078
:1028480022168000f1f72f0081006100010070005e
:102858002016880020bd200010407800e14f50006d
:102868001c003a0011040700a05e8000b15e8000e1
:102878000200200003f8230005f80700a05e880086
:10288800b15e8800a85e8000b95e8000605e80004e
:102898008000eb00ddf807001ac0b3000001be009d
:1028a8000800be009bf807000000e00001003d00a2
:1028b8000045eb000a04e0001d00320010c0b30020
:1028c80030e8b7008040eb0020c0b300a0fc070050
:1028d80017003700f5030700a05e8000b15e800096
:1028e8000200200003f82300e8f70700a05e880034
:1028f800b15e8800a05e8000b15e800018c0b300a1
:102908006011b80081f807000000e0000100340001
:102918000044eb000804e0000500320010c0b300da
:1029280031e8b7008040eb0020c0b30088fc070006
:102938004f0578004f04be000080fa000000060032
:102948000000fa00304180004141800061004000f1
:10295800e080480030418800414188003603070084
:102968000080fa00000006000000fa000080fa006b
:10297800000006000400fa00008fbe000080fa0084
:10298800000006000400fa00881f7800008fbe00cf
:102998000500370002002000433b24001e00be0053
:1029a800baf70700008fbe0018c0b300020020006d
:1029b800433324001e00be0056f807000000e00064
:1029c80001003c000044eb000804e000f1ff3a007d
:1029d8000500370002002000433b24001e00be0013
:1029e800abf70700008fbe0018c0b300020020003c
:1029f80043332c001e00be0044f807000000e0002e
:102a0800010035000044eb000804e000f1ff3a0043
:102a18001e00be004f0478000080fa000000060087
:102a28000400fa00881f7800008fbe0018c0b300a9
:102a38006011b8001e00be0036f807000000e00074
:102a480001003d000044eb000804e00002003200f1
:102a58001e00be00020037001e00be0001f0a200ea
:102a68004f0478000080fa00000006000800fa0011
:102a7800881f7800008fbe0022079800330798004f
:102a880018c0b3002e019000be0190001e00be00c9
:102a980020f807000000e00001003c000044eb00c3
:102aa8000804e000020032001e00be0002003700e9
:102ab8002e009000be0090004f0478000080fa00bd
:102ac800000006000800fa00881f7800008fbe008a
:102ad800220798003307980018c0b3002e01900011
:102ae800be0190001e00be0008f807000000e000cc
:102af800010035000044eb000804e0000200320049
:102b08001e00be00020037002e009000be0090009c
:102b18004f0478000080fa00000006000400fa0064
:102b2800881f7800008fbe0005003700b2fd200026
:102b3800930c24001e00be0054f70700008fbe004f
:102b480018c0b300b2fd2000930424001e00be008c
:102b5800f0f707000000e00001003c000044eb0033
:102b68000804e000f1ff3a0005003700b2fd20003c
:102b7800930c24001e00be0045f70700008fbe001e
:102b880018c0b300b2fd200093042c001e00be0044
:102b9800def707000000e000010035000044eb000c
:102ba8000804e000f1ff3a001e00be004f04780060
:102bb8000080fa00000006000400fa00881f780070
:102bc800008fbe0005003700b2fd200093042400ea
:102bd8001e00be002df70700008fbe0018c0b3000e
:102be800b2fd200093fc23001e00be00c9f70700b9
:102bf8000000e00001003c000044eb000804e00095
:102c0800f1ff3a0005003700b2fd200093042400cc
:102c18001e00be001ef70700008fbe0018c0b300dc
:102c2800b2fd200093fc2b001e00be00b7f7070082
:102c38000000e000010035000044eb000804e0005b
:102c4800f1ff3a001e00be004f0478000080fa0031
:102c5800000006000c00fa00881f7800008fbe00f4
:102c680022079800330798004407980055079800f2
:102c780018c0b3004e019000de0190001e00be0097
:102c8800a4f707000000e00001003c000044eb004e
:102c98000804e000040032004e019000de019000bc
:102ca800028fbe000d00370018c0b3002e0190003f
:102cb800be0190001e00be0094f707000000e0006f
:102cc800010035000044eb000804e0000300320076
:102cd8002e019000be019000028fbe001e00be00b3
:102ce8004f0478000080fa00000006000400fa0093
:102cf800008fbe00b2fd2000930424001e00be0019
:102d080040f70700020020004333240014f80700ae
:102d18000080fa00000006000400fa00008fbe00e0
:102d2800b2fd2000930424001e00be000cf807002a
:102d3800020020004333240032f707000080fa0025
:102d4800000006000200fa002062a8002002a90084
:102d58000111800090ff2f000080600000118800a2
:102d680020a2a9002082a90000412000401188006b
:102d780023e2a90023a2a90011118000f0f32f007b
:102d880000806000101188009560a8009580a80058
:102d98009c20a8008560a9008580a90021068000e4
:102da800f0f82f008080600000062000010070000d
:102db8002006880041058000f0ff28008080600020
:102dc80000002500010070004005880051058000c2
:102dd80080ff2f00008060005000b300500588007d
:102de80021e2a8002342a80030118000004f78009b
:102df80003000700070007000080fa000000060033
:102e08000000fa001c28ef001e28ef000080fa00de
:102e1800000006000000fa002028ef002228ef003a
:102e28000080fa00000006000000fa00e040800080
:102e38003111800001417800e18320008270780020
:102e4800e1408000e00f2000808f500004003e0029
:102e5800e04080000000e800e04088000100370002
:102e68001c28ef000080fa00000006000000fa00ad
:102e7800e1408000f0408000808f50000200320066
:102e880010c0b300010037000040eb000080fa00da
:102e9800000006000200fa00f0408000e1832000f4
:102ea800614f7800f1408000e00f2000808f5000d3
:102eb80004003e00f04080000000e800f040880078
:102ec800010037001e28ef001e4078000080fa003d
:102ed800000006000200fa00004f78000041800060
:102ee800e19320001e417800827078000141800043
:102ef800e00f2000808f500004003e000041800059
:102f08000000e80000418800010037002028ef0099
:102f180024c8bf000004e00001003a000c000700cc
:102f28000080fa00000006000000fa00014180005d
:102f380010418000808f50000200320010c0b300a2
:102f4800010037000040eb000080fa000000060096
:102f58000200fa0010c0b30024e8b7001041800056
:102f6800e1932000614f780011418000e00f2000bc
:102f7800808f500004003e00104180000000e800ef
:102f880010418800010037002228ef009580a80032
:102f98001e80fb00201188001828ef000080fa002e
:102fa800000006000000fa00014180001041800086
:102fb800808f5000040039000141800010418000da
:102fc800008050000400370001418000104180005b
:102fd800008050000010b0000080fa0000000600d9
:102fe8000000fa00efff07000110200000805000e9
:102ff8000080fa00000006000000fa000080fa00d5
:10300800000006000000fa001828ef000080fa000f
:10301800000006000000fa00c04080000000e80040
:10302800c040880024c8bf00e14f50000a003a00a1
:10303800c1408000703e2000808f500006003400a0
:10304800b9ff0700e14f500002003a00c0ff070037
:10305800010037002468ef000080fa000000060035
:103068000200fa003062a9003002a9008111800034
:1030780090ff2f00008060008011880030a2a90016
:1030880030102000c01188003082a90033e2a90066
:1030980033a2a90091118000f0f32f000080600096
:1030a8009011880097c0a80097e0a8009c40a8004d
:1030b80087c0a90087e0a90031e2a8003342a80030
:1030c8000000eb00000f780002003700000000004d
:1030d8001e0fe800f00321009e007800808f50004a
:1030e800faff34000080fa00000006000000fa0031
:1030f800010e8000c0ff2f0000806000000e8800d5
:10310800010e800030ff2f0000806000000e880054
:10311800010e8000f0f02f0000806000000e880093
:10312800803e2000200e8800c901a800c921a800ff
:10313800c941a800ca41a800d521a800d501a80006
:10314800d561a800d541a800d5a1a800d581a800bf
:10315800c1e1a8000080fa00000006000000fa00a3
:10316800012e8000c0ff2f0000806000002e880024
:10317800002e8000c000b300002e8800012e8000c1
:10318800f0f02f0000806000002e8800409c200096
:10319800202e8800c905a800ca45a800d525a80082
:1031a800d505a800c1e5a8000080fa0000000600c7
:1031b8000400fa00008fbe0002002000832c2400c7
:1031c8001e00be003ffe0700008fbe000200200068
:1031d800832c2c001e00be0024fe0700008fbe00ba
:1031e8001e01be00a2408800b34088000080fa009b
:1031f800000006000000fa00881f78002003200065
:10320800c00e8800a0408000b140800018c0b30004
:103218006011b8003ff607000000e00001003c0024
:103228000044eb000804e00003003200c522a900b6
:10323800c8a1a80002003700c522a800c8a1a8009c
:10324800a0408000b140800002002000831c2400c0
:10325800c3f607000001be0000002400c15124008d
:103268008af507004ef6070000007800202e880037
:103278004f0478000080fa00000006000600fa00fb
:10328800008fbe004247980002002000832c2400d3
:103298001e00be000bfe0700008fbe0002002000cb
:1032a800832c2c001e00be00f0fd0700008fbe001e
:1032b8004e4090000000fb00e10f500005003a006e
:1032c8001e01be0082408800934088000000000074
:1032d80001003700000000000080fa00000006002e
:1032e8000000fa00881f780080408000914080002c
:1032f80018c0b3006011b80006f607000000e0002f
:1033080001003c000044eb000804e0000300320028
:10331800c801a900c881a80002003700c881a90017
:10332800c801a8008040800091408000bcfd0700d3
:103338000001be0000002000812c240053f5070086
:1033480002002000031a240085f6070014f607007f
:1033580000007800b00e88004f0478000080fa0062
:10336800000006000a00fa0030079800410798009c
:10337800be0090004e009000008f40001e007800b4
:103388001001be0012079800230798001e00900045
:10339800ae0090000080fa00000006000600fa0067
:1033a80010079800210798009e0090002e009000ba
:1033b800008f40001e0078001000be000080fa0058
:1033c800000006000c00fa0020079800310798005a
:1033d80042079800530798006800470010079800b4
:1033e8000000eb00000f78000a0037003e00900054
:1033f8001e004000ae009000008040009e00780053
:103408001e01900081004100914078000148780039
:103418001e0fe8001e007800e30f5000f3ff340091
:103428000080fa00000006000c00fa00200798004f
:103438003107980042079800530798006800470032
:10344800100798000000eb00000f78000b00370011
:103458003e0090001e004000ae009000008040003a
:10346800320020009e0051001e01900081004100a2
:1034780091407800014878001e0fe8001e0078008f
:10348800e30f5000f2ff34000080fa00000006004d
:103498000c00fa00200798003107980042079800ae
:1034a8005307980068004700100798000000eb00d9
:1034b800000f78000a0037003e0090001e00400010
:1034c800ae009000008040009e0078001e01900031
:1034d8008100410091407800014878001e0fe80003
:1034e8001e007800e70f5000f3ff34000080fa0058
:1034f800000006000c00fa00881f7800008fbe004c
:103508002207980033079800440798005507980049
:1035180018c0b3002e019000be0190001e00be002e
:103528007af507000000e000010035000044eb00d8
:103538000804e000030032002e009000be00900056
:103548000e00370018c0b3004e019000de01900055
:103558001e00be006ff507000000e00001003c00ff
:103568000044eb000804e000030032004e00900025
:10357800de009000010037001e00be004f047800f6
:103588000080fa00000006000000fa0021e3a9000c
:103598002143a80001198000f0cf2f0000806000af
:1035a800001988002043a90001198000000e20009e
:1035b800010070000019880011198000f0ff210037
:1035c80000806000101988002343a80011198000aa
:1035d80030fc2f00008060000040a0001019880017
:1035e80025e3a9002119800000f0210001007000e6
:1035f8002019880010c0b30024e3b7002c03a900e9
:103608002c23a9002cc3a9002ce3a9002d03a90091
:103618003003a8003023a80030c3a80030e3a80076
:103628003103a80085a0a90095a0a80021e3a8005f
:103638000080fa00000006000000fa002023a8001d
:103648000080fa00000006000000fa0020be2000fa
:103658000080fa00000006000000fa003dc8bf0024
:103668000080fa00000006000000fa003d68ef0044
:103678000080fa00000006000000fa000080eb005d
:1036880060198800c0e2a900c122a900c142a900ae
:10369800c8a2a900d0c2a900d0e2a900c842a800c7
:1036a800c862a800d002a800d022a800d042a80072
:1036b8001c000700b136800000fe2f00008060006b
:1036c8002001b300b0368800b1368000f00f2e001c
:1036d800808060000030200001007000b036880053
:1036e8003135800000fe2f00008060008001b300ab
:1036f80030358800020007000080fa00000006004c
:103708000000fa00217420006204200073052000e4
:10371800824878008348780042c7a8000080fa00f1
:10372800000006000000fa00217420006204200056
:1037380073052000824878008348780042c7a900b2
:103748000080fa00000006000000fa0060c0a9002e
:1037580068c0a80060e0a90068e0a8000080fa003e
:10376800000006000000fa0020012000303a88001e
:10377800213a800000fe2f00008060000010a000a9
:10378800203a8800213a8000f0f32f000080600082
:10379800203a88003200200080072000a10920007c
:1037a8003374200080497800814978008249780084
:1037b80012002000600420007105200023742000fe
:1037c800804978008149780082497800000000002b
:1037d800113a80000000270080806000000023006c
:1037e800808f5000faff3a0000000000113a800074
:1037f80000022000008060000000e000fbff3200b3
:083808000080fa000000060038
:020000040000fa
:10381000260800000c000000000000000008000066
:103820001800000000000000d80b00000a00000093
:1038300000000000e20b00000a0000000000000091
:103840003c08000002000000000000003e080000ec
:103850000002000000000000180800000e00000038
:10386000000000003e0a000080010000000000008f
:10387000320800000a00000000000000be0b00003b
:0c3880001a000000000000000000000022
:020000040000fa
:10388c000000fa008461a900210c800080ff2f0049
:10389c0000806000200c8800a0002000100c880024
:1038ac000080fa00000006000000fa00210c8000e5
:1038bc0080ff2f00008060000010a000200c88000a
:0838cc000080fa000000060074
:020000040000fa
:0200000401f009
:04000800ffff0000f6
:020000040000fa
:0200000401f009
:04000c008000000070
:020000040000fa
:0200000401f009
:0400100042000000aa
:020000040000fa
:0200000401f009
:040014005f00000089
:020000040000fa
:0200000401f009
:04001800f7000000ed
:020000040000fa
:0200000401f009
:04001c00dfff000002
:00000001FF
