:020000040000fa
:080000000002040000000000f2
:020000040000fa
:0400080010050000df
:020000040000fa
:04000c0010050000db
:020000040000fa
:0400100010050000d7
:020000040000fa
:0400140010050000d3
:020000040000fa
:0400180010050000cf
:020000040000fa
:04001c0010050000cb
:020000040000fa
:0400200010050000c7
:020000040000fa
:0400240010050000c3
:020000040000fa
:0400280010050000bf
:020000040000fa
:04002c0010050000bb
:020000040000fa
:0400300010050000b7
:020000040000fa
:04003400dc020000ea
:020000040000fa
:0400380010050000af
:020000040000fa
:04003c0010050000ab
:020000040000fa
:0400400010050000a7
:020000040000fa
:0400440002030000b3
:020000040000fa
:040048002803000089
:020000040000fa
:04004c00100500009b
:020000040000fa
:040050001005000097
:020000040000fa
:04005400cc030000d9
:020000040000fa
:04005800240400007c
:020000040000fa
:04005c009a03000003
:020000040000fa
:040060001005000087
:020000040000fa
:040064001005000083
:020000040000fa
:04006800100500007f
:020000040000fa
:04006c004c04000040
:020000040000fa
:040070001005000077
:020000040000fa
:040074001005000073
:020000040000fa
:04007800100500006f
:020000040000fa
:04007c00100500006b
:020000040000fa
:040080001005000067
:020000040000fa
:040084001005000063
:020000040000fa
:04008800100500005f
:020000040000fa
:04008c00100500005b
:020000040000fa
:040090001005000057
:020000040000fa
:040094004e03000017
:020000040000fa
:0400980074030000ed
:020000040000fa
:04009c00100500004b
:020000040000fa
:0400a0001005000047
:020000040000fa
:0400a4001005000043
:020000040000fa
:0400a800100500003f
:020000040000fa
:0400ac00100500003b
:020000040000fa
:0400b0001005000037
:020000040000fa
:0400b4001005000033
:020000040000fa
:0400b800100500002f
:020000040000fa
:0400bc00100500002b
:020000040000fa
:0400c0001005000027
:020000040000fa
:0400c4001005000023
:020000040000fa
:0400c800100500001f
:020000040000fa
:0400cc00100500001b
:020000040000fa
:0400d0001005000017
:020000040000fa
:0400d4001005000013
:020000040000fa
:0400d800100500000f
:020000040000fa
:0400dc00100500000b
:020000040000fa
:0400e0001005000007
:020000040000fa
:0400e4001005000003
:020000040000fa
:0400e80010050000ff
:020000040000fa
:0400ec0010050000fb
:020000040000fa
:0400f00010050000f7
:020000040000fa
:0400f40010050000f3
:020000040000fa
:0400f80010050000ef
:020000040000fa
:0400fc0010050000eb
:020000040000fa
:0401000010050000e6
:020000040000fa
:0401040010050000e2
:020000040000fa
:0401080010050000de
:020000040000fa
:04010c0010050000da
:020000040000fa
:0401100010050000d6
:020000040000fa
:0401140010050000d2
:020000040000fa
:0401180010050000ce
:020000040000fa
:04011c0010050000ca
:020000040000fa
:0401200010050000c6
:020000040000fa
:0401240010050000c2
:020000040000fa
:0401280010050000be
:020000040000fa
:04012c00fa030000d2
:020000040000fa
:0401300010050000b6
:020000040000fa
:0401340010050000b2
:020000040000fa
:0401380010050000ae
:020000040000fa
:04013c0010050000aa
:020000040000fa
:0401400010050000a6
:020000040000fa
:0401440010050000a2
:020000040000fa
:04014800100500009e
:020000040000fa
:04014c00100500009a
:020000040000fa
:040150001005000096
:020000040000fa
:040154001005000092
:020000040000fa
:04015800100500008e
:020000040000fa
:04015c00100500008a
:020000040000fa
:040160001005000086
:020000040000fa
:040164001005000082
:020000040000fa
:0402080010050000dd
:020000040000fa
:04020c0010050000d9
:020000040000fa
:0402100010050000d5
:020000040000fa
:0402140010050000d1
:020000040000fa
:0402180010050000cd
:020000040000fa
:04021c0010050000c9
:020000040000fa
:0402200010050000c5
:020000040000fa
:0402240010050000c1
:020000040000fa
:0402280010050000bd
:020000040000fa
:04022c0010050000b9
:020000040000fa
:0402300010050000b5
:020000040000fa
:0402340010050000b1
:020000040000fa
:0402380010050000ad
:020000040000fa
:04023c0010050000a9
:020000040000fa
:0402400010050000a5
:020000040000fa
:0402440010050000a1
:020000040000fa
:04024800100500009d
:020000040000fa
:04024c001005000099
:020000040000fa
:040250001005000095
:020000040000fa
:040254001005000091
:020000040000fa
:04025800100500008d
:020000040000fa
:04025c001005000089
:020000040000fa
:040260001005000085
:020000040000fa
:040264001005000081
:020000040000fa
:04026800100500007d
:020000040000fa
:04026c001005000079
:020000040000fa
:040270001005000075
:020000040000fa
:040274001005000071
:020000040000fa
:04027800100500006d
:020000040000fa
:04027c001005000069
:020000040000fa
:040280001005000065
:020000040000fa
:040284001005000061
:020000040000fa
:04028800100500005d
:020000040000fa
:04028c001005000059
:020000040000fa
:040290001005000055
:020000040000fa
:040294001005000051
:020000040000fa
:04029800100500004d
:020000040000fa
:04029c001005000049
:020000040000fa
:0402a0001005000045
:020000040000fa
:0402a4001005000041
:020000040000fa
:0402a800100500003d
:020000040000fa
:0402ac001005000039
:020000040000fa
:0402b0001005000035
:020000040000fa
:0402b4001005000031
:020000040000fa
:0402b800100500002d
:020000040000fa
:0402bc001005000029
:020000040000fa
:0402c0001005000025
:020000040000fa
:0402c4001005000021
:020000040000fa
:0402c800100500001d
:020000040000fa
:0402cc001005000019
:020000040000fa
:0402d0001005000015
:020000040000fa
:0402d4001005000011
:020000040000fa
:0402d800100500000d
:020000040000fa
:0402dc001005000009
:020000040000fa
:0402e0001005000005
:020000040000fa
:0402e4001005000001
:020000040000fa
:0402e80010050000fd
:020000040000fa
:0402ec0010050000f9
:020000040000fa
:0402f00010050000f5
:020000040000fa
:0402f40010050000f1
:020000040000fa
:0402f80010050000ed
:020000040000fa
:0402fc0010050000e9
:020000040000fa
:0403000010050000e4
:020000040000fa
:0403040010050000e0
:020000040000fa
:0403080010050000dc
:020000040000fa
:04030c0010050000d8
:020000040000fa
:0403100010050000d4
:020000040000fa
:0403140010050000d0
:020000040000fa
:0403180010050000cc
:020000040000fa
:04031c0010050000c8
:020000040000fa
:0403200010050000c4
:020000040000fa
:0403240010050000c0
:020000040000fa
:0403280010050000bc
:020000040000fa
:04032c0010050000b8
:020000040000fa
:0403300010050000b4
:020000040000fa
:0403340010050000b0
:020000040000fa
:0403380010050000ac
:020000040000fa
:04033c0010050000a8
:020000040000fa
:0403400010050000a4
:020000040000fa
:0403440010050000a0
:020000040000fa
:04034800100500009c
:020000040000fa
:04034c001005000098
:020000040000fa
:040350001005000094
:020000040000fa
:040354001005000090
:020000040000fa
:04035800100500008c
:020000040000fa
:04035c001005000088
:020000040000fa
:040360001005000084
:020000040000fa
:040364001005000080
:020000040000fa
:10040000ef5721000e7f24000e018800000000003d
:10041000000020000000e000020032000001200087
:1004200020028800140007007f0107000000e000a0
:1004300003003a006044230001002000020037005e
:100440000000200001002000810f70000100320038
:1004500014000700000020000000e000020032004d
:100460000000020000000000020c0200000000007a
:100470000040da000000fe004440a90020012000f6
:100480000000e0000300320000002000a00188000e
:100490004440a800000006008a1f78008b1f7800e7
:1004a0000000060091018800800478000000eb0045
:1004b0001a003700e284440032a0b4009905ba0063
:1004c000e284440032a0b4009906ba00e2844400f9
:1004d00032a0b4000006eb00476fde00fd07b2005b
:1004e000636ce10003003a00ebff07000000eb0043
:1004f0000a003700606ce10004003a00005deb0088
:100500008b05e900fdff3e00040037006168e10053
:10051000010032000086eb000b00070019c7ba008b
:100520001905ba000e04e00003003a000a00e000da
:10053000e0ff3a0000000600fe07b2009e018800be
:100540008a047800f5ff3700395dba008b05e900b1
:100550000c003200295dba008b05e900080032006a
:100560000c00e00003003a00e284440032a0b40032
:10057000f5ff370019ddba008b05e900faff3a00f4
:100580008904e800e184440032a0b40000000600c1
:1005900028130400000000009e1404000000000066
:1005a000641504000000000026160400000000008e
:1005b0003e160400000000003600f800809fbe00d8
:1005c000829fbe00849fbe00869fbe000000fa008e
:1005d0008460a90050ab80000000e00002003200ff
:1005e00050ab8000000001000080fa004f03be0005
:1005f0004f02be004f01be004f00be003600f900a2
:10060000004006003600f800809fbe00829fbe00ba
:10061000849fbe00869fbe000000fa0084e0a9000f
:1006200060ab80000000e0000200320060ab8000a0
:10063000000001000080fa004f03be004f02be0020
:100640004f01be004f00be003600f900004006001a
:100650003600f800809fbe00829fbe00849fbe00cf
:10066000869fbe000000fa008500a90070ab8000e4
:100670000000e0000200320070ab800000000100ca
:100680000080fa004f03be004f02be004f01be00c3
:100690004f00be003600f900004006003600f800aa
:1006a000809fbe00829fbe00849fbe00869fbe00ca
:1006b0000000fa008760a90080ab80000000e00025
:1006c0000200320080ab8000000001000080fa00d0
:1006d0004f03be004f02be004f01be004f00be00e0
:1006e0003600f900004006003600f800809fbe008a
:1006f000829fbe00849fbe00869fbe000000fa005d
:100700008780a90090ab80000000e000020032006a
:1007100090ab8000000001000080fa004f03be0093
:100720004f02be004f01be004f00be003600f90070
:1007300000400600809fbe00821f78000000fa0083
:1007400085a0a9006ec8bf000080fb0001188000d2
:1007500000014000405721000000410001087800de
:100760006ec8bf00e34f500004003e006ec8bf00db
:100770000040e8006ee8b700030037006e68ef0045
:1007800010c0b3006fe8b7000080fa004f01780096
:100790004f00be00004006003600f800809fbe00fb
:1007a000829fbe00849fbe00869fbe000200fa00aa
:1007b0008560a9000400370030118000004f7800e8
:1007c0001e80fb00ef0e070010118000610060002a
:1007d0000000e000f8ff3a000080fa004f03be007e
:1007e0004f02be004f01be004f00be003600f900b0
:1007f00000400600801f78000000fa008c20a9004d
:1008000010118000680060000000e000010032006c
:100810002262a90010118000640060000000e00066
:10082000010032002242a900101180006200600025
:100830000000e000010032002222a9000080fa003e
:100840004f007800004006003600f800809fbe0090
:10085000829fbe00849fbe00869fbe000000fa00fb
:100860008580a9001b150700e14f500002003a00e7
:1008700022150700010037004868ef000080fa00e9
:100880004f03be004f02be004f01be004f00be002e
:100890003600f900004006003600f800809fbe00d8
:1008a000829fbe00849fbe00869fbe000000fa00ab
:1008b0008620a900411080000040200000806000d8
:1008c0000000e000230032005ec8bf00e14f50008e
:1008d00020003a0007e2a900401680004800de0030
:1008e000614060000080fb00610060004800dd00a6
:1008f00042168000f1ef2f008100610001007000be
:1009000040168800cd02a800401680004900de0095
:10091000614060000080fb00610060004900dd0074
:1009200042168000f1df2f0081006100010070009d
:1009300040168800cd22a8000942a900000000004e
:100940005ec8bf000004e000fdff3a000602a800f8
:100950002c0037004110800000082000008060005b
:100960000000e0000200320008e2a9002500370084
:100970004110800000042000008060000000e000c2
:100980000200320008c2a9001e0037005ec8bf0086
:100990000080fb00e20f50000f003200e20f500019
:1009a00003003c00e10f5000060032001300370046
:1009b000e30f50000a003200e40f50000d00320037
:1009c0000e0037005f68ef0020c0b3005ee8b7009c
:1009d000aa1207000b003700a81207000900370011
:1009e0005f68ef0020c0b3005ee8b700a312070005
:1009f000040037005e68ef00020037005e68ef0019
:100a0000000000000080fa004f03be004f02be004d
:100a10004f01be004f00be003600f9000040060046
:100a20000040da000000fe000000050003f0a20014
:100a3000889fbe008a9fbe008c1f78002a01070095
:100a4000310133006450e1004f0032006420e100c6
:100a50005200320003826c0007003b000905d00001
:100a60000306d000820f54000c065d00020039001e
:100a70000200320089017800030678008582550063
:100a800004003d000003fd008103fd008502ea0033
:100a90008b854200840f720002003b006000100052
:100aa000e08018006011b8000005eb007a28e10032
:100ab0000a00390006007800c75ddd00f707b200c4
:100ac000878075002d003700828171000a0178004f
:100ad000610560008180d1000080d3008502e900bb
:100ae000f9ff3b00060440008784480002003b00f9
:100af00060041400e0841c000988a3000700320091
:100b00008a81710082817100610164008904d100d1
:100b10000884d3008b05e800170037000978a3008c
:100b200013003a000b00e000130034008b05e900cd
:100b30000804440089844c000a4474000978a30026
:100b40000d003a000b00e000070034008b05e900bf
:100b50000804440089844c0001003a000b00200086
:100b60000978a300f7ff32000001eb000200370014
:100b7000828171000a017800a00007000cf0a70034
:100b800001f0a000e90037006420e10002003a0013
:100b9000838f6c00e90033000801be000200be0034
:100ba000e2003700889fbe008a9fbe008c1f78003d
:100bb000cd000700d400330003866c006450e100d0
:100bc0002e0032006420e100330032006150e10069
:100bd0002f0032006120e100310032008585550090
:100be000eb07b000090020000804200005003700d2
:100bf0000804440089844c000a00310006034300c5
:100c000087834b000001530081815b00f8ff3300b4
:100c10000203be000800a0000804440089844c00c0
:100c2000f6ff3900c639dd00830173000100320090
:100c3000130020008904d1000884d3000998a30080
:100c4000050032000800a7000300a0008904d100bd
:100c50000884d3008b05e8008904d1000884d30000
:100c60000001eb000281d2006400070001f0a10046
:100c70000cf0a70001f0a000ac0037006420e100f8
:100c8000ae0032000801be000200be00f7ff3700d0
:100c90006120e100a90032006000b800f3ff3700d6
:100ca0000000200001f82700f0ff3700839f680054
:100cb0000100e00002003d0060001000e08018002c
:100cc0000300e00002003d0060011100e081190016
:100cd000060107004f00e00002003b00600010002a
:100ce000e080180000000600140020003a023700df
:100cf000f4ff2f00380237000001be006500070036
:100d00000470a70003f0a1006509b10016003200cd
:100d10000d0035006828e10006003500f0ff2f00c7
:100d2000f1ff27000300e00013003b000100280052
:100d30000000050000004000818048008502e900b5
:100d4000fcff3a0008003700f88f420002003c0028
:100d50008000eb00000005008100d1000080d3007e
:100d60008502e800fcff3a000300e00002003b00bf
:100d700060001000e0801800000006000001be00c6
:100d8000440007000470a70003f0a10003f8a300cb
:100d900013003a006509b100100032000900350067
:100da0006928e1000200350001002800000005006c
:100db00000004000818048008502e900fcff3a0005
:100dc00000000600f88f4200050035008100d100c8
:100dd0000080d3008502e800fcff3a000000060016
:100de0008000eb00000005004f89de0082017800e2
:100df000140237006011b800220237008100200081
:100e0000618055000b003d000b00200061fe2f00ab
:100e10000100e1001d003400828171006101640065
:100e20008904d1000884d3000000e800faff3a00ea
:100e30007100200061006400030070000200600087
:100e40000900320061044400e0844c000988a500d8
:100e5000050032008b05e8006808e10002003a0056
:100e60008904d1000884d300f20f20000258e10069
:100e700005003d00c75ddd00f907b20089807500ff
:100e800008007800000006000bf827008b007800af
:100e900000000500c70ade00f107b200f50fb2003e
:100ea00008003200e1cf4200020032000170a000d1
:100eb00024000500810f70000100320004080500c5
:100ec00044000500810f700002003a001400050084
:100ed0008502e9000000400081c04800fcff3b00a3
:100ee0000170a000240005000004be00e9ff070017
:100ef0000003be000405be000200be00e5ff0700bf
:100f0000844f7500000006000200be006450e1003e
:100f1000050036006420e100020036000968a300e5
:100f200001003a000800be000160a0004f067800f2
:100f30004f05be004f04be0000000600f0ff2f006a
:100f4000f1ff2700f9ff3700889fbe008a9fbe008f
:100f50008c1f7800e4ff0700ebff330003866c0072
:100f60006450e100240032006420e10027003200d8
:100f70006150e100220032006120e10021003200d6
:100f80008b854200eb07b1000134b800003ab8008d
:100f90000804420089844a00013ab8000030b800d1
:100fa0008880400009014a0004003300000040002e
:100fb00081804800020149008b05e900c909dd0074
:100fc000830170000100320013002000c814de000d
:100fd0004814dd004709de001200b200c808de0038
:100fe0000884700085ff070001f0a1000cf0a70045
:100ff00001f0a000cdff37006120e100cfff3200fb
:101000000801be000200be00f7ff37006150e1009a
:10101000fcff3a00c9ff3700889fbe008a9fbe00d0
:101020008c1f78000004be009aff07000478a3001c
:1010300026003a006120e1002500320009f8a300f3
:1010400025003a006420e10021003200f507b100dc
:101050000508a30002003200000040008180480023
:101060006044b8000310200002002000000040008f
:10107000818048000805440089854c000a0541002c
:101080008b8549000a0550008b855800030033000a
:101090000a00be0002047400838474008301d1003e
:1010a0000281d300830f7100f0ff3a008904d10060
:1010b0000884d3006001490082017800c1adde00e0
:1010c000fb07b0004dff070098ff37000960a00044
:1010d0000800be0095ff37001202200082438800fe
:1010e000f0ff2f00f1ff270090ff37006022b800cb
:1010f000060220000000d0008180d2000482d200cd
:101100008582d2000000a0000202520083825a00b1
:10111000030031000202420083824a000000a10065
:101120000603e900f3ff3a0000000600889fbe00b6
:101130008a9fbe0030044200b0844a0030054b0054
:1011400090854b006000b1000898be000a90be0078
:101150000440e10005c8e10006d0e10007d8e10045
:1011600002003100680040001008e8004f05be0092
:101170004f04be0000000600889fbe008a9fbe008c
:101180003004be002005be000418540005985c0021
:1011900006185d0007985d00110020000440e10082
:1011a00005c8e10006d0e10007d8e10001003900e0
:1011b0008000eb00108810004f05be004f04be00f9
:1011c000000006001200fa00889fbe008a9fbe0041
:1011d0008c9fbe00e0b79f00f1b79f0082bf9f00c9
:1011e00093bf9f000605be000404be000000eb0094
:1011f000d0b79f00c0b79f00b0b79f00a0b79f00b7
:1012000090b79f000006eb005fb19700cfb097004a
:10121000820141003fb097000200e00004003d0061
:10122000370007007e805700c0ff0700030037002b
:10123000330007007e805700cfff0700dfb697001e
:101240000d00e0000c0035006fb29700ffb2970070
:101250000fbb97009fbb97001000200001002000eb
:101260006011b800000272008182720002037300f4
:10127000838373001b0007000c06e80001042000b4
:10128000810f5600e0ff3a000d00e00004003d0031
:101290000802be000a03be007e805700a3ff0700bd
:1012a0005fa897000000e00005003a001fb2970019
:1012b000afb297003fb39700cfb397000900070084
:1012c0006fb09700ffb097000fb997009fb99700d4
:1012d0004f06be004f05be004f04be000080fa005e
:1012e000000006000100070000000600a4b79f00f0
:1012f000b5b79f00c6b79f00d7b79f000000060094
:101300004f09de0082817100b3b79f004f01de00fc
:101310008180400082807000a1b79f008fb097004d
:101320004f09de00000040000200700090b79f00ef
:101330007fa897004f01de0081804000828070000e
:1013400081b79f000d0007004f3ade00000040000b
:1013500004007000f0af9f00080007000402420084
:1013600085824a0006034b0087834b00dfff07009e
:101370000802be000a03be00000006002fb297005c
:10138000bfb297004fb39700dfb39700000006008d
:10139000881f780018002000881f780089ff070048
:1013a0008f87e9004f04780000000600801feb00e3
:1013b00084ff07008f87e90000000600889fbe00b9
:1013c0008a9fbe00e00f5000e08f5800e00f5900e8
:1013d000e08f59000c003d006044b8006055b80033
:1013e0000000540081805c0002015d0083815d008b
:1013f000180020001500070008003d001800070035
:101400000004eb00050037000004eb000f000700ac
:1014100002003d001200070018002000dcff07005a
:101420000800e000060032006022b8006033b80017
:101430000000520081805a0002015b0083815b0042
:101440004f05be004f04be0000000600e00f520032
:10145000e08f5a00e00f5b00e08f5b0000000600a9
:101460006044b8006055b8000402540085825c00f6
:1014700006035d0087835d0000000600889fbe00b4
:101480008a9fbe008c1f7800e00f5000e08f58004c
:10149000e00f5900e08f59000d003d006044b80096
:1014a0006055b8000000540081805c0002015d00be
:1014b00083815d001c0020000820e10009a8e100f4
:1014c0000ab0e1000bb8e1000d003d000800370054
:1014d0000006eb00e00f5200e08f5a00e00f5b00c7
:1014e000e08f5b0006003d006044b8006055b80026
:1014f0000402540085825c0006035d0087835d0062
:10150000aaff07000c00e000060032006022b800cd
:101510006033b8000000520081805a0002015b0075
:1015200083815b004f0678004f05be004f04be006c
:1015300000000600889fbe008a9fbe008c1f7800b6
:101540000006eb00e00f5000e08f5800e00f59005c
:10155000e08f590007003d006044b8006055b800b6
:101560000000540081805c0002015d0083815d0009
:101570001c002000e00f5200e08f5a00e00f5b00db
:10158000e08f5b0007003d006044b8006055b80084
:101590000402540085825c0006035d0087835d00c1
:1015a0000c00a200660007000c00e00006003200fc
:1015b0006022b8006033b8000000520081805a00f9
:1015c00002015b0083815b004f0678004f05be007f
:1015d0004f04be0000000600889fbe008a9fbe0028
:1015e000841f780040fe07004f0078001100330090
:1015f000f0ff2f00838f6c0006003b0004056500a0
:101600000a00a7000800370009f0a600100020001b
:1016100008003700820f5400838f5c0003003900fc
:101620001000200001003e000000200009f0a7008b
:101630000000ea004f05be004f04be000000e000bd
:1016400000000600881f7800030478000300e00013
:1016500007003d0060001000e080180060011900e4
:10166000e081190002003b0001f02d00030037006b
:101670000400070008f0a70001f0a0004f04780064
:1016800000000600889fbe008a9fbe000082700096
:101690000402710004827100260032000004be00c2
:1016a0000200be006011b8006b0920009502200006
:1016b0000182cf000a0039000541b1000082cf004d
:1016c000070039000541b1000982cf00040039004c
:1016d0000541b1000882cf00010039000541b10089
:1016e00005425200120032000a003b008281710064
:1016f000610164008100d1000080d3008984d3009f
:101700000884d3008b05e8000442e800f7ff3a00a4
:10171000070037000804440089844c00000048009a
:10172000818048008b05e9000442e900f9ff3a0096
:10173000b2fd07004f05be004f04be0000000600ca
:10174000889fbe008a9fbe008c9fbe000404b80024
:101750000506b8008904460060854e000606b800fc
:101760000a054600e0854e000706b8008b054600d6
:10177000040eb800890446000a854e00e0854d003d
:10178000050eb8000a0546008b854e00060eb8000f
:101790008b0546000416b8000a0546008b854e00ee
:1017a0000516b8008b054600041eb8008b054600e0
:1017b0000800be000a01be004f06be004f05be0075
:1017c0004f04be0000000600800078003104e000f5
:1017d000feff3a000080ea000080400000000600a2
:020000040000fa
:1017e000d04000001806000000d00000612c00006e
:1017f00007070000d05100002c070000d040000077
:0418000018060000c6
:020000040000fa
:101804001a00fa00889fbe00511407005e130700f7
:10181400a11307000043eb0045c0b30014c0b3009c
:101824008132210002002000832c24000040eb00c0
:10183400900a07000043eb0045c0b30014c0b30096
:10184400e149210002002000832c240010c0b300d1
:10185400880a07000043eb0045c0b30014c0b3007e
:1018640041562100020020006349240020c0b30037
:10187400800a070016c0b30065c0b30014c0b300eb
:101884006162210002002000a347240030c0b3009d
:10189400780a070016c0b30035c0b30014c0b30003
:1018a400e1632100020020008324240040c0b3002f
:1018b400700a0700be130700c7130700d013070000
:1018c4008a1007006c0d070000a8210061002000a9
:1018d4004814070000902000d1032000451407009d
:1018e400c4e2a800c542a800c422a90080252000a3
:1018f4000100200090a98800a1a988000000200010
:10190400a147240030a9880041a9880000002000d4
:10191400a1472400b0a88800c1a888006000b800ce
:1019240070a9880081a988006000b80050a98800c7
:1019340061a988006000b80000aa880011aa880084
:101944006000b80020aa880031aa88006000b800ae
:1019540040aa880051aa880000002800214a2400d7
:10196400c0a98800d1a9880000002400c151240026
:1019740070a8880081a88800a099290091f123000b
:1019840090a88800a1a8880000482800e101200050
:1019940000ab880011ab880060532100c1c0b300c4
:1019a40001487800c04f21008040eb0001487800d6
:1019b40000002000011f2c0050a8880061a88800a6
:1019c40050168000700060000000e00013003a0030
:1019d40090168000640060000000e0000f003a00f0
:1019e4004a68ef00400d24008189230020408800cc
:1019f4003140880065050700802520000100200093
:101a040090a98800a1a9880000002800214a240088
:101a1400804288009142880009003700d01d2200ce
:101a2400518c23002040880031408800570507006e
:101a3400204e20000100200090a98800a1a9880060
:101a440050168000680060000000e00004003a00c6
:101a54006000b80000aa880011aa8800c4e2a800a7
:101a64004b1307000004e000620032004c1307002f
:101a740043130700100798001e0090001000780020
:101a8400000f98001e0090000080e800100078000d
:101a9400100f98001e0090006400400010007800b1
:101aa400200f98001e00900066004000100078008f
:101ab400300f98001e00900068004000100078006d
:101ac400400f98000e0890008000eb00c8fc07004f
:101ad4003233230033a523001afd070010a8880021
:101ae40021a88800400a2700d1f923002007980084
:101af4003107980010a8800021a88000a2702d0052
:101b040033da2300c8fb0700400798005107980008
:101b140010002000000f780018c0b3006011b80056
:101b24004e009000de0090006efc07000000e00014
:101b3400010035000044eb000804e000030032001b
:101b44000080eb00000f7800020037001000200036
:101b5400000f780018c0b3006011b8004e00900068
:101b6400de00900061fc07000000e00001003c0082
:101b74000044eb000804e000050032004e00900031
:101b8400de0090000001be00a8fb0700050037003e
:101b94004e009000de00900001f0a2000001be00a3
:101ba400a2fb07002e019000be019000fcfb070081
:101bb40018fd07000004be001e007800cf80de0080
:101bc40088fc07000001be000800be00ddfc070021
:101bd4006007980071079800a2df2e00b3a62300c7
:101be4006e009000fe009000d6fc0700f0a888006c
:101bf40001a988001300070035010700a9010700a7
:101c04001d0207008eff37000000fa001a68ef007b
:101c14001ac8bf0019e8b70019c8bf0018e8b70010
:101c24000828ef000000eb00980107000000eb001b
:101c34000b0207000000eb007e0207000080fa00a0
:101c4400000006000000fa00881f78004040800071
:101c5400e50f5000ae003200e50f500009003e00d1
:101c6400e10f500028003200e10f50000e0039004f
:101c7400e20f500039003200e30f50004a003200f6
:101c840010013700e70f50007b003200e70f5000cf
:101c9400b2003900e80f500084003200e90f500010
:101ca400ef00320007013700c422a8004ac8bf0071
:101cb4000004e0000c00320018c8bf000004e0007b
:101cc400ef00320019c8bf000004e000ee0032004b
:101cd4001ac8bf000004e000ed003200100020002c
:101ce40040408800f700370018c8bf000004e00037
:101cf400e9003200200020006401070010002000e9
:101d040040408800ef0037005cc8bf000004e000da
:101d140007003200c422a8002000200040408800b0
:101d240000408000114080005040880061408800dd
:101d340040562100104078000004e000d800320032
:101d4400900020004040880011c0b3000040eb0028
:101d5400f2080700c422a800da0037004ac8bf000e
:101d64000004e000030032002000200047010700c7
:101d7400020037004000200044010700200020003a
:101d8400b7010700200020002a020700004080005d
:101d940011408000504088006140880030002000dd
:101da40040408800c7003700d0a88000e1a8800028
:101db400f1fb07000001be0050408000614080003c
:101dc40002014000838148000040800011408000ef
:101dd400800f5100818f590004003e00c4e2a90025
:101de400c542a900700020004040880014a880006b
:101df40025a8800070a8800081a8800018c0b300c6
:101e04000001be000400be00b8fb07000000e000b3
:101e140001003d000044eb000804e0000d003a001e
:101e240014a9800025a9800090a88000a1a88000a2
:101e340018c0b3000001be000400be00abfb0700e5
:101e44000000e00001003d000044eb000804e00055
:101e54000200320070002000404088005cc8bf00cf
:101e64000004e00090003a00100020004040880088
:101e7400c422a9009300370060002000030107007a
:101e8400600020007601070060002000e9010700df
:101e9400004080001140800050408800614088006c
:101ea400800020004040880086003700b0a88000f1
:101eb400c1a88000b0fb07000001be0050408000b4
:101ec400614080000201400083814800004080009e
:101ed40011408000800f5100818f590005003e00a1
:101ee4006000b80010a9880021a9880050002000d3
:101ef400404088005cc8bf000004e0006c003a0069
:101f04001000200040408800c422a9006d00370062
:101f14004ac8bf000004e000030032004000200073
:101f2400da0007000200370020002000d700070075
:101f3400400020004a01070040002000bd010700c6
:101f440000408000114080005040880061408800bb
:101f540060002000404088005a003700c04f210034
:101f6400104078000004e0002200320030a9800014
:101f740041a9800080fb07008101d1000081d300ca
:101f8400504080006140800002014000838148008d
:101f94000040800011408000800f5100818f590063
:101fa40028003e0014a8800025a8800050a88000c6
:101fb40061a8800018c0b3000001be000400be0088
:101fc40048fb07000000e000010035000044eb007e
:101fd4000804e0001b003200004080001140800033
:101fe4005040880061408800200020004040880064
:101ff4001400370030a9800041a980005efb07006f
:102004000001be0050408000614080000201400099
:10201400838148000040800011408000800f5100ff
:10202400818f590007003e00c542a800004080008f
:10203400114080005040880061408800200020004a
:10204400404088005cc8bf000004e0001a003a0069
:102054001000200040408800c422a9001900370065
:1020640040562100104078000004e00014003a00bb
:102074001000200040408800c422a900110037004d
:10208400000000000f003700000000000d003700c2
:10209400000000000b0037000000000009003700ba
:1020a40000000000070037000000000005003700b2
:1020b40000000000030037000000000001003700aa
:1020c400000000004f0478000080fa0000000600c1
:1020d4000000fa00889fbe00e0408000e30f50003b
:1020e40031003200e30f500005003e00e10f5000c4
:1020f40017003200e10f500021003e0007003700b6
:10210400e50f50003e003200e50f5000300039006a
:10211400e60f500050003200590037008042800022
:102124009142800002002000a34724003efa0700e9
:102134000002be0002002500337c2c0010c0b30056
:102144004604070010002000e04088004c003700df
:1021540050168000680060000000e00043003a0070
:1021640010c0b300d10407006000b80000aa8800c2
:1021740011aa880040002000e04088004000370099
:10218400c0a98000d1a980000002be000200200086
:1021940083242c0010c0b30030040700300020005a
:1021a400e040880036003700501680006800600068
:1021b4000000e0002f003a006000b80000aa880088
:1021c40011aa880060002000e04088002c0037003d
:1021d400884280009942800090a98000a1a98000d3
:1021e40000fb07000802be000001be0010c0b300df
:1021f4001a04070050002000e04088002000370047
:1022040050168000640060000000e0000d00320001
:1022140004aa800015aa800060aa800071aa800028
:1022240018c0b3000001be000400be00affa0700ee
:102234000000e00001003d000044eb000804e00061
:102244000e00320060002000e040880010c0b3009f
:1022540018e8b7000a00370010c0b3009304070061
:1022640070002000e04088000500370000000000f6
:1022740003003700000000000100370000000000e8
:102284004f04be000080fa00000006000200fa00bd
:10229400000f78009e007800e14088000080fa007a
:1022a400000006000000fa00889fbe00f040800095
:1022b400e30f500031003200e30f500005003e00f0
:1022c400e10f500017003200e10f500021003e00e2
:1022d40007003700e50f50003e003200e50f5000c4
:1022e40030003900e60f500050003200590037002a
:1022f400804280009142800002002000a347240015
:10230400c9f907000002be0002002500337c2c003e
:1023140020c0b300d103070010002000f040880063
:102324004c00370090168000620060000000e0005e
:1023340043003a0020c0b3005c0407006000b8000a
:1023440020aa880031aa880040002000f0408800bc
:1023540040003700c0a98000d1a980000002be005f
:102364000200200083242c0020c0b300bb0307001c
:1023740030002000f04088003600370090168000be
:10238400620060000000e0002f003a006000b80026
:1023940020aa880031aa880060002000f04088004c
:1023a4002c003700884280009942800090a9800068
:1023b400a1a980008bfa07000802be000001be003c
:1023c40020c0b300a503070050002000f04088009f
:1023d4002000370090168000610060000000e000db
:1023e4000d00320024aa800035aa800080aa800053
:1023f40091aa800018c0b3000001be000400be0012
:102404003afa07000000e00001003d000044eb0040
:102414000804e0000e00320060002000f040880054
:1024240010c0b30019e8b7000a00370020c0b30099
:102434001e04070070002000f040880005003700eb
:102444000000000003003700000000000100370016
:10245400000000004f04be000080fa0000000600e7
:102464000200fa00000f78009e007800f140880016
:102474000080fa00000006000000fa00889fbe00f9
:1024840000418000e30f500031003200e30f5000a0
:1024940005003e00e10f500017003200e10f50002c
:1024a40021003e0007003700e50f50003e003200d7
:1024b400e50f500030003900e60f500050003200a4
:1024c40059003700804280009142800002002000c1
:1024d400a347240054f907000002be0002002500af
:1024e400337c2c0030c0b3005c03070010002000d4
:1024f400004188004c0037005016800070006000d6
:102504000000e00043003a0030c0b300e7030700d6
:102514006000b80040aa880051aa8800400020004a
:102524000041880040003700c0a98000d1a9800084
:102534000002be000200200083242c0030c0b3003f
:1025440046030700300020000041880036003700b1
:1025540050168000700060000000e0002f003a0078
:102564006000b80040aa880051aa880060002000da
:10257400004188002c003700884280009942800086
:1025840090a98000a1a9800016fa07000802be00e5
:102594000001be0030c0b30030030700500020002b
:1025a400004188002000370090168000640060001d
:1025b4000000e0000d00320044aa800055aa80000b
:1025c400a0aa8000b1aa800018c0b3000001be0018
:1025d4000400be00c5f907000000e00001003d0052
:1025e4000044eb000804e0000e003200600020000c
:1025f4000041880010c0b3001ae8b7000a00370091
:1026040030c0b300a9030700700020000041880017
:102614000500370000000000030037000000000040
:1026240001003700000000004f04be000080fa00e3
:10263400000006000200fa00000f78009e007800f7
:10264400014188000080fa00000006000000fa0042
:10265400881f78004ac8bf000004e0005a00320016
:1026640064aa800075aa800000aa800011aa8000d4
:1026740018c0b3000001be000400be009bf90700af
:102684000000e00001003c000044eb000804e0000e
:102694001e003200c522a900a116800000042000fb
:1026a4000080600000f0a7000000ea000000e900dc
:1026b4004f00de00004078000080fb0061006000f5
:1026c4004600dd00a2168000f1fb2f0081006100ae
:1026d40001007000a0168800a116800000042000ec
:1026e400008060000000e00090003a0000aa800032
:1026f40011aa80000200200003f82300cbf8070091
:1027040000aa880011aa88008800370064aa800003
:1027140075aa800000aa800011aa800018c0b30026
:102724000001be000400be006ef907000000e000d6
:10273400010035000044eb000804e0001e003200f4
:10274400c522a800a11680000004200000806000bb
:1027540000f0a7000000ea000000e9004f00de00de
:10276400004078000080fb00610060004600dd004e
:10277400a2168000f1fb2f008100610001007000af
:10278400a0168800a11680000004200000806000cc
:102794000000e00065003a0000aa800011aa800051
:1027a4000200200003f823009ff8070000aa880015
:1027b40011aa88005d0037008040eb000040eb0068
:1027c400560607005900370064aa800075aa8000e5
:1027d40000aa800011aa800018c0b3000001be0046
:1027e4000400be0041f907000000e00001003c00c5
:1027f4000044eb000804e0001e003200c522a900da
:10280400a1168000000420000080600000f0a700f2
:102814000000ea000000e9004f00de0000407800fc
:102824000080fb00610060004600dd00a21680000d
:10283400f1fb2f008100610001007000a0168800e8
:10284400a116800000042000008060000000e00069
:1028540036003a0000aa800011aa8000020020007d
:1028640003f8230071f8070000aa880011aa880061
:102874002e00370064aa800075aa800000aa800098
:1028840011aa800018c0b3000001be000400be00fd
:1028940014f907000000e000010035000044eb00db
:1028a4000804e0001e003200c522a800a116800022
:1028b400000420000080600000f0a7000000ea008f
:1028c4000000e9004f00de00004078000080fb00bb
:1028d400610060004600dd00a2168000f1fb2f00bd
:1028e4008100610001007000a0168800a11680001c
:1028f40000042000008060000000e0000b003a00ab
:1029040000aa800011aa80000200200003f823001e
:1029140045f8070000aa880011aa880003003700c0
:102924008040eb000040eb00fc0507004f047800fa
:102934000080fa00000006000000fa00881f7800fa
:102944004ac8bf000004e0005b00320084aa800093
:1029540095aa800020aa800031aa800018c0b30084
:102964000001be000400be00e0f807000000e00023
:1029740001003c000044eb000804e0001c003200ad
:10298400cca2a900a01680006800600000f0a70097
:102994000000ea000000e9004f00de00004078007b
:1029a4000080fb00610060004300dd00a21680008f
:1029b40071ff2f008100610001007000a0168800e3
:1029c400a0168000680060000000e00034003a00b7
:1029d40020aa800031aa80000200200003f823000e
:1029e40012f8070020aa880031aa88002c003700ba
:1029f40084aa800095aa800020aa800031aa8000c1
:102a040018c0b3000001be000400be00b5f8070002
:102a14000000e000010035000044eb000804e00081
:102a24001c003200cca2a800a01680006800600040
:102a340000f0a7000000ea000000e9004f00de00fb
:102a4400004078000080fb00610060004300dd006e
:102a5400a216800071ff2f00810061000100700048
:102a6400a0168800a0168000680060000000e00046
:102a74000b003a0020aa800031aa80000200200046
:102a840003f82300e8f7070020aa880031aa880089
:102a9400030037008040eb0010c0b3009f0507001f
:102aa400704080008140800061004000e080480068
:102ab40070408800814088004f0478000080fa004c
:102ac400000006000000fa00881f78004ac8bf0012
:102ad4000004e00059003200a4aa8000b5aa8000d6
:102ae40040aa800051aa800018c0b3000001be00b3
:102af4000400be007df807000000e00001003c0077
:102b04000044eb000804e0001e003200cde2a900fe
:102b140061168000000024000080600000f0a7001f
:102b24000000ea000000e9004f00de0000407800e9
:102b34000080fb00610060004e00dd006216800032
:102b4400f1ff2b0081006100010070006016880015
:102b54006116800000002400008060000000e00096
:102b640036003a0040aa800051aa800002002000ea
:102b740003f82300adf7070040aa880051aa880093
:102b84002e003700a4aa8000b5aa800040aa8000c5
:102b940051aa800018c0b3000001be000400be00aa
:102ba40050f807000000e000010035000044eb008d
:102bb4000804e0001e003200cde2a8006116800087
:102bc400000024000080600000f0a7000000ea007c
:102bd4000000e9004f00de00004078000080fb00a8
:102be400610060004e00dd0062168000f1ff2b00e2
:102bf4008100610001007000601688006116800089
:102c040000002400008060000000e0000b003a0097
:102c140040aa800051aa80000200200003f823008b
:102c240081f7070040aa880051aa880003003700f2
:102c34008040eb0020c0b300380507004f04780043
:102c44000080fa00000006000000fa000040800046
:102c54001140800061004000e0804800004088008e
:102c640011408800204380000000e80020438800d1
:102c74000080fa00000006001e00fa00889fbe00d3
:102c840000408000114080004808de0000407800c9
:102c9400204f980000408000114080004008de0072
:102ca40000407800304f98000040800011408000c0
:102cb4004809dd004800de0000007100c808de009d
:102cc40000407800404f9800004080001140800090
:102cd40000407800504f980010a9800021a980007e
:102ce4006a0247000001be00410020000400780091
:102cf400b40d070010a8800021a880006a024700d4
:102d04000001be008100200004007800ad0d070022
:102d140000aa800011aa80006a0247000001be00d8
:102d2400c100200004007800a60d07006a004700d7
:102d3400000178000101200040062000d5070700ab
:102d4400fb0047007a00470024002000810178003e
:102d54000001eb008000780000c5b30032090700d1
:102d64004e5890008080fb003e5890000081fb008c
:102d7400f0032000000061004800dd008080400076
:102d840060a02f0000804000cf80de0015f807000f
:102d940062462f0033e823006af8070010a8880071
:102da40021a8880023c8bf008080fb008100ea00be
:102db400cf08de00814078000040e80023e8b70037
:102dc4000104e0005e0032002368ef00f70c070006
:102dd400f0a7880001a8880010c0b300004f780055
:102de400f2a7800003a88000120798002307980028
:102df40018c0b3006011b8001e009000ae0090002f
:102e0400b8f707000000e000010035000044eb00c3
:102e14000804e0000300320000c0eb00004f78001b
:102e24000200370010c0b300004f780018c0b30090
:102e34006011b8001e009000ae009000abf70700d0
:102e44000000e00001003c000044eb000804e00046
:102e5400080032001e009000ae0090000001be0089
:102e6400f2f60700420a2700d3f923004cf70700c3
:102e7400080037001e009000ae00900001f0a20090
:102e84000001be00e9f60700420a2700d3f9230037
:102e940043f707005ff807000004be001e00fb00b4
:102ea400cf80de00cff707000001be000800be009f
:102eb40024f807003007980041079800204080005c
:102ec400314080003e019000ce0190001df80700c3
:102ed400f0a8880001a9880018c0b300a2702d00d2
:102ee40033c223003e009000ce0090007ff707001d
:102ef4000000e00001003d000044eb000804e00095
:102f04000f00320018a9800029a98000f0a88000d1
:102f140001a9800002002000a347240009f807004b
:102f240002002000831c24001df707000001be00de
:102f34000800be00bdf6070010a9880021a988007a
:102f440022c8bf008080fb008100ea00cf08de00b9
:102f5400814078000040e80022e8b7000104e00066
:102f640007003200a0408000b14080006011b8002a
:102f7400aef60700a0408800b14088002268ef0048
:102f84004f04be000080fa00000006000800fa00aa
:102f9400889fbe0060532100104078000080fb0031
:102fa4008000eb000001be0000a62e0001002000fe
:102fb4003df707008bf70700008fbe006000b800e4
:102fc40020079800310798004ac8bf000004e000b9
:102fd40052003a0090a98000a1a9800081f707005f
:102fe4000004be00d2cc2c00c3e423001e00be00ab
:102ff400d4f7070002002000a3472400e8f60700e6
:103004000001be000800be00e5f607002007980096
:103014003107980090a98000a1a980000000400019
:10302400818048006ff707000004be00d2cc2c005a
:10303400c3e423001e00be00c2f707000200200004
:10304400a3472400d6f607000001be000800be0016
:10305400d3f607000002be00804280009142800047
:1030640018c0b3000001be000400be001df7070035
:103074000000e000010035000044eb000804e0001b
:103084001100320090a98000a1a980000000400036
:103094008180480053f707000004be00d2cc2c0006
:1030a400c3e423001e00be00a6f7070002002000b0
:1030b400a3472400baf607000001be000800be00c2
:1030c400b7f607000200370080428000914280007a
:1030d400c0a98800d1a98800d2cc2c00c3e4230065
:1030e4001e00be0097f70700d0a88800e1a888005a
:1030f40002002000a34724001e00be0091f7070031
:10310400d2cc2c00c3e423008ef707001af7070083
:1031140000ab880011ab88004100370090a9800003
:10312400a1a9800000004000818048002df707001d
:103134000004be00d2cc2c00c3e423001e00be0059
:1031440080f7070002002000a347240094f607003c
:103154000001be000800be0091f607000002be0098
:10316400804280009142800018c0b3000001be007c
:103174000400be00dbf607000000e000010035009b
:103184000044eb000804e0001100320090a9800024
:10319400a1a98000000040008180480011f70700c9
:1031a4000004be00d2cc2c00c3e423001e00be00e9
:1031b40064f7070002002000a347240078f6070004
:1031c4000001be000800be0075f6070002003700cb
:1031d4008042800091428000c0a98800d1a9880063
:1031e400d2cc2c00c3e423001e00be0055f7070018
:1031f400d0a88800e1a8880002002000a34724008a
:103204001e00be004ff70700d2cc2c00c3e42300fd
:103214004cf70700d8f6070000ab880011ab880014
:10322400a299290093e923001e00be0045f7070078
:10323400b0a88800c1a888000200200003f0230081
:103244001e00be003ff7070030a9880041a988008e
:103254004f04be000080fa00000006000a00fa00d5
:10326400004f78001207980023079800340798004d
:10327400450798001e80fb00e30f50002400320035
:10328400e30f500005003c00e10f5000080032003d
:10329400e20f50001200320041003700e40f5000ea
:1032a40027003200e50f5000310032003c003700a7
:1032b4003e019000ce0190000040eb00a200070008
:1032c4001e019000ae01900062aa880073aa8800d3
:1032d40011c0b3000040eb0090030700300037003a
:1032e4003e019000ce01900010c0b300960007008c
:1032f4001e019000ae01900082aa880093aa880063
:1033040011c0b30010c0b3008403070024003700c9
:103314003e019000ce01900020c0b3008a00070057
:103324001e019000ae019000a2aa8800b3aa8800f2
:1033340011c0b30020c0b3007803070018003700a1
:103344003e019000ce01900030c0b3007e00070023
:103354001e019000ae019000c2aa8800d3aa880082
:1033640011c0b30030c0b3006c0307000c00370079
:103374003e019000ce01900040c0b30072000700ef
:103384001e019000ae019000e2aa8800f3aa880012
:1033940011c0b30040c0b300600307000000000088
:1033a4000080fa00000006000400fa00004f7800d4
:1033b400110798001e80fb00e30f50001e0032002e
:1033c400e30f500005003c00e10f500008003200fc
:1033d400e20f50000f00320032003700e40f5000bb
:1033e4001e003200e50f5000250032002d0037008a
:1033f40011c0b3000040eb00480307001e0090001a
:103404008000eb007af6070060aa880071aa8800a1
:103414002400370011c0b30010c0b3003f030700fd
:103424001e0090008000eb0071f6070080aa88005f
:1034340091aa88001b00370011c0b30020c0b3005c
:10344400360307001e0090008000eb0068f60700ba
:10345400a0aa8800b1aa88001200370011c0b300e6
:1034640030c0b3002d0307001e0090008000eb0065
:103474005ff60700c0aa8800d1aa880009003700b7
:1034840011c0b30040c0b300240307001e00900025
:103494008000eb0056f60700e0aa8800f1aa880035
:1034a400000000000080fa00000006000200fa009c
:1034b400004f78001e80fb00e30f50001400320020
:1034c400e30f500005003c00e10f500008003200fb
:1034d400e20f50000a00320019003700e40f5000d8
:1034e4000f003200e50f50001100320014003700c5
:1034f4008040eb000040eb00080307001000370099
:103504008040eb0010c0b300040307000c00370038
:103514008040eb0020c0b300000307000800370020
:103524008040eb0030c0b300fc0207000400370009
:103534008040eb0040c0b300f80207000000000028
:103544000080fa00000006000600fa00881f7800d8
:10355400004f780012079800230798001e80fb0094
:10356400e20f5000ea003200e20f500005003c0078
:103574000000e00008003200e10f50007500320046
:1035840030023700e30f500050013200e40f5000c6
:10359400bd0132002b02370021088000f0fc2f000f
:1035a40000806000200888001e019000ae01900099
:1035b4000068290081c1240079f5070018c0b30010
:1035c40002f02f00f3772400c8f507000000e000a4
:1035d40001003c000044eb000804e0005400320009
:1035e40021088000f0fc2f00008060000040a00053
:1035f400200888001e019000ae0190000068290098
:1036040081c1240066f50700020020000310240095
:1036140063f5070018c0b30002f02f00f37724000d
:10362400b2f507000000e00001003c000044eb009c
:103634000804e0003200320021088000f0fc2f0072
:10364400008060000050a000200888001e01900047
:10365400ae0190000068290081c1240050f50700e4
:1036640002002000032824004df5070018c0b30011
:1036740002f02f00f37724009cf507000000e0001f
:1036840001003c000044eb000804e000100032009c
:103694002108800000032000010070002008880039
:1036a4001e019000ae0190000068290081c1240031
:1036b4003bf50700020020000338240038f507001a
:1036c4008cf507000000780010088800dd01370041
:1036d4001e019000ae0190000068290081c1240001
:1036e4002ff5070002002000032824002cf5070012
:1036f40080f507000000780010088800d101370029
:103704001e019000ae0190000068290081c12400d0
:1037140023f50700020020000310240020f5070011
:1037240074f507000000780010088800c501370010
:103734001e019000ae0190000068290081c12400a0
:1037440017f507006bf507000000780010088800e3
:10375400bc01370081088000f0fc2f00008060006d
:10376400800888001e019000ae01900000682900c6
:1037740081c124000af5070018c0b30002f02f002d
:10378400f377240059f507000000e00001003c0035
:103794000044eb000804e00054003200810880007b
:1037a400f0fc2f00008060000040a000800888002a
:1037b4001e019000ae0190000068290081c1240020
:1037c400f7f407000200200003102400f4f40700bb
:1037d40018c0b30002f02f00f377240043f507006c
:1037e4000000e00001003c000044eb000804e0009d
:1037f4003200320081088000f0fc2f00008060005d
:103804000050a000800888001e019000ae019000c6
:103814000068290081c12400e1f4070002002000af
:1038240003282400def4070018c0b30002f02f00c0
:10383400f37724002df507000000e00001003c00b0
:103844000044eb000804e00010003200810880000e
:103854000003200001007000800888001e01900011
:10386400ae0190000068290081c12400ccf4070057
:103874000200200003382400c9f407001df50700e6
:1038840000007800600888006e0137001e01900077
:10389400ae0190000068290081c12400c0f4070033
:1038a4000200200003282400bdf4070011f50700de
:1038b4000000780060088800620137001e01900053
:1038c400ae0190000068290081c12400b4f407000f
:1038d4000200200003102400b1f4070005f50700de
:1038e4000000780060088800560137001e0190002f
:1038f400ae0190000068290081c12400a8f40700eb
:10390400fcf4070000007800600888004d013700cf
:1039140091088000f0fc2f0000806000900888006f
:103924001e019000ae0190000068290081c12400ae
:103934009bf4070018c0b30002f02f00f3772400b3
:10394400eaf407000000e00001003c000044eb0042
:103954000804e0005400320091088000f0fc2f00bd
:10396400008060000040a000900888001e019000c4
:10397400ae0190000068290081c1240088f407008a
:10398400020020000310240085f4070018c0b300cf
:1039940002f02f00f3772400d4f407000000e000c5
:1039a40001003c000044eb000804e0003200320057
:1039b40091088000f0fc2f00008060000050a000ff
:1039c400900888001e019000ae0190000068290054
:1039d40081c1240072f4070002002000032824009f
:1039e4006ff4070018c0b30002f02f00f37724002f
:1039f400bef407000000e00001003c000044eb00be
:103a04000804e00010003200910880000003200048
:103a140001007000900888001e019000ae01900023
:103a24000068290081c124005df407000200200021
:103a3400033824005af40700aef4070000007800ad
:103a440070088800ff0037001e019000ae0190004e
:103a54000068290081c1240051f4070002002000fd
:103a6400032824004ef40700a2f4070000007800a5
:103a740070088800f30037001e019000ae0190002a
:103a84000068290081c1240045f4070002002000d9
:103a94000310240042f4070096f4070000007800a5
:103aa40070088800e70037001e019000ae01900006
:103ab4000068290081c1240039f407008df407004f
:103ac4000000780070088800de003700f1088000ec
:103ad400f0fc2f0000806000f00888001e019000b8
:103ae400ae0190000068290081c124002cf4070075
:103af40018c0b30002f02f00f37724007bf4070012
:103b04000000e00001003c000044eb000804e00079
:103b140054003200f1088000f0fc2f0000806000a7
:103b24000040a000f00888001e019000ae01900043
:103b34000068290081c1240019f407000200200054
:103b44000310240016f4070018c0b30002f02f007d
:103b5400f377240065f407000000e00001003c0056
:103b64000044eb000804e00032003200f108800059
:103b7400f0fc2f00008060000050a000f0088800d6
:103b84001e019000ae0190000068290081c124004c
:103b940003f40700020020000328240000f40700b7
:103ba40018c0b30002f02f00f37724004ff407008d
:103bb4000000e00001003c000044eb000804e000c9
:103bc40010003200f10880000003200001007000a2
:103bd400f00888001e019000ae01900000682900e2
:103be40081c12400eef30700020020000338240002
:103bf400ebf307003ff4070000007800d0088800ca
:103c0400900037001e019000ae019000006829006a
:103c140081c12400e2f307000200200003282400ed
:103c2400dff3070033f4070000007800d0088800b1
:103c3400840037001e019000ae0190000068290046
:103c440081c12400d6f307000200200003102400e1
:103c5400d3f3070027f4070000007800d008880099
:103c6400780037001e019000ae0190000068290022
:103c740081c12400caf307001ef407000000780085
:103c8400d00888006f00370001098000f0fc2f0085
:103c940000806000000988001e019000ae019000c1
:103ca4000068290081c12400bdf3070018c0b300d7
:103cb40002f02f00f37724000cf407000000e0006a
:103cc40001003c000044eb000804e0005400320012
:103cd40001098000f0fc2f00008060000040a0007b
:103ce400000988001e019000ae01900000682900c0
:103cf40081c12400aaf3070002002000031024005d
:103d0400a7f3070018c0b30002f02f00f3772400d4
:103d1400f6f307000000e00001003c000044eb0063
:103d24000804e0003200320001098000f0fc2f009a
:103d3400008060000050a000000988001e0190006f
:103d4400ae0190000068290081c1240094f30700ab
:103d5400020020000328240091f3070018c0b300d8
:103d640002f02f00f3772400e0f307000000e000e6
:103d740001003c000044eb000804e00010003200a5
:103d84000109800000032000010070000009880080
:103d94001e019000ae0190000068290081c124003a
:103da4007ff3070002002000033824007cf307009f
:103db400d0f3070000007800e008880021003700f5
:103dc4001e019000ae0190000068290081c124000a
:103dd40073f30700020020000328240070f3070097
:103de400c4f3070000007800e008880015003700dd
:103df4001e019000ae0190000068290081c12400da
:103e040067f30700020020000310240064f3070096
:103e1400b8f3070000007800e008880009003700c4
:103e24001e019000ae0190000068290081c12400a9
:103e34005bf30700aff3070000007800e008880098
:103e4400000000004f0478000080fa000000060023
:103e54000400fa00004f78001147980022479800a8
:103e64001e80fb00e20f500036003200e20f5000cb
:103e740005003c000000e00008003200e10f5000a3
:103e84001b0032006c003700e30f50004100320089
:103e9400e40f500054003200670037008460a9002a
:103ea4001e4090000080fb00610060004300dd00c4
:103eb400a204800071ff2f008100610001007000e6
:103ec400a00488002e409000674060000080fb0042
:103ed400670060004c00dd0022058000f1ff28002f
:103ee4008100610001007000200588005200370045
:103ef40084e0a9001e4090000080fb006100600087
:103f04004700dd00a2048000f1f72f00810061006a
:103f140001007000a00488002e40900067406000fb
:103f24000080fb00670060004c00dd00320580006b
:103f3400f1ff280081006100010070003005880055
:103f44003d0037008500a9001e4090000080fb0062
:103f5400610060004800dd00a2048000f1ef2f0042
:103f64008100610001007000a00488002e409000d0
:103f7400674060000080fb0067006000420580002d
:103f840081ff2f008100610001007000400588005e
:103f9400290037008760a9001e4090000080fb00c4
:103fa400610060004b00dd00b2048000f17f2f004f
:103fb4008100610001007000b00488002e40900070
:103fc400674060000080fb00670060004c00dd007b
:103fd40082058000f1ff280081006100010070006b
:103fe40080058800140037008780a9001e409000d7
:103ff4000080fb00610060004c00dd00b204800022
:10400400f1ff2e008100610001007000b0048800ff
:104014002e409000674060000080fb006700600055
:104024009205800081ff2f00810061000100700073
:1040340090058800000000000080fa0000000600df
:104044000400fa00004f7800110798001e40780021
:10405400e44f500009003e001e0090000000e00004
:10406400060032001e80fb0080004000a0562100a4
:10407400008040009e009000010878000080fa0053
:10408400000006000800fa00404798003107980035
:104094003e0090008000eb0055f307000200200072
:1040a400a3472400bef207000001be000000200068
:1040b40001f82300baf20700008fbe001e01be0003
:1040c4004e40900020fd07000080fa00000006002a
:1040d4000800fa0040479800310798003e0090001d
:1040e4008000eb0042f307000240220043972400c3
:1040f400abf207000001be000000200001f823001d
:10410400a7f20700008fbe001e01be004e409000c3
:104114000dfd07000080fa00000006000200fa000e
:10412400004f7800114798001e80fb00e20f5000fa
:104134001e003200e20f500005003c000000e000c9
:1041440008003200e10f50000f0032003200370047
:10415400e30f50001e003200e40f5000250032002f
:104164002d0037001e4090000080fb004f00dd0052
:1041740022088000f1ff2700810061000100700027
:1041840020088800240037001e4090000080fb00b7
:104194004f00dd0082088000f1ff270081006100ec
:1041a40001007000800888001b0037001e4090004a
:1041b4000080fb004f00dd0092088000f1ff270023
:1041c400810061000100700090088800120037002f
:1041d4001e4090000080fb004f00dd00f2088000cc
:1041e400f1ff27008100610001007000f0088800e1
:1041f400090037001e4090000080fb004f00dd00e6
:1042040002098000f1ff27008100610001007000b5
:1042140000098800000000000080fa000000060089
:104224000a00fa00004f780012079800230798004c
:1042340031079800044f98008040eb001e4078003e
:10424400b6ff07001e019000ae0190001e407800ea
:10425400bdfc0700be0090001e40780078ff0700f8
:104264008e4890001e407800acff07000080fa00e2
:10427400000006000c00fa00004f780012079800b6
:104284002307980031079800044f9800154f9800b1
:10429400264f98008040eb001e4078009fff0700e7
:1042a4001e019000ae0190001e407800a6fc07009d
:1042b400be0090001e40780061ff07001e49900078
:1042c4008e4890001e407800e1fe0700ae48900042
:1042d4001e40780091ff07000080fa0000000600ed
:1042e4000a00fa0020079800310798004207980056
:1042f4000040eb00004f78000000eb00100798002e
:104304002e0090004800de00004078001e4f680038
:104314002e009000004078001e4f68003e00900080
:104324004800de00004078001e4f68003e00900008
:10433400004078001e4f68000000eb001007980052
:1043440008003700ce0090001e009000008040005e
:10435400104078001e4f68001e0090000000e80026
:10436400100798009e0090003e009000808f50003f
:10437400f4ff39001e4078000080fa0000000600b7
:104384000200fa00004f780054c8bf000080fb0010
:10439400e30f500023003200e30f500007003c00fd
:1043a400e10f500012003200e10f500016003c00f3
:1043b4000000e000080032004e003700e50f500016
:1043c40031003200e50f50001c003500e60f5000ac
:1043d4003c003200470037001e407800e24f4000a6
:1043e40047003a0010c0b30054e8b7004700370054
:1043f4001e80fb004800dd00b042880020c0b300ee
:1044040054e8b700410037009e80fb00b0428000b2
:1044140000804000b042880030c0b30054e8b700c8
:104424003a0037001e80fb004800dd00c0428800cf
:1044340040c0b30054e8b700340037009e80fb004e
:10444400c042800000804000c0428800c142800019
:1044540000102000808f5000020036005468ef00e6
:104464002a003700c04280000000e00003003a0048
:1044740060c0b30054e8b7002400370050c0b30054
:1044840054e8b70021003700d0428000c137210032
:104494001e41780082707800d04280000000e8005d
:1044a400d0428800d1428000c0428000808f5000fa
:1044b40015003a005a28ef0060c0b30054e8b70072
:1044c40012003700c1428000b0428000c237210090
:1044d40083ff07009e4f500004003a00c142800051
:1044e400b0428000c2372100110007005468ef0079
:1044f400060037005468ef00000000000300370096
:104504000000000001003700000000000080fa00f5
:10451400000006000400fa00000f7800214798000c
:104524009580a8000000eb000080fa00000006005f
:104534000c00fa00300798004107980052079800d1
:104544000040eb00004f78000000eb0010079800db
:104554000040eb00404798003e009000f50f5000eb
:1045640016013200f50f500014003e00e50f500014
:1045740062003200e50f500007003e00e30f5000d8
:1045840032003200e30f5000b6013e00e10f50004c
:104594001d003200ab013700e70f5000b3003200ba
:1045a400e70f500083003900e80f5000dd003200af
:1045b400f40f5000e9003200a2013700f90f500057
:1045c4004d013200f90f500005003e00f70f500076
:1045d40026013200f70f500034013e000d01370070
:1045e400fb0f50005c013200fb0f500056013900f4
:1045f40091072000810f500067013200e10f400055
:104604008d0132008f0137000040eb00004f78002d
:104614005e009000104078000004e00003003200c7
:1046240010c0b3005ce8b700010037005c68ef001d
:10463400c185200091407800c047210001487800de
:104644001000200010079800870137005e009000da
:104654009040780050562100014878005e00900098
:1046640064004000104078000081fb008001eb00f2
:104674005e00900063004000104078000082fb0060
:104684008002eb004828dd00c820de0081007000b5
:104694004820dd0002014000838148005e00900054
:1046a4000080e800104078000080fb008000eb00f0
:1046b400c000dd00000020000201400083814800aa
:1046c4005e0090000000e800104078000080fb00cd
:1046d4008000eb00c800dd00000020000200400064
:1046e4008380480030ab880041ab880040562100ed
:1046f40011c0b300014878005b0137000040eb00b3
:10470400004f78005e009000630040001040780085
:104714000081fb008001eb005e0090000080e80057
:10472400104078000082fb008002eb004828dd0086
:10473400c820de00810070004820dd000201400036
:10474400838148005e0090000000e800104078007b
:104754000080fb008000eb00c000dd0000002000b2
:1047640002014000838148005e0090001040780000
:104774000080fb008000eb00c800dd00000020008a
:10478400020040008380480050a9880061a9880085
:1047940050a9800061a980000001be008000eb00e8
:1047a400c0472100200707004000200010079800a0
:1047b4002d0137000040eb00004f78005e009000b0
:1047c40063004000104078000081fb008001eb0092
:1047d4005e0090000080e800104078000082fb003a
:1047e4008002eb004828dd00c820de008100700054
:1047f4004820dd0002014000838148005e009000f3
:104804000000e800104078000080fb008000eb000e
:10481400c000dd0000002000020140008381480048
:104824005e009000104078000080fb008000eb00e8
:10483400c800dd0000002000020040008380480022
:1048440070a9880081a9880070a9800081a98000ce
:104854000001be008000eb00c0472100f206070003
:104864004000200010079800ff0037000040eb00d4
:10487400004f78005e009000630040001040780014
:104884000081fb008001eb005e0090000080e800e6
:10489400104078000082fb008002eb004828dd0015
:1048a400c820de00810070004820dd0002014000c5
:1048b400838148005e0090000000e800104078000a
:1048c4000080fb008000eb00c000dd000000200041
:1048d40002014000838148005e009000104078008f
:1048e4000080fb008000eb00c800dd000000200019
:1048f400020040008380480090a98800a1a9880094
:1049040090a98000a1a980000001be008000eb00f6
:10491400c0472100c406070040002000100798008b
:10492400d10037000040eb00004f78005e0090009b
:1049340090407800605321000148780060532100c2
:1049440090407800c0472100014878008ff90700a3
:104954001000200010079800c30037000040eb004f
:10496400004f78008000eb005e0090007d06070099
:10497400c0a98800d1a98800c0a98000d1a980005d
:104984000001be008000eb00c04721008d06070037
:10499400c0a98000d1a980000200200003152400d2
:1049a40068f107000001be0020c0b300e6fa07006a
:1049b4004000200010079800ab0037000040eb00d7
:1049c400004f78008000eb005e0090006506070051
:1049d40002002000a34724005af10700b0a8880071
:1049e400c1a88800b0a88000c1a8800002002000ef
:1049f400a34724006af007000001be008000eb001a
:104a0400c04721006f0607004000200010079800ef
:104a1400950037000040eb00004f78008000eb0069
:104a24005e0090004f06070002002000a347240008
:104a340044f1070030a9880041a9880030a980000a
:104a440041a9800002002000a347240054f007007d
:104a54000001be008000eb00c0472100590607009a
:104a640040002000100798007f0037000040eb0052
:104a7400004f78008000eb005e00900039060700cc
:104a840090a88800a1a8880090a88000a1a8800010
:104a94000001be008000eb00c0472100490607006a
:104aa40040002000100798006f0037000040eb0022
:104ab400004f78008000eb005e009000290607009c
:104ac40002002000832c24001ef1070070a8880037
:104ad40081a8880070a8800081a880000001be0021
:104ae4008000eb00c047210036060700400020008c
:104af400100798005c0037000040eb00004f78007e
:104b04005e009000104078000004e00004003200d1
:104b1400c04f210011c0b3000148780003003700e2
:104b2400c04f21008040eb0001487800c04f2100b5
:104b340090407800c0472100014878001000200010
:104b4400100798004800370010c0b300004f7800e9
:104b54002df40700440037000040eb00004f7800bc
:104b64008000eb005e009000fe05070050a888005e
:104b740061a8880050a8800061a880000001be00e0
:104b84008000eb00c04721000e0607004000200013
:104b9400100798003400370010c0b300004f7800ad
:104ba4005e009000104078000081fb008001eb0063
:104bb4005e0090000000e800104078000082fb00d6
:104bc4008002eb004828dd00c820de008100700070
:104bd4004820dd0002014000838148005e0090000f
:104be4000080e800104078000080fb008000eb00ab
:104bf400c000dd0000002000020140008381480065
:104c04005e00900063004000104078000080fb00cc
:104c14008000eb00c800dd0000002000020040001e
:104c24008380480000408800114088000000eb00a9
:104c3400100798000c00370010c0b300004f780034
:104c44000900370010c0b300004f780010002000a6
:104c540010079800c04721008040eb00014878000d
:104c640001003700000000001e4078000004e0004e
:104c740004003a00c24721009e0090003e009000cc
:104c8400040007000040eb00004f78000080fa00a9
:104c9400000006000c00fa00889fbe008a1f7800fe
:104ca4003007980041079800520798000f047800d5
:104cb4000f007800800478004e00900066004000e9
:104cc400800078008100e900110798000000e800e6
:104cd4000000e8000000d100800040000f007800d0
:104ce400818747000000e8000000d1000000400078
:104cf400200798002e009000e1cfb300014878000f
:104d04003e0090004800de00804078002e009000b5
:104d1400114098003e009000804078002e009000e2
:104d2400214098004e0090004800de00804078004a
:104d34002e009000314098004e0090008040780092
:104d44002e009000414098000000eb00000f780016
:104d5400090037009e007800658040009e007800be
:104d64005e0190008100410011417800ae00900086
:104d7400827078001e0fe8009e0078004e009000bc
:104d8400808f5000f3ff39004e009000650540000d
:104d94005e019000ce0090003e00900050fd0700a0
:104da400ae00900080707d004e009000e600400050
:104db4002e00900006000700890778008807780015
:104dc4004f0578004f04be000080fa000000060082
:104dd4000600fa001007980021079800ea0307006c
:104de400ae009000810f50000d0036000000eb0073
:104df400000f7800060037001e0078009e00900027
:104e040000804000104078009c0307001e0fe8005b
:104e14009e0078002e009000808f5000f6ff39002d
:104e24000080fa00000006000200fa000e0178007b
:104e34008000eb000019200096ff07000080fa00b4
:104e4400000006000400fa00100798001e009000fd
:104e54005cf20700000f78009e0090001e007800ae
:104e64000101780080007800e0ee2e0089ff070041
:104e74000080fa00000006000400fa00000025008b
:104e8400318c2400008fbe0007e2a9004016800088
:104e94004800de00614060000080fb0061006000ab
:104ea4004800dd0042168000f1ef2f008100610010
:104eb4000100700040168800cd02a8004016800052
:104ec4004900de00614060000080fb00610060007a
:104ed4004900dd0042168000f1df2f0081006100ef
:104ee4000100700040168800cd22a80007a2a90086
:104ef4000782a8000762a9000742a9000722a900a7
:104f04000702a90006e2a90006c2a90006a2a80099
:104f14001e01be000068290081c1240020ef0700a3
:104f24000200200003082400bfee07000200200056
:104f340003f82300bcee07006eef070000007800c2
:104f44002010880007e2a8009620a8005e68ef0001
:104f54000080fa00000006000400fa00004f780008
:104f64001147980012079800130020001e019000ba
:104f74009e4090001e4078004f0007000080fa0019
:104f8400000006000600fa00204798003147980008
:104f940042479800ce409000014f78001300200053
:104fa4000e017800be4090002e40900002000700e1
:104fb4000080fa00000006000a01fa0040479a0047
:104fc40051479a00320799004307990010c0b30073
:104fd40020479800ce409200e0cfb30000c06000ac
:104fe40030479800de409200414798000000eb00f3
:104ff400000f7800080037001e80e8009e0078004b
:105004003e0191008100410091407800000047007a
:10501400314098001e0fe8009e0078004e00910079
:105024000080e800808f5000f3ff39004e009100ab
:105034000040780000c0e80020479a002f10b0001c
:10504400e0ef2f000f004000e20047007f0009005e
:1050540031187800315878001010b100750107003c
:105064002f10b1006a0107000004e00001003a00bb
:10507400ea000700d8000700010037000000000024
:1050840063010700e14f500004003a00214380000f
:1050940010032000808f5000f8ff36002143800069
:1050a40010032000808f500001003600ce0007005e
:1050b4000080fa00000006000a02fa0044202000e2
:1050c4000e024200004a7800502020000e004000ea
:1050d4000148780032079a0043079a0010c0b300d1
:1050e40020479800412020008e804000e0cfb3008c
:1050f4001140600030479800502020000e0040000e
:10510400904078004147980020c0b30020479a009f
:105114000040eb0030479a00402020000e00400081
:10512400104078000004a00040479a004e0092000e
:1051340080407800302020000e00400001487800b4
:105144002f10b000e0ef2f000f004000e2004700f6
:105154007f00090031187800315878001010b10030
:10516400340107002f10b1002f10b000e0ef2f0022
:105174000f004000311020008100470000010900a9
:10518400315878001010b1002a0107002f10b10027
:105194001f0107000004e00001003a009f0007001f
:1051a4008d0007000100370000000000180107000f
:1051b400e14f500004003a00214380001003200016
:1051c400808f5000f8ff3600214380001003200038
:1051d400808f500001003600830007000000eb00c0
:1051e400000f78000000eb00000f78000800370083
:1051f4001e007800be00920000804000218720003d
:105204009e80400091409000014878001e0fe80005
:105214009e0078004e009200808f5000f4ff390009
:105224000080fa00000006000e02fa00452020006b
:105234008e824200804a780031079a0042079a0021
:1052440053079a0064079a0010c0b30020479800df
:10525400412020008e804000e0cfb3001140600068
:10526400304798000000eb00000f7800080037007a
:105274001e00e8009e0078003e019200810041007b
:105284009140780000004700314098001e0fe8006c
:105294009e0078004e009200808f5000f4ff390089
:1052a4004e009200004078000040e80020479a0039
:1052b4000040eb0030479a00402020000e004000e0
:1052c400104078000004a00040479a006e0092004d
:1052d40080407800302020000e0040000148780013
:1052e4002f10b000e0ef2f000f004000e200470055
:1052f4007f00090031187800315878001010b1008f
:10530400cc0007002f10b1002f10b000e0ef2f00e9
:105314000f00400031102000810047000001090007
:10532400315878001010b100c20007002f10b100ee
:10533400b70007000004e00001003a00370007004e
:10534400250007000100370000000000b00007003e
:10535400e14f500004003a00214380001003200074
:10536400808f5000f8ff3600214380001003200096
:10537400808f5000010036001b0007000000eb0086
:10538400000f7800080037001e007800de0092004d
:1053940000804000218720009e80400091409000c2
:1053a400014878001e0fe8009e0078006e0092000d
:1053b400808f5000f4ff39000080fa0000000600de
:1053c4000000fa00204380000000e8002043880029
:1053d4000080fa00000006000000fa006428ef00d4
:1053e4000080fa00000006000000fa0010c0b300bc
:1053f40066e8b7000080fa00000006000000fa002a
:105404006668ef000080fa00000006000000fa0061
:1054140066c8bf000080fa00000006000201fa001e
:10542400000000005ec8bf000004e000fdff3a0079
:1054340097000700e14f50000d003a000e0078007d
:105444009e0007002187200000010900be58780053
:105454001e10b100610580000007200001007000eb
:105464006005880010c0b3005ee8b7000602a8001b
:105474000080fa00000006000201fa0020872000e4
:10548400104078000004e0003f003a005fc8bf000d
:105494000004e0000b003a005fc8bf008080fb00fe
:1054a4002087200000804000104090000080fb0016
:1054b400101088005fc8bf000040e8005fe8b70034
:1054c400510037005fc8bf000080fb008000e90086
:1054d40020972000104078000080fb00808f50004f
:1054e40024003d0060c8bf000080fb000000e00015
:1054f40003003200e10f5000050032001b003700aa
:105504000662a80010c0b30060e8b7003e00370090
:105514005fc8bf000080fb000001e90000108000ac
:10552400804078002087200000004100114098004e
:1055340020972000904078005fc8bf0080cf5000c3
:1055440002003a0006a2a8000100370006a2a90042
:105554000682a8006068ef005fc8bf000040e80052
:105564005fe8b70000000000270037006068ef0024
:10557400250037005f68ef0040c0b3005ee8b70065
:105584000642a800200037002097200090407800b1
:105594005fc8bf0080cf50000b0036005fc8bf005b
:1055a4008080fb0020872000008040001040900095
:1055b4000080fb00101088005fc8bf000040e800b6
