:020000040000fa
:080000000002040000000000f2
:020000040000fa
:040008000c050000e3
:020000040000fa
:04000c000c050000df
:020000040000fa
:040010000c050000db
:020000040000fa
:040014000c050000d7
:020000040000fa
:040018000c050000d3
:020000040000fa
:04001c000c050000cf
:020000040000fa
:040020000c050000cb
:020000040000fa
:040024000c050000c7
:020000040000fa
:040028000c050000c3
:020000040000fa
:04002c000c050000bf
:020000040000fa
:040030000c050000bb
:020000040000fa
:04003400d8020000ee
:020000040000fa
:040038000c050000b3
:020000040000fa
:04003c000c050000af
:020000040000fa
:040040000c050000ab
:020000040000fa
:04004400fe020000b8
:020000040000fa
:04004800240300008d
:020000040000fa
:04004c000c0500009f
:020000040000fa
:040050000c0500009b
:020000040000fa
:04005400c8030000dd
:020000040000fa
:040058002004000080
:020000040000fa
:04005c009603000007
:020000040000fa
:040060000c0500008b
:020000040000fa
:040064000c05000087
:020000040000fa
:040068000c05000083
:020000040000fa
:04006c004804000044
:020000040000fa
:040070000c0500007b
:020000040000fa
:040074000c05000077
:020000040000fa
:040078000c05000073
:020000040000fa
:04007c000c0500006f
:020000040000fa
:040080000c0500006b
:020000040000fa
:040084000c05000067
:020000040000fa
:040088000c05000063
:020000040000fa
:04008c000c0500005f
:020000040000fa
:040090000c0500005b
:020000040000fa
:040094004a0300001b
:020000040000fa
:0400980070030000f1
:020000040000fa
:04009c000c0500004f
:020000040000fa
:0400a0000c0500004b
:020000040000fa
:0400a4000c05000047
:020000040000fa
:0400a8000c05000043
:020000040000fa
:0400ac000c0500003f
:020000040000fa
:0400b0000c0500003b
:020000040000fa
:0400b4000c05000037
:020000040000fa
:0400b8000c05000033
:020000040000fa
:0400bc000c0500002f
:020000040000fa
:0400c0000c0500002b
:020000040000fa
:0400c4000c05000027
:020000040000fa
:0400c8000c05000023
:020000040000fa
:0400cc000c0500001f
:020000040000fa
:0400d0000c0500001b
:020000040000fa
:0400d4000c05000017
:020000040000fa
:0400d8000c05000013
:020000040000fa
:0400dc000c0500000f
:020000040000fa
:0400e0000c0500000b
:020000040000fa
:0400e4000c05000007
:020000040000fa
:0400e8000c05000003
:020000040000fa
:0400ec000c050000ff
:020000040000fa
:0400f0000c050000fb
:020000040000fa
:0400f4000c050000f7
:020000040000fa
:0400f8000c050000f3
:020000040000fa
:0400fc000c050000ef
:020000040000fa
:040100000c050000ea
:020000040000fa
:040104000c050000e6
:020000040000fa
:040108000c050000e2
:020000040000fa
:04010c000c050000de
:020000040000fa
:040110000c050000da
:020000040000fa
:040114000c050000d6
:020000040000fa
:040118000c050000d2
:020000040000fa
:04011c000c050000ce
:020000040000fa
:040120000c050000ca
:020000040000fa
:040124000c050000c6
:020000040000fa
:040128000c050000c2
:020000040000fa
:04012c00f6030000d6
:020000040000fa
:040130000c050000ba
:020000040000fa
:040134000c050000b6
:020000040000fa
:040138000c050000b2
:020000040000fa
:04013c000c050000ae
:020000040000fa
:040140000c050000aa
:020000040000fa
:040144000c050000a6
:020000040000fa
:040148000c050000a2
:020000040000fa
:04014c000c0500009e
:020000040000fa
:040150000c0500009a
:020000040000fa
:040154000c05000096
:020000040000fa
:040158000c05000092
:020000040000fa
:04015c000c0500008e
:020000040000fa
:040160000c0500008a
:020000040000fa
:040164000c05000086
:020000040000fa
:040208000c050000e1
:020000040000fa
:04020c000c050000dd
:020000040000fa
:040210000c050000d9
:020000040000fa
:040214000c050000d5
:020000040000fa
:040218000c050000d1
:020000040000fa
:04021c000c050000cd
:020000040000fa
:040220000c050000c9
:020000040000fa
:040224000c050000c5
:020000040000fa
:040228000c050000c1
:020000040000fa
:04022c000c050000bd
:020000040000fa
:040230000c050000b9
:020000040000fa
:040234000c050000b5
:020000040000fa
:040238000c050000b1
:020000040000fa
:04023c000c050000ad
:020000040000fa
:040240000c050000a9
:020000040000fa
:040244000c050000a5
:020000040000fa
:040248000c050000a1
:020000040000fa
:04024c000c0500009d
:020000040000fa
:040250000c05000099
:020000040000fa
:040254000c05000095
:020000040000fa
:040258000c05000091
:020000040000fa
:04025c000c0500008d
:020000040000fa
:040260000c05000089
:020000040000fa
:040264000c05000085
:020000040000fa
:040268000c05000081
:020000040000fa
:04026c000c0500007d
:020000040000fa
:040270000c05000079
:020000040000fa
:040274000c05000075
:020000040000fa
:040278000c05000071
:020000040000fa
:04027c000c0500006d
:020000040000fa
:040280000c05000069
:020000040000fa
:040284000c05000065
:020000040000fa
:040288000c05000061
:020000040000fa
:04028c000c0500005d
:020000040000fa
:040290000c05000059
:020000040000fa
:040294000c05000055
:020000040000fa
:040298000c05000051
:020000040000fa
:04029c000c0500004d
:020000040000fa
:0402a0000c05000049
:020000040000fa
:0402a4000c05000045
:020000040000fa
:0402a8000c05000041
:020000040000fa
:0402ac000c0500003d
:020000040000fa
:0402b0000c05000039
:020000040000fa
:0402b4000c05000035
:020000040000fa
:0402b8000c05000031
:020000040000fa
:0402bc000c0500002d
:020000040000fa
:0402c0000c05000029
:020000040000fa
:0402c4000c05000025
:020000040000fa
:0402c8000c05000021
:020000040000fa
:0402cc000c0500001d
:020000040000fa
:0402d0000c05000019
:020000040000fa
:0402d4000c05000015
:020000040000fa
:0402d8000c05000011
:020000040000fa
:0402dc000c0500000d
:020000040000fa
:0402e0000c05000009
:020000040000fa
:0402e4000c05000005
:020000040000fa
:0402e8000c05000001
:020000040000fa
:0402ec000c050000fd
:020000040000fa
:0402f0000c050000f9
:020000040000fa
:0402f4000c050000f5
:020000040000fa
:0402f8000c050000f1
:020000040000fa
:0402fc000c050000ed
:020000040000fa
:040300000c050000e8
:020000040000fa
:040304000c050000e4
:020000040000fa
:040308000c050000e0
:020000040000fa
:04030c000c050000dc
:020000040000fa
:040310000c050000d8
:020000040000fa
:040314000c050000d4
:020000040000fa
:040318000c050000d0
:020000040000fa
:04031c000c050000cc
:020000040000fa
:040320000c050000c8
:020000040000fa
:040324000c050000c4
:020000040000fa
:040328000c050000c0
:020000040000fa
:04032c000c050000bc
:020000040000fa
:040330000c050000b8
:020000040000fa
:040334000c050000b4
:020000040000fa
:040338000c050000b0
:020000040000fa
:04033c000c050000ac
:020000040000fa
:040340000c050000a8
:020000040000fa
:040344000c050000a4
:020000040000fa
:040348000c050000a0
:020000040000fa
:04034c000c0500009c
:020000040000fa
:040350000c05000098
:020000040000fa
:040354000c05000094
:020000040000fa
:040358000c05000090
:020000040000fa
:04035c000c0500008c
:020000040000fa
:040360000c05000088
:020000040000fa
:040364000c05000084
:020000040000fa
:10040000af5521000e7f24000e018800000000007f
:10041000000020000000e000020032000001200087
:1004200020028800140007007d0107000000e000a2
:1004300003003a0080b322000100200002003700d0
:100440000000200001002000810f70000100320038
:1004500014000700000020000000e000020032004d
:100460000000020000000000b212020000000000c4
:100470000040da000000fe004440a90020012000f6
:100480000000e0000300320000002000a00188000e
:100490004440a800000006008a1f78008b1f7800e7
:1004a0000000060091018800800478000000eb0045
:1004b0001a003700e284440032a0b4009905ba0063
:1004c000e284440032a0b4009906ba00e2844400f9
:1004d00032a0b4000006eb00476fde00fd07b2005b
:1004e000636ce10003003a00ebff07000000eb0043
:1004f0000a003700606ce10004003a00005deb0088
:100500008b05e900fdff3e00040037006168e10053
:10051000010032000086eb000b00070019c7ba008b
:100520001905ba000e04e00003003a000a00e000da
:10053000e0ff3a0000000600fe07b2009e018800be
:100540008a047800f5ff3700395dba008b05e900b1
:100550000c003200295dba008b05e900080032006a
:100560000c00e00003003a00e284440032a0b40032
:10057000f5ff370019ddba008b05e900faff3a00f4
:100580008904e800e184440032a0b40000000600c1
:1005900016180400000000002818040000000000e5
:1005a0003418040000000000461804000000000099
:1005b0003600f800809fbe00829fbe00849fbe0070
:1005c000869fbe000000fa008460a90030aa800067
:1005d0000000e0000200320030aa800000000100ac
:1005e0000080fa004f03be004f02be004f01be0064
:1005f0004f00be003600f900004006003600f8004b
:10060000809fbe00829fbe00849fbe00869fbe006a
:100610000000fa0084e0a90040aa80000000e00089
:100620000200320040aa8000000001000080fa00b1
:100630004f03be004f02be004f01be004f00be0080
:100640003600f900004006003600f800809fbe002a
:10065000829fbe00849fbe00869fbe000000fa00fd
:100660008500a90050aa80000000e00002003200ce
:1006700050aa8000000001000080fa004f03be0075
:100680004f02be004f01be004f00be003600f90011
:10069000004006003600f800809fbe00829fbe002a
:1006a000849fbe00869fbe000000fa008760a900fc
:1006b00060aa80000000e0000200320060aa800012
:1006c000000001000080fa004f03be004f02be0090
:1006d0004f01be004f00be003600f900004006008a
:1006e0003600f800809fbe00829fbe00849fbe003f
:1006f000869fbe000000fa008780a90070aa8000d3
:100700000000e0000200320070aa8000000001003a
:100710000080fa004f03be004f02be004f01be0032
:100720004f00be003600f90000400600809fbe006a
:10073000821f78000000fa0085a0a90060c8bf00f1
:100740000080fb00011880000001400000552100de
:10075000000041000108780060c8bf00e34f50006e
:1007600004003e0060c8bf000040e80060e8b70039
:10077000030037006068ef0010c0b30061e8b70005
:100780000080fa004f0178004f00be0000400600d4
:100790003600f800809fbe00829fbe00849fbe008e
:1007a000869fbe000200fa008560a90004003700a1
:1007b00030118000004f78001e80fb009a0a07006d
:1007c00010118000610060000000e000f8ff3a00b6
:1007d0000080fa004f03be004f02be004f01be0072
:1007e0004f00be003600f90000400600801f780070
:1007f0000000fa008c20a900101180006800600041
:100800000000e000010032002262a9001011800007
:10081000640060000000e000010032002242a900f4
:1008200010118000620060000000e0000100320052
:100830002222a9000080fa004f0078000040060044
:100840003600f800809fbe00829fbe00849fbe00dd
:10085000869fbe000000fa008580a9009510070061
:10086000e14f500002003a009c10070001003700e1
:100870004068ef000080fa004f03be004f02be0048
:100880004f01be004f00be003600f90000400600d8
:100890003600f800809fbe00829fbe00849fbe008d
:1008a000869fbe000000fa008620a900411080004b
:1008b00000402000008060000000e00023003200c3
:1008c0004cc8bf00e14f500020003a0007e2a900e9
:1008d000401680004800de00614060000080fb00a0
:1008e000610060004800dd0042168000f1ef2f003b
:1008f000810061000100700040168800cd02a80050
:10090000401680004900de00614060000080fb006e
:10091000610060004900dd0042168000f1df2f0019
:10092000810061000100700040168800cd22a800ff
:100930000942a900000000004cc8bf000004e0000c
:10094000fdff3a000602a8002c003700411080008d
:1009500000082000008060000000e000020032007b
:1009600008e2a900250037004110800000042000a3
:10097000008060000000e0000200320008c2a90010
:100980001e0037004cc8bf000080fb00e20f500083
:100990000f003200e20f500003003c00e10f500056
:1009a0000600320013003700e30f50000a00320047
:1009b000e40f50000d0032000e0037004d68ef00cc
:1009c00020c0b3004ce8b700240e07000b0037002e
:1009d000220e0700090037004d68ef0020c0b30069
:1009e0004ce8b7001d0e0700040037004c68ef000c
:1009f000020037004c68ef00000000000080fa00a1
:100a00004f03be004f02be004f01be004f00be00ac
:100a10003600f900004006000040da000000fe0049
:100a20000000050003f0a200889fbe008a9fbe0060
:100a30008c1f78001b010700220133006450e10085
:100a40004f0032006420e1005200320003826c004b
:100a500007003b000905d0000306d000820f5400b8
:100a60000c065d00020039000200320089017800a6
:100a7000030678008582550004003d000003fd0058
:100a80008103fd008502ea008b854200840f72001d
:100a900002003b0060001000e08018006011b80008
:100aa0000005eb007a28e1000a0039000600780012
:100ab000c75ddd00f707b200878075002d003700a5
:100ac000828171000a017800610560008180d10097
:100ad0000080d3008502e900f9ff3b0006044000d6
:100ae0008784480002003b0060041400e0841c007e
:100af0000988a300070032008a8171008281710099
:100b0000610164008904d1000884d3008b05e800ea
:100b1000170037000978a30013003a000b00e0002b
:100b2000130034008b05e9000804440089844c005c
:100b30000a4474000978a3000d003a000b00e0009d
:100b4000070034008b05e9000804440089844c0048
:100b500001003a000b0020000978a300f7ff3200e3
:100b60000001eb0002003700828171000a01780069
:100b7000910007000cf0a70001f0a000da00370098
:100b80006420e10002003a00838f6c00da00330039
:100b90000801be000200be00d3003700889fbe00df
:100ba0008a9fbe008c1f7800be000700c50033007e
:100bb00003866c006450e1002e0032006420e100e6
:100bc000330032006150e1002f0032006120e1006b
:100bd0003100320085855500eb07b0000900200088
:100be00008042000050037000804440089844c00f4
:100bf0000a0031000603430087834b0000015300c5
:100c000081815b00f8ff33000203be000800a000f2
:100c10000804440089844c00f6ff3900c639dd0021
:100c20008301730001003200130020008904d10009
:100c30000884d3000998a300050032000800a7002b
:100c40000300a0008904d1000884d3008b05e800cc
:100c50008904d1000884d3000001eb000281d20096
:100c60005500070001f0a1000cf0a70001f0a00062
:100c70009d0037006420e1009f0032000801be00a3
:100c80000200be00f7ff37006120e1009a00320049
:100c90006000b800f3ff37000000200001f82700d3
:100ca000f0ff3700140020003a023700f4ff2f0055
:100cb000380237000001be00650007000470a7007d
:100cc00003f0a1006509b100160032000d003500e7
:100cd0006828e10006003500f0ff2f00f1ff270033
:100ce0000300e00013003b000100280000000500a5
:100cf00000004000818048008502e900fcff3a00c6
:100d000008003700f88f420002003c008000eb0032
:100d1000000005008100d1000080d3008502e800ba
:100d2000fcff3a000300e00002003b0060001000fe
:100d3000e0801800000006000001be00440007002b
:100d40000470a70003f0a10003f8a30013003a0009
:100d50006509b10010003200090035006928e10082
:100d600002003500010028000000050000004000de
:100d7000818048008502e900fcff3a00000006007f
:100d8000f88f4200050035008100d1000080d300bb
:100d90008502e800fcff3a00000006008000eb003e
:100da000000005004f89de00820178001402370040
:100db0006011b800220237008100200061805500d8
:100dc0000b003d000b00200061fe2f000100e10040
:100dd0001d00340082817100610164008904d1002a
:100de0000884d3000000e800faff3a0071002000f8
:100df000610064000300700002006000090032001e
:100e000061044400e0844c000988a500050032001c
:100e10008b05e8006808e10002003a008904d1006f
:100e20000884d300f20f20000258e10005003d00c5
:100e3000c75ddd00f907b200898075000800780001
:100e4000000006000bf827008b007800000005006a
:100e5000c70ade00f107b200f50fb2000800320049
:100e6000e1cf4200020032000170a0002400050022
:100e7000810f7000010032000408050044000500e5
:100e8000810f700002003a00140005008502e9009d
:100e90000000400081c04800fcff3b000170a00042
:100ea000240005000004be00e9ff07000003be00a7
:100eb0000405be000200be00e5ff0700844f750078
:100ec000000006000200be006450e100050036008c
:100ed0006420e100020036000968a30001003a0026
:100ee0000800be000160a0004f0678004f05be005c
:100ef0004f04be0000000600f0ff2f00f1ff2700a6
:100f0000f9ff3700889fbe008a9fbe008c1f7800c3
:100f1000e4ff0700ebff330003866c006450e10040
:100f2000240032006420e100270032006150e1001b
:100f3000220032006120e100210032008b85420056
:100f4000eb07b1000134b800003ab80008044200d1
:100f500089844a00013ab8000030b8008880400017
:100f600009014a000400330000004000818048006d
:100f7000020149008b05e900c909dd008301700009
:100f80000100320013002000c814de004814dd0008
:100f90004709de001200b200c808de0008847000b5
:100fa00085ff070001f0a1000cf0a70001f0a000f0
:100fb000cdff37006120e100cfff32000801be0005
:100fc0000200be00f7ff37006150e100fcff3a006d
:100fd000c9ff3700889fbe008a9fbe008c1f780023
:100fe0000004be009aff07000478a30026003a0020
:100ff0006120e1002500320009f8a30025003a0035
:101000006420e10021003200f507b1000508a300cb
:101010000200320000004000818048006044b800b7
:1010200003102000020020000000400081804800e2
:101030000805440089854c000a0541008b8549005c
:101040000a0550008b855800030033000a00be00db
:1010500002047400838474008301d1000281d300f0
:10106000830f7100f0ff3a008904d1000884d30097
:101070006001490082017800c1adde00fb07b000cd
:101080004dff070098ff37000960a0000800be0070
:1010900095ff37001202200012438800f0ff2f0056
:1010a000f1ff270090ff37006022b8000602200001
:1010b0000000d0008180d2000482d2008582d2005c
:1010c0000000a0000202520083825a000300310097
:1010d0000202420083824a000000a1000603e900e8
:1010e000f3ff3a0000000600889fbe008a9fbe0002
:1010f00030044200b0844a0030054b0090854b001c
:101100006000b1000898be000a90be000440e100f3
:1011100005c8e10006d0e10007d8e1000200310077
:10112000680040001008e8004f05be004f04be00f4
:1011300000000600889fbe008a9fbe003004be00eb
:101140002005be000418540005985c0006185d00d8
:1011500007985d00110020000440e10005c8e1008f
:1011600006d0e10007d8e100010039008000eb0063
:10117000108810004f05be004f04be00000006009e
:101180001200fa00889fbe008a9fbe008c9fbe009e
:10119000e0b79f00f1b79f0082bf9f0093bf9f0001
:1011a0000605be000404be000000eb00d0b79f009f
:1011b000c0b79f00b0b79f00a0b79f0090b79f0037
:1011c0000006eb005fb19700cfb0970082014100ad
:1011d0003fb097000200e00004003d003700070028
:1011e0007e805700c0ff0700030037003300070070
:1011f0007e805700cfff0700dfb697000d00e000ac
:101200000c0035006fb29700ffb297000fbb97003c
:101210009fbb970010002000010020006011b80063
:1012200000027200818272000203730083837300e4
:101230001b0007000c06e80001042000810f560087
:10124000e0ff3a000d00e00004003d000802be008f
:101250000a03be007e805700a3ff07005fa8970027
:101260000000e00005003a001fb29700afb29700ff
:101270003fb39700cfb39700090007006fb0970006
:10128000ffb097000fb997009fb997004f06be00b7
:101290004f05be004f04be000080fa0000000600ab
:1012a0000100070000000600a4b79f00b5b79f002b
:1012b000c6b79f00d7b79f00000006004f09de00a9
:1012c00082817100b3b79f004f01de008180400032
:1012d00082807000a1b79f008fb097004f09de0099
:1012e000000040000200700090b79f007fa89700a8
:1012f0004f01de00818040008280700081b79f0036
:101300000d0007004f3ade000000400004007000ae
:10131000f0af9f00080007000402420085824a00e7
:1013200006034b0087834b00dfff07000802be0067
:101330000a03be00000006002fb29700bfb297005c
:101340004fb39700dfb3970000000600881f7800b6
:1013500018002000881f780089ff07008f87e900a8
:101360004f04780000000600801feb0084ff070098
:101370008f87e90000000600889fbe008a9fbe009c
:10138000e00f5000e08f5800e00f5900e08f590047
:101390000c003d006044b8006055b80000005400e7
:1013a00081805c0002015d0083815d0018002000e7
:1013b0001500070008003d00180007000004eb00be
:1013c000050037000004eb000f00070002003d009d
:1013d0001200070018002000dcff07000800e000f2
:1013e000060032006022b8006033b80000005200ee
:1013f00081805a0002015b0083815b004f05be00c3
:101400004f04be0000000600e00f5200e08f5a00bb
:10141000e00f5b00e08f5b00000006006044b80056
:101420006055b8000402540085825c0006035d002c
:1014300087835d0000000600889fbe008a9fbe0073
:101440008c1f7800e00f5000e08f5800e00f59002b
:10145000e08f59000d003d006044b8006055b800b1
:101460000000540081805c0002015d0083815d000a
:101470001c0020000820e10009a8e1000ab0e100fa
:101480000bb8e1000d003d00080037000006eb003e
:10149000e00f5200e08f5a00e00f5b00e08f5b002e
:1014a00006003d006044b8006055b80004025400d6
:1014b00085825c0006035d0087835d00aaff07004c
:1014c0000c00e000060032006022b8006033b80073
:1014d0000000520081805a0002015b0083815b00a2
:1014e0004f0678004f05be004f04be000000060006
:1014f000889fbe008a9fbe008c1f78000006eb000c
:10150000e00f5000e08f5800e00f5900e08f5900c5
:1015100007003d006044b8006055b800000054006a
:1015200081805c0002015d0083815d001c00200061
:10153000e00f5200e08f5a00e00f5b00e08f5b008d
:1015400007003d006044b8006055b8000402540034
:1015500085825c0006035d0087835d000c00a200ad
:10156000660007000c00e000060032006022b800b0
:101570006033b8000000520081805a0002015b0015
:1015800083815b004f0678004f05be004f04be000c
:1015900000000600889fbe008a9fbe00841f78005e
:1015a00040fe07004f00780011003300f0ff2f00cd
:1015b000838f6c0006003b00040565000a00a7004d
:1015c0000800370009f0a6001000200008003700ce
:1015d000820f5400838f5c0003003900100020004c
:1015e00001003e000000200009f0a7000000ea0012
:1015f0004f05be004f04be000000e00000000600e2
:10160000881f7800030478000300e00007003d0015
:1016100060001000e080180060011900e0811900ee
:1016200002003b0001f02d0003003700040007001a
:1016300008f0a70001f0a0004f04780000000600a9
:10164000889fbe008a9fbe00008270000402710065
:1016500004827100260032000004be000200be00b9
:101660006011b8006b092000950220000182cf00b4
:101670000a0039000541b1000082cf00070039009f
:101680000541b1000982cf00040039000541b100d5
:101690000882cf00010039000541b1000542520027
:1016a000120032000a003b00828171006101640077
:1016b0008100d1000080d3008984d3000884d30046
:1016c0008b05e8000442e800f7ff3a000700370006
:1016d0000804440089844c000000480081804800d0
:1016e0008b05e9000442e900f9ff3a00b2fd07006a
:1016f0004f05be004f04be0000000600889fbe00dc
:101700008a9fbe008c9fbe000404b8000506b80086
:101710008904460060854e000606b8000a054600aa
:10172000e0854e000706b8008b054600040eb800a1
:10173000890446000a854e00e0854d00050eb8007c
:101740000a0546008b854e00060eb8008b05460044
:101750000416b8000a0546008b854e000516b80031
:101760008b054600041eb8008b0546000800be002d
:101770000a01be004f06be004f05be004f04be006a
:1017800000000600800078003104e000feff3a000f
:0c1790000080ea0000804000000006001d
:020000040000fa
:10179c00d04000001806000000d00000612c0000b2
:1017ac0007070000d05100002c070000d0400000bb
:0417bc00180600000b
:020000040000fa
:1017c0000600fa00881f7800004f78001207980082
:1017d000230798001e80fb00e20f5000ea00320051
:1017e000e20f500005003c000000e000080032005d
:1017f000e10f50007500320030023700e30f500057
:1018000050013200e40f5000bd0132002b023700be
:1018100021088000f0fc2f00008060002008880074
:101820001e019000ae0190000068290081c12400d3
:10183000dafc070018c0b30002f02f00f377240091
:101840001afd07000000e00001003c000044eb002e
:101850000804e0005400320021088000f0fc2f0052
:10186000008060000040a000200888001e01900059
:10187000ae0190000068290081c12400c7fc070068
:101880000200200003102400c4fc070018c0b300ad
:1018900002f02f00f377240004fd07000000e000b1
:1018a00001003c000044eb000804e000320032007c
:1018b00021088000f0fc2f00008060000050a00094
:1018c000200888001e019000ae01900000682900e9
:1018d00081c12400b1fc070002002000032824007d
:1018e000aefc070018c0b30002f02f00f37724000d
:1018f000eefc07000000e00001003c000044eb00ab
:101900000804e000100032002108800000032000dd
:1019100001007000200888001e019000ae019000b8
:101920000068290081c124009cfc070002002000ff
:101930000338240099fc0700defc07000000780053
:1019400010088800dd0137001e019000ae019000f4
:101950000068290081c1240090fc070002002000db
:10196000032824008dfc0700d2fc0700000078004b
:1019700010088800d10137001e019000ae019000d0
:101980000068290081c1240084fc070002002000b7
:101990000310240081fc0700c6fc0700000078004b
:1019a00010088800c50137001e019000ae019000ac
:1019b0000068290081c1240078fc0700bdfc0700f5
:1019c0000000780010088800bc0137008108800002
:1019d000f0fc2f0000806000800888001e0190004d
:1019e000ae0190000068290081c124006bfc070053
:1019f00018c0b30002f02f00f3772400abfc0700ff
:101a00000000e00001003c000044eb000804e0009e
:101a10005400320081088000f0fc2f00008060003c
:101a20000040a000800888001e019000ae019000d8
:101a30000068290081c1240058fc07000200200032
:101a40000310240055fc070018c0b30002f02f005b
:101a5000f377240095fc07000000e00001003c0043
:101a60000044eb000804e0003200320081088000ee
:101a7000f0fc2f00008060000050a000800888006b
:101a80001e019000ae0190000068290081c1240071
:101a900042fc070002002000032824003ffc07004e
:101aa00018c0b30002f02f00f37724007ffc07007a
:101ab0000000e00001003c000044eb000804e000ee
:101ac0001000320081088000000320000100700037
:101ad000800888001e019000ae0190000068290077
:101ae00081c124002dfc07000200200003382400df
:101af0002afc07006ffc07000000780060088800df
:101b00006e0137001e019000ae01900000682900b0
:101b100081c1240021fc07000200200003282400ca
:101b20001efc070063fc07000000780060088800c6
:101b3000620137001e019000ae019000006829008c
:101b400081c1240015fc07000200200003102400be
:101b500012fc070057fc07000000780060088800ae
:101b6000560137001e019000ae0190000068290068
:101b700081c1240009fc07004efc0700000078002a
:101b8000600888004d01370091088000f0fc2f00ac
:101b900000806000900888001e019000ae01900057
:101ba0000068290081c12400fcfb070018c0b300b5
:101bb00002f02f00f37724003cfc07000000e00057
:101bc00001003c000044eb000804e0005400320037
:101bd00091088000f0fc2f00008060000040a00011
:101be000900888001e019000ae0190000068290056
:101bf00081c12400e9fb070002002000031024003b
:101c0000e6fb070018c0b30002f02f00f3772400b2
:101c100026fc07000000e00001003c000044eb004f
:101c20000804e0003200320091088000f0fc2f0030
:101c3000008060000050a000900888001e01900005
:101c4000ae0190000068290081c12400d3fb070089
:101c50000200200003282400d0fb070018c0b300b6
:101c600002f02f00f377240010fc07000000e000d2
:101c700001003c000044eb000804e00010003200ca
:101c80009108800000032000010070009008880087
:101c90001e019000ae0190000068290081c124005f
:101ca000befb07000200200003382400bbfb070036
:101cb00000fc07000000780070088800ff00370073
:101cc0001e019000ae0190000068290081c124002f
:101cd000b2fb07000200200003282400affb07002e
:101ce000f4fb07000000780070088800f30037005c
:101cf0001e019000ae0190000068290081c12400ff
:101d0000a6fb07000200200003102400a3fb07002d
:101d1000e8fb07000000780070088800e700370043
:101d20001e019000ae0190000068290081c12400ce
:101d30009afb0700dffb07000000780070088800ae
:101d4000de003700f1088000f0fc2f00008060000a
:101d5000f00888001e019000ae0190000068290084
:101d600081c124008dfb070018c0b30002f02f00d2
:101d7000f3772400cdfb07000000e00001003c00e9
:101d80000044eb000804e00054003200f108800039
:101d9000f0fc2f00008060000040a000f0088800e8
:101da0001e019000ae0190000068290081c124004e
:101db0007afb0700020020000310240077fb0700d5
:101dc00018c0b30002f02f00f3772400b7fb070020
:101dd0000000e00001003c000044eb000804e000cb
:101de00032003200f1088000f0fc2f00008060001b
:101df0000050a000f00888001e019000ae01900085
:101e00000068290081c1240064fb07000200200053
:101e10000328240061fb070018c0b30002f02f0064
:101e2000f3772400a1fb07000000e00001003c0064
:101e30000044eb000804e00010003200f1088000cc
:101e40000003200001007000f00888001e019000cf
:101e5000ae0190000068290081c124004ffb0700fb
:101e600002002000033824004cfb070091fb070010
:101e700000007800d0088800900037001e01900014
:101e8000ae0190000068290081c1240043fb0700d7
:101e9000020020000328240040fb070085fb070008
:101ea00000007800d0088800840037001e019000f0
:101eb000ae0190000068290081c1240037fb0700b3
:101ec000020020000310240034fb070079fb070008
:101ed00000007800d0088800780037001e019000cc
:101ee000ae0190000068290081c124002bfb07008f
:101ef00070fb070000007800d00888006f003700f2
:101f000001098000f0fc2f000080600000098800bb
:101f10001e019000ae0190000068290081c12400dc
:101f20001efb070018c0b30002f02f00f377240057
:101f30005efb07000000e00001003c000044eb00f5
:101f40000804e0005400320001098000f0fc2f007a
:101f5000008060000040a000000988001e01900081
:101f6000ae0190000068290081c124000bfb07002e
:101f7000020020000310240008fb070018c0b30073
:101f800002f02f00f377240048fb07000000e00078
:101f900001003c000044eb000804e0003200320085
:101fa00001098000f0fc2f00008060000050a000bc
:101fb000000988001e019000ae0190000068290011
:101fc00081c12400f5fa0700020020000328240044
:101fd000f2fa070018c0b30002f02f00f3772400d4
:101fe00032fb07000000e00001003c000044eb0071
:101ff0000804e00010003200010980000003200006
:1020000001007000000988001e019000ae019000e0
:102010000068290081c12400e0fa070002002000c6
:1020200003382400ddfa070022fb070000007800d7
:10203000e0088800210037001e019000ae019000ea
:102040000068290081c12400d4fa070002002000a2
:1020500003282400d1fa070016fb070000007800cf
:10206000e0088800150037001e019000ae019000c6
:102070000068290081c12400c8fa0700020020007e
:1020800003102400c5fa07000afb070000007800cf
:10209000e0088800090037001e019000ae019000a2
:1020a0000068290081c12400bcfa070001fb070079
:1020b00000007800e0088800000000004f0478006d
:1020c0000080fa00000006000400fa00004f7800cb
:1020d00011479800224798001e80fb00e20f500035
:1020e00036003200e20f500005003c000000e00026
:1020f00008003200e10f50001b0032006c00370076
:10210000e30f500041003200e40f50005400320051
:10211000670037008460a9001e4090000080fb002b
:10212000610060004300dd00a204800071ff2f0009
:102130008100610001007000a00488002e40900022
:10214000674060000080fb00670060004c00dd001d
:1021500022058000f1ff280081006100010070006d
:10216000200588005200370084e0a9001e4090003e
:102170000080fb00610060004700dd00a2048000d9
:10218000f1f72f008100610001007000a0048800b9
:102190002e409000674060000080fb0067006000f8
:1021a0004c00dd0032058000f1ff28008100610055
:1021b00001007000300588003d0037008500a9004f
:1021c0001e4090000080fb00610060004800dd00c0
:1021d000a2048000f1ef2f00810061000100700077
:1021e000a00488002e409000674060000080fb0043
:1021f000670060004205800081ff2f0081006100c0
:102200000100700040058800290037008760a900a0
:102210001e4090000080fb00610060004b00dd006c
:10222000b2048000f17f2f00810061000100700086
:10223000b00488002e409000674060000080fb00e2
:10224000670060004c00dd0082058000f1ff28007f
:1022500081006100010070008005880014003700d3
:102260008780a9001e4090000080fb006100600094
:102270004c00dd00b2048000f1ff2e0081006100ff
:1022800001007000b00488002e409000674060009c
:102290000080fb00670060009205800081ff2f0036
:1022a00081006100010070009005880000000000be
:1022b0000080fa00000006000400fa00004f7800d9
:1022c000110798001e4078000004e0000c00320066
:1022d0001e407800e54f500009003e001e009000af
:1022e0000000e000060032001e80fb00800040007d
:1022f00060542100008040009e009000010878009a
:102300000080fa00000006000800fa00404798002c
:10231000310798003e0090008000eb00a4fa07000f
:1023200002002000a34724001cfa07000001be00a1
:102330000000200001f8230018fa0700008fbe00fb
:102340001e01be004e4090001dfd07000080fa00f7
:10235000000006000800fa00404798003107980086
:102360003e0090008000eb0091fa0700024022003e
:102370004397240009fa07000001be000000200076
:1023800001f8230005fa0700008fbe001e01be0001
:102390004e4090000afd07000080fa000000060091
:1023a0000200fa00004f7800114798001e80fb00e1
:1023b000e20f50001e003200e20f500005003c000a
:1023c0000000e00008003200e10f50000f00320072
:1023d00032003700e30f50001e003200e40f5000bf
:1023e000250032002d0037001e4090000080fb00c9
:1023f0004f00dd0022088000f1ff2700810061000e
:102400000100700020088800240037001e40900062
:102410000080fb004f00dd0082088000f1ff2700f4
:102420008100610001007000800888001b003700f7
:102430001e4090000080fb004f00dd0092088000ed
:10244000f1ff270081006100010070009008880002
:10245000120037001e4090000080fb004f00dd009e
:10246000f2088000f1ff2700810061000100700088
:10247000f0088800090037001e4090000080fb0033
:102480004f00dd0002098000f1ff2700810061009c
:102490000100700000098800000000000080fa00c0
:1024a000000006000a00fa00004f780012079800aa
:1024b0002307980031079800044f98008040eb00f4
:1024c0001e407800b6ff07001e019000ae0190008c
:1024d0001e407800bafc0700be0090001e40780045
:1024e00075ff07008e4890001e407800acff070083
:1024f0000080fa00000006000c00fa00004f78008f
:10250000120798002307980031079800044f98009d
:10251000154f9800264f98008040eb001e40780031
:102520009fff07001e019000ae0190001e40780042
:10253000a3fc0700be0090001e4078005eff07006d
:102540001e4990008e4890001e407800defe070075
:10255000ae4890001e40780091ff07000080fa000e
:10256000000006002200fa00889fbe00700c0700e1
:102570007f0b0700c20b070016c0b30035c0b300c5
:1025800014c0b3006181210002402200439724005f
:1025900010c0b300d8ff07000043eb0055c0b300e4
:1025a00014c0b3008182210002002000634924008e
:1025b00020c0b300d0ff070016c0b30065c0b30051
:1025c00014c0b3004183210002002000a34724006f
:1025d00030c0b300c8ff070016c0b30045c0b30049
:1025e00014c0b30061842100020020008324240071
:1025f00040c0b300c0ff0700e70b0700f00b070067
:10260000f90b0700b20807009405070000a8210095
:10261000610020006f0c070000902000d103200013
:102620006c0c0700c4e2a800c542a800c422a9009f
:102630008025200001002000c0a88800d1a88800c3
:1026400000002000a147240060a8880071a888002d
:1026500000002000a147240000a8880011a88800dd
:102660006000b800a0a88800b1a888006000b80089
:1026700080a8880091a888006000b80020a9880080
:1026800031a988006000b80040a9880051a98800dd
:102690006000b80060a9880071a98800604f21001f
:1026a0008040eb000148780000002800214a240007
:1026b000e0a88800f1a8880000002400c169240077
:1026c000c0a78800d1a78800f026210031a02300f0
:1026d000e0a78800f1a7880000202100a1072000c2
:1026e000e0a98800f1a988006000b80010079800f0
:1026f0002107980050168000680060000000e0008c
:1027000004003a006000b80020a9880031a98800c0
:10271000c4e2a800980b07000004e0008200320029
:10272000990b0700900b0700300798003e009000bf
:1027300010007800400f98003e0090000080e800f4
:1027400010007800500f98003e0090006400400098
:1027500010007800600f98003e0090006600400076
:1027600010007800700f98003e0090006800400054
:1027700010007800001798004e0890008000eb00d1
:102780008bf907003233230033a52300ddf907005e
:1027900090a78800a1a78800400a2700d1f923004c
:1027a0004007980051079800f0a72600c1cb2300ee
:1027b000600798007107980090a78000a1a780008b
:1027c000a2702d0033da230096f80700000f98005e
:1027d000110f980010002000000f780018c0b300ff
:1027e0006011b8000e0890009e0890002df90700b7
:1027f0000000e000010035000044eb000804e000a8
:10280000030032000080eb00000f78000200370068
:1028100010002000000f780018c0b3006011b8004d
:102820000e0890009e08900020f907000000e000cc
:1028300001003c000044eb000804e0000500320009
:102840000e0890009e0890000001be0076f8070078
:10285000050037000e0890009e08900001f0a200cd
:102860000001be0070f807004e019000de019000ec
:10287000caf80700d7f907000004be001e00780060
:10288000cf80de0047f907000001be000800be004f
:102890009cf90700200f9800310f9800a2df2e004e
:1028a000b3a623002e089000be08900095f90700fb
:1028b00020a8880031a88800604f210010407800cf
:1028c0000004e000180032006e0890008000eb0069
:1028d00037f9070002002000a3df230089f9070071
:1028e00015f90700000078008000eb00c0a8880000
:1028f000d1a888007e0890008000eb002cf907002a
:102900000200280023ea23007ef90700e0a88800df
:10291000f1a88800e0a88000f1a880000001be00b6
:1029200020c0b300a6fb070020408000e10f50004c
:1029300012003200e10f500003003900e50f500093
:102940001d003200240037004ac8bf000004e00028
:1029500008003200c422a800100020002040880097
:1029600000408000114080003040880041408800d5
:1029700001003700c422a900170037006000b8002a
:1029800080a9880091a988006000b800a0a98800eb
:10299000b1a988006000b800c0a98800d1a988004a
:1029a00011c0b30020c0b3007dfe0700500020001e
:1029b00020408800080037004ac8bf000004e0003b
:1029c00004003a008040eb0020c0b30074fe070012
:1029d0000428ef000000000046ff37000000fa0066
:1029e00018c8bf000080fb00e20f50002f0032002b
:1029f000e20f500005003c000000e000080032003b
:102a0000e10f50000c0032005f003700e30f500070
:102a10003a003200e40f50004b0032005a003700f9
:102a20000a28ef000c28ef00c522a80010c0b30050
:102a300018e8b70054003700d04080000000e800dc
:102a4000d0408800d0408000e30f500002003a00e0
:102a5000ef0a07001a28ef00e0a98000f1a9800022
:102a60000000400081804800320020000300200068
:102a70008df907000001be005040800061408000d9
:102a8000800f5100818f59000400390050168000da
:102a9000680060000000e00034003a0020c0b3008d
:102aa00018e8b700c522a90037003700e0a9800068
:102ab000f1a9800000004000818048003200200021
:102ac0000300200078f907000001be00e04280000a
:102ad000f1428000020140008381480050408000a4
:102ae00061408000800f5100818f590021003e001d
:102af00030c0b30018e8b70023003700c40a07004d
:102b000050168000640060000000e0000b003200fe
:102b1000e2a98000f3a98000e0428000f142800039
:102b200000015100818159005040800061408000c7
:102b3000800f5100818f590010003e0040c0b3004b
:102b400018e8b70010003700e2a98000f3a9800060
:102b50005040800061408000800f5100818f5900fb
:102b600008003e001868ef00070037000000000072
:102b700005003700000000000300370000000000df
:102b800001003700000000000080fa00000006008d
:102b90000400fa0014c8bf000080fb00e20f5000e0
:102ba0003b003200e20f500005003c000000e00056
:102bb00008003200e10f50000a0032008a0037009e
:102bc000e30f500049003200e40f50006e00320065
:102bd00085003700cca2a80010c0b30014e8b700ed
:102be00081003700c4e2a900c542a800b0408000bf
:102bf0000000e800b0408800b0408000e30f5000c3
:102c000002003a008a0a07001628ef000000eb00d5
:102c1000000f7800e0a98000f1a9800032002000b8
:102c20000300200020f907000001be005040800092
:102c300061408000800f5100818f590009003e00e3
:102c4000e2a98000f3a9800050408000614080002c
:102c5000800f5100818f59000200360010002000c3
:102c6000000f78001e0078000000e0000400320031
:102c700090168000620060000000e00051003a0001
:102c800020c0b30014e8b700cca2a900560037005a
:102c9000c4e2a900c542a900524080006340800000
:102ca000e0428000f1428000800f5100818f590086
:102cb00046003900e0a98000f1a980003200200020
:102cc00003002000f8f807000001be00504080001b
:102cd00061408000800f5100818f59003d00360017
:102ce00030c0b30014e8b7003f003700c4e2a800ca
:102cf000c542a9004e0a07000000eb00100798002b
:102d00005240800063408000e0428000f142800039
:102d1000800f5100818f590011003900e0a9800017
:102d2000f1a980003200200003002000def8070037
:102d30000001be00e0428000f1428000000151002d
:102d4000818159005040800061408000800f510017
:102d5000818f5900020036001000200010079800f3
:102d60001e0090000000e000040032009016800079
:102d7000610060000000e00018003a0040c0b300ad
:102d800014e8b70018003700c4e2a900c542a90042
:102d9000e0a98000f1a9800032002000030020009b
:102da000c1f807000001be00504080006140800073
:102db000800f5100818f59000a003e001468ef0017
:102dc0000900370000000000070037000000000085
:102dd000050037000000000003003700000000007d
:102de00001003700000000000080fa00000006002b
:102df0000000fa0011c8bf000080fb00e20f500085
:102e000038003200e20f500005003c000000e000f6
:102e100008003200e10f50000a0032008100370044
:102e2000e30f50004e003200e40f50006500320006
:102e30007c003700cde2a80010c0b30011e8b70055
:102e400078003700904080000000e8009040880043
:102e500090408000e30f500002003a00fc09070098
:102e60001228ef00e0a98000f1a9800032002000c4
:102e7000030020008cf807000001be0050408000d5
:102e800061408000800f5100818f59000d003e008d
:102e9000e0a98000f1a98000000040008180480086
:102ea00032002000030020007ff807000001be0070
:102eb0005040800061408000800f5100818f590098
:102ec00004003e0050168000700060000000e0002a
:102ed0004b003a0020c0b30011e8b700cde2a900d2
:102ee00050003700e0a98000f1a9800032002000e6
:102ef000030020006cf807000001be00e0428000e3
:102f0000f14280000201400083814800504080006f
:102f100061408000800f5100818f59003a003e00cf
:102f2000e0a98000f1a980000000400081804800f5
:102f300032002000030020005bf807000001be0003
:102f40005040800061408000800f5100818f590007
:102f50002f00360030c0b30011e8b7003100370051
:102f6000bb09070090168000640060000000e000cc
:102f700011003200e0a98000f1a9800000004000ab
:102f800081804800320020000300200046f807003e
:102f90000001be00e0428000f142800000015100cb
:102fa000818159005040800061408000800f5100b5
:102fb000818f590018003e0040c0b30011e8b700ef
:102fc00018003700e0a98000f1a98000000040004f
:102fd00081804800320020000300200032f8070002
:102fe0000001be005040800061408000800f510011
:102ff000818f59000a003e001168ef000900370078
:103000000000000007003700000000000500370046
:10301000000000000300370000000000010037003e
:10302000000000000080fa00000006000000fa0026
:10303000504080006140800061004000e080480016
:1030400050408800614088000080fa0000000600bf
:103050000000fa0061fe0700cdfe070064ff0700d4
:103060000080fa00000006000000fa000040800026
:103070001140800061004000e0804800004088006e
:10308000114088000080fa00000006001000fa00dd
:10309000889fbe0048a8800059a8800020a8800012
:1030a00031a880000200200083242400bbf6070022
:1030b0000001be000800be005bf6070040a88800c3
:1030c00051a8880000408000114080004808de00c0
:1030d00000407800004f78000040800011408000e0
:1030e0004008de0000407800104798000040800053
:1030f000114080004809dd004800de00000071003a
:10310000c808de000040780020479800004080009a
:1031100011408000004078003047980070a7800080
:1031200081a780000001be00410020000e00780051
:103130001e08070090a78000a1a780000001be0024
:10314000810020000e0078001808070020a98000e8
:1031500031a980000001be00c10020000e007800ef
:10316000120807000e01780001012000400620002f
:1031700041020700f80807001068ef004f04be0086
:103180000080fa00000006000a00fa0020079800fc
:1031900031079800420798000040eb00004f78008c
:1031a0000000eb00100798002e0090004800de00a1
:1031b000004078001e4f68002e009000004078000c
:1031c0001e4f68003e0090004800de00004078007e
:1031d0001e4f68003e009000004078001e4f6800bf
:1031e0000000eb001007980008003700ce009000a8
:1031f0001e00900000804000104078001e4f6800c4
:103200001e0090000000e800100798009e0090004b
:103210003e009000808f5000f4ff39001e4078007f
:103220000080fa00000006000200fa00004f78005b
:1032300042c8bf000080fb00e30f500023003200b3
:10324000e30f500007003c00e10f50001200320075
:10325000e10f500016003c000000e00008003200c2
:103260004e003700e50f500031003200e50f5000ee
:103270001c003500e60f50003c00320047003700cc
:103280001e407800e24f400047003a0010c0b300f3
:1032900042e8b700470037001e80fb004800dd0011
:1032a0002042880020c0b30042e8b7004100370048
:1032b0009e80fb0020428000008040002042880069
:1032c00030c0b30042e8b7003a0037001e80fb0070
:1032d0004800dd003042880040c0b30042e8b7003b
:1032e000340037009e80fb003042800000804000a8
:1032f000304288003142800000102000808f500052
:10330000020036004268ef002a0037003042800099
:103310000000e00003003a0060c0b30042e8b700dc
:103320002400370050c0b30042e8b7002100370046
:1033300040428000e13621001e4178008270780012
:10334000404280000000e800404288004142800086
:1033500030428000808f500015003a004828ef006e
:1033600060c0b30042e8b70012003700314280006d
:1033700020428000e236210083ff07009e4f50006c
:1033800004003a003142800020428000e2362100f1
:10339000110007004268ef00060037004268ef00a6
:1033a00000000000030037000000000001003700ab
:1033b000000000000080fa00000006000400fa008f
:1033c000000f7800214798009580a8000000eb00ce
:1033d0000080fa00000006000c00fa003007980098
:1033e00041079800520798000040eb00004f78001a
:1033f0000000eb00100798000040eb0040479800e9
:103400003e009000e90f50004e013200e90f5000dd
:1034100010003e00e50f500058003200e50f50004c
:1034200007003e00e30f500030003200e30f500071
:1034300085013e00e10f50001b0032007a01370089
:10344000e70f5000a9003200e70f500039013e009d
:1034500078003700f60f500000013200f60f5000e0
:1034600007003e00f40f5000ce003200f40f500071
:10347000e4003e00ea0f5000390132006a013700d3
:10348000f80f50001b013200f80f500009013900fd
:1034900091072000810f500038013200e10f4000f9
:1034a0005e013200600137000040eb00004f780001
:1034b0005e009000104078000004e000030032003d
:1034c00010c0b3004ae8b700010037004a68ef00b7
:1034d000a184200091407800e04621000148780056
:1034e0001000200010079800580137005e0090007f
:1034f00063004000104078000081fb008001eb0079
:103500005e0090000080e800104078000082fb0020
:103510008002eb004828dd00c820de00810070003a
:103520004820dd0002014000838148005e009000d9
:103530000000e800104078000080fb008000eb00f5
:10354000c000dd000000200002014000838148002f
:103550005e009000104078000080fb008000eb00cf
:10356000c800dd0000002000020040008380480009
:1035700010aa880021aa8800340137000040eb001f
:10358000004f78005e00900063004000104078001b
:103590000081fb008001eb005e0090000080e800ed
:1035a000104078000082fb008002eb004828dd001c
:1035b000c820de00810070004820dd0002014000cc
:1035c000838148005e0090000000e8001040780011
:1035d0000080fb008000eb00c000dd000000200048
:1035e00002014000838148005e0090001040780096
:1035f0000080fb008000eb00c800dd000000200020
:10360000020040008380480080a8880091a88800bc
:1036100080a8800091a880000001be008000eb001f
:10362000e0462100fa06070040002000100798003d
:10363000060137000040eb00004f78005e0090006c
:1036400063004000104078000081fb008001eb0027
:103650005e0090000080e800104078000082fb00cf
:103660008002eb004828dd00c820de0081007000e9
:103670004820dd0002014000838148005e00900088
:103680000000e800104078000080fb008000eb00a4
:10369000c000dd00000020000201400083814800de
:1036a0005e009000104078000080fb008000eb007e
:1036b000c800dd00000020000200400083804800b8
:1036c000a0a88800b1a88800a0a88000b1a88000a8
:1036d0000001be008000eb00e0462100cc060700a0
:1036e0004000200010079800d80037000040eb0091
:1036f000004f78005e0090006300400010407800aa
:103700000081fb008001eb005e0090000080e8007b
:10371000104078000082fb008002eb004828dd00aa
:10372000c820de00810070004820dd00020140005a
:10373000838148005e0090000000e800104078009f
:103740000080fb008000eb00c000dd0000002000d6
:1037500002014000838148005e0090001040780024
:103760000080fb008000eb00c800dd0000002000ae
:103770000200400083804800c0a88800d1a88800cb
:10378000c0a88000d1a880000001be008000eb002e
:10379000e04621009e060700400020001007980028
:1037a000aa0037000040eb00004f78008000eb00db
:1037b0005e00900065060700e0a88800f1a8880078
:1037c000e0a88000f1a880000001be008000eb00ae
:1037d000e046210075060700e0a88000f1a88000ff
:1037e0000200200003152400c6f507000001be00fa
:1037f00020c0b300f2f70700400020001007980037
:10380000920037000040eb00004f78008000eb0092
:103810005e0090004d06070002002000a347240030
:10382000b8f5070000a8880011a8880000a880004b
:1038300011a8800002002000a3472400d7f407004d
:103840000001be008000eb00e046210057060700a3
:1038500040002000100798007c0037000040eb007b
:10386000004f78008000eb005e00900037060700f4
:1038700002002000a3472400a2f5070060a88800ea
:1038800071a8880060a8800071a880000200200054
:10389000a3472400c1f407000001be008000eb0034
:1038a000e046210041060700400020001007980074
:1038b000660037000040eb00004f78008000eb000e
:1038c0005e00900021060700e0a78800f1a78800ad
:1038d000e0a78000f1a780000001be008000eb009f
:1038e000e046210031060700400020001007980044
:1038f000560037000040eb00004f78008000eb00de
:103900005e00900011060700c0a78800d1a78800bc
:10391000c0a78000d1a780000001be008000eb009e
:10392000e046210021060700400020001007980013
:10393000460037004e4090000080fb0010079800c2
:10394000420037004e4090000080fb0010079800b6
:10395000e046210011c0b300014878003b00370069
:103960004e4090000080fb0010079800e0462100c8
:1039700011c0b300014878003400370010c0b30014
:10398000004f78005e009000104078000081fb003e
:103990008001eb005e0090000000e800104078001d
:1039a0000082fb008002eb004828dd00c820de001a
:1039b000810070004820dd00020140008381480042
:1039c0005e0090000080e800104078000080fb005e
:1039d0008000eb00c000dd0000002000020140007c
:1039e000838148005e009000630040001040780032
:1039f0000080fb008000eb00c800dd00000020001c
:103a00000200400083804800004088001140880088
:103a10000000eb00100798000c00370010c0b30046
:103a2000004f78000900370010c0b300004f780045
:103a30001000200010079800e04621008040eb00b5
:103a40000148780001003700000000001e407800a7
:103a50000004e00004003a00e24621009e009000cd
:103a60003e009000040007000040eb00004f78008b
:103a70000080fa00000006000c00fa00889fbe00db
:103a80008a1f780030079800410798005207980075
:103a90000f0478000f007800800478004e0090003a
:103aa00066004000800078008100e900110798005e
:103ab0000000e8000000e8000000d10080004000a5
:103ac0000f007800818747000000e8000000d10067
:103ad00000004000200798002e009000e1cfb300c6
:103ae000014878003e0090004800de0080407800e9
:103af0002e009000114098003e0090008040780019
:103b00002e009000214098004e0090004800de00fa
:103b1000804078002e009000314098004e009000c8
:103b2000804078002e009000414098000000eb009b
:103b3000000f7800090037009e0078006580400083
:103b40009e0078005e0190008100410011417800e4
:103b5000ae009000827078001e0fe8009e00780092
:103b60004e009000808f5000f3ff39004e0090000f
:103b7000650540005e019000ce0090003e00900080
:103b800081fd0700ae00900080707d004e00900027
:103b9000e60040002e00900006000700890778002c
:103ba000880778004f0578004f04be000080fa00b7
:103bb000000006000600fa00100798002107980090
:103bc000ea030700ae009000810f50000d003600a0
:103bd0000000eb00000f7800060037001e007800a0
:103be0009e00900000804000104078009c03070079
:103bf0001e0fe8009e0078002e009000808f50007d
:103c0000f6ff39000080fa00000006000200fa000a
:103c10000e0178008000eb000019200096ff0700dd
:103c20000080fa00000006000400fa001007980067
:103c30001e009000d3f60700000f78009e00900051
:103c40001e0078000101780080007800e0ee2e0070
:103c500089ff07000080fa00000006000400fa0057
:103c600000002500318c2400008fbe0007e2a9006f
:103c7000401680004800de00614060000080fb00cc
:103c8000610060004800dd0042168000f1ef2f0067
:103c9000810061000100700040168800cd02a8007c
:103ca000401680004900de00614060000080fb009b
:103cb000610060004900dd0042168000f1df2f0046
:103cc000810061000100700040168800cd22a8002c
:103cd00007a2a9000782a8000762a9000742a9005d
:103ce0000722a9000702a90006e2a90006c2a9004e
:103cf00006a2a8001e01be000068290081c12400a0
:103d0000a6f30700020020000308240045f3070083
:103d10000200200003f8230042f30700e5f3070048
:103d2000000078002010880007e2a8009620a80074
:103d30004c68ef000080fa00000006000400fa0062
:103d4000004f7800114798001207980013002000d8
:103d50001e0190009e4090001e4078004f0007001a
:103d60000080fa00000006000600fa0020479800d4
:103d70003147980042479800ce409000014f7800ac
:103d8000130020000e017800be4090002e409000ed
:103d9000020007000080fa00000006000a01fa0095
:103da00040479a0051479a0032079900430799000b
:103db00010c0b30020479800ce409200e0cfb3007f
:103dc00000c0600030479800de40920041479800f4
:103dd0000000eb00000f7800080037001e80e800ac
:103de0009e0078003e0191008100410091407800e2
:103df00000004700314098001e0fe8009e00780048
:103e00004e0091000080e800808f5000f3ff3900e1
:103e10004e0091000040780000c0e80020479a0062
:103e20002f10b000e0ef2f000f004000e20047002d
:103e30007f00090031187800315878001010b10067
:103e4000750107002f10b1006a0107000004e000af
:103e500001003a00ea000700d8000700010037001f
:103e60000000000063010700e14f500004003a0029
:103e70009142800010032000808f5000f8ff360030
:103e80009142800010032000808f50000100360016
:103e9000ce0007000080fa00000006000a02fa00c7
:103ea000442020000e024200004a780050202000ea
:103eb0000e0040000148780032079a0043079a003c
:103ec00010c0b30020479800412020008e804000a1
:103ed000e0cfb30011406000304798005020200030
:103ee0000e004000904078004147980020c0b30089
:103ef00020479a000040eb0030479a004020200005
:103f00000e004000104078000004a00040479a00d6
:103f10004e00920080407800302020000e004000cb
:103f2000014878002f10b000e0ef2f000f00400094
:103f3000e20047007f00090031187800315878000e
:103f40001010b100340107002f10b1002f10b00085
:103f5000e0ef2f000f0040003110200081004700eb
:103f600000010900315878001010b1002a01070043
:103f70002f10b1001f0107000004e00001003a000b
:103f80009f0007008d0007000100370000000000bf
:103f900018010700e14f500004003a0091428000f0
:103fa00010032000808f5000f8ff360091428000ff
:103fb00010032000808f50000100360083000700ae
:103fc0000000eb00000f78000000eb00000f78000d
:103fd000080037001e007800be00920000804000fc
:103fe000418620009e80400091409000014878006a
:103ff0001e0fe8009e0078004e009200808f500057
:10400000f4ff39000080fa00000006000e02fa00fa
:10401000452020008e824200804a780031079a00b5
:1040200042079a0053079a0064079a0010c0b30031
:1040300020479800412020008e804000e0cfb30050
:1040400011406000304798000000eb00000f78003e
:10405000080037001e00e8009e0078003e01920034
:1040600081004100914078000000470031409800f5
:104070001e0fe8009e0078004e009200808f5000d6
:10408000f4ff39004e009200004078000040e80044
:1040900020479a000040eb0030479a004020200063
:1040a0000e004000104078000004a00040479a0035
:1040b0006e00920080407800302020000e0040000a
:1040c000014878002f10b000e0ef2f000f004000f3
:1040d000e20047007f00090031187800315878006d
:1040e0001010b100cc0007002f10b1002f10b0004d
:1040f000e0ef2f000f00400031102000810047004a
:1041000000010900315878001010b100c20007000a
:104110002f10b100b70007000004e00001003a00d2
:1041200037000700250007000100370000000000ed
:10413000b0000700e14f500004003a0091428000b7
:1041400010032000808f5000f8ff3600914280005d
:1041500010032000808f5000010036001b00070074
:104160000000eb00000f7800080037001e00780008
:10417000de00920000804000418620009e804000ca
:1041800091409000014878001e0fe8009e007800e2
:104190006e009200808f5000f4ff39000080fa001a
:1041a000000006000000fa00904280000000e800d5
:1041b000904288000080fa00000006000000fa002b
:1041c0005228ef000080fa00000006000000fa000c
:1041d00010c0b30054e8b7000080fa0000000600e9
:1041e0000000fa005468ef000080fa0000000600aa
:1041f0000000fa0054c8bf000080fa00000006006a
:104200000201fa00000000004cc8bf000004e000fa
:10421000fdff3a0097000700e14f50000d003a0003
:104220000e0078009e000700418620000001090072
:10423000be5878001e10b100610580000007200004
:10424000010070006005880010c0b3004ce8b700a2
:104250000602a8000080fa00000006000201fa0031
:1042600040862000104078000004e0003f003a0043
:104270004dc8bf000004e0000b003a004dc8bf006d
:104280008080fb00408620000080400010409000ad
:104290000080fb00101088004dc8bf000040e800ff
:1042a0004de8b700510037004dc8bf000080fb004b
:1042b0008000e90040962000104078000080fb005c
:1042c000808f500024003d004ec8bf000080fb00de
:1042d0000000e00003003200e10f50000500320052
:1042e0001b0037000662a80010c0b3004ee8b700fc
:1042f0003e0037004dc8bf000080fb000001e90010
:1043000000108000804078004086200000004100be
:104310001140980040962000904078004dc8bf00a2
:1043200080cf500002003a0006a2a800010037002a
:1043300006a2a9000682a8004e68ef004dc8bf0083
:104340000040e8004de8b7000000000027003700fb
:104350004e68ef00250037004d68ef0040c0b30005
:104360004ce8b7000642a800200037004096200025
:10437000904078004dc8bf0080cf50000b00360041
:104380004dc8bf008080fb004086200000804000b8
:10439000104090000080fb00101088004dc8bf0046
:1043a0000040e8004de8b70010003700310007007a
:1043b000e14f50000a003a000e0078003800070074
:1043c0004186200000010900be5878001e10b1008f
:1043d00030c0b3004ce8b7000622a8000300370045
:1043e00040c0b3004ce8b7000642a8000080fa00c5
:1043f000000006000000fa004cc8bf000004e00006
:104400000200320010c0b300010037000040eb0092
:104410000080fa00000006000000fa004fc8bf004c
:104420008080fb00101020000088b9008000780018
:10443000509620000080400081ef2f00810047004f
:1044400000010900315878001010b1004fc8bf00ba
:10445000e64f500004003e004fc8bf000040e80097
:104460004fe8b700010037004f68ef000080fa0006
:10447000000006000000fa00f1842000914078005e
:1044800050c8bf0080cf50000200320010c0b300ff
:10449000010037000040eb000080fa000000060039
:1044a0000201fa000001780050c8bf008080fb00c4
:1044b000101020000088b90080007800509620007d
:1044c0000080400000010900305f78001e10b1003c
:1044d0001010b10050c8bf00e64f500004003e006d
:1044e00050c8bf000040e80050e8b70001003700a6
:1044f0005068ef00000109003e5978001210b10029
:104500001e10b100020078000080fa0000000600d2
:104510000400fa00881f7800008fbe0005003700f5
:1045200002002000433b24001e00be003df10700b6
:10453000008fbe0018c0b3000200200043332400e7
:104540001e00be00d9f107000000e00001003c00a1
:104550000044eb000804e000f1ff3a0005003700da
:1045600002002000433b24001e00be002ef1070085
:10457000008fbe0018c0b3000200200043332c009f
:104580001e00be00c7f107000000e000010035007a
:104590000044eb000804e000f1ff3a001e00be00fa
:1045a0004f0478000080fa00000006000400fa00c2
:1045b000881f7800008fbe0018c0b3006011b800db
:1045c0001e00be00b9f107000000e00001003d0040
:1045d0000044eb000804e000020032001e00be00b0
:1045e000020037001e00be0001f0a2004f04780058
:1045f0000080fa00000006000800fa00881f78001a
:10460000008fbe00220798003307980018c0b3003f
:104610002e019000be0190001e00be00a3f1070015
:104620000000e00001003c000044eb000804e00052
:10463000020032001e00be00020037002e00900073
:10464000be0090004f0478000080fa0000000600d1
:104650000800fa00881f7800008fbe00220798002b
:104660003307980018c0b3002e019000be019000df
:104670001e00be008bf107000000e00001003500c5
:104680000044eb000804e000020032001e00be00ff
:10469000020037002e009000be0090004f0478000a
:1046a0000080fa00000006000400fa00881f78006d
:1046b000008fbe0005003700b2fd2000930c2400df
:1046c0001e00be00d7f00700008fbe0018c0b30068
:1046d000b2fd2000930424001e00be0073f1070009
:1046e0000000e00001003c000044eb000804e00092
:1046f000f1ff3a0005003700b2fd2000930c2400c2
:104700001e00be00c8f00700008fbe0018c0b30036
:10471000b2fd200093042c001e00be0061f10700d2
:104720000000e000010035000044eb000804e00058
:10473000f1ff3a001e00be004f0478000080fa002e
:10474000000006000400fa00881f7800008fbe00f9
:1047500005003700b2fd2000930424001e00be00b7
:10476000b0f00700008fbe0018c0b300b2fd2000fb
:1047700093fc23001e00be004cf107000000e00087
:1047800001003c000044eb000804e000f1ff3a00a7
:1047900005003700b2fd2000930424001e00be0077
:1047a000a1f00700008fbe0018c0b300b2fd2000ca
:1047b00093fc2b001e00be003af107000000e00051
:1047c000010035000044eb000804e000f1ff3a006e
:1047d0001e00be004f0478000080fa0000000600b2
:1047e0000c00fa00881f7800008fbe002207980096
:1047f00033079800440798005507980018c0b30085
:104800004e019000de0190001e00be0027f107005f
:104810000000e00001003c000044eb000804e00060
:10482000040032004e019000de019000028fbe00b5
:104830000d00370018c0b3002e019000be0190009b
:104840001e00be0017f107000000e0000100350067
:104850000044eb000804e000030032002e01900049
:10486000be019000028fbe001e00be004f04780003
:104870000080fa00000006000400fa00008fbe006d
:10488000b2fd2000930424001e00be00c3f0070008
:1048900002002000433324009af107000080fa0050
:1048a000000006000400fa00008fbe00b2fd2000e8
:1048b000930424001e00be0092f1070002002000b5
:1048c00043332400b5f007000080fa000000060022
:1048d0000200fa002062a8002002a9000111800055
:1048e00090ff2f00008060000011880020a2a90026
:1048f0002082a900500520004011880023e2a90071
:1049000023a2a90011118000f0f32f0000806000a5
:10491000101188009560a8009580a8009c20a80030
:104920008560a9008580a90021068000f0f82f008d
:1049300080806000000620000100700020068800d2
:1049400041058000f0ff2800808060000000250005
:1049500001007000400588005105800080ff2f0095
:10496000008060005000b3005005880021e2a800dc
:104970002342a80030118000004f78000300070098
:10498000070007000080fa00000006000000fa009f
:104990003828ef003a28ef000080fa0000000600f7
:1049a0000000fa003c28ef003e28ef000080fa00eb
:1049b000000006000000fa00c041800031118000b4
:1049c00001417800e116210082707800c141800029
:1049d000e00f2000808f500004003e00c0418000a6
:1049e0000000e800c0418800010037003828ef00cf
:1049f0000080fa00000006000000fa00c1418000bb
:104a0000d0418000808f50000200320010c0b300ff
:104a1000010037000040eb000080fa0000000600b3
:104a20000200fa00d0418000e1162100614f7800b9
:104a3000d1418000e00f2000808f500004003e0034
:104a4000d04180000000e800d0418800010037001c
:104a50003a28ef001e4078000080fa0000000600af
:104a60000200fa00004f7800e0418000e1262100ba
:104a70001e41780082707800e1418000e00f200044
:104a8000808f500004003e00e04180000000e800fc
:104a9000e0418800010037003c28ef0040c8bf001b
:104aa0000004e00001003a000c0007000080fa005a
:104ab000000006000000fa00e1418000f0418000a3
:104ac000808f50000200320010c0b3000100370098
:104ad0000040eb000080fa00000006000200fa002f
:104ae00010c0b30040e8b700f0418000e12621008b
:104af000614f7800f1418000e00f2000808f50006e
:104b000004003e00f04180000000e800f041880011
:104b1000010037003e28ef009580a8001e80fb00b2
:104b2000201188003428ef000080fa000000060001
:104b30000000fa00e1418000f0418000808f5000c9
:104b400004003900e1418000f04180000080500005
:104b500004003700e1418000f041800000805000f7
:104b60000010b0000080fa00000006000000fa000b
:104b7000efff070001102000008050000080fa00c5
:104b8000000006000000fa000080fa0000000600a5
:104b90000000fa003428ef000080fa000000060050
:104ba0000000fa00a04180000000e800a041880059
:104bb00040c8bf00e14f50000a003a00a141800008
:104bc000703e2000808f500006003400b9ff0700bf
:104bd000e14f500002003a00c0ff0700010037001b
:104be0004068ef000080fa00000006000200fa00b2
:104bf0003062a9003002a9008111800090ff2f00cf
:104c0000008060008011880030a2a90030102000d0
:104c1000c01188003082a90033e2a90033a2a900a4
:104c200091118000f0f32f00008060009011880047
:104c300097c0a80097e0a8009c40a80087c0a900e2
:104c400087e0a90031e2a8003342a8000000eb0091
:104c5000000f780002003700000000001e0fe8007f
:104c6000f00321009e007800808f5000faff34008e
:104c70000080fa00000006000000fa00010e80002b
:104c8000c0ff2f0000806000000e8800010e800031
:104c900030ff2f0000806000000e8800010e8000b1
:104ca000f0f02f0000806000000e8800803e2000a1
:104cb000200e8800c901a800c921a800c941a80088
:104cc000ca41a800d521a800d501a800d561a80037
:104cd000d541a800d5a1a800d581a800c1e1a800b0
:104ce0000080fa00000006000000fa00012e80009b
:104cf000c0ff2f0000806000002e8800002e800082
:104d0000c000b300002e8800012e8000f0f02f00bc
:104d100000806000002e8800409c2000202e88002b
:104d2000c905a800ca45a800d525a800d505a80032
:104d3000c1e5a8000080fa00000006000400fa00a7
:104d4000008fbe0002002000832c24001e00be0045
:104d50003ffe0700008fbe0002002000832c2c00c5
:104d60001e00be0024fe0700008fbe001e01be0014
:104d700082418800934188000080fa00000006000c
:104d80000000fa00881f780020032000c00e880071
:104d9000804180009141800018c0b3006011b800cc
:104da000c2ef07000000e00001003c000044eb00ff
:104db0000804e00003003200c522a900c8a1a80031
:104dc00002003700c522a800c8a1a80080418000c9
:104dd0009141800002002000831c240049f007005c
:104de0000001be0000002400c15124000def0700a7
:104df000d1ef070000007800202e88004f047800d3
:104e00000080fa00000006000600fa00008fbe00d5
:104e10004247980002002000832c24001e00be00a0
:104e20000bfe0700008fbe0002002000832c2c0028
:104e30001e00be00f0fd0700008fbe004e40900037
:104e40000000fb00e10f500005003a001e01be000b
:104e500062418800734188000000000001003700b3
:104e6000000000000080fa00000006000000fa00c8
:104e7000881f7800604180007141800018c0b30035
:104e80006011b80089ef07000000e00001003c005d
:104e90000044eb000804e00003003200c801a90050
:104ea000c881a80002003700c881a900c801a80075
:104eb0006041800071418000bcfd07000001be0020
:104ec00000002000812c2400d6ee07000200200004
:104ed000031a24000bf0070097ef0700000078008a
:104ee000b00e88004f0478000080fa000000060031
:104ef0000400fa00008fbe001e00be006011b80062
:104f000004a02500252620006033b80078f10700b2
:104f1000843e2000050020006033b8000bf107003c
:104f20000000be002b0207000080fa00000006000f
:104f30000200fa000040eb00004f78001300200050
:104f40000e017800b1c0b30080cdb30093fb070021
:104f50005000200001002000e5ff07000080fa005b
:104f6000000006000400fa00c1bd2800030009008b
:104f7000315f78004e00b100430020000e01780040
:104f80008040eb0080cdb30084fb07000080fa0076
:104f9000000006001400fa00f2ff070000cdb30085
:104fa000404f980010c5b300504f9800c0c2b300e6
:104fb000604f98006c00470033002000000178002b
:104fc0008040eb0080cdb30074fb0700100220008e
:104fd00001002000008fbe00ef00470072bd2800d6
:104fe00004000900b2587800ea0047006f0047004b
:104ff0002400200081017800120020008000780049
:1050000080cdb30001fc07002e4890000080fb001b
:10501000c800dd003e4890000080fb0001007000e9
:10502000200798002e0090008000eb0060ef070042
:1050300002002000034824007aee0700020020004e
:1050400063412400d5ee07000200200083242400e1
:1050500074ee070030079800410798003e0090006a
:10506000ce0090000080fa00000006001200fa0056
:10507000e8004700e2bc280003000900b2587800ad
:105080006800470043002000000178008040eb00ea
:1050900080cdb30041fb070010022000010020007a
:1050a000008fbe001e00be0091ff0700ec0047000d
:1050b00022bd280004000900b2587800e60047002d
:1050c0006c0047002400200081017800520020007d
:1050d0008000780080cdb300ccfb07006e409000cc
:1050e0000080fb00c800dd007e4090000080fb00d7
:1050f00001007000b0428800b1428000a0812d0004
:1051000080804000803e20000088b9008000780048
:10511000b0e9200000017800110009008200d800e9
:10512000200798002e0090000080fa000000060082
:105130000000fa0002c8b300d1c0b30080cdb300b4
:1051400009fb07000080fa00000006000a00fa00d0
:105150003007980041079800be0090004e00900074
:10516000008f40001e0078001001be00120798005a
:10517000230798001e009000ae0090000080fa0007
:10518000000006000600fa001007980021079800aa
:105190009e0090002e009000008f40001e007800be
:1051a0001000be000080fa00000006000c00fa00ab
:1051b000200798003107980042079800530798008d
:1051c00068004700100798000000eb00000f78000f
:1051d0000a0037003e0090001e004000ae00900024
:1051e000008040009e0078001e0190008100410078
:1051f00091407800014878001e0fe8001e007800fa
:10520000e30f5000f3ff34000080fa0000000600b6
:105210000c00fa0020079800310798004207980018
:105220005307980068004700100798000000eb0043
:10523000000f78000b0037003e0090001e00400079
:10524000ae00900000804000320020009e0051001f
:105250001e019000810041009140780001487800d3
:105260001e0fe8001e007800e30f5000f2ff34002c
:105270000080fa00000006000c00fa0020079800e9
:1052800031079800420798005307980068004700cc
:10529000100798000000eb00000f78000a003700ac
:1052a0003e0090001e004000ae00900000804000d4
:1052b0009e0078001e01900081004100914078001e
:1052c000014878001e0fe8001e007800e70f50002c
:1052d000f3ff34000080fa00000006000c00fa0022
:1052e000881f7800008fbe002207980033079800bf
:1052f000440798005507980018c0b3002e0190008d
:10530000be0190001e00be0066ee07000000e00037
:10531000010035000044eb000804e0000300320007
:105320002e009000be0090000e00370018c0b300a1
:105330004e019000de0190001e00be005bee0700f3
:105340000000e00001003c000044eb000804e00025
:10535000030032004e009000de0090000100370094
:105360001e00be004f0478000080fa000000060016
:105370000000fa000080eb0060198800c0e2a9007c
:10538000d082a900c122a900d0c2a900c8a2a90048
:10539000d062a900c9e2a900c9c2a900c142a900fe
:1053a000c022a900c842a800c862a800d022a80054
:1053b000d002a800c882a800d042a8002700070099
:1053c000b136800000fe2f00008060002001b30095
:1053d000b036880091368000f00f2e00808060008b
:1053e0000030210001007000903688007136800086
:1053f00000fe2f00008060004001b300703688007e
:10540000b1368000f00f2e00808060000030200058
:1054100001007000b03688002135800000fe2f00aa
:10542000008060008001b300203588000200070082
:105430000080fa00000006000000fa00217420003d
:1054400062042000730520008248780083487800b9
:1054500042c7a8000080fa00000006000000fa0021
:105460002174200062042000730520008248780027
:105470008348780042c7a9000080fa0000000600b7
:105480000000fa006020a9006820a80060c0a90000
:1054900068c0a80060e0a90068e0a8006100a90059
:1054a0006900a8006120a9006920a8006140a90046
:1054b0006940a8000080fa00000006000000fa0021
:1054c00021e3a9002143a80001198000f0cf2f009b
:1054d00000806000001988002043a90001198000a5
:1054e000000e2000010070000019880011198000d2
:1054f000f0ff210000806000101988002343a800fd
:105500001119800030fc2f00008060000040a000d6
:105510001019880025e3a9002119800000f021005e
:1055200001007000201988002463ef002cc3a9003b
:105530002ce3a9002d03a90030c3a80030e3a80084
:105540003103a80085a0a90095a0a80021e3a80028
:105550000080fa00000006000000fa002023a800e6
:105560000080fa00000006000000fa00005521004b
:105570000080fa00000006000000fa0061c8bf00c9
:105580000080fa00000006000000fa006168ef00e9
:105590000080fa00000006000000fa008461a90003
:1055a000210c800080ff2f0000806000200c88000c
:1055b000a0002000100c88000080fa000000060007
