:020000040000fa
:080000000002040000000000f2
:020000040000fa
:0400080010050000df
:020000040000fa
:04000c0010050000db
:020000040000fa
:0400100010050000d7
:020000040000fa
:0400140010050000d3
:020000040000fa
:0400180010050000cf
:020000040000fa
:04001c0010050000cb
:020000040000fa
:0400200010050000c7
:020000040000fa
:0400240010050000c3
:020000040000fa
:0400280010050000bf
:020000040000fa
:04002c0010050000bb
:020000040000fa
:0400300010050000b7
:020000040000fa
:04003400dc020000ea
:020000040000fa
:0400380010050000af
:020000040000fa
:04003c0010050000ab
:020000040000fa
:0400400010050000a7
:020000040000fa
:0400440002030000b3
:020000040000fa
:040048002803000089
:020000040000fa
:04004c00100500009b
:020000040000fa
:040050001005000097
:020000040000fa
:04005400cc030000d9
:020000040000fa
:04005800240400007c
:020000040000fa
:04005c009a03000003
:020000040000fa
:040060001005000087
:020000040000fa
:040064001005000083
:020000040000fa
:04006800100500007f
:020000040000fa
:04006c004c04000040
:020000040000fa
:040070001005000077
:020000040000fa
:040074001005000073
:020000040000fa
:04007800100500006f
:020000040000fa
:04007c00100500006b
:020000040000fa
:040080001005000067
:020000040000fa
:040084001005000063
:020000040000fa
:04008800100500005f
:020000040000fa
:04008c00100500005b
:020000040000fa
:040090001005000057
:020000040000fa
:040094004e03000017
:020000040000fa
:0400980074030000ed
:020000040000fa
:04009c00100500004b
:020000040000fa
:0400a0001005000047
:020000040000fa
:0400a4001005000043
:020000040000fa
:0400a800100500003f
:020000040000fa
:0400ac00100500003b
:020000040000fa
:0400b0001005000037
:020000040000fa
:0400b4001005000033
:020000040000fa
:0400b800100500002f
:020000040000fa
:0400bc00100500002b
:020000040000fa
:0400c0001005000027
:020000040000fa
:0400c4001005000023
:020000040000fa
:0400c800100500001f
:020000040000fa
:0400cc00100500001b
:020000040000fa
:0400d0001005000017
:020000040000fa
:0400d4001005000013
:020000040000fa
:0400d800100500000f
:020000040000fa
:0400dc00100500000b
:020000040000fa
:0400e0001005000007
:020000040000fa
:0400e4001005000003
:020000040000fa
:0400e80010050000ff
:020000040000fa
:0400ec0010050000fb
:020000040000fa
:0400f00010050000f7
:020000040000fa
:0400f40010050000f3
:020000040000fa
:0400f80010050000ef
:020000040000fa
:0400fc0010050000eb
:020000040000fa
:0401000010050000e6
:020000040000fa
:0401040010050000e2
:020000040000fa
:0401080010050000de
:020000040000fa
:04010c0010050000da
:020000040000fa
:0401100010050000d6
:020000040000fa
:0401140010050000d2
:020000040000fa
:0401180010050000ce
:020000040000fa
:04011c0010050000ca
:020000040000fa
:0401200010050000c6
:020000040000fa
:0401240010050000c2
:020000040000fa
:0401280010050000be
:020000040000fa
:04012c00fa030000d2
:020000040000fa
:0401300010050000b6
:020000040000fa
:0401340010050000b2
:020000040000fa
:0401380010050000ae
:020000040000fa
:04013c0010050000aa
:020000040000fa
:0401400010050000a6
:020000040000fa
:0401440010050000a2
:020000040000fa
:04014800100500009e
:020000040000fa
:04014c00100500009a
:020000040000fa
:040150001005000096
:020000040000fa
:040154001005000092
:020000040000fa
:04015800100500008e
:020000040000fa
:04015c00100500008a
:020000040000fa
:040160001005000086
:020000040000fa
:040164001005000082
:020000040000fa
:0402080010050000dd
:020000040000fa
:04020c0010050000d9
:020000040000fa
:0402100010050000d5
:020000040000fa
:0402140010050000d1
:020000040000fa
:0402180010050000cd
:020000040000fa
:04021c0010050000c9
:020000040000fa
:0402200010050000c5
:020000040000fa
:0402240010050000c1
:020000040000fa
:0402280010050000bd
:020000040000fa
:04022c0010050000b9
:020000040000fa
:0402300010050000b5
:020000040000fa
:0402340010050000b1
:020000040000fa
:0402380010050000ad
:020000040000fa
:04023c0010050000a9
:020000040000fa
:0402400010050000a5
:020000040000fa
:0402440010050000a1
:020000040000fa
:04024800100500009d
:020000040000fa
:04024c001005000099
:020000040000fa
:040250001005000095
:020000040000fa
:040254001005000091
:020000040000fa
:04025800100500008d
:020000040000fa
:04025c001005000089
:020000040000fa
:040260001005000085
:020000040000fa
:040264001005000081
:020000040000fa
:04026800100500007d
:020000040000fa
:04026c001005000079
:020000040000fa
:040270001005000075
:020000040000fa
:040274001005000071
:020000040000fa
:04027800100500006d
:020000040000fa
:04027c001005000069
:020000040000fa
:040280001005000065
:020000040000fa
:040284001005000061
:020000040000fa
:04028800100500005d
:020000040000fa
:04028c001005000059
:020000040000fa
:040290001005000055
:020000040000fa
:040294001005000051
:020000040000fa
:04029800100500004d
:020000040000fa
:04029c001005000049
:020000040000fa
:0402a0001005000045
:020000040000fa
:0402a4001005000041
:020000040000fa
:0402a800100500003d
:020000040000fa
:0402ac001005000039
:020000040000fa
:0402b0001005000035
:020000040000fa
:0402b4001005000031
:020000040000fa
:0402b800100500002d
:020000040000fa
:0402bc001005000029
:020000040000fa
:0402c0001005000025
:020000040000fa
:0402c4001005000021
:020000040000fa
:0402c800100500001d
:020000040000fa
:0402cc001005000019
:020000040000fa
:0402d0001005000015
:020000040000fa
:0402d4001005000011
:020000040000fa
:0402d800100500000d
:020000040000fa
:0402dc001005000009
:020000040000fa
:0402e0001005000005
:020000040000fa
:0402e4001005000001
:020000040000fa
:0402e80010050000fd
:020000040000fa
:0402ec0010050000f9
:020000040000fa
:0402f00010050000f5
:020000040000fa
:0402f40010050000f1
:020000040000fa
:0402f80010050000ed
:020000040000fa
:0402fc0010050000e9
:020000040000fa
:0403000010050000e4
:020000040000fa
:0403040010050000e0
:020000040000fa
:0403080010050000dc
:020000040000fa
:04030c0010050000d8
:020000040000fa
:0403100010050000d4
:020000040000fa
:0403140010050000d0
:020000040000fa
:0403180010050000cc
:020000040000fa
:04031c0010050000c8
:020000040000fa
:0403200010050000c4
:020000040000fa
:0403240010050000c0
:020000040000fa
:0403280010050000bc
:020000040000fa
:04032c0010050000b8
:020000040000fa
:0403300010050000b4
:020000040000fa
:0403340010050000b0
:020000040000fa
:0403380010050000ac
:020000040000fa
:04033c0010050000a8
:020000040000fa
:0403400010050000a4
:020000040000fa
:0403440010050000a0
:020000040000fa
:04034800100500009c
:020000040000fa
:04034c001005000098
:020000040000fa
:040350001005000094
:020000040000fa
:040354001005000090
:020000040000fa
:04035800100500008c
:020000040000fa
:04035c001005000088
:020000040000fa
:040360001005000084
:020000040000fa
:040364001005000080
:020000040000fa
:10040000af5721000e7f24000e018800000000007d
:10041000000020000000e000020032000001200087
:1004200020028800140007007f0107000000e000a0
:1004300003003a00c04e23000100200002003700f4
:100440000000200001002000810f70000100320038
:1004500014000700000020000000e000020032004d
:100460000000020000000000020c0200000000007a
:100470000040da000000fe004440a90020012000f6
:100480000000e0000300320000002000a00188000e
:100490004440a800000006008a1f78008b1f7800e7
:1004a0000000060091018800800478000000eb0045
:1004b0001a003700e284440032a0b4009905ba0063
:1004c000e284440032a0b4009906ba00e2844400f9
:1004d00032a0b4000006eb00476fde00fd07b2005b
:1004e000636ce10003003a00ebff07000000eb0043
:1004f0000a003700606ce10004003a00005deb0088
:100500008b05e900fdff3e00040037006168e10053
:10051000010032000086eb000b00070019c7ba008b
:100520001905ba000e04e00003003a000a00e000da
:10053000e0ff3a0000000600fe07b2009e018800be
:100540008a047800f5ff3700395dba008b05e900b1
:100550000c003200295dba008b05e900080032006a
:100560000c00e00003003a00e284440032a0b40032
:10057000f5ff370019ddba008b05e900faff3a00f4
:100580008904e800e184440032a0b40000000600c1
:1005900078140400000000003a1504000000000078
:1005a00000160400000000004a17040000000000cc
:1005b00062170400000000003600f800809fbe00b3
:1005c000829fbe00849fbe00869fbe000000fa008e
:1005d0008460a90030ab80000000e000020032001f
:1005e00030ab8000000001000080fa004f03be0025
:1005f0004f02be004f01be004f00be003600f900a2
:10060000004006003600f800809fbe00829fbe00ba
:10061000849fbe00869fbe000000fa0084e0a9000f
:1006200040ab80000000e0000200320040ab8000e0
:10063000000001000080fa004f03be004f02be0020
:100640004f01be004f00be003600f900004006001a
:100650003600f800809fbe00829fbe00849fbe00cf
:10066000869fbe000000fa008500a90050ab800004
:100670000000e0000200320050ab800000000100ea
:100680000080fa004f03be004f02be004f01be00c3
:100690004f00be003600f900004006003600f800aa
:1006a000809fbe00829fbe00849fbe00869fbe00ca
:1006b0000000fa008760a90060ab80000000e00045
:1006c0000200320060ab8000000001000080fa00f0
:1006d0004f03be004f02be004f01be004f00be00e0
:1006e0003600f900004006003600f800809fbe008a
:1006f000829fbe00849fbe00869fbe000000fa005d
:100700008780a90070ab80000000e000020032008a
:1007100070ab8000000001000080fa004f03be00b3
:100720004f02be004f01be004f00be003600f90070
:1007300000400600809fbe00821f78000000fa0083
:1007400085a0a9006ec8bf000080fb0001188000d2
:10075000000140000057210000004100010878001e
:100760006ec8bf00e34f500004003e006ec8bf00db
:100770000040e8006ee8b700030037006e68ef0045
:1007800010c0b3006fe8b7000080fa004f01780096
:100790004f00be00004006003600f800809fbe00fb
:1007a000829fbe00849fbe00869fbe000200fa00aa
:1007b0008560a9000400370030118000004f7800e8
:1007c0001e80fb00530f07001011800061006000c5
:1007d0000000e000f8ff3a000080fa004f03be007e
:1007e0004f02be004f01be004f00be003600f900b0
:1007f00000400600801f78000000fa008c20a9004d
:1008000010118000680060000000e000010032006c
:100810002262a90010118000640060000000e00066
:10082000010032002242a900101180006200600025
:100830000000e000010032002222a9000080fa003e
:100840004f007800004006003600f800809fbe0090
:10085000829fbe00849fbe00869fbe000000fa00fb
:100860008580a9006d150700e14f500002003a0095
:1008700074150700010037004868ef000080fa0097
:100880004f03be004f02be004f01be004f00be002e
:100890003600f900004006003600f800809fbe00d8
:1008a000829fbe00849fbe00869fbe000000fa00ab
:1008b0008620a900411080000040200000806000d8
:1008c0000000e000230032005ec8bf00e14f50008e
:1008d00020003a0007e2a900401680004800de0030
:1008e000614060000080fb00610060004800dd00a6
:1008f00042168000f1ef2f008100610001007000be
:1009000040168800cd02a800401680004900de0095
:10091000614060000080fb00610060004900dd0074
:1009200042168000f1df2f0081006100010070009d
:1009300040168800cd22a8000942a900000000004e
:100940005ec8bf000004e000fdff3a000602a800f8
:100950002c0037004110800000082000008060005b
:100960000000e0000200320008e2a9002500370084
:100970004110800000042000008060000000e000c2
:100980000200320008c2a9001e0037005ec8bf0086
:100990000080fb00e20f50000f003200e20f500019
:1009a00003003c00e10f5000060032001300370046
:1009b000e30f50000a003200e40f50000d00320037
:1009c0000e0037005f68ef0020c0b3005ee8b7009c
:1009d000fc1207000b003700fa120700090037006d
:1009e0005f68ef0020c0b3005ee8b700f5120700b3
:1009f000040037005e68ef00020037005e68ef0019
:100a0000000000000080fa004f03be004f02be004d
:100a10004f01be004f00be003600f9000040060046
:100a20000040da000000fe000000050003f0a20014
:100a3000889fbe008a9fbe008c1f78002a01070095
:100a4000310133006450e1004f0032006420e100c6
:100a50005200320003826c0007003b000905d00001
:100a60000306d000820f54000c065d00020039001e
:100a70000200320089017800030678008582550063
:100a800004003d000003fd008103fd008502ea0033
:100a90008b854200840f720002003b006000100052
:100aa000e08018006011b8000005eb007a28e10032
:100ab0000a00390006007800c75ddd00f707b200c4
:100ac000878075002d003700828171000a0178004f
:100ad000610560008180d1000080d3008502e900bb
:100ae000f9ff3b00060440008784480002003b00f9
:100af00060041400e0841c000988a3000700320091
:100b00008a81710082817100610164008904d100d1
:100b10000884d3008b05e800170037000978a3008c
:100b200013003a000b00e000130034008b05e900cd
:100b30000804440089844c000a4474000978a30026
:100b40000d003a000b00e000070034008b05e900bf
:100b50000804440089844c0001003a000b00200086
:100b60000978a300f7ff32000001eb000200370014
:100b7000828171000a017800a00007000cf0a70034
:100b800001f0a000e90037006420e10002003a0013
:100b9000838f6c00e90033000801be000200be0034
:100ba000e2003700889fbe008a9fbe008c1f78003d
:100bb000cd000700d400330003866c006450e100d0
:100bc0002e0032006420e100330032006150e10069
:100bd0002f0032006120e100310032008585550090
:100be000eb07b000090020000804200005003700d2
:100bf0000804440089844c000a00310006034300c5
:100c000087834b000001530081815b00f8ff3300b4
:100c10000203be000800a0000804440089844c00c0
:100c2000f6ff3900c639dd00830173000100320090
:100c3000130020008904d1000884d3000998a30080
:100c4000050032000800a7000300a0008904d100bd
:100c50000884d3008b05e8008904d1000884d30000
:100c60000001eb000281d2006400070001f0a10046
:100c70000cf0a70001f0a000ac0037006420e100f8
:100c8000ae0032000801be000200be00f7ff3700d0
:100c90006120e100a90032006000b800f3ff3700d6
:100ca0000000200001f82700f0ff3700839f680054
:100cb0000100e00002003d0060001000e08018002c
:100cc0000300e00002003d0060011100e081190016
:100cd000060107004f00e00002003b00600010002a
:100ce000e080180000000600140020003a023700df
:100cf000f4ff2f00380237000001be006500070036
:100d00000470a70003f0a1006509b10016003200cd
:100d10000d0035006828e10006003500f0ff2f00c7
:100d2000f1ff27000300e00013003b000100280052
:100d30000000050000004000818048008502e900b5
:100d4000fcff3a0008003700f88f420002003c0028
:100d50008000eb00000005008100d1000080d3007e
:100d60008502e800fcff3a000300e00002003b00bf
:100d700060001000e0801800000006000001be00c6
:100d8000440007000470a70003f0a10003f8a300cb
:100d900013003a006509b100100032000900350067
:100da0006928e1000200350001002800000005006c
:100db00000004000818048008502e900fcff3a0005
:100dc00000000600f88f4200050035008100d100c8
:100dd0000080d3008502e800fcff3a000000060016
:100de0008000eb00000005004f89de0082017800e2
:100df000140237006011b800220237008100200081
:100e0000618055000b003d000b00200061fe2f00ab
:100e10000100e1001d003400828171006101640065
:100e20008904d1000884d3000000e800faff3a00ea
:100e30007100200061006400030070000200600087
:100e40000900320061044400e0844c000988a500d8
:100e5000050032008b05e8006808e10002003a0056
:100e60008904d1000884d300f20f20000258e10069
:100e700005003d00c75ddd00f907b20089807500ff
:100e800008007800000006000bf827008b007800af
:100e900000000500c70ade00f107b200f50fb2003e
:100ea00008003200e1cf4200020032000170a000d1
:100eb00024000500810f70000100320004080500c5
:100ec00044000500810f700002003a001400050084
:100ed0008502e9000000400081c04800fcff3b00a3
:100ee0000170a000240005000004be00e9ff070017
:100ef0000003be000405be000200be00e5ff0700bf
:100f0000844f7500000006000200be006450e1003e
:100f1000050036006420e100020036000968a300e5
:100f200001003a000800be000160a0004f067800f2
:100f30004f05be004f04be0000000600f0ff2f006a
:100f4000f1ff2700f9ff3700889fbe008a9fbe008f
:100f50008c1f7800e4ff0700ebff330003866c0072
:100f60006450e100240032006420e10027003200d8
:100f70006150e100220032006120e10021003200d6
:100f80008b854200eb07b1000134b800003ab8008d
:100f90000804420089844a00013ab8000030b800d1
:100fa0008880400009014a0004003300000040002e
:100fb00081804800020149008b05e900c909dd0074
:100fc000830170000100320013002000c814de000d
:100fd0004814dd004709de001200b200c808de0038
:100fe0000884700085ff070001f0a1000cf0a70045
:100ff00001f0a000cdff37006120e100cfff3200fb
:101000000801be000200be00f7ff37006150e1009a
:10101000fcff3a00c9ff3700889fbe008a9fbe00d0
:101020008c1f78000004be009aff07000478a3001c
:1010300026003a006120e1002500320009f8a300f3
:1010400025003a006420e10021003200f507b100dc
:101050000508a30002003200000040008180480023
:101060006044b8000310200002002000000040008f
:10107000818048000805440089854c000a0541002c
:101080008b8549000a0550008b855800030033000a
:101090000a00be0002047400838474008301d1003e
:1010a0000281d300830f7100f0ff3a008904d10060
:1010b0000884d3006001490082017800c1adde00e0
:1010c000fb07b0004dff070098ff37000960a00044
:1010d0000800be0095ff37001202200082438800fe
:1010e000f0ff2f00f1ff270090ff37006022b800cb
:1010f000060220000000d0008180d2000482d200cd
:101100008582d2000000a0000202520083825a00b1
:10111000030031000202420083824a000000a10065
:101120000603e900f3ff3a0000000600889fbe00b6
:101130008a9fbe0030044200b0844a0030054b0054
:1011400090854b006000b1000898be000a90be0078
:101150000440e10005c8e10006d0e10007d8e10045
:1011600002003100680040001008e8004f05be0092
:101170004f04be0000000600889fbe008a9fbe008c
:101180003004be002005be000418540005985c0021
:1011900006185d0007985d00110020000440e10082
:1011a00005c8e10006d0e10007d8e10001003900e0
:1011b0008000eb00108810004f05be004f04be00f9
:1011c000000006001200fa00889fbe008a9fbe0041
:1011d0008c9fbe00e0b79f00f1b79f0082bf9f00c9
:1011e00093bf9f000605be000404be000000eb0094
:1011f000d0b79f00c0b79f00b0b79f00a0b79f00b7
:1012000090b79f000006eb005fb19700cfb097004a
:10121000820141003fb097000200e00004003d0061
:10122000370007007e805700c0ff0700030037002b
:10123000330007007e805700cfff0700dfb697001e
:101240000d00e0000c0035006fb29700ffb2970070
:101250000fbb97009fbb97001000200001002000eb
:101260006011b800000272008182720002037300f4
:10127000838373001b0007000c06e80001042000b4
:10128000810f5600e0ff3a000d00e00004003d0031
:101290000802be000a03be007e805700a3ff0700bd
:1012a0005fa897000000e00005003a001fb2970019
:1012b000afb297003fb39700cfb397000900070084
:1012c0006fb09700ffb097000fb997009fb99700d4
:1012d0004f06be004f05be004f04be000080fa005e
:1012e000000006000100070000000600a4b79f00f0
:1012f000b5b79f00c6b79f00d7b79f000000060094
:101300004f09de0082817100b3b79f004f01de00fc
:101310008180400082807000a1b79f008fb097004d
:101320004f09de00000040000200700090b79f00ef
:101330007fa897004f01de0081804000828070000e
:1013400081b79f000d0007004f3ade00000040000b
:1013500004007000f0af9f00080007000402420084
:1013600085824a0006034b0087834b00dfff07009e
:101370000802be000a03be00000006002fb297005c
:10138000bfb297004fb39700dfb39700000006008d
:10139000881f780018002000881f780089ff070048
:1013a0008f87e9004f04780000000600801feb00e3
:1013b00084ff07008f87e90000000600889fbe00b9
:1013c0008a9fbe00e00f5000e08f5800e00f5900e8
:1013d000e08f59000c003d006044b8006055b80033
:1013e0000000540081805c0002015d0083815d008b
:1013f000180020001500070008003d001800070035
:101400000004eb00050037000004eb000f000700ac
:1014100002003d001200070018002000dcff07005a
:101420000800e000060032006022b8006033b80017
:101430000000520081805a0002015b0083815b0042
:101440004f05be004f04be0000000600e00f520032
:10145000e08f5a00e00f5b00e08f5b0000000600a9
:101460006044b8006055b8000402540085825c00f6
:1014700006035d0087835d0000000600889fbe00b4
:101480008a9fbe008c1f7800e00f5000e08f58004c
:10149000e00f5900e08f59000d003d006044b80096
:1014a0006055b8000000540081805c0002015d00be
:1014b00083815d001c0020000820e10009a8e100f4
:1014c0000ab0e1000bb8e1000d003d000800370054
:1014d0000006eb00e00f5200e08f5a00e00f5b00c7
:1014e000e08f5b0006003d006044b8006055b80026
:1014f0000402540085825c0006035d0087835d0062
:10150000aaff07000c00e000060032006022b800cd
:101510006033b8000000520081805a0002015b0075
:1015200083815b004f0678004f05be004f04be006c
:1015300000000600889fbe008a9fbe008c1f7800b6
:101540000006eb00e00f5000e08f5800e00f59005c
:10155000e08f590007003d006044b8006055b800b6
:101560000000540081805c0002015d0083815d0009
:101570001c002000e00f5200e08f5a00e00f5b00db
:10158000e08f5b0007003d006044b8006055b80084
:101590000402540085825c0006035d0087835d00c1
:1015a0000c00a200660007000c00e00006003200fc
:1015b0006022b8006033b8000000520081805a00f9
:1015c00002015b0083815b004f0678004f05be007f
:1015d0004f04be0000000600889fbe008a9fbe0028
:1015e000841f780040fe07004f0078001100330090
:1015f000f0ff2f00838f6c0006003b0004056500a0
:101600000a00a7000800370009f0a600100020001b
:1016100008003700820f5400838f5c0003003900fc
:101620001000200001003e000000200009f0a7008b
:101630000000ea004f05be004f04be000000e000bd
:1016400000000600881f7800030478000300e00013
:1016500007003d0060001000e080180060011900e4
:10166000e081190002003b0001f02d00030037006b
:101670000400070008f0a70001f0a0004f04780064
:1016800000000600889fbe008a9fbe000082700096
:101690000402710004827100260032000004be00c2
:1016a0000200be006011b8006b0920009502200006
:1016b0000182cf000a0039000541b1000082cf004d
:1016c000070039000541b1000982cf00040039004c
:1016d0000541b1000882cf00010039000541b10089
:1016e00005425200120032000a003b008281710064
:1016f000610164008100d1000080d3008984d3009f
:101700000884d3008b05e8000442e800f7ff3a00a4
:10171000070037000804440089844c00000048009a
:10172000818048008b05e9000442e900f9ff3a0096
:10173000b2fd07004f05be004f04be0000000600ca
:10174000889fbe008a9fbe008c9fbe000404b80024
:101750000506b8008904460060854e000606b800fc
:101760000a054600e0854e000706b8008b054600d6
:10177000040eb800890446000a854e00e0854d003d
:10178000050eb8000a0546008b854e00060eb8000f
:101790008b0546000416b8000a0546008b854e00ee
:1017a0000516b8008b054600041eb8008b054600e0
:1017b0000800be000a01be004f06be004f05be0075
:1017c0004f04be0000000600800078003104e000f5
:1017d000feff3a000080ea000080400000000600a2
:020000040000fa
:1017e000d04000001806000000d00000612c00006e
:1017f00007070000d05100002c070000d040000077
:0418000018060000c6
:020000040000fa
:101804001a00fa00889fbe00a4140700b113070051
:10181400f41307000043eb0045c0b30014c0b30049
:101824008147210002002000832c24000040eb00ab
:10183400f40a07000043eb0045c0b30014c0b30032
:10184400a153210002002000832c240010c0b30007
:10185400ec0a07000043eb0045c0b30014c0b3001a
:1018640001602100020020006349240020c0b3006d
:10187400e40a070016c0b30065c0b30014c0b30087
:10188400a174210002002000a347240030c0b3004b
:10189400dc0a070016c0b30035c0b30014c0b3009f
:1018a40021762100020020008324240040c0b300dc
:1018b400d40a0700111407001a14070023140700a0
:1018c400dc100700be0d070000a821006100200005
:1018d4009b14070000902000d103200098140700f7
:1018e400c4e2a800c542a800c422a90080252000a3
:1018f4000100200070a9880081a988000000200050
:10190400a147240010a9880021a988000000200014
:10191400a147240090a88800a1a888006000b8000e
:1019240050a9880061a988006000b80030a9880027
:1019340041a988006000b800e0a98800f1a98800e6
:101944006000b80000aa880011aa88006000b800ee
:1019540020aa880031aa880000002800214a240017
:10196400a0a98800b1a9880000002400c151240066
:1019740050a8880061a888000000200001f023001e
:1019840070a8880081a8880000482800e101200090
:10199400e0aa8800f1aa880020532100c1c0b30046
:1019a40001487800c04f21008040eb0001487800d6
:1019b40050168000700060000000e00013003a0040
:1019c40090168000640060000000e0000f003a0000
:1019d4004a68ef00400d24008189230020408800dc
:1019e40031408800fb05070016c0b30035c0b300c2
:1019f40014c0b300a15321000240220043972400e5
:101a040010c0b3007f0a070009003700d01d220070
:101a1400518c23002040880031408800ed050700e8
:101a2400204e20000100200070a9880081a98800b0
:101a340050168000680060000000e00004003a00d6
:101a44006000b800e0a98800f1a98800c4e2a800f9
:101a5400a21307000004e00062003200a313070091
:101a64009a130700100798001e00900010007800d9
:101a7400000f98001e0090000080e800100078001d
:101a8400100f98001e0090006400400010007800c1
:101a9400200f98001e00900066004000100078009f
:101aa400300f98001e00900068004000100078007d
:101ab400400f98000e0890008000eb00ccfc07005b
:101ac4003233230033a523001efd070010a888002d
:101ad40021a88800400a2700d1f923002007980094
:101ae4003107980010a8800021a88000a2702d0062
:101af40033da2300ccfb0700400798005107980015
:101b040010002000000f780018c0b3006011b80066
:101b14004e009000de00900072fc07000000e00020
:101b2400010035000044eb000804e000030032002b
:101b34000080eb00000f7800020037001000200046
:101b4400000f780018c0b3006011b8004e00900078
:101b5400de00900065fc07000000e00001003c008e
:101b64000044eb000804e000050032004e00900041
:101b7400de0090000001be00acfb0700050037004a
:101b84004e009000de00900001f0a2000001be00b3
:101b9400a6fb07002e019000be01900000fc070088
:101ba4001cfd07000004be001e007800cf80de008c
:101bb4008cfc07000001be000800be00e1fc070029
:101bc4006007980071079800a2df2e00b3a62300d7
:101bd4006e009000fe009000dafc0700d0a8880098
:101be400e1a888004ac8bf000004e00005003200f4
:101bf40015000700de01070052020700c6020700b5
:101c04008bff37000e01070089ff37000000fa0040
:101c14001a68ef001ac8bf0019e8b70019c8bf0056
:101c240018e8b7000828ef000000eb003f020700a7
:101c34000000eb00b20207000000eb0025030700e0
:101c44000080fa00000006000000fa00881f7800f7
:101c540040408000e50f5000a9003200e50f50001d
:101c640009003e00e10f50001d003200e10f50005a
:101c74000e003900e20f50002e003200e30f500036
:101c840039003200eb003700e70f500072003200d9
:101c9400e70f5000a3003900e80f50007b0032002a
:101ca400e90f5000cc003200e2003700c422a80043
:101cb40018c8bf000004e000cf00320019c8bf00fc
:101cc4000004e000ce0032001ac8bf000004e000a7
:101cd400cd0032001000200040408800d5003700bd
:101ce4005cc8bf000004e00007003200c422a80062
:101cf4002000200040408800004080001140800007
:101d0400504088006140880000562100104078004f
:101d14000004e000be003200900020004040880033
:101d240011c0b3000040eb0060090700c422a80002
:101d3400c000370020002000fc0107002000200024
:101d44006f02070020002000e2020700004080002c
:101d5400114080005040880061408800300020001d
:101d640040408800b3003700b0a88000c1a88000bc
:101d740001fc07000001be0050408000614080006b
:101d8400020140008381480000408000114080002f
:101d9400800f5100818f590008003e00c4e2a90061
:101da400c542a900004080001140800050408800d6
:101db40061408800700020004040880014a8800022
:101dc40025a8800050a8800061a8800018c0b30036
:101dd4000001be000400be00c4fb07000000e000d8
:101de40001003d000044eb000804e0000d003a004f
:101df400f4a8800005a9800070a8800081a8800054
:101e040018c0b3000001be000400be00b7fb070009
:101e14000000e00001003d000044eb000804e00085
:101e240006003200004080001140800050408800cd
:101e34006140880070002000404088005cc8bf00fa
:101e44000004e00074003a001000200040408800c4
:101e5400c422a9007700370060002000b301070006
:101e6400600020002602070060002000990207009d
:101e7400004080001140800050408800614088008c
:101e840080002000404088006a00370090a880004d
:101e9400a1a88000b8fb07000001be0050408000ec
:101ea40061408000020140008381480000408000be
:101eb40011408000800f5100818f590009003e00bd
:101ec4006000b800f0a8880001a9880000408000e4
:101ed400114080005040880061408800500020007c
:101ee400404088005cc8bf000004e0004c003a0099
:101ef4001000200040408800c422a9004d00370093
:101f0400400020008901070040002000fc01070078
:101f1400400020006f02070060002000404088005d
:101f24004400370010a9800021a9800092fb07001b
:101f34000001be005040800061408000020140006a
:101f4400838148000040800011408000800f5100d0
:101f5400818f590019003e00c542a800004080004e
:101f6400114080005040880061408800c04f21002b
:101f7400104078000004e0000e00320010a8800039
:101f840021a8800018c0b3000200200003002c0028
:101f940054fb07000000e000010035000044eb00a2
:101fa4000804e000050032002000200040408800c2
:101fb4000200370020002000404088005cc8bf00b9
:101fc4000004e00018003a0010002000404088009f
:101fd400c422a900170037000056210010407800e1
:101fe4000004e00012003a00100020004040880085
:101ff400c422a9000f003700000000000d003700c4
:10200400000000000b00370000000000090037004a
:102014000000000007003700000000000500370042
:10202400000000000300370000000000010037003a
:10203400000000004f0478000080fa000000060051
:102044000000fa00881f780040408000e40f500030
:10205400a3003200e40f500005003e00e10f5000e1
:102064000a003200e20f50003f003200bd0037008a
:10207400e70f500074003200e90f5000a70032004f
:10208400e50f500018003200b60037005cc8bf00ee
:102094000004e00008003200c422a8005000200020
:1020a400404088000040800011408000504088007b
:1020b4006140880001003700c422a90000562100b5
:1020c400104078000004e0009b00320090002000e3
:1020d4004040880011c0b30020c0b300730807005b
:1020e400c422a8009f00370010a9800021a9800005
:1020f40021fb07000001be005040800061408000c9
:1021040002014000838148000040800011408000ab
:10211400800f5100818f59000a003e00c542a8007b
:10212400805321008040eb0001487800c522a900bb
:1021340011c0b30020c0b3005c08070020002000d9
:10214400404088005cc8bf000004e0007c003a0006
:102154008040eb0020c0b3005408070010002000aa
:10216400404088007f00370012c8bf000004e00030
:1021740009003200c4e2a900c542a9001268ef00b8
:102184000040800011408000504088006140880079
:10219400700020004040880014a8800025a880001a
:1021a40050a8800061a8800018c0b3000001be00e0
:1021b4000400be00cdfa07000000e00001003d006d
:1021c4000044eb000804e0000d003a00f4a880008d
:1021d40005a9800070a8800081a8800018c0b30001
:1021e4000001be000400be00c0fa07000000e000c9
:1021f40001003d000044eb000804e0000900320047
:1022040000408000114080005040880061408800f8
:1022140070002000404088008040eb0020c0b300e4
:10222400220807005cc8bf000004e00046003a0032
:102234008040eb0020c0b3001c0807001000200001
:10224400404088004700370090a88000a1a8800083
:10225400c9fa07000001be005040800061408000c0
:10226400020140008381480000408000114080004a
:10227400800f5100818f590010003e0080532100cf
:1022840011c0b30001487800c522a80011c0b300f2
:1022940020c0b300050807006000b800f0a888005b
:1022a40001a988000040800011408000504088004f
:1022b4006140880040002000404088005cc8bf00a6
:1022c4000004e00022003a008040eb0020c0b3008c
:1022d400f607070010002000404088002100370066
:1022e40013c8bf000004e000030032001368ef00cd
:1022f40050002000404088005cc8bf000004e0009b
:1023040015003a008040eb0020c0b300e707070047
:1023140010002000404088001200370000562100c1
:10232400104078000004e0000d003a001000200086
:10233400404088000b00370000000000090037000f
:10234400000000000700370000000000050037000f
:102354000000000003003700000000000100370007
:10236400000000004f0478000080fa00000006001e
:102374000000fa00889fbe00e0408000e30f500098
:1023840031003200e30f500005003e00e10f500021
:1023940017003200e10f500021003e000700370013
:1023a400e50f50003e003200e50f500030003900c8
:1023b400e60f500050003200590037008042800080
:1023c4009142800002002000a33f240096f90700f8
:1023d4000002be0002002500337c2c0010c0b300b4
:1023e4000204070010002000e04088004c00370081
:1023f40050168000680060000000e00043003a00ce
:1024040010c0b3008d0407006000b800e0a9880084
:10241400f1a9880040002000e04088004000370017
:10242400a0a98000b1a980000002be000200200023
:1024340083242c0010c0b300ec03070030002000fc
:10244400e0408800360037005016800068006000c5
:102454000000e0002f003a006000b800e0a9880006
:10246400f1a9880060002000e04088002c003700bb
:10247400884280009942800070a9800081a9800070
:1024840058fa07000802be000001be0010c0b300e5
:10249400d603070050002000e040880020003700e9
:1024a40050168000640060000000e0000d0032005f
:1024b400e4a98000f5a9800040aa800051aa800008
:1024c40018c0b3000001be000400be0007fa0700f4
:1024d4000000e00001003d000044eb000804e000bf
:1024e4000e00320060002000e040880010c0b300fd
:1024f40018e8b7000a00370010c0b3004f04070003
:1025040070002000e0408800050037000000000053
:102514000300370000000000010037000000000045
:102524004f04be000080fa00000006000200fa001a
:10253400000f78009e007800e14088000080fa00d7
:10254400000006000000fa00889fbe00f0408000f2
:10255400e30f500031003200e30f500005003e004d
:10256400e10f500017003200e10f500021003e003f
:1025740007003700e50f50003e003200e50f500021
:1025840030003900e60f5000500032005900370087
:10259400804280009142800002002000a33f24007a
:1025a40021f907000002be0002002500337c2c0044
:1025b40020c0b3008d03070010002000f040880005
:1025c4004c00370090168000620060000000e000bc
:1025d40043003a0020c0b300180407006000b800ac
:1025e40000aa880011aa880040002000f04088005a
:1025f40040003700a0a98000b1a980000002be00fd
:102604000200200083242c0020c0b30077030700bd
:1026140030002000f040880036003700901680001b
:10262400620060000000e0002f003a006000b80083
:1026340000aa880011aa880060002000f0408800e9
:102644002c003700884280009942800070a98000e5
:1026540081a98000e3f907000802be000001be0062
:1026640020c0b3006103070050002000f040880040
:102674002000370090168000610060000000e00038
:102684000d00320004aa800015aa800060aa800010
:1026940071aa800018c0b3000001be000400be008f
:1026a40092f907000000e00001003d000044eb0047
:1026b4000804e0000e00320060002000f0408800b2
:1026c40010c0b30019e8b7000a00370020c0b300f7
:1026d400da03070070002000f0408800050037008e
:1026e4000000000003003700000000000100370074
:1026f400000000004f04be000080fa000000060045
:102704000200fa00000f78009e007800f140880073
:102714000080fa00000006000000fa00889fbe0056
:1027240000418000e30f500031003200e30f5000fd
:1027340005003e00e10f500017003200e10f500089
:1027440021003e0007003700e50f50003e00320034
:10275400e50f500030003900e60f50005000320001
:10276400590037008042800091428000020020001e
:10277400a33f2400acf807000002be0002002500bd
:10278400337c2c0030c0b300180307001000200075
:10279400004188004c003700501680007000600033
:1027a4000000e00043003a0030c0b300a303070078
:1027b4006000b80020aa880031aa880040002000e8
:1027c4000041880040003700a0a98000b1a9800022
:1027d4000002be000200200083242c0030c0b3009d
:1027e4000203070030002000004188003600370053
:1027f40050168000700060000000e0002f003a00d6
:102804006000b80020aa880031aa88006000200077
:10281400004188002c0037008842800099428000e3
:1028240070a9800081a980006ef907000802be002b
:102834000001be0030c0b300ec02070050002000cd
:10284400004188002000370090168000640060007a
:102854000000e0000d00320024aa800035aa8000a8
:1028640080aa800091aa800018c0b3000001be00b5
:102874000400be001df907000000e00001003d0057
:102884000044eb000804e0000e0032006000200069
:102894000041880010c0b3001ae8b7000a003700ee
:1028a40030c0b300650307007000200000418800b9
:1028b400050037000000000003003700000000009e
:1028c40001003700000000004f04be000080fa0041
:1028d400000006000200fa00000f78009e00780055
:1028e400014188000080fa00000006000000fa00a0
:1028f400881f78004ac8bf000004e0005900320075
:1029040044aa800055aa8000e0a98000f1a98000b3
:1029140018c0b3000001be000400be00f3f80700b5
:102924000000e00001003c000044eb000804e0006b
:102934001e003200c522a900a11680000004200058
:102944000080600000f0a7000000ea000000e90039
:102954004f00de00004078000080fb006100600052
:102964004600dd00a2168000f1fb2f00810061000b
:1029740001007000a0168800a11680000004200049
:10298400008060000000e00036003a00e0a980000a
:10299400f1a980000200200003f8230023f80700b7
:1029a400e0a98800f1a988002e00370044aa80001d
:1029b40055aa8000e0a98000f1a9800018c0b300e6
:1029c4000001be000400be00c6f807000000e000dd
:1029d400010035000044eb000804e0001e00320052
:1029e400c522a800a1168000000420000080600019
:1029f40000f0a7000000ea000000e9004f00de003c
:102a0400004078000080fb00610060004600dd00ab
:102a1400a2168000f1fb2f0081006100010070000c
:102a2400a0168800a1168000000420000080600029
:102a34000000e0000b003a00e0a98000f1a980004a
:102a44000200200003f82300f7f70700e0a988003c
:102a5400f1a98800030037008040eb000040eb0040
:102a6400120607004f0478000080fa0000000600f8
:102a74000000fa00881f78004ac8bf000004e00084
:102a84005b00320064aa800075aa800000aa80005e
:102a940011aa800018c0b3000001be000400be00eb
:102aa40092f807000000e00001003c000044eb0045
:102ab4000804e0001c003200cca2a900a01680008b
:102ac4006800600000f0a7000000ea000000e900d0
:102ad4004f00de00004078000080fb0061006000d1
:102ae4004300dd00a216800071ff2f008100610009
:102af40001007000a0168800a01680006800600025
:102b04000000e00034003a0000aa800011aa80000e
:102b14000200200003f82300c4f7070000aa88007d
:102b240011aa88002c00370064aa800075aa8000ce
:102b340000aa800011aa800018c0b3000001be00e2
:102b44000400be0067f807000000e0000100350043
:102b54000044eb000804e0001c003200cca2a800f2
:102b6400a01680006800600000f0a7000000ea00e2
:102b74000000e9004f00de00004078000080fb0008
:102b8400610060004300dd00a216800071ff2f0089
:102b94008100610001007000a0168800a01680006a
:102ba400680060000000e0000b003a0000aa80000a
:102bb40011aa80000200200003f823009af70700fe
:102bc40000aa880011aa8800030037008040eb00a7
:102bd40010c0b300b505070070408000814080003c
:102be40061004000e0804800704088008140880017
:102bf4004f0478000080fa00000006000000fa008c
:102c0400889fbe008a1f78004ac8bf000004e00005
:102c14005a00320084aa800095aa800020aa80006d
:102c240031aa800018c0b3000001be000400be0039
:102c34002ef807000000e00001003c000044eb0017
:102c44000804e0001e003200cde2a90061168000f5
:102c5400000024000080600000f0a7000000ea00eb
:102c64000000e9004f00de00004078000080fb0017
:102c7400610060004e00dd0062168000f1ff2b0051
:102c840081006100010070006016880061168000f8
:102c940000002400008060000000e00078003a009a
:102ca40020aa800031aa80000200200003f823003b
:102cb4005ef7070020aa880031aa88007000370058
:102cc40084aa800095aa800020aa800031aa8000ee
:102cd40018c0b3000001be000400be0001f80700e4
:102ce4000000e000010035000044eb000804e000af
:102cf4001e003200cde2a80061168000000024000e
:102d04000080600000f0a7000000ea000000e90075
:102d14004f00de00004078000080fb00610060008e
:102d24004e00dd0062168000f1ff2b00810061007f
:102d34000100700060168800611680000000240005
:102d4400008060000000e0004d003a0020aa8000ee
:102d540031aa80000200200003f8230032f70700a4
:102d640020aa880031aa8800450037008040eb0083
:102d740020c0b3004d0507004100370080532100f7
:102d8400104078000004e0001c003a00f90e07002f
:102d9400e0a98000f1a980000200200003f82300cc
:102da40022f70700e0a98800f1a98800e8a98000bb
:102db400f9a9800070a9800081a9800009f80700a2
:102dc4001ac0b3000001be000800be00c7f7070028
:102dd4000000e00001003d000045eb000a04e000b3
:102de4002700320010c0b30012e8b7008040eb00a7
:102df40020c0b3002d05070021003700dd0e0700b9
:102e0400e0a98000f1a980000200200003f823005b
:102e140005f70700e0a98800f1a988005016800092
:102e2400680060000000e00005003a0010c0b30034
:102e340013e8b7008040eb0020c0b3001b05070077
:102e4400e0a98000f1a9800018c0b30002002000ae
:102e5400031f2c00a3f707000000e000010034006a
:102e64000044eb000804e0000500320010c0b30089
:102e740013e8b7008040eb0020c0b3000b05070047
:102e84004f0578004f04be000080fa0000000600e1
:102e94000000fa0000408000114080006100400002
:102ea400e0804800004088001140880020438000f2
:102eb4000000e800204388000080fa0000000600bb
:102ec4001e00fa00889fbe00004080001140800070
:102ed4004808de0000407800204f98000040800041
:102ee400114080004008de0000407800304f980018
:102ef40000408000114080004809dd004800de00e9
:102f040000007100c808de0000407800404f9800bf
:102f1400004080001140800000407800504f98002d
:102f2400f0a8800001a980006a0247000001be00e9
:102f34004100200004007800750d070010a88000ef
:102f440021a880006a0247000001be008100200021
:102f5400040078006e0d0700e0a98000f1a980004c
:102f64006a0247000001be00c1002000040078008e
:102f7400670d07006a004700000178000101200086
:102f84004006200095070700fb0047007a00470031
:102f940024002000810178000001eb00800078000b
:102fa40000c5b300f20807004e5890008080fb0073
:102fb4003e5890000081fb00f003200000006100f7
:102fc4004800dd008080400060a02f0000804000a9
:102fd400cf80de0083f7070062462f0033e823002a
:102fe400d8f7070010a8880021a8880023c8bf00cc
:102ff4008080fb008100ea00cf08de008140780079
:103004000040e80023e8b7000104e0005e0032005d
:103014002368ef00b80c0700f0a7880001a8880017
:1030240010c0b300004f7800f2a7800003a880000e
:10303400120798002307980018c0b3006011b80065
:103044001e009000ae00900026f707000000e0008c
:10305400010035000044eb000804e00003003200e6
:1030640000c0eb00004f78000200370010c0b3002e
:10307400004f780018c0b3006011b8001e00900023
:10308400ae00900019f707000000e00001003c00ca
:103094000044eb000804e000080032001e00900029
:1030a400ae0090000001be0060f60700420a27004f
:1030b400d3f92300baf60700080037001e00900079
:1030c400ae00900001f0a2000001be0057f6070018
:1030d400420a2700d3f92300b1f60700cdf7070011
:1030e4000004be001e00fb00cf80de003df7070099
:1030f4000001be000800be0092f7070030079800e8
:103104004107980020408000314080003e0190003b
:10311400ce0190008bf70700d0a88800e1a88800b2
:1031240018c0b300a2702d0033c223003e009000eb
:10313400ce009000edf607000000e00001003d0025
:103144000044eb000804e0000f003200f8a88000ff
:1031540009a98000d0a88000e1a880000200200016
:10316400a347240077f7070002002000831c2400f3
:103174008bf607000001be000800be002bf6070016
:10318400f0a8880001a9880022c8bf008080fb0045
:103194008100ea00cf08de00814078000040e800aa
:1031a40022e8b7000104e00007003200a0408000dc
:1031b400b14080006011b8001cf60700a0408800f0
:1031c400b14088002268ef004f04be000080fa007e
:1031d400000006000800fa00889fbe00205321006a
:1031e400104078000080fb008000eb000001be006e
:1031f40000a62e0001002000abf60700f9f6070038
:10320400008fbe006000b8002007980031079800c6
:103214004ac8bf000004e00024003a0070a98000fe
:1032240081a98000eff607000004be00d2cc2c0078
:10323400c3e423001e00be0042f707000200200082
:10324400a347240056f607000001be000800be0094
:1032540053f60700200798003107980018c0b30000
:1032640002002800b34324002e009000be0090000a
:103274009cf607000000e000010035000044eb006c
:103284000804e000030032002e009000be0090000d
:103294000200370000002800b14324000001be00f2
:1032a40020c0b3000c0107004100370070a9800062
:1032b40081a980000000400081804800c9f6070011
:1032c4000004be00d2cc2c00c3e423001e00be00c8
:1032d4001cf7070002002000a347240030f6070073
:1032e4000001be000800be002df607000002be006b
:1032f400804280009142800018c0b3000001be00eb
:103304000400be0077f607000000e000010035006d
:103314000044eb000804e0001100320070a98000b2
:1033240081a980000000400081804800adf60700bc
:103334000004be00d2cc2c00c3e423001e00be0057
:1033440000f7070002002000a347240014f607003a
:103354000001be000800be0011f60700020037009d
:103364008042800091428000a0a98800b1a9880011
:10337400d2cc2c00c3e423001e00be00f1f60700eb
:10338400b0a88800c1a8880002002000a347240038
:103394001e00be00ebf60700d2cc2c00c3e42300d1
:1033a400e8f6070074f60700e0aa8800f1aa88008e
:1033b400a299290093e923001e00be00e1f607004c
:1033c40090a88800a1a888000200200003f0230030
:1033d4001e00be00dbf6070010a9880021a98800a2
:1033e4004f04be000080fa00000006000a00fa0044
:1033f400004f7800120798002307980034079800bc
:10340400450798001e80fb00e30f500024003200a3
:10341400e30f500005003c00e10f500008003200ab
:10342400e20f50001200320041003700e40f500058
:1034340027003200e50f5000310032003c00370015
:103444003e019000ce0190000040eb00a200070076
:103454001e019000ae01900042aa880053aa880081
:1034640011c0b3000040eb009003070030003700a8
:103474003e019000ce01900010c0b30096000700fa
:103484001e019000ae01900062aa880073aa880011
:1034940011c0b30010c0b300840307002400370038
:1034a4003e019000ce01900020c0b3008a000700c6
:1034b4001e019000ae01900082aa880093aa8800a1
:1034c40011c0b30020c0b300780307001800370010
:1034d4003e019000ce01900030c0b3007e00070092
:1034e4001e019000ae019000a2aa8800b3aa880031
:1034f40011c0b30030c0b3006c0307000c003700e8
:103504003e019000ce01900040c0b300720007005d
:103514001e019000ae019000c2aa8800d3aa8800c0
:1035240011c0b30040c0b3006003070000000000f6
:103534000080fa00000006000400fa00004f780042
:10354400110798001e80fb00e30f50001e0032009c
:10355400e30f500005003c00e10f5000080032006a
:10356400e20f50000f00320032003700e40f500029
:103574001e003200e50f5000250032002d003700f8
:1035840011c0b3000040eb00480307001e00900088
:103594008000eb0016f6070040aa880051aa8800b4
:1035a4002400370011c0b30010c0b3003f0307006c
:1035b4001e0090008000eb000df6070060aa880052
:1035c40071aa88001b00370011c0b30020c0b300eb
:1035d400360307001e0090008000eb0004f607008d
:1035e40080aa880091aa88001200370011c0b30095
:1035f40030c0b3002d0307001e0090008000eb00d4
:10360400fbf50700a0aa8800b1aa880009003700ca
:1036140011c0b30040c0b300240307001e00900093
:103624008000eb00f2f50700c0aa8800d1aa880048
:10363400000000000080fa00000006000200fa000a
:10364400004f78001e80fb00e30f5000140032008e
:10365400e30f500005003c00e10f50000800320069
:10366400e20f50000a00320019003700e40f500046
:103674000f003200e50f5000110032001400370033
:103684008040eb000040eb00080307001000370007
:103694008040eb0010c0b300040307000c003700a7
:1036a4008040eb0020c0b30000030700080037008f
:1036b4008040eb0030c0b300fc0207000400370078
:1036c4008040eb0040c0b300f80207000000000097
:1036d4000080fa00000006000600fa00881f780047
:1036e400004f780012079800230798001e80fb0003
:1036f400e20f5000ea003200e20f500005003c00e7
:103704000000e00008003200e10f500075003200b4
:1037140030023700e30f500050013200e40f500034
:10372400bd0132002b02370021088000f0fc2f007d
:1037340000806000200888001e019000ae01900007
:103744000068290081c1240015f5070018c0b300e2
:1037540002f02f00f377240064f507000000e00076
:1037640001003c000044eb000804e0005400320077
:1037740021088000f0fc2f00008060000040a000c1
:10378400200888001e019000ae0190000068290006
:1037940081c1240002f50700020020000310240068
:1037a400fff4070018c0b30002f02f00f3772400e1
:1037b4004ef507000000e00001003c000044eb006f
:1037c4000804e0003200320021088000f0fc2f00e1
:1037d400008060000050a000200888001e019000b6
:1037e400ae0190000068290081c12400ecf40700b8
:1037f4000200200003282400e9f4070018c0b300e5
:1038040002f02f00f377240038f507000000e000f1
:1038140001003c000044eb000804e000100032000a
:1038240021088000000320000100700020088800a7
:103834001e019000ae0190000068290081c124009f
:10384400d7f407000200200003382400d4f4070052
:1038540028f507000000780010088800dd01370013
:103864001e019000ae0190000068290081c124006f
:10387400cbf407000200200003282400c8f407004a
:103884001cf507000000780010088800d1013700fb
:103894001e019000ae0190000068290081c124003f
:1038a400bff407000200200003102400bcf407004a
:1038b40010f507000000780010088800c5013700e3
:1038c4001e019000ae0190000068290081c124000f
:1038d400b3f4070007f5070000007800100888001b
:1038e400bc01370081088000f0fc2f0000806000dc
:1038f400800888001e019000ae0190000068290035
:1039040081c12400a6f4070018c0b30002f02f0000
:10391400f3772400f5f407000000e00001003c0008
:103924000044eb000804e0005400320081088000e9
:10393400f0fc2f00008060000040a0008008880098
:103944001e019000ae0190000068290081c124008e
:1039540093f40700020020000310240090f40700f1
:1039640018c0b30002f02f00f3772400dff407003f
:103974000000e00001003c000044eb000804e0000b
:103984003200320081088000f0fc2f0000806000cb
:103994000050a000800888001e019000ae01900035
:1039a4000068290081c124007df407000200200082
:1039b400032824007af4070018c0b30002f02f0093
:1039c400f3772400c9f407000000e00001003c0084
:1039d4000044eb000804e00010003200810880007d
:1039e4000003200001007000800888001e01900080
:1039f400ae0190000068290081c1240068f407002a
:103a0400020020000338240065f40700b9f407001d
:103a140000007800600888006e0137001e019000e5
:103a2400ae0190000068290081c124005cf4070005
:103a3400020020000328240059f40700adf4070015
:103a44000000780060088800620137001e019000c1
:103a5400ae0190000068290081c1240050f40700e1
:103a640002002000031024004df40700a1f4070015
:103a74000000780060088800560137001e0190009d
:103a8400ae0190000068290081c1240044f40700bd
:103a940098f4070000007800600888004d013700a2
:103aa40091088000f0fc2f000080600090088800de
:103ab4001e019000ae0190000068290081c124001d
:103ac40037f4070018c0b30002f02f00f377240086
:103ad40086f407000000e00001003c000044eb0015
:103ae4000804e0005400320091088000f0fc2f002c
:103af400008060000040a000900888001e01900033
:103b0400ae0190000068290081c1240024f407005c
:103b1400020020000310240021f4070018c0b300a1
:103b240002f02f00f377240070f407000000e00097
:103b340001003c000044eb000804e00032003200c5
:103b440091088000f0fc2f00008060000050a0006d
:103b5400900888001e019000ae01900000682900c2
:103b640081c124000ef40700020020000328240071
:103b74000bf4070018c0b30002f02f00f377240001
:103b84005af407000000e00001003c000044eb0090
:103b94000804e000100032009108800000032000b7
:103ba40001007000900888001e019000ae01900092
:103bb4000068290081c12400f9f3070002002000f5
:103bc40003382400f6f307004af4070000007800e5
:103bd40070088800ff0037001e019000ae019000bd
:103be4000068290081c12400edf3070002002000d1
:103bf40003282400eaf307003ef4070000007800dd
:103c040070088800f30037001e019000ae01900098
:103c14000068290081c12400e1f3070002002000ac
:103c240003102400def3070032f4070000007800dc
:103c340070088800e70037001e019000ae01900074
:103c44000068290081c12400d5f3070029f4070086
:103c54000000780070088800de003700f10880005a
:103c6400f0fc2f0000806000f00888001e01900026
:103c7400ae0190000068290081c12400c8f3070048
:103c840018c0b30002f02f00f377240017f40700e4
:103c94000000e00001003c000044eb000804e000e8
:103ca40054003200f1088000f0fc2f000080600016
:103cb4000040a000f00888001e019000ae019000b2
:103cc4000068290081c12400b5f307000200200028
:103cd40003102400b2f3070018c0b30002f02f0051
:103ce400f377240001f407000000e00001003c0029
:103cf4000044eb000804e00032003200f1088000c8
:103d0400f0fc2f00008060000050a000f008880044
:103d14001e019000ae0190000068290081c12400ba
:103d24009ff3070002002000032824009cf30700ef
:103d340018c0b30002f02f00f3772400ebf3070060
:103d44000000e00001003c000044eb000804e00037
:103d540010003200f1088000000320000100700010
:103d6400f00888001e019000ae0190000068290050
:103d740081c124008af307000200200003382400d4
:103d840087f30700dbf3070000007800d008880001
:103d9400900037001e019000ae01900000682900d9
:103da40081c124007ef307000200200003282400c0
:103db4007bf30700cff3070000007800d0088800e9
:103dc400840037001e019000ae01900000682900b5
:103dd40081c1240072f307000200200003102400b4
:103de4006ff30700c3f3070000007800d0088800d1
:103df400780037001e019000ae0190000068290091
:103e040081c1240066f30700baf3070000007800bc
:103e1400d00888006f00370001098000f0fc2f00f3
:103e240000806000000988001e019000ae0190002f
:103e34000068290081c1240059f3070018c0b300a9
:103e440002f02f00f3772400a8f307000000e0003d
:103e540001003c000044eb000804e0005400320080
:103e640001098000f0fc2f00008060000040a000e9
:103e7400000988001e019000ae019000006829002e
:103e840081c1240046f3070002002000031024002f
:103e940043f3070018c0b30002f02f00f3772400a7
:103ea40092f307000000e00001003c000044eb0036
:103eb4000804e0003200320001098000f0fc2f0009
:103ec400008060000050a000000988001e019000de
:103ed400ae0190000068290081c1240030f307007e
:103ee40002002000032824002df3070018c0b300ab
:103ef40002f02f00f37724007cf307000000e000b9
:103f040001003c000044eb000804e0001000320013
:103f140001098000000320000100700000098800ee
:103f24001e019000ae0190000068290081c12400a8
:103f34001bf30700020020000338240018f30700d5
:103f44006cf3070000007800e008880021003700c7
:103f54001e019000ae0190000068290081c1240078
:103f64000ff3070002002000032824000cf30700cd
:103f740060f3070000007800e008880015003700af
:103f84001e019000ae0190000068290081c1240048
:103f940003f30700020020000310240000f30700cd
:103fa40054f3070000007800e00888000900370097
:103fb4001e019000ae0190000068290081c1240018
:103fc400f7f207004bf3070000007800e0088800d0
:103fd400000000004f0478000080fa000000060092
:103fe4000400fa00004f7800114798002247980017
:103ff4001e80fb00e20f500036003200e20f50003a
:1040040005003c000000e00008003200e10f500011
:104014001b0032006c003700e30f500041003200f7
:10402400e40f500054003200670037008460a90098
:104034001e4090000080fb00610060004300dd0032
:10404400a204800071ff2f00810061000100700054
:10405400a00488002e409000674060000080fb00b0
:10406400670060004c00dd0022058000f1ff28009d
:1040740081006100010070002005880052003700b3
:1040840084e0a9001e4090000080fb0061006000f5
:104094004700dd00a2048000f1f72f0081006100d9
:1040a40001007000a00488002e409000674060006a
:1040b4000080fb00670060004c00dd0032058000da
:1040c400f1ff2800810061000100700030058800c4
:1040d4003d0037008500a9001e4090000080fb00d1
:1040e400610060004800dd00a2048000f1ef2f00b1
:1040f4008100610001007000a00488002e4090003f
:10410400674060000080fb0067006000420580009b
:1041140081ff2f00810061000100700040058800cc
:10412400290037008760a9001e4090000080fb0032
:10413400610060004b00dd00b2048000f17f2f00bd
:104144008100610001007000b00488002e409000de
:10415400674060000080fb00670060004c00dd00e9
:1041640082058000f1ff28008100610001007000d9
:1041740080058800140037008780a9001e40900045
:104184000080fb00610060004c00dd00b204800090
:10419400f1ff2e008100610001007000b00488006e
:1041a4002e409000674060000080fb0067006000c4
:1041b4009205800081ff2f008100610001007000e2
:1041c40090058800000000000080fa00000006004e
:1041d4000400fa00004f7800110798001e40780090
:1041e400e44f500009003e001e0090000000e00073
:1041f400060032001e80fb00800040006056210053
:10420400008040009e009000010878000080fa00c1
:10421400000006000800fa004047980031079800a3
:104224003e0090008000eb00f1f207000200200045
:10423400a34724005af207000001be00000020003a
:1042440001f8230056f20700008fbe001e01be00d5
:104254004e40900020fd07000080fa000000060098
:104264000800fa0040479800310798003e0090008b
:104274008000eb00def20700024022004397240096
:1042840047f207000001be000000200001f82300ef
:1042940043f20700008fbe001e01be004e40900096
:1042a4000dfd07000080fa00000006000200fa007d
:1042b400004f7800114798001e80fb00e20f500069
:1042c4001e003200e20f500005003c000000e00038
:1042d40008003200e10f50000f00320032003700b6
:1042e400e30f50001e003200e40f5000250032009e
:1042f4002d0037001e4090000080fb004f00dd00c1
:1043040022088000f1ff2700810061000100700095
:1043140020088800240037001e4090000080fb0025
:104324004f00dd0082088000f1ff2700810061005a
:1043340001007000800888001b0037001e409000b8
:104344000080fb004f00dd0092088000f1ff270091
:10435400810061000100700090088800120037009d
:104364001e4090000080fb004f00dd00f20880003a
:10437400f1ff27008100610001007000f00888004f
:10438400090037001e4090000080fb004f00dd0054
:1043940002098000f1ff2700810061000100700024
:1043a40000098800000000000080fa0000000600f8
:1043b4000a00fa00004f78001207980023079800bb
:1043c40031079800044f98008040eb001e407800ad
:1043d400b6ff07001e019000ae0190001e40780059
:1043e400bdfc0700be0090001e40780078ff070067
:1043f4008e4890001e407800acff07000080fa0051
:10440400000006000c00fa00004f78001207980024
:104414002307980031079800044f9800154f98001f
:10442400264f98008040eb001e4078009fff070055
:104434001e019000ae0190001e407800a6fc07000b
:10444400be0090001e40780061ff07001e499000e6
:104454008e4890001e407800e1fe0700ae489000b0
:104464001e40780091ff07000080fa00000006005b
:104474000a00fa00200798003107980042079800c4
:104484000040eb00004f78000000eb00100798009c
:104494002e0090004800de00004078001e4f6800a7
:1044a4002e009000004078001e4f68003e009000ef
:1044b4004800de00004078001e4f68003e00900077
:1044c400004078001e4f68000000eb0010079800c1
:1044d40008003700ce0090001e00900000804000cd
:1044e400104078001e4f68001e0090000000e80095
:1044f400100798009e0090003e009000808f5000ae
:10450400f4ff39001e4078000080fa000000060025
:104514000200fa00004f780054c8bf000080fb007e
:10452400e30f500023003200e30f500007003c006b
:10453400e10f500012003200e10f500016003c0061
:104544000000e000080032004e003700e50f500084
:1045540031003200e50f50001c003500e60f50001a
:104564003c003200470037001e407800e24f400014
:1045740047003a0010c0b30054e8b70047003700c2
:104584001e80fb004800dd00b042880020c0b3005c
:1045940054e8b700410037009e80fb00b042800021
:1045a40000804000b042880030c0b30054e8b70037
:1045b4003a0037001e80fb004800dd00c04288003e
:1045c40040c0b30054e8b700340037009e80fb00bd
:1045d400c042800000804000c0428800c142800088
:1045e40000102000808f5000020036005468ef0055
:1045f4002a003700c04280000000e00003003a00b7
:1046040060c0b30054e8b7002400370050c0b300c2
:1046140054e8b70021003700d0428000c1372100a0
:104624001e41780082707800d04280000000e800cb
:10463400d0428800d1428000c0428000808f500068
:1046440015003a005a28ef0060c0b30054e8b700e0
:1046540012003700c1428000b0428000c2372100fe
:1046640083ff07009e4f500004003a00c1428000bf
:10467400b0428000c2372100110007005468ef00e7
:10468400060037005468ef00000000000300370004
:104694000000000001003700000000000080fa0064
:1046a400000006000400fa00000f7800214798007b
:1046b4009580a8000000eb000080fa0000000600ce
:1046c4000c00fa0030079800410798005207980040
:1046d4000040eb00004f78000000eb00100798004a
:1046e4000040eb00404798003e009000f40f50005b
:1046f400fc003200f40f500012003e00e50f5000a1
:1047040060003200e50f500007003e00e30f500048
:1047140030003200e30f5000a4013e00e10f5000ce
:104724001b00320099013700e70f5000b10032003e
:10473400e70f500081003900e80f5000db00320021
:1047440092013700f80f50003a013200f80f500080
:1047540005003e00f60f500010013200f60f500025
:1047640024013e00f7003700fa0f500058013200d0
:10477400fa0f50004201390091072000810f5000c8
:1047840057013200e10f40007d0132007f01370004
:104794000040eb00004f78005e009000104078006d
:1047a4000004e0000300320010c0b3005ce8b7006e
:1047b400010037005c68ef00c1852000914078005b
:1047c400c04721000148780010002000100798001d
:1047d400770137005e009000904078001056210069
:1047e400014878005e0090006400400010407800aa
:1047f4000081fb008001eb005e009000630040003c
:10480400104078000082fb008002eb004828dd00a5
:10481400c820de00810070004820dd000201400055
:10482400838148005e0090000080e800104078001a
:104834000080fb008000eb00c000dd0000002000d1
:1048440002014000838148005e0090000000e800ff
:10485400104078000080fb008000eb00c800dd0001
:1048640000002000020040008380480010ab880054
:1048740021ab88000056210011c0b3000148780024
:104884004b0137000040eb00004f78005e009000c1
:1048940063004000104078000081fb008001eb00c1
:1048a4005e0090000080e800104078000082fb0069
:1048b4008002eb004828dd00c820de008100700083
:1048c4004820dd0002014000838148005e00900022
:1048d4000000e800104078000080fb008000eb003e
:1048e400c000dd0000002000020140008381480078
:1048f4005e009000104078000080fb008000eb0018
:10490400c800dd0000002000020040008380480051
:1049140030a9880041a9880030a9800041a98000fd
:104924000001be008000eb00c04721001107070012
:1049340040002000100798001d0137000040eb00e4
:10494400004f78005e009000630040001040780043
:104954000081fb008001eb005e0090000080e80015
:10496400104078000082fb008002eb004828dd0044
:10497400c820de00810070004820dd0002014000f4
:10498400838148005e0090000000e8001040780039
:104994000080fb008000eb00c000dd000000200070
:1049a40002014000838148005e00900010407800be
:1049b4000080fb008000eb00c800dd000000200048
:1049c400020040008380480050a9880061a9880043
:1049d40050a9800061a980000001be008000eb00a6
:1049e400c0472100e306070040002000100798009c
:1049f400ef0037000040eb00004f78005e009000ad
:104a040063004000104078000081fb008001eb004f
:104a14005e0090000080e800104078000082fb00f7
:104a24008002eb004828dd00c820de008100700011
:104a34004820dd0002014000838148005e009000b0
:104a44000000e800104078000080fb008000eb00cc
:104a5400c000dd0000002000020140008381480006
:104a64005e009000104078000080fb008000eb00a6
:104a7400c800dd00000020000200400083804800e0
:104a840070a9880081a9880070a9800081a980008c
:104a94000001be008000eb00c0472100b5060700fe
:104aa4004000200010079800c10037000040eb00d0
:104ab400004f78005e009000904078002053210061
:104ac400014878002053210090407800c04721001d
:104ad40001487800bff90700100020001007980073
:104ae400b30037000040eb00004f78008000eb007b
:104af4005e0090006e060700a0a98800b1a9880096
:104b0400a0a98000b1a980000001be008000eb00d4
:104b1400c04721007e060700a0a98000b1a980003b
:104b2400020020000315240006f107000001be0066
:104b340020c0b300e8fa07004000200010079800e6
:104b44009b0037000040eb00004f78008000eb0032
:104b54005e0090005606070002002000a3472400d0
:104b6400f8f0070090a88800a1a8880090a8800009
:104b7400a1a8800002002000a347240008f0070039
:104b84000001be008000eb00c04721006006070062
:104b94004000200010079800850037000040eb001b
:104ba400004f78008000eb005e0090004006070094
:104bb40002002000a3472400e2f0070010a98800a7
:104bc40021a9880010a9800021a9800002002000ea
:104bd400a3472400f2ef07000001be008000eb00b1
:104be400c04721004a060700400020001007980033
:104bf4006f0037000040eb00004f78008000eb00ae
:104c04005e0090002a06070070a8880081a888002a
:104c140070a8800081a880000001be008000eb0025
:104c2400c04721003a060700400020001007980002
:104c34005f0037000040eb00004f78008000eb007d
:104c44005e0090001a06070002002000832c240056
:104c5400bcf0070050a8880061a8880050a8800014
:104c640061a880000001be008000eb00c047210065
:104c74002706070040002000100798004c0037006a
:104c84000040eb00004f78005e0090001040780078
:104c94000004e00004003200c04f210011c0b30042
:104ca4000148780003003700c04f21008040eb002a
:104cb40001487800c04f210090407800c04721008f
:104cc40001487800100020001007980038003700d1
:104cd40010c0b300004f7800ccf307003400370055
:104ce40010c0b300004f78005e00900010407800c0
:104cf4000081fb008001eb005e0090000000e800f2
:104d0400104078000082fb008002eb004828dd00a0
:104d1400c820de00810070004820dd000201400050
:104d2400838148005e0090000080e8001040780015
:104d34000080fb008000eb00c000dd0000002000cc
:104d440002014000838148005e009000630040003f
:104d5400104078000080fb008000eb00c800dd00fc
:104d640000002000020040008380480000408800ca
:104d7400114088000000eb00100798000c00370079
:104d840010c0b300004f78000900370010c0b30012
:104d9400004f78001000200010079800c047210041
:104da4008040eb000148780001003700000000005b
:104db4001e4078000004e00004003a00c2472100cd
:104dc4009e0090003e009000040007000040eb00ad
:104dd400004f78000080fa00000006000c00fa0082
:104de400889fbe008a1f780030079800410798000a
:104df400520798000f0478000f00780080047800b0
:104e04004e00900066004000800078008100e900b8
:104e1400110798000000e8000000e8000000d1003d
:104e2400800040000f007800818747000000e80000
:104e34000000d10000004000200798002e009000e0
:104e4400e1cfb300014878003e0090004800de0046
:104e5400804078002e009000114098003e009000a1
:104e6400804078002e009000214098004e00900071
:104e74004800de00804078002e0090003140980009
:104e84004e009000804078002e0090004140980031
:104e94000000eb00000f7800090037009e00780046
:104ea400658040009e0078005e0190008100410012
:104eb40011417800ae009000827078001e0fe80067
:104ec4009e0078004e009000808f5000f3ff390060
:104ed4004e009000650540005e019000ce009000f9
:104ee4003e00900062fd0700ae00900080707d00df
:104ef4004e009000e60040002e00900006000700df
:104f040089077800880778004f0578004f04be00b1
:104f14000080fa00000006000600fa00100798005e
:104f240021079800ea030700ae009000810f5000ab
:104f34000d0036000000eb00000f7800060037007b
:104f44001e0078009e009000008040001040780011
:104f54009c0307001e0fe8009e0078002e009000be
:104f6400808f5000f6ff39000080fa000000060030
:104f74000200fa000e0178008000eb000019200006
:104f840096ff07000080fa00000006000400fa0003
:104f9400100798001e0090000af20700000f780026
:104fa4009e0090001e0078000101780080007800c7
:104fb400e0ee2e0089ff07000080fa0000000600e2
:104fc4000400fa0000002500318c2400008fbe008c
:104fd40007e2a900401680004800de00614060003e
:104fe4000080fb00610060004800dd004216800084
:104ff400f1ef2f008100610001007000401688006d
:10500400cd02a800401680004900de006140600027
:105014000080fb00610060004900dd004216800052
:10502400f1df2f008100610001007000401688004c
:10503400cd22a80007a2a9000782a8000762a90040
:105044000742a9000722a9000702a90006e2a90055
:1050540006c2a90006a2a8001e01be00006829001d
:1050640081c12400ceee07000200200003082400c2
:105074006dee07000200200003f823006aee07002b
:105084001cef0700000078002010880007e2a80049
:105094009620a8005e68ef000080fa000000060079
:1050a4000400fa00004f7800114798001207980096
:1050b400130020001e0190009e4090001e407800c6
:1050c4004f0007000080fa00000006000600fa0006
:1050d400204798003147980042479800ce409000fe
:1050e400014f7800130020000e017800be409000ac
:1050f4002e409000020007000080fa000000060025
:105104000a01fa0040479a0051479a003207990071
:105114004307990010c0b30020479800ce40920086
:10512400e0cfb30000c0600030479800de4092003a
:10513400414798000000eb00000f7800080037009a
:105144001e80e8009e0078003e019100810041002d
:105154009140780000004700314098001e0fe8009d
:105164009e0078004e0091000080e800808f50007f
:10517400f3ff39004e0091000040780000c0e800c1
:1051840020479a002f10b000e0ef2f000f004000de
:10519400e20047007f000900311878003158780098
:1051a4001010b100750107002f10b1006a0107004b
:1051b4000004e00001003a00ea000700d8000700fc
:1051c400010037000000000063010700e14f5000b8
:1051d40004003a002143800010032000808f500017
:1051e400f8ff36002143800010032000808f500018
:1051f40001003600ce0007000080fa00000006001f
:105204000a02fa00442020000e024200004a7800fc
:10521400502020000e0040000148780032079a0018
:1052240043079a0010c0b300204798004120200093
:105234008e804000e0cfb3001140600030479800fa
:10524400502020000e004000904078004147980014
:1052540020c0b30020479a000040eb0030479a007a
:10526400402020000e004000104078000004a00000
:1052740040479a004e009200804078003020200081
:105284000e004000014878002f10b000e0ef2f001e
:105294000f004000e20047007f0009003118780049
:1052a400315878001010b100340107002f10b100fc
:1052b4002f10b000e0ef2f000f004000311020004d
:1052c4008100470000010900315878001010b10036
:1052d4002a0107002f10b1001f0107000004e0009d
:1052e40001003a009f0007008d000700010037000d
:1052f4000000000018010700e14f500004003a00cc
:105304002143800010032000808f5000f8ff3600f6
:105314002143800010032000808f500001003600dc
:10532400830007000000eb00000f78000000eb0092
:10533400000f7800080037001e007800be009200bd
:1053440000804000218720009e8040009140900012
:10535400014878001e0fe8009e0078004e0092007d
:10536400808f5000f4ff39000080fa00000006002e
:105374000e02fa00452020008e824200804a780006
:1053840031079a0042079a0053079a0064079a006b
:1053940010c0b30020479800412020008e804000b8
:1053a400e0cfb30011406000304798000000eb00ec
:1053b400000f7800080037001e00e8009e00780007
:1053c4003e019200810041009140780000004700b6
:1053d400314098001e0fe8009e0078004e009200b5
:1053e400808f5000f4ff39004e0092000040780096
:1053f4000040e80020479a000040eb0030479a0044
:10540400402020000e004000104078000004a0005e
:1054140040479a006e0092008040780030202000bf
:105424000e004000014878002f10b000e0ef2f007c
:105434000f004000e20047007f00090031187800a7
:10544400315878001010b100cc0007002f10b100c3
:105454002f10b000e0ef2f000f00400031102000ab
:105464008100470000010900315878001010b10094
:10547400c20007002f10b100b70007000004e000cd
:1054840001003a003700070025000700010037003b
:1054940000000000b0000700e14f500004003a0093
:1054a4002143800010032000808f5000f8ff360055
:1054b4002143800010032000808f5000010036003b
:1054c4001b0007000000eb00000f78000800370005
:1054d4001e007800de00920000804000218720003a
:1054e4009e80400091409000014878001e0fe80023
:1054f4009e0078006e009200808f5000f4ff390007
:105504000080fa00000006000000fa00204380003a
:105514000000e800204388000080fa000000060034
:105524000000fa006428ef000080fa000000060082
:105534000000fa0010c0b30066e8b7000080fa006b
:10554400000006000000fa006668ef000080fa0020
:10555400000006000000fa0066c8bf000080fa00e0
:10556400000006000201fa00000000005ec8bf004f
:105574000004e000fdff3a0097000700e14f5000ef
:105584000d003a000e0078009e00070021872000dd
:1055940000010900be5878001e10b10061058000aa
:1055a40000072000010070006005880010c0b300ef
:1055b4005ee8b7000602a8000080fa0000000600ba
