:020000040000fa
:080000000002040000000000f2
:020000040000fa
:040008000c050000e3
:020000040000fa
:04000c000c050000df
:020000040000fa
:040010000c050000db
:020000040000fa
:040014000c050000d7
:020000040000fa
:040018000c050000d3
:020000040000fa
:04001c000c050000cf
:020000040000fa
:040020000c050000cb
:020000040000fa
:040024000c050000c7
:020000040000fa
:040028000c050000c3
:020000040000fa
:04002c000c050000bf
:020000040000fa
:040030000c050000bb
:020000040000fa
:04003400d8020000ee
:020000040000fa
:040038000c050000b3
:020000040000fa
:04003c000c050000af
:020000040000fa
:040040000c050000ab
:020000040000fa
:04004400fe020000b8
:020000040000fa
:04004800240300008d
:020000040000fa
:04004c000c0500009f
:020000040000fa
:040050000c0500009b
:020000040000fa
:04005400c8030000dd
:020000040000fa
:040058002004000080
:020000040000fa
:04005c009603000007
:020000040000fa
:040060000c0500008b
:020000040000fa
:040064000c05000087
:020000040000fa
:040068000c05000083
:020000040000fa
:04006c004804000044
:020000040000fa
:040070000c0500007b
:020000040000fa
:040074000c05000077
:020000040000fa
:040078000c05000073
:020000040000fa
:04007c000c0500006f
:020000040000fa
:040080000c0500006b
:020000040000fa
:040084000c05000067
:020000040000fa
:040088000c05000063
:020000040000fa
:04008c000c0500005f
:020000040000fa
:040090000c0500005b
:020000040000fa
:040094004a0300001b
:020000040000fa
:0400980070030000f1
:020000040000fa
:04009c000c0500004f
:020000040000fa
:0400a0000c0500004b
:020000040000fa
:0400a4000c05000047
:020000040000fa
:0400a8000c05000043
:020000040000fa
:0400ac000c0500003f
:020000040000fa
:0400b0000c0500003b
:020000040000fa
:0400b4000c05000037
:020000040000fa
:0400b8000c05000033
:020000040000fa
:0400bc000c0500002f
:020000040000fa
:0400c0000c0500002b
:020000040000fa
:0400c4000c05000027
:020000040000fa
:0400c8000c05000023
:020000040000fa
:0400cc000c0500001f
:020000040000fa
:0400d0000c0500001b
:020000040000fa
:0400d4000c05000017
:020000040000fa
:0400d8000c05000013
:020000040000fa
:0400dc000c0500000f
:020000040000fa
:0400e0000c0500000b
:020000040000fa
:0400e4000c05000007
:020000040000fa
:0400e8000c05000003
:020000040000fa
:0400ec000c050000ff
:020000040000fa
:0400f0000c050000fb
:020000040000fa
:0400f4000c050000f7
:020000040000fa
:0400f8000c050000f3
:020000040000fa
:0400fc000c050000ef
:020000040000fa
:040100000c050000ea
:020000040000fa
:040104000c050000e6
:020000040000fa
:040108000c050000e2
:020000040000fa
:04010c000c050000de
:020000040000fa
:040110000c050000da
:020000040000fa
:040114000c050000d6
:020000040000fa
:040118000c050000d2
:020000040000fa
:04011c000c050000ce
:020000040000fa
:040120000c050000ca
:020000040000fa
:040124000c050000c6
:020000040000fa
:040128000c050000c2
:020000040000fa
:04012c00f6030000d6
:020000040000fa
:040130000c050000ba
:020000040000fa
:040134000c050000b6
:020000040000fa
:040138000c050000b2
:020000040000fa
:04013c000c050000ae
:020000040000fa
:040140000c050000aa
:020000040000fa
:040144000c050000a6
:020000040000fa
:040148000c050000a2
:020000040000fa
:04014c000c0500009e
:020000040000fa
:040150000c0500009a
:020000040000fa
:040154000c05000096
:020000040000fa
:040158000c05000092
:020000040000fa
:04015c000c0500008e
:020000040000fa
:040160000c0500008a
:020000040000fa
:040164000c05000086
:020000040000fa
:040208000c050000e1
:020000040000fa
:04020c000c050000dd
:020000040000fa
:040210000c050000d9
:020000040000fa
:040214000c050000d5
:020000040000fa
:040218000c050000d1
:020000040000fa
:04021c000c050000cd
:020000040000fa
:040220000c050000c9
:020000040000fa
:040224000c050000c5
:020000040000fa
:040228000c050000c1
:020000040000fa
:04022c000c050000bd
:020000040000fa
:040230000c050000b9
:020000040000fa
:040234000c050000b5
:020000040000fa
:040238000c050000b1
:020000040000fa
:04023c000c050000ad
:020000040000fa
:040240000c050000a9
:020000040000fa
:040244000c050000a5
:020000040000fa
:040248000c050000a1
:020000040000fa
:04024c000c0500009d
:020000040000fa
:040250000c05000099
:020000040000fa
:040254000c05000095
:020000040000fa
:040258000c05000091
:020000040000fa
:04025c000c0500008d
:020000040000fa
:040260000c05000089
:020000040000fa
:040264000c05000085
:020000040000fa
:040268000c05000081
:020000040000fa
:04026c000c0500007d
:020000040000fa
:040270000c05000079
:020000040000fa
:040274000c05000075
:020000040000fa
:040278000c05000071
:020000040000fa
:04027c000c0500006d
:020000040000fa
:040280000c05000069
:020000040000fa
:040284000c05000065
:020000040000fa
:040288000c05000061
:020000040000fa
:04028c000c0500005d
:020000040000fa
:040290000c05000059
:020000040000fa
:040294000c05000055
:020000040000fa
:040298000c05000051
:020000040000fa
:04029c000c0500004d
:020000040000fa
:0402a0000c05000049
:020000040000fa
:0402a4000c05000045
:020000040000fa
:0402a8000c05000041
:020000040000fa
:0402ac000c0500003d
:020000040000fa
:0402b0000c05000039
:020000040000fa
:0402b4000c05000035
:020000040000fa
:0402b8000c05000031
:020000040000fa
:0402bc000c0500002d
:020000040000fa
:0402c0000c05000029
:020000040000fa
:0402c4000c05000025
:020000040000fa
:0402c8000c05000021
:020000040000fa
:0402cc000c0500001d
:020000040000fa
:0402d0000c05000019
:020000040000fa
:0402d4000c05000015
:020000040000fa
:0402d8000c05000011
:020000040000fa
:0402dc000c0500000d
:020000040000fa
:0402e0000c05000009
:020000040000fa
:0402e4000c05000005
:020000040000fa
:0402e8000c05000001
:020000040000fa
:0402ec000c050000fd
:020000040000fa
:0402f0000c050000f9
:020000040000fa
:0402f4000c050000f5
:020000040000fa
:0402f8000c050000f1
:020000040000fa
:0402fc000c050000ed
:020000040000fa
:040300000c050000e8
:020000040000fa
:040304000c050000e4
:020000040000fa
:040308000c050000e0
:020000040000fa
:04030c000c050000dc
:020000040000fa
:040310000c050000d8
:020000040000fa
:040314000c050000d4
:020000040000fa
:040318000c050000d0
:020000040000fa
:04031c000c050000cc
:020000040000fa
:040320000c050000c8
:020000040000fa
:040324000c050000c4
:020000040000fa
:040328000c050000c0
:020000040000fa
:04032c000c050000bc
:020000040000fa
:040330000c050000b8
:020000040000fa
:040334000c050000b4
:020000040000fa
:040338000c050000b0
:020000040000fa
:04033c000c050000ac
:020000040000fa
:040340000c050000a8
:020000040000fa
:040344000c050000a4
:020000040000fa
:040348000c050000a0
:020000040000fa
:04034c000c0500009c
:020000040000fa
:040350000c05000098
:020000040000fa
:040354000c05000094
:020000040000fa
:040358000c05000090
:020000040000fa
:04035c000c0500008c
:020000040000fa
:040360000c05000088
:020000040000fa
:040364000c05000084
:020000040000fa
:10040000ef5221000e7f24000e0188000000000042
:10041000000020000000e000020032000001200087
:1004200020028800140007007d0107000000e000a2
:1004300003003a00808b22000100200002003700f8
:100440000000200001002000810f70000100320038
:1004500014000700000020000000e000020032004d
:100460000000020000000000561c02000000000016
:100470000040da000000fe004440a90020012000f6
:100480000000e0000300320000002000a00188000e
:100490004440a800000006008a1f78008b1f7800e7
:1004a0000000060091018800800478000000eb0045
:1004b0001a003700e284440032a0b4009905ba0063
:1004c000e284440032a0b4009906ba00e2844400f9
:1004d00032a0b4000006eb00476fde00fd07b2005b
:1004e000636ce10003003a00ebff07000000eb0043
:1004f0000a003700606ce10004003a00005deb0088
:100500008b05e900fdff3e00040037006168e10053
:10051000010032000086eb000b00070019c7ba008b
:100520001905ba000e04e00003003a000a00e000da
:10053000e0ff3a0000000600fe07b2009e018800be
:100540008a047800f5ff3700395dba008b05e900b1
:100550000c003200295dba008b05e900080032006a
:100560000c00e00003003a00e284440032a0b40032
:10057000f5ff370019ddba008b05e900faff3a00f4
:100580008904e800e184440032a0b40000000600c1
:10059000841f0400000000008a1f04000000000007
:1005a0001a200400000000002c20040000000000bd
:1005b0003600f800809fbe00829fbe00849fbe0070
:1005c000869fbe000000fa008460a900d0a88000c9
:1005d0000000e00002003200d0a88000000001000e
:1005e0000080fa004f03be004f02be004f01be0064
:1005f0004f00be003600f900004006003600f8004b
:10060000809fbe00829fbe00849fbe00869fbe006a
:100610000000fa0084e0a900e0a880000000e000eb
:1006200002003200e0a88000000001000080fa0013
:100630004f03be004f02be004f01be004f00be0080
:100640003600f900004006003600f800809fbe002a
:10065000829fbe00849fbe00869fbe000000fa00fd
:100660008500a900f0a880000000e0000200320030
:10067000f0a88000000001000080fa004f03be00d7
:100680004f02be004f01be004f00be003600f90011
:10069000004006003600f800809fbe00829fbe002a
:1006a000849fbe00869fbe000000fa008760a900fc
:1006b00000a980000000e0000200320000a98000d4
:1006c000000001000080fa004f03be004f02be0090
:1006d0004f01be004f00be003600f900004006008a
:1006e0003600f800809fbe00829fbe00849fbe003f
:1006f000869fbe000000fa008780a90010a9800034
:100700000000e0000200320010a98000000001009b
:100710000080fa004f03be004f02be004f01be0032
:100720004f00be003600f90000400600809fbe006a
:10073000821f78000000fa0085a0a9004ec8bf0003
:100740000080fb00011880000001400040522100a1
:1007500000004100010878004ec8bf00e34f500080
:1007600004003e004ec8bf000040e8004ee8b7005d
:10077000030037004e68ef0010c0b3004fe8b70029
:100780000080fa004f0178004f00be0000400600d4
:100790003600f800809fbe00829fbe00849fbe008e
:1007a000869fbe000200fa008560a90004003700a1
:1007b00030118000004f78001e80fb008107070089
:1007c00010118000610060000000e000f8ff3a00b6
:1007d0000080fa004f03be004f02be004f01be0072
:1007e0004f00be003600f90000400600801f780070
:1007f0000000fa008c20a900101180006800600041
:100800000000e000010032002262a9001011800007
:10081000640060000000e000010032002242a900f4
:1008200010118000620060000000e0000100320052
:100830002222a9000080fa004f0078000040060044
:100840003600f800809fbe00829fbe00849fbe00dd
:10085000869fbe000000fa008580a9009b0f07005c
:10086000e14f500002003a00a20f070001003700dc
:100870003268ef000080fa004f03be004f02be0056
:100880004f01be004f00be003600f90000400600d8
:100890003600f800809fbe00829fbe00849fbe008d
:1008a000869fbe000000fa008620a900411080004b
:1008b00000402000008060000000e00023003200c3
:1008c0003ec8bf00e14f500020003a0007e2a900f7
:1008d000401680004800de00614060000080fb00a0
:1008e000610060004800dd0042168000f1ef2f003b
:1008f000810061000100700040168800cd02a80050
:10090000401680004900de00614060000080fb006e
:10091000610060004900dd0042168000f1df2f0019
:10092000810061000100700040168800cd22a800ff
:100930000942a900000000003ec8bf000004e0001a
:10094000fdff3a000602a8002c003700411080008d
:1009500000082000008060000000e000020032007b
:1009600008e2a900250037004110800000042000a3
:10097000008060000000e0000200320008c2a90010
:100980001e0037003ec8bf000080fb00e20f500091
:100990000f003200e20f500003003c00e10f500056
:1009a0000600320013003700e30f50000a00320047
:1009b000e40f50000d0032000e0037003f68ef00da
:1009c00020c0b3003ee8b7000b0b07000b00370058
:1009d000090b0700090037003f68ef0020c0b30093
:1009e0003ee8b700040b0700040037003e68ef0044
:1009f000020037003e68ef00000000000080fa00af
:100a00004f03be004f02be004f01be004f00be00ac
:100a10003600f900004006000040da000000fe0049
:100a20000000050003f0a200889fbe008a9fbe0060
:100a30008c1f78001b010700220133006450e10085
:100a40004f0032006420e1005200320003826c004b
:100a500007003b000905d0000306d000820f5400b8
:100a60000c065d00020039000200320089017800a6
:100a7000030678008582550004003d000003fd0058
:100a80008103fd008502ea008b854200840f72001d
:100a900002003b0060001000e08018006011b80008
:100aa0000005eb007a28e1000a0039000600780012
:100ab000c75ddd00f707b200878075002d003700a5
:100ac000828171000a017800610560008180d10097
:100ad0000080d3008502e900f9ff3b0006044000d6
:100ae0008784480002003b0060041400e0841c007e
:100af0000988a300070032008a8171008281710099
:100b0000610164008904d1000884d3008b05e800ea
:100b1000170037000978a30013003a000b00e0002b
:100b2000130034008b05e9000804440089844c005c
:100b30000a4474000978a3000d003a000b00e0009d
:100b4000070034008b05e9000804440089844c0048
:100b500001003a000b0020000978a300f7ff3200e3
:100b60000001eb0002003700828171000a01780069
:100b7000910007000cf0a70001f0a000da00370098
:100b80006420e10002003a00838f6c00da00330039
:100b90000801be000200be00d3003700889fbe00df
:100ba0008a9fbe008c1f7800be000700c50033007e
:100bb00003866c006450e1002e0032006420e100e6
:100bc000330032006150e1002f0032006120e1006b
:100bd0003100320085855500eb07b0000900200088
:100be00008042000050037000804440089844c00f4
:100bf0000a0031000603430087834b0000015300c5
:100c000081815b00f8ff33000203be000800a000f2
:100c10000804440089844c00f6ff3900c639dd0021
:100c20008301730001003200130020008904d10009
:100c30000884d3000998a300050032000800a7002b
:100c40000300a0008904d1000884d3008b05e800cc
:100c50008904d1000884d3000001eb000281d20096
:100c60005500070001f0a1000cf0a70001f0a00062
:100c70009d0037006420e1009f0032000801be00a3
:100c80000200be00f7ff37006120e1009a00320049
:100c90006000b800f3ff37000000200001f82700d3
:100ca000f0ff3700140020002a023700f4ff2f0065
:100cb000280237000001be00650007000470a7008d
:100cc00003f0a1006509b100160032000d003500e7
:100cd0006828e10006003500f0ff2f00f1ff270033
:100ce0000300e00013003b000100280000000500a5
:100cf00000004000818048008502e900fcff3a00c6
:100d000008003700f88f420002003c008000eb0032
:100d1000000005008100d1000080d3008502e800ba
:100d2000fcff3a000300e00002003b0060001000fe
:100d3000e0801800000006000001be00440007002b
:100d40000470a70003f0a10003f8a30013003a0009
:100d50006509b10010003200090035006928e10082
:100d600002003500010028000000050000004000de
:100d7000818048008502e900fcff3a00000006007f
:100d8000f88f4200050035008100d1000080d300bb
:100d90008502e800fcff3a00000006008000eb003e
:100da000000005004f89de00820178000402370050
:100db0006011b800120237008100200061805500e8
:100dc0000b003d000b00200061fe2f000100e10040
:100dd0001d00340082817100610164008904d1002a
:100de0000884d3000000e800faff3a0071002000f8
:100df000610064000300700002006000090032001e
:100e000061044400e0844c000988a500050032001c
:100e10008b05e8006808e10002003a008904d1006f
:100e20000884d300f20f20000258e10005003d00c5
:100e3000c75ddd00f907b200898075000800780001
:100e4000000006000bf827008b007800000005006a
:100e5000c70ade00f107b200f50fb2000800320049
:100e6000e1cf4200020032000170a0002400050022
:100e7000810f7000010032000408050044000500e5
:100e8000810f700002003a00140005008502e9009d
:100e90000000400081c04800fcff3b000170a00042
:100ea000240005000004be00e9ff07000003be00a7
:100eb0000405be000200be00e5ff0700844f750078
:100ec000000006000200be006450e100050036008c
:100ed0006420e100020036000968a30001003a0026
:100ee0000800be000160a0004f0678004f05be005c
:100ef0004f04be0000000600f0ff2f00f1ff2700a6
:100f0000f9ff3700889fbe008a9fbe008c1f7800c3
:100f1000e4ff0700ebff330003866c006450e10040
:100f2000240032006420e100270032006150e1001b
:100f3000220032006120e100210032008b85420056
:100f4000eb07b1000134b800003ab80008044200d1
:100f500089844a00013ab8000030b8008880400017
:100f600009014a000400330000004000818048006d
:100f7000020149008b05e900c909dd008301700009
:100f80000100320013002000c814de004814dd0008
:100f90004709de001200b200c808de0008847000b5
:100fa00085ff070001f0a1000cf0a70001f0a000f0
:100fb000cdff37006120e100cfff32000801be0005
:100fc0000200be00f7ff37006150e100fcff3a006d
:100fd000c9ff3700889fbe008a9fbe008c1f780023
:100fe0000004be009aff07000478a30026003a0020
:100ff0006120e1002500320009f8a30025003a0035
:101000006420e10021003200f507b1000508a300cb
:101010000200320000004000818048006044b800b7
:1010200003102000020020000000400081804800e2
:101030000805440089854c000a0541008b8549005c
:101040000a0550008b855800030033000a00be00db
:1010500002047400838474008301d1000281d300f0
:10106000830f7100f0ff3a008904d1000884d30097
:101070006001490082017800c1adde00fb07b000cd
:101080004dff070098ff37000960a0000800be0070
:1010900095ff37001202200082428800f0ff2f00e7
:1010a000f1ff270090ff3700889fbe008a9fbe0097
:1010b00030044200b0844a0030054b0090854b005c
:1010c0006000b1000898be000a90be000440e10034
:1010d00005c8e10006d0e10007d8e10002003100b8
:1010e000680040001008e8004f05be004f04be0035
:1010f00000000600889fbe008a9fbe003004be002c
:101100002005be000418540005985c0006185d0018
:1011100007985d00110020000440e10005c8e100cf
:1011200006d0e10007d8e100010039008000eb00a3
:10113000108810004f05be004f04be0000000600de
:101140001200fa00889fbe008a9fbe008c9fbe00de
:10115000e0b79f00f1b79f0082bf9f0093bf9f0041
:101160000605be000404be000000eb00d0b79f00df
:10117000c0b79f00b0b79f00a0b79f0090b79f0077
:101180000006eb005fb19700cfb0970082014100ed
:101190003fb097000200e00004003d003700070068
:1011a0007e805700c0ff07000300370033000700b0
:1011b0007e805700cfff0700dfb697000d00e000ec
:1011c0000c0035006fb29700ffb297000fbb97007d
:1011d0009fbb970010002000010020006011b800a4
:1011e0000002720081827200020373008383730025
:1011f0001b0007000c06e80001042000810f5600c8
:10120000e0ff3a000d00e00004003d000802be00cf
:101210000a03be007e805700a3ff07005fa8970067
:101220000000e00005003a001fb29700afb297003f
:101230003fb39700cfb39700090007006fb0970046
:10124000ffb097000fb997009fb997004f06be00f7
:101250004f05be004f04be000080fa0000000600eb
:101260000100070000000600a4b79f00b5b79f006b
:10127000c6b79f00d7b79f00000006004f09de00e9
:1012800082817100b3b79f004f01de008180400072
:1012900082807000a1b79f008fb097004f09de00d9
:1012a000000040000200700090b79f007fa89700e8
:1012b0004f01de00818040008280700081b79f0076
:1012c0000d0007004f3ade000000400004007000ef
:1012d000f0af9f00080007000402420085824a0028
:1012e00006034b0087834b00dfff07000802be00a8
:1012f0000a03be00000006002fb29700bfb297009d
:101300004fb39700dfb3970000000600881f7800f6
:1013100018002000881f780089ff07008f87e900e8
:101320004f04780000000600801feb0084ff0700d8
:101330008f87e90000000600889fbe008a9fbe00dc
:10134000e00f5000e08f5800e00f5900e08f590087
:101350000c003d006044b8006055b8000000540027
:1013600081805c0002015d0083815d001800200027
:101370001500070008003d00180007000004eb00fe
:10138000050037000004eb000f00070002003d00dd
:101390001200070018002000dcff07000800e00032
:1013a000060032006022b8006033b800000052002e
:1013b00081805a0002015b0083815b004f05be0003
:1013c0004f04be0000000600e00f5200e08f5a00fc
:1013d000e00f5b00e08f5b00000006006044b80097
:1013e0006055b8000402540085825c0006035d006d
:1013f00087835d0000000600889fbe008a9fbe00b4
:101400008c1f7800e00f5000e08f5800e00f59006b
:10141000e08f59000d003d006044b8006055b800f1
:101420000000540081805c0002015d0083815d004a
:101430001c0020000820e10009a8e1000ab0e1003a
:101440000bb8e1000d003d00080037000006eb007e
:10145000e00f5200e08f5a00e00f5b00e08f5b006e
:1014600006003d006044b8006055b8000402540016
:1014700085825c0006035d0087835d00aaff07008c
:101480000c00e000060032006022b8006033b800b3
:101490000000520081805a0002015b0083815b00e2
:1014a0004f0678004f05be004f04be000000060046
:1014b000889fbe008a9fbe008c1f78000006eb004c
:1014c000e00f5000e08f5800e00f5900e08f590006
:1014d00007003d006044b8006055b80000005400ab
:1014e00081805c0002015d0083815d001c002000a2
:1014f000e00f5200e08f5a00e00f5b00e08f5b00ce
:1015000007003d006044b8006055b8000402540074
:1015100085825c0006035d0087835d000c00a200ed
:10152000660007000c00e000060032006022b800f0
:101530006033b8000000520081805a0002015b0055
:1015400083815b004f0678004f05be004f04be004c
:1015500000000600889fbe008a9fbe00841f78009e
:1015600050fe07004f00780011003300f0ff2f00fd
:10157000838f6c0006003b00040565000a00a7008d
:101580000800370009f0a60010002000080037000e
:10159000820f5400838f5c0003003900100020008c
:1015a00001003e000000200009f0a7000000ea0052
:1015b0004f05be004f04be000000e0000000060022
:1015c000881f7800030478000300e00007003d0056
:1015d00060001000e080180060011900e08119002f
:1015e00002003b0001f02d0003003700040007005b
:1015f00008f0a70001f0a0004f04780000000600ea
:10160000889fbe008a9fbe000082700004027100a5
:1016100004827100260032000004be000200be00f9
:101620006011b8006b092000950220000182cf00f4
:101630000a0039000541b1000082cf0007003900df
:101640000541b1000982cf00040039000541b10015
:101650000882cf00010039000541b1000542520067
:10166000120032000a003b008281710061016400b7
:101670008100d1000080d3008984d3000884d30086
:101680008b05e8000442e800f7ff3a000700370046
:101690000804440089844c00000048008180480010
:1016a0008b05e9000442e900f9ff3a00c2fd07009a
:1016b0004f05be004f04be0000000600889fbe001c
:1016c0008a9fbe008c9fbe000404b8000506b800c7
:1016d0008904460060854e000606b8000a054600eb
:1016e000e0854e000706b8008b054600040eb800e2
:1016f000890446000a854e00e0854d00050eb800bd
:101700000a0546008b854e00060eb8008b05460084
:101710000416b8000a0546008b854e000516b80071
:101720008b054600041eb8008b0546000800be006d
:101730000a01be004f06be004f05be004f04be00aa
:1017400000000600800078003104e000feff3a004f
:0c1750000080ea0000804000000006005d
:020000040000fa
:10175c00d04000001806000000d00000612c0000f2
:10176c0007070000d05100002c070000d0400000fb
:04177c00180600004b
:020000040000fa
:101780000600fa00881f7800004f780012079800c2
:10179000230798001e80fb00e20f5000ea00320091
:1017a000e20f500005003c000000e000080032009d
:1017b000e10f50007500320030023700e30f500097
:1017c00050013200e40f5000bd0132002b023700ff
:1017d00021088000f0fc2f000080600020088800b5
:1017e0001e019000ae0190000068290081c1240014
:1017f000eafc070018c0b30002f02f00f3772400c2
:101800002afd07000000e00001003c000044eb005e
:101810000804e0005400320021088000f0fc2f0092
:10182000008060000040a000200888001e01900099
:10183000ae0190000068290081c12400d7fc070098
:101840000200200003102400d4fc070018c0b300dd
:1018500002f02f00f377240014fd07000000e000e1
:1018600001003c000044eb000804e00032003200bc
:1018700021088000f0fc2f00008060000050a000d4
:10188000200888001e019000ae0190000068290029
:1018900081c12400c1fc07000200200003282400ad
:1018a000befc070018c0b30002f02f00f37724003d
:1018b000fefc07000000e00001003c000044eb00db
:1018c0000804e0001000320021088000000320001e
:1018d00001007000200888001e019000ae019000f9
:1018e0000068290081c12400acfc07000200200030
:1018f00003382400a9fc0700eefc07000000780074
:1019000010088800dd0137001e019000ae01900034
:101910000068290081c12400a0fc0700020020000b
:10192000032824009dfc0700e2fc0700000078006b
:1019300010088800d10137001e019000ae01900010
:101940000068290081c1240094fc070002002000e7
:101950000310240091fc0700d6fc0700000078006b
:1019600010088800c50137001e019000ae019000ec
:101970000068290081c1240088fc0700cdfc070015
:101980000000780010088800bc0137008108800042
:10199000f0fc2f0000806000800888001e0190008d
:1019a000ae0190000068290081c124007bfc070083
:1019b00018c0b30002f02f00f3772400bbfc07002f
:1019c0000000e00001003c000044eb000804e000df
:1019d0005400320081088000f0fc2f00008060007d
:1019e0000040a000800888001e019000ae01900019
:1019f0000068290081c1240068fc07000200200063
:101a00000310240065fc070018c0b30002f02f008b
:101a1000f3772400a5fc07000000e00001003c0073
:101a20000044eb000804e00032003200810880002e
:101a3000f0fc2f00008060000050a00080088800ab
:101a40001e019000ae0190000068290081c12400b1
:101a500052fc070002002000032824004ffc07006e
:101a600018c0b30002f02f00f37724008ffc0700aa
:101a70000000e00001003c000044eb000804e0002e
:101a80001000320081088000000320000100700077
:101a9000800888001e019000ae01900000682900b7
:101aa00081c124003dfc070002002000033824000f
:101ab0003afc07007ffc07000000780060088800ff
:101ac0006e0137001e019000ae01900000682900f1
:101ad00081c1240031fc07000200200003282400fb
:101ae0002efc070073fc07000000780060088800e7
:101af000620137001e019000ae01900000682900cd
:101b000081c1240025fc07000200200003102400ee
:101b100022fc070067fc07000000780060088800ce
:101b2000560137001e019000ae01900000682900a8
:101b300081c1240019fc07005efc0700000078004a
:101b4000600888004d01370091088000f0fc2f00ec
:101b500000806000900888001e019000ae01900097
:101b60000068290081c124000cfc070018c0b300e4
:101b700002f02f00f37724004cfc07000000e00087
:101b800001003c000044eb000804e0005400320077
:101b900091088000f0fc2f00008060000040a00051
:101ba000900888001e019000ae0190000068290096
:101bb00081c12400f9fb070002002000031024006b
:101bc000f6fb070018c0b30002f02f00f3772400e3
:101bd00036fc07000000e00001003c000044eb0080
:101be0000804e0003200320091088000f0fc2f0071
:101bf000008060000050a000900888001e01900046
:101c0000ae0190000068290081c12400e3fb0700b9
:101c10000200200003282400e0fb070018c0b300e6
:101c200002f02f00f377240020fc07000000e00002
:101c300001003c000044eb000804e000100032000a
:101c400091088000000320000100700090088800c7
:101c50001e019000ae0190000068290081c124009f
:101c6000cefb07000200200003382400cbfb070056
:101c700010fc07000000780070088800ff003700a3
:101c80001e019000ae0190000068290081c124006f
:101c9000c2fb07000200200003282400bffb07004e
:101ca00004fc07000000780070088800f30037008b
:101cb0001e019000ae0190000068290081c124003f
:101cc000b6fb07000200200003102400b3fb07004e
:101cd000f8fb07000000780070088800e700370074
:101ce0001e019000ae0190000068290081c124000f
:101cf000aafb0700effb07000000780070088800cf
:101d0000de003700f1088000f0fc2f00008060004a
:101d1000f00888001e019000ae01900000682900c4
:101d200081c124009dfb070018c0b30002f02f0002
:101d3000f3772400ddfb07000000e00001003c0019
:101d40000044eb000804e00054003200f108800079
:101d5000f0fc2f00008060000040a000f008880028
:101d60001e019000ae0190000068290081c124008e
:101d70008afb0700020020000310240087fb0700f5
:101d800018c0b30002f02f00f3772400c7fb070050
:101d90000000e00001003c000044eb000804e0000b
:101da00032003200f1088000f0fc2f00008060005b
:101db0000050a000f00888001e019000ae019000c5
:101dc0000068290081c1240074fb07000200200084
:101dd0000328240071fb070018c0b30002f02f0095
:101de000f3772400b1fb07000000e00001003c0095
:101df0000044eb000804e00010003200f10880000d
:101e00000003200001007000f00888001e0190000f
:101e1000ae0190000068290081c124005ffb07002b
:101e200002002000033824005cfb0700a1fb070030
:101e300000007800d0088800900037001e01900054
:101e4000ae0190000068290081c1240053fb070007
:101e5000020020000328240050fb070095fb070028
:101e600000007800d0088800840037001e01900030
:101e7000ae0190000068290081c1240047fb0700e3
:101e8000020020000310240044fb070089fb070028
:101e900000007800d0088800780037001e0190000c
:101ea000ae0190000068290081c124003bfb0700bf
:101eb00080fb070000007800d00888006f00370022
:101ec00001098000f0fc2f000080600000098800fc
:101ed0001e019000ae0190000068290081c124001d
:101ee0002efb070018c0b30002f02f00f377240088
:101ef0006efb07000000e00001003c000044eb0026
:101f00000804e0005400320001098000f0fc2f00ba
:101f1000008060000040a000000988001e019000c1
:101f2000ae0190000068290081c124001bfb07005e
:101f3000020020000310240018fb070018c0b300a3
:101f400002f02f00f377240058fb07000000e000a8
:101f500001003c000044eb000804e00032003200c5
:101f600001098000f0fc2f00008060000050a000fc
:101f7000000988001e019000ae0190000068290051
:101f800081c1240005fb0700020020000328240073
:101f900002fb070018c0b30002f02f00f377240003
:101fa00042fb07000000e00001003c000044eb00a1
:101fb0000804e00010003200010980000003200046
:101fc00001007000000988001e019000ae01900021
:101fd0000068290081c12400f0fa070002002000f7
:101fe00003382400edfa070032fb070000007800f8
:101ff000e0088800210037001e019000ae0190002b
:102000000068290081c12400e4fa070002002000d2
:1020100003282400e1fa070026fb070000007800ef
:10202000e0088800150037001e019000ae01900006
:102030000068290081c12400d8fa070002002000ae
:1020400003102400d5fa07001afb070000007800ef
:10205000e0088800090037001e019000ae019000e2
:102060000068290081c12400ccfa070011fb070099
:1020700000007800e0088800000000004f047800ad
:102080000080fa00000006000400fa00004f78000b
:1020900011479800224798001e80fb00e20f500075
:1020a00036003200e20f500005003c000000e00066
:1020b00008003200e10f50001b0032006c003700b6
:1020c000e30f500041003200e40f50005400320092
:1020d000670037008460a9001e4090000080fb006c
:1020e000610060004300dd00a204800071ff2f004a
:1020f0008100610001007000a00488002e40900063
:10210000674060000080fb00670060004c00dd005d
:1021100022058000f1ff28008100610001007000ad
:10212000200588005200370084e0a9001e4090007e
:102130000080fb00610060004700dd00a204800019
:10214000f1f72f008100610001007000a0048800f9
:102150002e409000674060000080fb006700600038
:102160004c00dd0032058000f1ff28008100610095
:1021700001007000300588003d0037008500a9008f
:102180001e4090000080fb00610060004800dd0000
:10219000a2048000f1ef2f008100610001007000b7
:1021a000a00488002e409000674060000080fb0083
:1021b000670060004205800081ff2f008100610000
:1021c0000100700040058800290037008760a900e1
:1021d0001e4090000080fb00610060004b00dd00ad
:1021e000b2048000f17f2f008100610001007000c7
:1021f000b00488002e409000674060000080fb0023
:10220000670060004c00dd0082058000f1ff2800bf
:102210008100610001007000800588001400370013
:102220008780a9001e4090000080fb0061006000d4
:102230004c00dd00b2048000f1ff2e00810061003f
:1022400001007000b00488002e40900067406000dc
:102250000080fb00670060009205800081ff2f0076
:1022600081006100010070009005880000000000fe
:102270000080fa00000006000400fa00004f780019
:10228000110798001e4078000004e0000c003200a6
:102290001e407800e54f500009003e001e009000ef
:1022a0000000e000060032001e80fb0080004000bd
:1022b000a0512100008040009e009000010878009d
:1022c0000080fa00000006000800fa00404798006d
:1022d000310798003e0090008000eb00b4fa070040
:1022e00002002000a34724002cfa07000001be00d2
:1022f0000000200001f8230028fa0700008fbe002c
:102300001e01be004e4090001dfd07000080fa0037
:10231000000006000800fa004047980031079800c6
:102320003e0090008000eb00a1fa0700024022006e
:102330004397240019fa07000001be0000002000a6
:1023400001f8230015fa0700008fbe001e01be0031
:102350004e4090000afd07000080fa0000000600d1
:102360000200fa00004f7800114798001e80fb0021
:10237000e20f50001e003200e20f500005003c004a
:102380000000e00008003200e10f50000f003200b2
:1023900032003700e30f50001e003200e40f5000ff
:1023a000250032002d0037001e4090000080fb0009
:1023b0004f00dd0022088000f1ff2700810061004e
:1023c0000100700020088800240037001e409000a3
:1023d0000080fb004f00dd0082088000f1ff270035
:1023e0008100610001007000800888001b00370038
:1023f0001e4090000080fb004f00dd00920880002e
:10240000f1ff270081006100010070009008880042
:10241000120037001e4090000080fb004f00dd00de
:10242000f2088000f1ff27008100610001007000c8
:10243000f0088800090037001e4090000080fb0073
:102440004f00dd0002098000f1ff270081006100dc
:102450000100700000098800000000000080fa0000
:10246000000006000a00fa00004f780012079800ea
:102470002307980031079800044f98008040eb0034
:102480001e407800b6ff07001e019000ae019000cc
:102490001e407800bafc0700be0090001e40780085
:1024a00075ff07008e4890001e407800acff0700c3
:1024b0000080fa00000006000c00fa00004f7800cf
:1024c000120798002307980031079800044f9800de
:1024d000154f9800264f98008040eb001e40780072
:1024e0009fff07001e019000ae0190001e40780083
:1024f000a3fc0700be0090001e4078005eff0700ae
:102500001e4990008e4890001e407800defe0700b5
:10251000ae4890001e40780091ff07000080fa004e
:10252000000006000a00fa00200798003107980012
:10253000420798000040eb00004f78000000eb00dd
:10254000100798002e0090004800de000040780040
:102550001e4f68002e009000004078001e4f68005b
:102560003e0090004800de00004078001e4f6800ea
:102570003e009000004078001e4f68000000eb0015
:102580001007980008003700ce0090001e00900051
:1025900000804000104078001e4f68001e00900030
:1025a0000000e800100798009e0090003e00900098
:1025b000808f5000f4ff39001e4078000080fa0040
:1025c000000006000200fa00004f780034c8bf0087
:1025d0000080fb00e30f500023003200e30f5000a7
:1025e00007003c00e10f500012003200e10f5000e4
:1025f00016003c000000e000080032004e003700ea
:10260000e50f500031003200e50f50001c0035008e
:10261000e60f50003c003200470037001e407800b3
:10262000e24f400047003a0010c0b30034e8b70062
:10263000470037001e80fb004800dd00b0418800e5
:1026400020c0b30034e8b700410037009e80fb0093
:10265000b041800000804000b041880030c0b3002d
:1026600034e8b7003a0037001e80fb004800dd0068
:10267000c041880040c0b30034e8b70034003700e0
:102680009e80fb00c041800000804000c041880067
:10269000c141800000102000808f500002003600f1
:1026a0003468ef002a003700c04180000000e000dd
:1026b00003003a0060c0b30034e8b70024003700dc
:1026c00050c0b30034e8b70021003700d04180008b
:1026d000c13521001e41780082707800d041800011
:1026e0000000e800d0418800d1418000c041800056
:1026f000808f500015003a003a28ef0060c0b30008
:1027000034e8b70012003700c1418000b0418000ba
:10271000c235210083ff07009e4f500004003a009d
:10272000c1418000b0418000c23521001100070086
:102730003468ef00060037003468ef000000000046
:102740000300370000000000010037000000000017
:102750000080fa00000006000400fa00000f780074
:10276000214798009580a8000000eb000080fa0047
:10277000000006000c00fa0030079800410798009e
:10278000520798000040eb00004f78000000eb007b
:10279000100798000040eb00404798003e00900072
:1027a000e90f50004e013200e90f500010003e00ca
:1027b000e50f500058003200e50f500007003e00c2
:1027c000e30f500030003200e30f500085013e005f
:1027d000e10f50001b0032007a013700e70f500074
:1027e000a9003200e70f500039013e0078003700a1
:1027f000f60f500000013200f60f500007003e00b7
:10280000f40f5000ce003200f40f5000e4003e0000
:10281000ea0f5000390132006a013700f80f50000a
:102820001b013200f80f5000090139009107200008
:10283000810f500038013200e10f40005e0132008c
:10284000600137000040eb00004f78005e00900010
:10285000104078000004e0000300320010c0b30014
:102860003ce8b700010037003c68ef00c18320005e
:1028700091407800c04521000148780010002000f8
:1028800010079800580137005e0090006300400078
:10289000104078000081fb008001eb005e0090009a
:1028a0000080e800104078000082fb008002eb000e
:1028b0004828dd00c820de00810070004820dd00cf
:1028c00002014000838148005e0090000000e800a3
:1028d000104078000080fb008000eb00c000dd00ad
:1028e0000000200002014000838148005e0090004b
:1028f000104078000080fb008000eb00c800dd0085
:10290000000020000200400083804800b0a888003a
:10291000c1a88800340137000040eb00004f780068
:102920005e00900063004000104078000081fb00d2
:102930008001eb005e0090000080e800104078000d
:102940000082fb008002eb004828dd00c820de008a
:10295000810070004820dd000201400083814800b2
:102960005e0090000000e800104078000080fb004e
:102970008000eb00c000dd000000200002014000ec
:10298000838148005e009000104078000080fb00ca
:102990008000eb00c800dd000000200002004000c5
:1029a00083804800f0a7880001a88800f0a7800075
:1029b00001a880000001be008000eb00c04521009e
:1029c0001909070040002000100798000601370091
:1029d0000040eb00004f78005e0090006300400074
:1029e000104078000081fb008001eb005e00900049
:1029f0000080e800104078000082fb008002eb00bd
:102a00004828dd00c820de00810070004820dd007d
:102a100002014000838148005e0090000000e80051
:102a2000104078000080fb008000eb00c000dd005b
:102a30000000200002014000838148005e009000f9
:102a4000104078000080fb008000eb00c800dd0033
:102a500000002000020040008380480010a8880089
:102a600021a8880010a8800021a880000001be00d5
:102a70008000eb00c0452100eb080700400020006b
:102a800010079800d80037000040eb00004f780096
:102a90005e00900063004000104078000081fb0061
:102aa0008001eb005e0090000080e800104078009c
:102ab0000082fb008002eb004828dd00c820de0019
:102ac000810070004820dd00020140008381480041
:102ad0005e0090000000e800104078000080fb00dd
:102ae0008000eb00c000dd0000002000020140007b
:102af000838148005e009000104078000080fb0059
:102b00008000eb00c800dd00000020000200400053
:102b10008380480030a8880041a8880030a8800041
:102b200041a880000001be008000eb00c0452100ec
:102b3000bd0807004000200010079800aa003700d9
:102b40000040eb00004f78008000eb005e0090003a
:102b50008408070050a8880061a8880050a8800059
:102b600061a880000001be008000eb00c04521008c
:102b70009408070050a8800061a88000020020008f
:102b800003152400dff807000001be0020c0b300d9
:102b9000fbfa070040002000100798009200370061
:102ba0000040eb00004f78008000eb005e009000da
:102bb0006c08070002002000a3472400d1f807009a
:102bc00070a7880081a7880070a7800081a7800077
:102bd00002002000a3472400f0f707000001be0018
:102be0008000eb00c045210076080700400020006f
:102bf000100798007c0037000040eb00004f780081
:102c00008000eb005e0090005608070002002000e4
:102c1000a3472400bbf80700d0a78800e1a78800dd
:102c2000d0a78000e1a7800002002000a347240075
:102c3000daf707000001be008000eb00c04521006c
:102c40006008070040002000100798006600370069
:102c50000040eb00004f78008000eb005e00900029
:102c60004008070050a7880061a7880050a780008f
:102c700061a780000001be008000eb00c04521007c
:102c80005008070040002000100798005600370049
:102c90000040eb00004f78008000eb005e009000e9
:102ca0003008070030a7880041a7880030a78000bf
:102cb00041a780000001be008000eb00c04521005c
:102cc0004008070040002000100798004600370029
:102cd0004e4090000080fb00100798004200370033
:102ce0004e4090000080fb0010079800c045210076
:102cf00011c0b300014878003b0037004e409000ff
:102d00000080fb0010079800c045210011c0b300ef
:102d1000014878003400370010c0b300004f78003d
:102d20005e009000104078000081fb008001eb0005
:102d30005e0090000000e800104078000082fb0078
:102d40008002eb004828dd00c820de008100700012
:102d50004820dd0002014000838148005e009000b1
:102d60000080e800104078000080fb008000eb004d
:102d7000c000dd0000002000020140008381480007
:102d80005e00900063004000104078000080fb006f
:102d90008000eb00c800dd000000200002004000c1
:102da00083804800c0408800d14088000000eb00cc
:102db000100798000c00370010c0b300004f7800d7
:102dc0000900370010c0b300004f78001000200049
:102dd00010079800c04521008040eb0001487800b2
:102de00001003700000000001e4078000004e000f1
:102df00004003a00c24521009e0090003e00900071
:102e0000040007000040eb00004f78000080fa004b
:102e1000000006000c00fa00889fbe008a1f7800a0
:102e20003007980041079800520798000f04780077
:102e30000f007800800478004e009000660040008b
:102e4000800078008100e900110798000000e80088
:102e50000000e8000000d100800040000f00780072
:102e6000818747000000e8000000d100000040001a
:102e7000200798002e009000e1cfb30001487800b1
:102e80003e0090004800de00804078002e00900058
:102e9000114098003e009000804078002e00900085
:102ea000214098004e0090004800de0080407800ed
:102eb0002e009000314098004e0090008040780035
:102ec0002e009000414098000000eb00000f7800b9
:102ed000090037009e007800658040009e00780061
:102ee0005e0190008100410011417800ae00900029
:102ef000827078001e0fe8009e0078004e0090005f
:102f0000808f5000f3ff39004e00900065054000af
:102f10005e019000ce0090003e00900081fd070011
:102f2000ae00900080707d004e009000e6004000f2
:102f30002e009000060007008907780088077800b7
:102f40004f0578004f04be000080fa000000060024
:102f50000600fa00100798002107980009060700ec
:102f6000ae009000810f50000d0036000000eb0015
:102f7000000f7800060037001e0078009e009000c9
:102f80000080400010407800bb0507001e0fe800dd
:102f90009e0078002e009000808f5000f6ff3900d0
:102fa0000080fa00000006000200fa000e0178001e
:102fb0008000eb000019200096ff07000080fa0057
:102fc000000006000400fa00100798001e009000a0
:102fd000dcf90700000f78009e0090001e007800ca
:102fe0000101780080007800e0ee2e0089ff0700e4
:102ff0000080fa00000006000400fa00000025002e
:10300000318c2400008fbe0007e2a900401680002a
:103010004800de00614060000080fb00610060004d
:103020004800dd0042168000f1ef2f0081006100b2
:103030000100700040168800cd02a80040168000f4
:103040004900de00614060000080fb00610060001c
:103050004900dd0042168000f1df2f008100610091
:103060000100700040168800cd22a80007a2a90028
:103070000782a8000762a9000742a9000722a90049
:103080000702a90006e2a90006c2a90006a2a8003c
:103090001e01be000068290081c12400bff60700a0
:1030a00002002000030824005ef607000200200052
:1030b00003f823005bf60700fef607000000780027
:1030c0002010880007e2a8009620a8003e68ef00c4
:1030d0000080fa00000006000400fa00004f7800ab
:1030e0001147980012079800130020001e0190005d
:1030f0009e4090001e4078004f0007000080fa00bc
:10310000000006000600fa002047980031479800aa
:1031100042479800ce409000014f780013002000f5
:103120000e017800be4090002e4090000200070083
:103130000080fa00000006000a01fa0040479a00e9
:1031400051479a00320799004307990010c0b30015
:1031500020479800ce409200e0cfb30000c060004e
:1031600030479800de409200414798000000eb0095
:10317000000f7800080037001e80e8009e007800ed
:103180003e0191008100410091407800000047001d
:10319000314098001e0fe8009e0078004e0091001c
:1031a0000080e800808f5000f3ff39004e0091004e
:1031b0000040780000c0e80020479a002f10b000bf
:1031c000e0ef2f000f004000e20047007f00090001
:1031d00031187800315878001010b10075010700df
:1031e0002f10b1006a0107000004e00001003a005e
:1031f000ea000700d80007000100370000000000c7
:1032000063010700e14f500004003a0021428000b2
:1032100010032000808f5000f8ff3600214280000c
:1032200010032000808f500001003600ce00070000
:103230000080fa00000006000a02fa004420200084
:103240000e024200004a7800502020000e0040008c
:103250000148780032079a0043079a0010c0b30073
:1032600020479800412020008e804000e0cfb3002e
:103270001140600030479800502020000e004000b0
:10328000904078004147980020c0b30020479a0042
:103290000040eb0030479a00402020000e00400024
:1032a000104078000004a00040479a004e009200b1
:1032b00080407800302020000e0040000148780057
:1032c0002f10b000e0ef2f000f004000e200470099
:1032d0007f00090031187800315878001010b100d3
:1032e000340107002f10b1002f10b000e0ef2f00c5
:1032f0000f0040003110200081004700000109004c
:10330000315878001010b1002a0107002f10b100c9
:103310001f0107000004e00001003a009f000700c1
:103320008d000700010037000000000018010700b1
:10333000e14f500004003a002142800010032000b9
:10334000808f5000f8ff36002142800010032000db
:10335000808f500001003600830007000000eb0062
:10336000000f78000000eb00000f78000800370025
:103370001e007800be0092000080400021852000e1
:103380009e80400091409000014878001e0fe800a8
:103390009e0078004e009200808f5000f4ff3900ac
:1033a0000080fa00000006000e02fa00452020000e
:1033b0008e824200804a780031079a0042079a00c4
:1033c00053079a0064079a0010c0b3002047980082
:1033d000412020008e804000e0cfb300114060000b
:1033e000304798000000eb00000f7800080037001d
:1033f0001e00e8009e0078003e019200810041001e
:103400009140780000004700314098001e0fe8000e
:103410009e0078004e009200808f5000f4ff39002b
:103420004e009200004078000040e80020479a00db
:103430000040eb0030479a00402020000e00400082
:10344000104078000004a00040479a006e009200ef
:1034500080407800302020000e00400001487800b5
:103460002f10b000e0ef2f000f004000e2004700f7
:103470007f00090031187800315878001010b10031
:10348000cc0007002f10b1002f10b000e0ef2f008c
:103490000f004000311020008100470000010900aa
:1034a000315878001010b100c20007002f10b10091
:1034b000b70007000004e00001003a0037000700f1
:1034c000250007000100370000000000b0000700e1
:1034d000e14f500004003a00214280001003200018
:1034e000808f5000f8ff360021428000100320003a
:1034f000808f5000010036001b0007000000eb0029
:10350000000f7800080037001e007800de009200ef
:1035100000804000218520009e8040009140900066
:10352000014878001e0fe8009e0078006e009200af
:10353000808f5000f4ff39000080fa000000060080
:103540000000fa00204280000000e80020428800cd
:103550000080fa00000006000000fa004428ef0096
:103560000080fa00000006000000fa0010c0b3005e
:1035700046e8b7000080fa00000006000000fa00ec
:103580004668ef000080fa00000006000000fa0024
:1035900046c8bf000080fa00000006000201fa00e1
:1035a000000000003ec8bf000004e000fdff3a003c
:1035b00097000700e14f50000d003a000e00780020
:1035c0009e0007002185200000010900be587800f8
:1035d0001e10b1006105800000072000010070008e
:1035e0006005880010c0b3003ee8b7000602a800de
:1035f0000080fa00000006000201fa002085200089
:10360000104078000004e0003f003a003fc8bf00cf
:103610000004e0000b003a003fc8bf008080fb00c0
:103620002085200000804000104090000080fb00ba
:10363000101088003fc8bf000040e8003fe8b70016
:10364000510037003fc8bf000080fb008000e90048
:1036500020952000104078000080fb00808f5000f3
:1036600024003d0040c8bf000080fb000000e000d7
:1036700003003200e10f5000050032001b0037004c
:103680000662a80010c0b30040e8b7003e00370053
:103690003fc8bf000080fb000001e900001080006f
:1036a00080407800208520000000410011409800f3
:1036b00020952000904078003fc8bf0080cf500088
:1036c00002003a0006a2a8000100370006a2a900e5
:1036d0000682a8004068ef003fc8bf000040e80035
:1036e0003fe8b70000000000270037004068ef0007
:1036f000250037003f68ef0040c0b3003ee8b70048
:103700000642a80020003700209520009040780055
:103710003fc8bf0080cf50000b0036003fc8bf003d
:103720008080fb0020852000008040001040900039
:103730000080fb00101088003fc8bf000040e80078
:103740003fe8b7001000370031000700e14f50009c
:103750000a003a000e00780038000700218520009a
:1037600000010900be5878001e10b10030c0b3003f
:103770003ee8b7000622a8000300370040c0b300af
:103780003ee8b7000642a8000080fa0000000600ec
:103790000000fa003ec8bf000004e0000200320052
:1037a00010c0b300010037000040eb000080fa00b9
:1037b000000006000000fa0041c8bf008080fb0046
:1037c000101020000088b90080007800309520009b
:1037d0000080400081ef2f008100470000010900b8
:1037e000315878001010b10041c8bf00e64f5000ba
:1037f00004003e0041c8bf000040e80041e8b700b7
:10380000010037004168ef000080fa000000060068
:103810000000fa00118420009140780042c8bf00e7
:1038200080cf50000200320010c0b300010037000a
:103830000040eb000080fa00000006000201fa00e0
:103840000001780042c8bf008080fb0010102000fb
:103850000088b9008000780030952000008040008a
:1038600000010900305f78001e10b1001010b10097
:1038700042c8bf00e64f500004003e0042c8bf00ef
:103880000040e80042e8b700010037004268ef005e
:10389000000109003e5978001210b1001e10b1005d
:1038a000020078000080fa00000006002200fa0002
:1038b000889fbe0059060700b3050700ea05070008
:1038c000f005070016c0b30035c0b3000042eb009e
:1038d00041f8210002002400c361240010c0b3009d
:1038e000f5fa07000043eb0055c0b30014c0b30065
:1038f000a1f8210002002000a33f240020c0b30053
:10390000edfa070016c0b30065c0b30014c0b300e1
:10391000a101220002002000a347240030c0b30010
:10392000e5fa070016c0b30045c0b30014c0b300e9
:10393000c1022200020020008324240040c0b30002
:10394000ddfa07005e060700e7020700aafd070090
:10395000fd04070000a82100610020006a0607009e
:103960007904070000902000d103200066060700bc
:10397000c4e2a800c542a800802520000100200064
:1039800030a8880041a8880000002000a14724003a
:10399000d0a78800e1a7880000002000a1472400ec
:1039a00070a7880081a788006000b80010a8880070
:1039b00021a888006000b800f0a7880001a888004e
:1039c0006000b80080a8880091a88800404e2100bf
:1039d0008040eb000148780000002800214a2400c4
:1039e00050a8880061a8880000002400c169240054
:1039f00030a7880041a78800f026210031a02300cd
:103a000050a7880061a788006000b80010079800e0
:103a100021079800a01680007000600000f0a70049
:103a20000000ea000000e9004f00de0000407800de
:103a30000080fb00610060004400dd00a2168000f1
:103a4000f1fe2f008100610001007000a0168800c7
:103a500050168000680060000000e00004003a009a
:103a60006000b80080a8880091a88800c4e2a8007f
:103a7000b70507000004e00082003200b805070027
:103a8000af050700300798003e0090001000780056
:103a9000400f98003e0090000080e8001000780081
:103aa000500f98003e009000640040001000780025
:103ab000600f98003e009000660040001000780003
:103ac000700f98003e0090006800400010007800e1
:103ad000001798004e0890008000eb00b4f4070037
:103ae0003233230033a5230006f5070000a7880022
:103af00011a78800400a2700d1f923004007980049
:103b000051079800f0a72600c1cb2300600798005a
:103b10007107980000a7800011a78000a2702d00f7
:103b200033da2300bff30700000f9800110f98004d
:103b300010002000000f780018c0b3006011b8001a
:103b40000e0890009e08900056f407000000e00068
:103b5000010035000044eb000804e00003003200df
:103b60000080eb00000f78000200370010002000fa
:103b7000000f780018c0b3006011b8000e08900064
:103b80009e08900049f407000000e00001003c009e
:103b90000044eb000804e000050032000e0890002d
:103ba0009e0890000001be009ff30700050037004b
:103bb0000e0890009e08900001f0a2000001be00d7
:103bc00099f307004e019000de019000f3f3070027
:103bd00000f507000004be001e007800cf80de0064
:103be00070f407000001be000800be00c5f4070025
:103bf000200f9800310f9800a2df2e00b3a62300fb
:103c00002e089000be089000bef4070090a7880020
:103c1000a1a78800404e2100104078000004e00079
:103c2000180032006e0890008000eb0060f407007e
:103c300002002000a3df2300b2f407003ef40700d7
:103c4000000078008000eb0030a8880041a88800c0
:103c50007e0890008000eb0055f407000200280069
:103c600023ea2300a7f4070050a8880061a8880071
:103c700050a8800061a880000001be0020c0b300f1
:103c8000bff60700e0408000e20f50003500320030
:103c9000e20f500005003e000000e0000800320086
:103ca000e10f50001000320095003700e30f500084
:103cb00081003200e40f50006100320090003700b4
:103cc0003cc8bf000004e0000600320010002000e5
:103cd000e0408800c0408000d1408000f040880073
:103ce0000141880087003700d0a78000e1a780004d
:103cf00011f407000001be00f04080000141800087
:103d00000201400083814800c0408000d140800013
:103d1000800f5100818f59000a003e00c542a80063
:103d2000e05021008040eb0001487800c522a90046
:103d300011c0b30020c0b30089f9070020002000a3
:103d4000e04088003cc8bf000004e00004003a00e6
:103d50008040eb0020c0b30081f907001c28ef0071
:103d60006800370022c8bf000004e00009003200ec
:103d7000c4e2a900c542a9002268ef00c04080004b
:103d8000d1408000f04088000141880040002000c0
:103d9000e0408800e4a68000f5a6800030a78000ff
:103da00041a7800018c0b3000001be000400be009f
:103db000bef307000000e00001003d000044eb00fe
:103dc0000804e0000d003a00b4a78000c5a78000f9
:103dd00050a7800061a7800018c0b3000001be009a
:103de0000400be00b1f307000000e00001003d0048
:103df0000044eb000804e00009003200c0408000ed
:103e0000d1408000f040880001418800400020003f
:103e1000e04088008040eb0020c0b30050f907006c
:103e20003cc8bf000004e00004003a008040eb0002
:103e300020c0b3004af907001c28ef00310037000a
:103e400070a7800081a78000bbf307000001be00bf
:103e5000f040800001418000020140008381480061
:103e6000c0408000d1408000800f5100818f5900f8
:103e700009003e00e050210011c0b3000148780065
:103e8000c522a80011c0b30020c0b30034f9070058
:103e900030002000e04088003cc8bf000004e00083
:103ea00004003a008040eb0020c0b3002cf907006a
:103eb0001c28ef001300370023c8bf000004e000f7
:103ec000070032002368ef00c0408000d14080002e
:103ed000f04088000141880010002000e040880088
:103ee0003cc8bf000004e00004003a008040eb0042
:103ef00020c0b3001af907001c28ef0001003700aa
:103f000000000000c3fe37000000fa000080fa0045
:103f1000000006000000fa00889fbe008a1f78009b
:103f2000e0502100104078000004e0001c003a003e
:103f3000ed04070080a8800091a880000200200006
:103f400003f82300b8f2070080a8880091a8880031
:103f500088a8800099a8800030a8800041a880002f
:103f600090f307001ac0b3000001be000800be00b5
:103f70004ef307000000e00001003d000045eb00ab
:103f80000a04e0002700320010c0b30022e8b700a6
:103f90008040eb0020c0b300f1f80700210037009b
:103fa000d104070080a8800091a8800002002000b2
:103fb00003f823009bf2070080a8880091a88800de
:103fc00050168000680060000000e00005003a0024
:103fd00010c0b30023e8b7008040eb0020c0b3005e
:103fe000dff8070080a8800091a8800018c0b30007
:103ff00002002000031f2c002af307000000e0004d
:10400000010034000044eb000804e0000500320029
:1040100010c0b30023e8b7008040eb0020c0b3001d
:10402000cff807004f0578004f04be000080fa006b
:10403000000006000000fa00c0408000d14080006f
:1040400061004000e0804800c0408800d140880006
:104050000080fa00000006001000fa00c040800056
:10406000d14080004808de0000407800004f780012
:10407000c0408000d14080004008de000040780051
:1040800010479800c0408000d14080004809dd0002
:104090004800de0000007100c808de000040780023
:1040a00020479800c0408000d14080000040780048
:1040b00030479800e0a68000f1a680000001be0015
:1040c000410020000e0078003e03070000a780009a
:1040d00011a780000001be00810020000e007800c2
:1040e0003803070080a8800091a880000001be006e
:1040f000c10020000e007800320307000e01780096
:10410000010120004006200042fb070008040700d0
:104110002468ef00a5020700e0a68800f1a6880049
:104120000080fa00000006000400fa00881f7800f2
:10413000008fbe000500370002002000433b240032
:104140001e00be0037f20700008fbe0018c0b3008b
:1041500002002000433324001e00be00d3f20700fb
:104160000000e00001003c000044eb000804e00017
:10417000f1ff3a000500370002002000433b240015
:104180001e00be0028f20700008fbe0018c0b3005a
:104190000200200043332c001e00be00c1f20700c5
:1041a0000000e000010035000044eb000804e000de
:1041b000f1ff3a001e00be004f0478000080fa00b4
:1041c000000006000400fa00881f7800008fbe007f
:1041d00018c0b3006011b8001e00be00b3f20700a3
:1041e0000000e00001003d000044eb000804e00096
:1041f000020032001e00be00020037001e00be009a
:1042000001f0a2004f0478000080fa0000000600d0
:104210000800fa00881f7800008fbe00220798006f
:104220003307980018c0b3002e019000be01900023
:104230001e00be009df207000000e00001003c00ef
:104240000044eb000804e000020032001e00be0043
:10425000020037002e009000be0090004f0478004e
:104260000080fa00000006000800fa00881f7800ad
:10427000008fbe00220798003307980018c0b300d3
:104280002e019000be0190001e00be0085f20700c6
:104290000000e000010035000044eb000804e000ed
:1042a000020032001e00be00020037002e00900007
:1042b000be0090004f0478000080fa000000060065
:1042c0000400fa00881f7800008fbe000500370048
:1042d000b2fd2000930c24001e00be00d1f10700a7
:1042e000008fbe0018c0b300b2fd2000930424006c
:1042f0001e00be006df207000000e00001003c005f
:104300000044eb000804e000f1ff3a00050037002c
:10431000b2fd2000930c24001e00be00c2f1070075
:10432000008fbe0018c0b300b2fd200093042c0023
:104330001e00be005bf207000000e0000100350037
:104340000044eb000804e000f1ff3a001e00be004c
:104350004f0478000080fa00000006000400fa0014
:10436000881f7800008fbe0005003700b2fd2000d6
:10437000930424001e00be00aaf10700008fbe00b7
:1043800018c0b300b2fd200093fc23001e00be0045
:1043900046f207000000e00001003c000044eb0092
:1043a0000804e000f1ff3a0005003700b2fd2000ec
:1043b000930424001e00be009bf10700008fbe0086
:1043c00018c0b300b2fd200093fc2b001e00be00fd
:1043d00034f207000000e000010035000044eb006b
:1043e0000804e000f1ff3a001e00be004f04780010
:1043f0000080fa00000006000c00fa00881f780018
:10440000008fbe00220798003307980044079800e9
:104410005507980018c0b3004e019000de019000cf
:104420001e00be0021f207000000e00001003c0079
:104430000044eb000804e000040032004e0190004c
:10444000de019000028fbe000d00370018c0b300df
:104450002e019000be0190001e00be0011f2070068
:104460000000e000010035000044eb000804e0001b
:10447000030032002e019000be019000028fbe00aa
:104480001e00be004f0478000080fa000000060005
:104490000400fa00008fbe00b2fd20009304240047
:1044a0001e00be00bdf107000200200043332400bf
:1044b00094f207000080fa00000006000400fa00f1
:1044c000008fbe00b2fd2000930424001e00be0039
:1044d0008cf207000200200043332400aff10700f4
:1044e0000080fa00000006000200fa002062a80026
:1044f0002002a9000111800090ff2f0000806000c1
:104500000011880020a2a9002082a90050052000e7
:104510004011880023e2a90023a2a9001111800004
:10452000f0f32f0000806000101188009560a80053
:104530009580a8009c20a8008560a9008580a9001e
:1045400021068000f0f82f00808060000006200027
:10455000010070002006880041058000f0ff28005f
:104560008080600000002500010070004005880088
:104570005105800080ff2f00008060005000b300d4
:104580005005880021e2a8002342a80030118000d5
:10459000004f780003000700070007000080fa00c2
:1045a000000006000000fa002a28ef002c28ef0087
:1045b0000080fa00000006000000fa002e28ef003c
:1045c0003028ef000080fa00000006000000fa002a
:1045d000504180003111800001417800c115210057
:1045e0008270780051418000e00f2000808f5000e1
:1045f00004003e00504180000000e8005041880067
:10460000010037002a28ef000080fa0000000600b1
:104610000000fa005141800060418000808f50000e
:104620000200320010c0b300010037000040eb0070
:104630000080fa00000006000200fa0060418000dd
:10464000c1152100614f780061418000e00f20001a
:10465000808f500004003e00604180000000e800b0
:1046600060418800010037002c28ef001e407800d0
:104670000080fa00000006000200fa00004f7800f7
:1046800070418000c12521001e41780082707800b1
:1046900071418000e00f2000808f500004003e0038
:1046a000704180000000e800704188000100370080
:1046b0002e28ef0032c8bf000004e00001003a00dd
:1046c0000c0007000080fa00000006000000fa005d
:1046d0007141800080418000808f500002003200d4
:1046e00010c0b300010037000040eb000080fa006a
:1046f000000006000200fa0010c0b30032e8b70064
:1047000080418000c1252100614f780081418000f7
:10471000e00f2000808f500004003e0080418000a8
:104720000000e80080418800010037003028ef00d9
:104730009580a8001e80fb00201188002628ef002d
:104740000080fa00000006000000fa0071418000bd
:1047500080418000808f500004003900714180004a
:1047600080418000008050000400370071418000cb
:1047700080418000008050000010b0000080fa00ee
:10478000000006000000fa00efff07000110200003
:10479000008050000080fa00000006000000fa00cf
:1047a0000080fa00000006000000fa002628ef0052
:1047b0000080fa00000006000000fa00304180008e
:1047c0000000e8003041880032c8bf00e14f5000cf
:1047d0000a003a0031418000703e2000808f500076
:1047e00006003400b9ff0700e14f500002003a0014
:1047f000c0ff0700010037003268ef000080fa00b8
:10480000000006000200fa003062a9003002a90090
:104810008111800090ff2f000080600080118800cf
:1048200030a2a90030102000c01188003082a900f9
:1048300033e2a90033a2a90091118000f0f32f0008
:10484000008060009011880097c0a80097e0a80041
:104850009c40a80087c0a90087e0a90031e2a80019
:104860003342a8000000eb00000f78000200370080
:10487000000000001e0fe800f00321009e007800f9
:10488000808f5000faff34000080fa00000006001c
:104890000000fa00010e8000c0ff2f0000806000c1
:1048a000000e8800010e800030ff2f0000806000a5
:1048b000000e8800010e8000f0f02f0000806000e4
:1048c000000e8800803e2000200e8800c901a8004c
:1048d000c921a800c941a800ca41a800d521a80043
:1048e000d501a800d561a800d541a800d5a1a80090
:1048f000d581a800c1e1a8000080fa0000000600f0
:104900000000fa00012e8000c0ff2f000080600030
:10491000002e8800002e8000c000b300002e88000a
:10492000012e8000f0f02f0000806000002e880033
:10493000409c2000202e8800c905a800ca45a80078
:10494000d525a800d505a800c1e5a8000080fa007b
:10495000000006000400fa00008fbe0002002000e4
:10496000832c24001e00be003ffe0700008fbe0007
:1049700002002000832c2c001e00be0024fe070035
:10498000008fbe001e01be00a2408800b340880018
:104990000080fa00000006000000fa00881f78007e
:1049a00020032000c00e8800a0408000b14080009d
:1049b00018c0b3006011b800bcf007000000e000b0
:1049c00001003c000044eb000804e000030032005a
:1049d000c522a900c8a1a80002003700c522a8006e
:1049e000c8a1a800a0408000b140800002002000c3
:1049f000831c240043f107000001be0000002400d6
:104a0000c151240007f00700cbf007000000780038
:104a1000202e88004f0478000080fa000000060075
:104a20000600fa00008fbe004247980002002000f6
:104a3000832c24001e00be000bfe0700008fbe006a
:104a400002002000832c2c001e00be00f0fd070099
:104a5000008fbe004e4090000000fb00e10f5000b0
:104a600005003a001e01be00824088009340880085
:104a70000000000001003700000000000080fa0084
:104a8000000006000000fa00881f780080408000c7
:104a90009140800018c0b3006011b80083f0070097
:104aa0000000e00001003c000044eb000804e000ce
:104ab00003003200c801a900c881a8000200370025
:104ac000c881a900c801a8008040800091408000f2
:104ad000bcfd07000001be0000002000812c240066
:104ae000d0ef070002002000031a240005f10700a0
:104af00091f0070000007800b00e88004f047800a5
:104b00000080fa00000006000400fa00008fbe00da
:104b10001e00be006011b80004a02500252620005c
:104b20006033b80062f20700843e200005002000d8
:104b30006033b800f5f107000000be00f201070085
:104b40000080fa00000006000200fa000040eb00be
:104b5000004f7800130020000e017800b1c0b300b0
:104b600080cdb30074f90700500020000100200040
:104b7000e5ff07000080fa00000006000400fa00cc
:104b8000c1bb280003000900315f78004e00b1006e
:104b9000430020000e0178008040eb0080cdb30080
:104ba00065f907000080fa00000006001400fa0012
:104bb000f2ff070000cdb300404f980010c5b300ce
:104bc000504f9800c0c2b300604f98006c0047007f
:104bd00033002000000178008040eb0080cdb3005e
:104be00055f907001002200001002000008fbe00d0
:104bf000ef00470072bb280004000900b25878009b
:104c0000ea0047006f00470024002000810178007f
:104c1000120020008000780080cdb300e2f9070088
:104c20002e4890000080fb00c800dd003e48900048
:104c30000080fb0001007000200798002e0090000b
:104c40008000eb005af00700020020000348240017
:104c500074ef07000200200063412400cfef07003b
:104c600002002000832424006eef07003007980024
:104c7000410798003e009000ce0090000080fa00ae
:104c8000000006001200fa00e8004700e2ba28001f
:104c900003000900b2587800680047004300200074
:104ca000000178008040eb0080cdb30022f90700be
:104cb0001002200001002000008fbe001e00be0078
:104cc00091ff0700ec00470022bb28000400090008
:104cd000b2587800e60047006c004700240020002e
:104ce00081017800520020008000780080cdb30060
:104cf000adf907006e4090000080fb00c800dd00a9
:104d00007e4090000080fb0001007000404288005f
:104d100041428000a0812d0080804000803e200024
:104d20000088b90080007800b0e920000001780018
:104d3000110009008200d800200798002e00900082
:104d40000080fa00000006000000fa0002c8b3006c
:104d5000d1c0b30080cdb300eaf807000080fa00ac
:104d6000000006000a00fa0030079800410798008a
:104d7000be0090004e009000008f40001e007800a2
:104d80001001be0012079800230798001e00900033
:104d9000ae0090000080fa00000006000600fa0055
:104da00010079800210798009e0090002e009000a8
:104db000008f40001e0078001000be000080fa0046
:104dc000000006000c00fa00200798003107980048
:104dd00042079800530798006800470010079800a2
:104de0000000eb00000f78000a0037003e00900042
:104df0001e004000ae009000008040009e00780041
:104e00001e01900081004100914078000148780027
:104e10001e0fe8001e007800e30f5000f3ff34007f
:104e20000080fa00000006000c00fa00200798003d
:104e30003107980042079800530798006800470020
:104e4000100798000000eb00000f78000b003700ff
:104e50003e0090001e004000ae0090000080400028
:104e6000320020009e0051001e0190008100410090
:104e700091407800014878001e0fe8001e0078007d
:104e8000e30f5000f2ff34000080fa00000006003b
:104e90000c00fa002007980031079800420798009c
:104ea0005307980068004700100798000000eb00c7
:104eb000000f78000a0037003e0090001e004000fe
:104ec000ae009000008040009e0078001e0190001f
:104ed0008100410091407800014878001e0fe800f1
:104ee0001e007800e70f5000f3ff34000080fa0046
:104ef000000006000c00fa00881f7800008fbe003a
:104f00002207980033079800440798005507980037
:104f100018c0b3002e019000be0190001e00be001c
:104f200060ef07000000e000010035000044eb00e6
:104f30000804e000030032002e009000be00900044
:104f40000e00370018c0b3004e019000de01900043
:104f50001e00be0055ef07000000e00001003c000d
:104f60000044eb000804e000030032004e00900013
:104f7000de009000010037001e00be004f047800e4
:104f80000080fa00000006000000fa000080eb003c
:104f900060198800c0e2a900c122a900c142a9008d
:104fa000c8a2a900d0c2a900d0e2a900d062a9007d
:104fb000d082a900c842a800c862a800d002a800f8
:104fc000d022a800d042a800c002a800c022a80099
:104fd0001c000700b136800000fe2f00008060003a
:104fe0002001b300b0368800b1368000f00f2e00eb
:104ff000808060000030200001007000b036880022
:105000002135800000fe2f00008060008001b30089
:1050100020358800020007000080fa00000006002a
:105020000000fa00217420006204200073052000b3
:10503000824878008348780042c7a8000080fa00c0
:10504000000006000000fa00217420006204200025
:1050500073052000824878008348780042c7a90081
:105060000080fa00000006000000fa0060c0a900fd
:1050700068c0a80060e0a90068e0a8000080fa000d
:10508000000006000000fa0021e3a9002143a80067
:1050900001198000f0cf2f00008060000019880007
:1050a0002043a90001198000000e200001007000bb
:1050b0000019880011198000f0ff210000806000b5
:1050c000101988002343a8001119800030fc2f001c
:1050d000008060000040a0001019880025e3a900ae
:1050e0002119800000f021000100700020198800c3
:1050f0002463ef002c03a9002c23a9002cc3a900d2
:105100002ce3a9002d03a9003003a8003023a80038
:1051100030c3a80030e3a8003103a80085a0a9008f
:1051200095a0a80021e3a8000080fa000000060076
:105130000000fa002023a8000080fa00000006000a
:105140000000fa00405221000080fa000000060032
:105150000000fa004fc8bf000080fa0000000600ff
:105160000000fa004f68ef000080fa00000006001f
:020000040000fa
:10517000180800000e0000000000000000080000f9
:1051800018000000000000001a1500000a000000ce
:1051900000000000241500000a00000000000000cc
:1051a0004e08000002000000000000005c1100003a
:1051b0000002000000000000260800000e000000b1
:1051c000000000005c1300008001000000000000ef
:1051d000340800000a00000000000000dc14000099
:1051e0003e00000000000000520800000a09000014
:1051f000000000003e0800000a000000000000005f
:1052000048080000060000000000000050080000f0
:0c52100002000000000000000000000090
:020000040000fa
:10521c000000fa0020012000303a8800213a80007a
:10522c0000fe2f00008060000010a000203a8800d3
:10523c00213a8000f0f32f0000806000203a8800b3
:10524c003200200080072000a109200033742000c8
:10525c00804978008149780082497800120020004a
:10526c006004200071052000237420008049780020
:10527c00814978008249780000000000113a8000d2
:10528c00000027008080600000002300808f500009
:10529c00faff3a0000000000113a800000022000e2
:1052ac00008060000000e000fbff32000080fa008c
:1052bc00000006000000fa008461a900210c8000a7
:1052cc0080ff2f0000806000200c8800a0002000d0
:1052dc00100c88000080fa00000006000000fa00a4
:1052ec00210c800080ff2f00008060000010a000c7
:0c52fc00200c88000080fa000000060072
:020000040000fa
:10530800f03fb1000180b10006003500ee0309004e
:1053180000000000403fb1000180b100fbff3d00ec
:105328001000b000203fb0000200350000800900e6
:08533800000000000000060067
:020000040000fa
:0200000401f009
:04000800ffff0000f6
:020000040000fa
:0200000401f009
:04000c008000000070
:020000040000fa
:0200000401f009
:0400100042000000aa
:020000040000fa
:0200000401f009
:040014005f00000089
:020000040000fa
:0200000401f009
:04001800f7000000ed
:020000040000fa
:0200000401f009
:04001c00dfff000002
:00000001FF
