:020000040000fa
:080000000002040000000000f2
:020000040000fa
:0400080018050000d7
:020000040000fa
:04000c0018050000d3
:020000040000fa
:0400100018050000cf
:020000040000fa
:0400140018050000cb
:020000040000fa
:0400180018050000c7
:020000040000fa
:04001c0018050000c3
:020000040000fa
:0400200018050000bf
:020000040000fa
:0400240018050000bb
:020000040000fa
:0400280018050000b7
:020000040000fa
:04002c0018050000b3
:020000040000fa
:0400300018050000af
:020000040000fa
:04003400e4020000e2
:020000040000fa
:0400380018050000a7
:020000040000fa
:04003c0018050000a3
:020000040000fa
:04004000180500009f
:020000040000fa
:040044000a030000ab
:020000040000fa
:040048003003000081
:020000040000fa
:04004c001805000093
:020000040000fa
:04005000180500008f
:020000040000fa
:04005400d4030000d1
:020000040000fa
:040058002c04000074
:020000040000fa
:04005c00a2030000fb
:020000040000fa
:04006000180500007f
:020000040000fa
:04006400180500007b
:020000040000fa
:040068001805000077
:020000040000fa
:04006c005404000038
:020000040000fa
:04007000180500006f
:020000040000fa
:04007400180500006b
:020000040000fa
:040078001805000067
:020000040000fa
:04007c001805000063
:020000040000fa
:04008000180500005f
:020000040000fa
:04008400180500005b
:020000040000fa
:040088001805000057
:020000040000fa
:04008c001805000053
:020000040000fa
:04009000180500004f
:020000040000fa
:04009400560300000f
:020000040000fa
:040098007c030000e5
:020000040000fa
:04009c001805000043
:020000040000fa
:0400a000180500003f
:020000040000fa
:0400a400180500003b
:020000040000fa
:0400a8001805000037
:020000040000fa
:0400ac001805000033
:020000040000fa
:0400b000180500002f
:020000040000fa
:0400b400180500002b
:020000040000fa
:0400b8001805000027
:020000040000fa
:0400bc001805000023
:020000040000fa
:0400c000180500001f
:020000040000fa
:0400c400180500001b
:020000040000fa
:0400c8001805000017
:020000040000fa
:0400cc001805000013
:020000040000fa
:0400d000180500000f
:020000040000fa
:0400d400180500000b
:020000040000fa
:0400d8001805000007
:020000040000fa
:0400dc001805000003
:020000040000fa
:0400e00018050000ff
:020000040000fa
:0400e40018050000fb
:020000040000fa
:0400e80018050000f7
:020000040000fa
:0400ec0018050000f3
:020000040000fa
:0400f00018050000ef
:020000040000fa
:0400f40018050000eb
:020000040000fa
:0400f80018050000e7
:020000040000fa
:0400fc0018050000e3
:020000040000fa
:0401000018050000de
:020000040000fa
:0401040018050000da
:020000040000fa
:0401080018050000d6
:020000040000fa
:04010c0018050000d2
:020000040000fa
:0401100018050000ce
:020000040000fa
:0401140018050000ca
:020000040000fa
:0401180018050000c6
:020000040000fa
:04011c0018050000c2
:020000040000fa
:0401200018050000be
:020000040000fa
:0401240018050000ba
:020000040000fa
:0401280018050000b6
:020000040000fa
:04012c0002040000c9
:020000040000fa
:0401300018050000ae
:020000040000fa
:0401340018050000aa
:020000040000fa
:0401380018050000a6
:020000040000fa
:04013c0018050000a2
:020000040000fa
:04014000180500009e
:020000040000fa
:04014400180500009a
:020000040000fa
:040148001805000096
:020000040000fa
:04014c001805000092
:020000040000fa
:04015000180500008e
:020000040000fa
:04015400180500008a
:020000040000fa
:040158001805000086
:020000040000fa
:04015c001805000082
:020000040000fa
:04016000180500007e
:020000040000fa
:04016400180500007a
:020000040000fa
:0402080018050000d5
:020000040000fa
:04020c0018050000d1
:020000040000fa
:0402100018050000cd
:020000040000fa
:0402140018050000c9
:020000040000fa
:0402180018050000c5
:020000040000fa
:04021c0018050000c1
:020000040000fa
:0402200018050000bd
:020000040000fa
:0402240018050000b9
:020000040000fa
:0402280018050000b5
:020000040000fa
:04022c0018050000b1
:020000040000fa
:0402300018050000ad
:020000040000fa
:0402340018050000a9
:020000040000fa
:0402380018050000a5
:020000040000fa
:04023c0018050000a1
:020000040000fa
:04024000180500009d
:020000040000fa
:040244001805000099
:020000040000fa
:040248001805000095
:020000040000fa
:04024c001805000091
:020000040000fa
:04025000180500008d
:020000040000fa
:040254001805000089
:020000040000fa
:040258001805000085
:020000040000fa
:04025c001805000081
:020000040000fa
:04026000180500007d
:020000040000fa
:040264001805000079
:020000040000fa
:040268001805000075
:020000040000fa
:04026c001805000071
:020000040000fa
:04027000180500006d
:020000040000fa
:040274001805000069
:020000040000fa
:040278001805000065
:020000040000fa
:04027c001805000061
:020000040000fa
:04028000180500005d
:020000040000fa
:040284001805000059
:020000040000fa
:040288001805000055
:020000040000fa
:04028c001805000051
:020000040000fa
:04029000180500004d
:020000040000fa
:040294001805000049
:020000040000fa
:040298001805000045
:020000040000fa
:04029c001805000041
:020000040000fa
:0402a000180500003d
:020000040000fa
:0402a4001805000039
:020000040000fa
:0402a8001805000035
:020000040000fa
:0402ac001805000031
:020000040000fa
:0402b000180500002d
:020000040000fa
:0402b4001805000029
:020000040000fa
:0402b8001805000025
:020000040000fa
:0402bc001805000021
:020000040000fa
:0402c000180500001d
:020000040000fa
:0402c4001805000019
:020000040000fa
:0402c8001805000015
:020000040000fa
:0402cc001805000011
:020000040000fa
:0402d000180500000d
:020000040000fa
:0402d4001805000009
:020000040000fa
:0402d8001805000005
:020000040000fa
:0402dc001805000001
:020000040000fa
:0402e00018050000fd
:020000040000fa
:0402e40018050000f9
:020000040000fa
:0402e80018050000f5
:020000040000fa
:0402ec0018050000f1
:020000040000fa
:0402f00018050000ed
:020000040000fa
:0402f40018050000e9
:020000040000fa
:0402f80018050000e5
:020000040000fa
:0402fc0018050000e1
:020000040000fa
:0403000018050000dc
:020000040000fa
:0403040018050000d8
:020000040000fa
:0403080018050000d4
:020000040000fa
:04030c0018050000d0
:020000040000fa
:0403100018050000cc
:020000040000fa
:0403140018050000c8
:020000040000fa
:0403180018050000c4
:020000040000fa
:04031c0018050000c0
:020000040000fa
:0403200018050000bc
:020000040000fa
:0403240018050000b8
:020000040000fa
:0403280018050000b4
:020000040000fa
:04032c0018050000b0
:020000040000fa
:0403300018050000ac
:020000040000fa
:0403340018050000a8
:020000040000fa
:0403380018050000a4
:020000040000fa
:04033c0018050000a0
:020000040000fa
:04034000180500009c
:020000040000fa
:040344001805000098
:020000040000fa
:040348001805000094
:020000040000fa
:04034c001805000090
:020000040000fa
:04035000180500008c
:020000040000fa
:040354001805000088
:020000040000fa
:040358001805000084
:020000040000fa
:04035c001805000080
:020000040000fa
:04036000180500007c
:020000040000fa
:040364001805000078
:020000040000fa
:100400006f8a21000e7f24000e018800000000008a
:10041000000020000000e000020032000001200087
:100420002002880014000700830107000000e0009c
:1004300003003a0000f5230001002000020037000d
:100440000000200001002000810f70000100320038
:1004500014000700000020000000e000020032004d
:1004600000000200000000000a0c02000000000072
:100470000040da000000fe004440a90020012000f6
:100480000000e0000300320000002000a00188000e
:100490004440a800000006008a1f78008b1f7800e7
:1004a0000000060091018800800478000000eb0045
:1004b0001a003700e284440032a0b4009905ba0063
:1004c000e284440032a0b4009906ba00e2844400f9
:1004d00032a0b4000006eb00476fde00fd07b2005b
:1004e000636ce10003003a00ebff07000000eb0043
:1004f0000a003700606ce10004003a00005deb0088
:100500008b05e900fdff3e00040037006168e10053
:10051000010032000086eb000b00070019c7ba008b
:100520001905ba000e04e00003003a000a00e000da
:10053000e0ff3a0000000600fe07b2009e018800be
:100540008a047800f5ff3700395dba008b05e900b1
:100550000c003200295dba008b05e900080032006a
:100560000c00e00003003a00e284440032a0b40032
:10057000f5ff370019ddba008b05e900faff3a00f4
:100580008904e800e184440032a0b40000000600c1
:100590005a16040000000000d017040000000000fc
:1005a0009618040000000000581904000000000024
:1005b0007019040000000000941b040000000000fb
:1005c000a81b0400000000003600f800809fbe0059
:1005d000829fbe00849fbe00869fbe000000fa007e
:1005e0008460a90090c480000000e0000200320096
:1005f00090c48000000001000080fa004f03be009c
:100600004f02be004f01be004f00be003600f90091
:10061000004006003600f800809fbe00829fbe00aa
:10062000849fbe00869fbe000000fa0084e0a900ff
:10063000a0c480000000e00002003200a0c48000de
:10064000000001000080fa004f03be004f02be0010
:100650004f01be004f00be003600f900004006000a
:100660003600f800809fbe00829fbe00849fbe00bf
:10067000869fbe000000fa008500a900b0c480007b
:100680000000e00002003200b0c480000000010061
:100690000080fa004f03be004f02be004f01be00b3
:1006a0004f00be003600f900004006003600f8009a
:1006b000809fbe00829fbe00849fbe00869fbe00ba
:1006c0000000fa008760a900c0c480000000e000bc
:1006d00002003200c0c48000000001000080fa0067
:1006e0004f03be004f02be004f01be004f00be00d0
:1006f0003600f900004006003600f800809fbe007a
:10070000829fbe00849fbe00869fbe000000fa004c
:100710008780a900d0c480000000e0000200320001
:10072000d0c48000000001000080fa004f03be002a
:100730004f02be004f01be004f00be003600f90060
:1007400000400600809fbe00821f78000000fa0073
:1007500085a0a900aac8bf000080fb000118800086
:1007600000014000c089210000004100010878001c
:10077000aac8bf00e34f500004003e00aac8bf0053
:100780000040e800aae8b70003003700aa68ef00bd
:1007900010c0b300abe8b7000080fa004f0178004a
:1007a0004f00be00004006003600f800809fbe00eb
:1007b000829fbe00849fbe00869fbe000200fa009a
:1007c0008560a9000400370030118000004f7800d8
:1007d0001e80fb00df100700101180006100600028
:1007e0000000e000f8ff3a000080fa004f03be006e
:1007f0004f02be004f01be004f00be003600f900a0
:1008000000400600801f78000000fa008c20a9003c
:1008100010118000680060000000e000010032005c
:100820002262a90010118000640060000000e00056
:10083000010032002242a900101180006200600015
:100840000000e000010032002222a9000080fa002e
:100850004f007800004006003600f800809fbe0080
:10086000829fbe00849fbe00869fbe000000fa00eb
:100870008580a900091b0700e14f500002003a00e3
:10088000101b0700010037007468ef000080fa00b9
:100890004f03be004f02be004f01be004f00be001e
:1008a0003600f900004006003600f800809fbe00c8
:1008b000829fbe00849fbe00869fbe000000fa009b
:1008c0008620a900411080000040200000806000c8
:1008d0000000e000230032008ac8bf00e14f500052
:1008e00020003a0007e2a900401680004800de0020
:1008f000614060000080fb00610060004800dd0096
:1009000042168000f1ef2f008100610001007000ad
:1009100040168800cd02a800401680004900de0085
:10092000614060000080fb00610060004900dd0064
:1009300042168000f1df2f0081006100010070008d
:1009400040168800cd22a8000942a900000000003e
:100950008ac8bf000004e000fdff3a000602a800bc
:100960002c0037004110800000082000008060004b
:100970000000e0000200320008e2a9002500370074
:100980004110800000042000008060000000e000b2
:100990000200320008c2a9001e0037008ac8bf004a
:1009a0000080fb00e20f50000f003200e20f500009
:1009b00003003c00e10f5000060032001300370036
:1009c000e30f50000a003200e40f50000d00320027
:1009d0000e0037008b68ef0020c0b3008ae8b70034
:1009e000151707000b003700131707000900370021
:1009f0008b68ef0020c0b3008ae8b7000e1707002d
:100a0000040037008a68ef00020037008a68ef00b0
:100a1000000000000080fa004f03be004f02be003d
:100a20004f01be004f00be003600f9000040060036
:100a30000040da000000fe000000050003f0a20004
:100a4000889fbe008a9fbe008c1f78002a01070085
:100a5000310133006450e1004f0032006420e100b6
:100a60005200320003826c0007003b000905d000f1
:100a70000306d000820f54000c065d00020039000e
:100a80000200320089017800030678008582550053
:100a900004003d000003fd008103fd008502ea0023
:100aa0008b854200840f720002003b006000100042
:100ab000e08018006011b8000005eb007a28e10022
:100ac0000a00390006007800c75ddd00f707b200b4
:100ad000878075002d003700828171000a0178003f
:100ae000610560008180d1000080d3008502e900ab
:100af000f9ff3b00060440008784480002003b00e9
:100b000060041400e0841c000988a3000700320080
:100b10008a81710082817100610164008904d100c1
:100b20000884d3008b05e800170037000978a3007c
:100b300013003a000b00e000130034008b05e900bd
:100b40000804440089844c000a4474000978a30016
:100b50000d003a000b00e000070034008b05e900af
:100b60000804440089844c0001003a000b00200076
:100b70000978a300f7ff32000001eb000200370004
:100b8000828171000a017800a00007000cf0a70024
:100b900001f0a000e90037006420e10002003a0003
:100ba000838f6c00e90033000801be000200be0024
:100bb000e2003700889fbe008a9fbe008c1f78002d
:100bc000cd000700d400330003866c006450e100c0
:100bd0002e0032006420e100330032006150e10059
:100be0002f0032006120e100310032008585550080
:100bf000eb07b000090020000804200005003700c2
:100c00000804440089844c000a00310006034300b4
:100c100087834b000001530081815b00f8ff3300a4
:100c20000203be000800a0000804440089844c00b0
:100c3000f6ff3900c639dd00830173000100320080
:100c4000130020008904d1000884d3000998a30070
:100c5000050032000800a7000300a0008904d100ad
:100c60000884d3008b05e8008904d1000884d300f0
:100c70000001eb000281d2006400070001f0a10036
:100c80000cf0a70001f0a000ac0037006420e100e8
:100c9000ae0032000801be000200be00f7ff3700c0
:100ca0006120e100a90032006000b800f3ff3700c6
:100cb0000000200001f82700f0ff3700839f680044
:100cc0000100e00002003d0060001000e08018001c
:100cd0000300e00002003d0060011100e081190006
:100ce000060107004f00e00002003b00600010001a
:100cf000e080180000000600140020003a023700cf
:100d0000f4ff2f00380237000001be006500070025
:100d10000470a70003f0a1006509b10016003200bd
:100d20000d0035006828e10006003500f0ff2f00b7
:100d3000f1ff27000300e00013003b000100280042
:100d40000000050000004000818048008502e900a5
:100d5000fcff3a0008003700f88f420002003c0018
:100d60008000eb00000005008100d1000080d3006e
:100d70008502e800fcff3a000300e00002003b00af
:100d800060001000e0801800000006000001be00b6
:100d9000440007000470a70003f0a10003f8a300bb
:100da00013003a006509b100100032000900350057
:100db0006928e1000200350001002800000005005c
:100dc00000004000818048008502e900fcff3a00f5
:100dd00000000600f88f4200050035008100d100b8
:100de0000080d3008502e800fcff3a000000060006
:100df0008000eb00000005004f89de0082017800d2
:100e0000140237006011b800220237008100200070
:100e1000618055000b003d000b00200061fe2f009b
:100e20000100e1001d003400828171006101640055
:100e30008904d1000884d3000000e800faff3a00da
:100e40007100200061006400030070000200600077
:100e50000900320061044400e0844c000988a500c8
:100e6000050032008b05e8006808e10002003a0046
:100e70008904d1000884d300f20f20000258e10059
:100e800005003d00c75ddd00f907b20089807500ef
:100e900008007800000006000bf827008b0078009f
:100ea00000000500c70ade00f107b200f50fb2002e
:100eb00008003200e1cf4200020032000170a000c1
:100ec00024000500810f70000100320004080500b5
:100ed00044000500810f700002003a001400050074
:100ee0008502e9000000400081c04800fcff3b0093
:100ef0000170a000240005000004be00e9ff070007
:100f00000003be000405be000200be00e5ff0700ae
:100f1000844f7500000006000200be006450e1002e
:100f2000050036006420e100020036000968a300d5
:100f300001003a000800be000160a0004f067800e2
:100f40004f05be004f04be0000000600f0ff2f005a
:100f5000f1ff2700f9ff3700889fbe008a9fbe007f
:100f60008c1f7800e4ff0700ebff330003866c0062
:100f70006450e100240032006420e10027003200c8
:100f80006150e100220032006120e10021003200c6
:100f90008b854200eb07b1000134b800003ab8007d
:100fa0000804420089844a00013ab8000030b800c1
:100fb0008880400009014a0004003300000040001e
:100fc00081804800020149008b05e900c909dd0064
:100fd000830170000100320013002000c814de00fd
:100fe0004814dd004709de001200b200c808de0028
:100ff0000884700085ff070001f0a1000cf0a70035
:1010000001f0a000cdff37006120e100cfff3200ea
:101010000801be000200be00f7ff37006150e1008a
:10102000fcff3a00c9ff3700889fbe008a9fbe00c0
:101030008c1f78000004be009aff07000478a3000c
:1010400026003a006120e1002500320009f8a300e3
:1010500025003a006420e10021003200f507b100cc
:101060000508a30002003200000040008180480013
:101070006044b8000310200002002000000040007f
:10108000818048000805440089854c000a0541001c
:101090008b8549000a0550008b85580003003300fa
:1010a0000a00be0002047400838474008301d1002e
:1010b0000281d300830f7100f0ff3a008904d10050
:1010c0000884d3006001490082017800c1adde00d0
:1010d000fb07b0004dff070098ff37000960a00034
:1010e0000800be0095ff370012022000624588000c
:1010f000f0ff2f00f1ff270090ff37006022b800bb
:10110000060220000000d0008180d2000482d200bc
:101110008582d2000000a0000202520083825a00a1
:10112000030031000202420083824a000000a10055
:101130000603e900f3ff3a0000000600889fbe00a6
:101140008a9fbe0030044200b0844a0030054b0044
:1011500090854b006000b1000898be000a90be0068
:101160000440e10005c8e10006d0e10007d8e10035
:1011700002003100680040001008e8004f05be0082
:101180004f04be0000000600889fbe008a9fbe007c
:101190003004be002005be000418540005985c0011
:1011a00006185d0007985d00110020000440e10072
:1011b00005c8e10006d0e10007d8e10001003900d0
:1011c0008000eb00108810004f05be004f04be00e9
:1011d000000006001200fa00889fbe008a9fbe0031
:1011e0008c9fbe00e0b79f00f1b79f0082bf9f00b9
:1011f00093bf9f000605be000404be000000eb0084
:10120000d0b79f00c0b79f00b0b79f00a0b79f00a6
:1012100090b79f000006eb005fb19700cfb097003a
:10122000820141003fb097000200e00004003d0051
:10123000370007007e805700c0ff0700030037001b
:10124000330007007e805700cfff0700dfb697000e
:101250000d00e0000c0035006fb29700ffb2970060
:101260000fbb97009fbb97001000200001002000db
:101270006011b800000272008182720002037300e4
:10128000838373001b0007000c06e80001042000a4
:10129000810f5600e0ff3a000d00e00004003d0021
:1012a0000802be000a03be007e805700a3ff0700ad
:1012b0005fa897000000e00005003a001fb2970009
:1012c000afb297003fb39700cfb397000900070074
:1012d0006fb09700ffb097000fb997009fb99700c4
:1012e0004f06be004f05be004f04be000080fa004e
:1012f000000006000100070000000600a4b79f00e0
:10130000b5b79f00c6b79f00d7b79f000000060083
:101310004f09de0082817100b3b79f004f01de00ec
:101320008180400082807000a1b79f008fb097003d
:101330004f09de00000040000200700090b79f00df
:101340007fa897004f01de008180400082807000fe
:1013500081b79f000d0007004f3ade0000004000fb
:1013600004007000f0af9f00080007000402420074
:1013700085824a0006034b0087834b00dfff07008e
:101380000802be000a03be00000006002fb297004c
:10139000bfb297004fb39700dfb39700000006007d
:1013a000881f780018002000881f780089ff070038
:1013b0008f87e9004f04780000000600801feb00d3
:1013c00084ff07008f87e90000000600889fbe00a9
:1013d0008a9fbe00e00f5000e08f5800e00f5900d8
:1013e000e08f59000c003d006044b8006055b80023
:1013f0000000540081805c0002015d0083815d007b
:10140000180020001500070008003d001800070024
:101410000004eb00050037000004eb000f0007009c
:1014200002003d001200070018002000dcff07004a
:101430000800e000060032006022b8006033b80007
:101440000000520081805a0002015b0083815b0032
:101450004f05be004f04be0000000600e00f520022
:10146000e08f5a00e00f5b00e08f5b000000060099
:101470006044b8006055b8000402540085825c00e6
:1014800006035d0087835d0000000600889fbe00a4
:101490008a9fbe008c1f7800e00f5000e08f58003c
:1014a000e00f5900e08f59000d003d006044b80086
:1014b0006055b8000000540081805c0002015d00ae
:1014c00083815d001c0020000820e10009a8e100e4
:1014d0000ab0e1000bb8e1000d003d000800370044
:1014e0000006eb00e00f5200e08f5a00e00f5b00b7
:1014f000e08f5b0006003d006044b8006055b80016
:101500000402540085825c0006035d0087835d0051
:10151000aaff07000c00e000060032006022b800bd
:101520006033b8000000520081805a0002015b0065
:1015300083815b004f0678004f05be004f04be005c
:1015400000000600889fbe008a9fbe008c1f7800a6
:101550000006eb00e00f5000e08f5800e00f59004c
:10156000e08f590007003d006044b8006055b800a6
:101570000000540081805c0002015d0083815d00f9
:101580001c002000e00f5200e08f5a00e00f5b00cb
:10159000e08f5b0007003d006044b8006055b80074
:1015a0000402540085825c0006035d0087835d00b1
:1015b0000c00a200660007000c00e00006003200ec
:1015c0006022b8006033b8000000520081805a00e9
:1015d00002015b0083815b004f0678004f05be006f
:1015e0004f04be0000000600889fbe008a9fbe0018
:1015f000841f780040fe07004f0078001100330080
:10160000f0ff2f00838f6c0006003b00040565008f
:101610000a00a7000800370009f0a600100020000b
:1016200008003700820f5400838f5c0003003900ec
:101630001000200001003e000000200009f0a7007b
:101640000000ea004f05be004f04be000000e000ad
:1016500000000600881f7800030478000300e00003
:1016600007003d0060001000e080180060011900d4
:10167000e081190002003b0001f02d00030037005b
:101680000400070008f0a70001f0a0004f04780054
:1016900000000600889fbe008a9fbe000082700086
:1016a0000402710004827100260032000004be00b2
:1016b0000200be006011b8006b09200095022000f6
:1016c0000182cf000a0039000541b1000082cf003d
:1016d000070039000541b1000982cf00040039003c
:1016e0000541b1000882cf00010039000541b10079
:1016f00005425200120032000a003b008281710054
:10170000610164008100d1000080d3008984d3008e
:101710000884d3008b05e8000442e800f7ff3a0094
:10172000070037000804440089844c00000048008a
:10173000818048008b05e9000442e900f9ff3a0086
:10174000b2fd07004f05be004f04be0000000600ba
:10175000889fbe008a9fbe008c9fbe000404b80014
:101760000506b8008904460060854e000606b800ec
:101770000a054600e0854e000706b8008b054600c6
:10178000040eb800890446000a854e00e0854d002d
:10179000050eb8000a0546008b854e00060eb800ff
:1017a0008b0546000416b8000a0546008b854e00de
:1017b0000516b8008b054600041eb8008b054600d0
:1017c0000800be000a01be004f06be004f05be0065
:1017d0004f04be0000000600800078003104e000e5
:1017e000feff3a000080ea00008040000000060092
:020000040000fa
:1017f000d04000001806000000d00000612c00005e
:1018000007070000d05100002c070000d040000066
:0418100018060000b6
:020000040000fa
:101814001a00fa00889fbe00521a07004c190700ec
:101824008f1907000043eb0045c0b30014c0b30098
:10183400a165210002002000832c24000040eb005d
:10184400800c07000043eb0045c0b30014c0b30094
:10185400017d210002002000832c240010c0b3006d
:10186400780c07000043eb0045c0b30014c0b3007c
:1018740061892100020020006349240020c0b300d4
:10188400700c070016c0b30065c0b30014c0b300e9
:101894008195210002002000a347240030c0b3003a
:1018a400680c070016c0b30035c0b30014c0b30001
:1018b40001972100020020008324240040c0b300cb
:1018c400600c0700f1190700fa190700031a070052
:1018d40078160700d711070000a821006100200036
:1018e400491a070000902000d1032000461a07007f
:1018f400c4e2a800c542a800c422a9008025200093
:101904000100200070c0880081c088000000200011
:10191400a147240010c0880021c0880000002000d6
:10192400a147240090bf8800a1bf88006000b800d0
:1019340050c0880061c088006000b80030c08800d2
:1019440041c088006000b800e0c08800f1c0880091
:101954006000b80000c1880011c188006000b800b0
:1019640020c1880031c1880000002800214a2400d9
:10197400a0c08800b1c0880000002400c151240028
:1019840050bf880061bf8800a099290091f123000d
:1019940070bf880081bf880000482800e101200052
:1019a400e0c18800f1c1880020812100c1c0b300da
:1019b40001487800807d21008040eb0001487800d8
:1019c40000002000011f2c0030bf880041bf8800a8
:1019d40050168000700060000000e0001d003a0016
:1019e40090168000640060000000e00019003a00d6
:1019f4007668ef00400d2400818923002040880090
:101a04003140880055070700802520000100200090
:101a140070c0880081c0880000002800214a24008a
:101a2400e0438800f143880043b9210022c0b30099
:101a3400a12c200010c0b3001f0f070083ba21009f
:101a44000041eb00212d200020c0b3001a0f070035
:101a540013003700d01d2200518c23002040880041
:101a6400314088003d070700204e2000010020007f
:101a740070c0880081c0880043b9210022c0b3002f
:101a8400212d200010c0b3000b0f070083ba2100e2
:101a94000041eb00212d200020c0b300060f0700f9
:101aa4006266260063f62300000020000112240071
:101ab4008d13070050168000680060000000e000ed
:101ac40004003a006000b800e0c08800f1c088005b
:101ad400c4e2a800651907000004e00062003200b7
:101ae400661907005d190700100798001e00900092
:101af40010007800000f98001e0090000080e8009d
:101b040010007800100f98001e0090006400400040
:101b140010007800200f98001e009000660040001e
:101b240010007800300f98001e00900068004000fc
:101b340010007800400f98000e0890008000eb0021
:101b4400affc07003233230033a5230001fd070057
:101b5400f0be880001bf8800400a2700d1f92300a5
:101b64002007980031079800f0be800001bf800074
:101b7400a2702d0033da2300affb07004007980062
:101b84005107980010002000000f780018c0b3001f
:101b94006011b8004e009000de00900055fc070074
:101ba4000000e000010035000044eb000804e00000
:101bb400030032000080eb00000f780002003700c1
:101bc40010002000000f780018c0b3006011b800a6
:101bd4004e009000de00900048fc07000000e0008a
:101be40001003c000044eb000804e0000500320062
:101bf4004e009000de0090000001be008ffb070045
:101c0400050037004e009000de00900001f0a200b5
:101c14000001be0089fb07002e019000be01900068
:101c2400e3fb0700fffc07000004be001e00780071
:101c3400cf80de006ffc07000001be000800be007c
:101c4400c4fc07006007980071079800a2df2e000b
:101c5400b3a623006e009000fe009000bdfc0700b8
:101c6400d0bf8800e1bf8800140007008902070084
:101c7400fd0207006d030700dd0307008dff370039
:101c84000000fa003468ef0034c8bf0033e8b7003e
:101c940033c8bf0032e8b7002228ef000000eb0091
:101ca400eb0207000000eb005a0307000000eb0002
:101cb400c90307000080fa00000006005200fa0081
:101cc400889fbe008a9fbe008c1f78000f05780095
:101cd40010418000e50f5000fb013200e50f500079
:101ce40009003e00e10f500028003200e10f5000cf
:101cf4000e003900e20f50003d003200e30f5000a7
:101d0400500032005d023700e70f500081003200be
:101d1400e70f5000ff013900e80f50008a0032003d
:101d2400e90f50003c02320054023700c422a800dc
:101d340076c8bf000004e0000c00320032c8bf00c7
:101d44000004e0003c02320033c8bf000004e0009d
:101d54003b02320034c8bf000004e0003a02320003
:101d640010002000104188004402370032c8bf0030
:101d74000004e0003602320020002000b402070014
:101d840010002000104188003c02370088c8bf00c2
:101d94000004e0000a003200c422a80010c0b3000e
:101da40035e8b70020002000104188000040800082
:101db4001140800020418800314188000100370033
:101dc4003568ef0000842100104078000004e00032
:101dd40021023200900020001041880011c0b3009d
:101de4000040eb00c10a0700c422a8002302370008
:101df40076c8bf000004e000030032002000200089
:101e04009302070002003700400020009002070000
:101e140020002000ff020700200020006e030700be
:101e240010c0b30008e8b7000040800011408000f3
:101e34002041880031418800300020001041880092
:101e44000e023700b0bf8000c1bf8000cefb070088
:101e54000001be00204180003141800002014000a9
:101e6400838148000040800011408000800f5100b1
:101e7400818f590004003e00c4e2a900c542a900b4
:101e84007000200010418800f4be800005bf80006f
:101e940050bf800061bf800018c0b3000001be00c5
:101ea4000400be0095fb07000000e00001003d00b7
:101eb4000044eb000804e0000d003a00f4bf800089
:101ec40005c0800070bf800081bf800018c0b300cf
:101ed4000001be000400be0088fb07000000e00013
:101ee40001003d000044eb000804e0000200320061
:101ef400700020001041880088c8bf000004e00082
:101f0400d7013a001000200010418800c422a90023
:101f1400da013700600020004d0207006000200055
:101f2400bc020700600020002b0307000040800073
:101f34001140800020418800314188008000200049
:101f440010418800cd01370090bf8000a1bf800000
:101f54008dfb07000001be0020418000314180005c
:101f6400020140008381480000408000114080004d
:101f7400800f5100818f59004c013e006000b80071
:101f8400f0bf880001c088000868ef00504080005e
:101f940061408000500f9800610f980070408000ed
:101fa40081408000700f98000117980090408000d5
:101fb400a14080001017980021179800b0408000bd
:101fc400c14080003017980041179800d04080002d
:101fd400e14080005017980061179800f04080009d
:101fe4000141800070179800011f980009c8bf00c4
:101ff4000004e000a0003a007a0047004e120700f7
:102004003007980048120700400798003e009000ef
:10201400e10f50008a003a0010c0b30009e8b7008d
:102024000000eb00000f78000000eb00000f7800c8
:102034007f0037000f00780080057800a91307009f
:10204400500798005e0090000000e8006300b900ab
:10205400000078008000e900610798000000e800b3
:102064000000e8000000d100800040000f0078006c
:10207400818747000000e8000000d1000000400014
:10208400700798004e009000804078007e00900019
:10209400014878005e009000804078007e00900047
:1020a400114098001e007800804078007e00900067
:1020b400214098000000eb00100798000000eb009e
:1020c400100798004c0037001e0090000000e80044
:1020d4006300b900000478001e0078006600b900af
:1020e400800078001e00900000804000c200dd00e7
:1020f400801b2100008040001000be0022fb07006e
:10210400000078004800de00804078007e009000e7
:1021140001707c001e0090006300b900000078008c
:10212400640440001e0078006600b9008000780056
:102134001e00900000804000c200dd00801b2100d2
:10214400008040001000be000ffb07000000780074
:10215400804078007e00900001707c001e0090009a
:102164006300b90000007800650640001e00780096
:102174006600b900800078001e00900000804000d6
:10218400c200dd00801b2100008040001004be005e
:102194001e0078006600b900800078001e009000e0
:1021a40000804000c200dd00801b21000080400050
:1021b4001000be00f4fa0700000078008000eb0075
:1021c4000ffb07000001be000800be001afa07005a
:1021d40002002000832c24005efb0700eafa0700bb
:1021e400804078007e00900001707e001e00900008
:1021f4000000e800100798009e0090005e00900028
:10220400808f5000b0ff35007e0190005e0090008a
:102214000000e8006300b900000078008000780046
:10222400900220008f0c07008b0778001e0fe80037
:102234004e0090009e007800808f50007dff350096
:102244004e00900000407800207798000040eb009a
:102254003077980010c0b300407798002003200026
:102264000e004000000178000101200080022000df
:102274007c0c0700790037000f0078008005780097
:1022840018130700000f98000e0890006300b900af
:10229400000078000000e8008000e900110f9800b9
:1022a4000000e8000000e8000000d10080004000c9
:1022b4000f007800818747000000e8000000d1008b
:1022c40000004000200f98000e0890008040780025
:1022d4002e089000014878000000eb0020079800c9
:1022e4000000eb00200798003c0037002e0090000f
:1022f4006300b900000078000004e8002e0090009c
:102304004200dd00fa004700008040001000be00db
:102314009dfa0700000078004800de008040780045
:102324002e08900001707c002e0090006300b9001c
:10233400000078000084e8002e0090004200dd00d8
:10234400fa004700008040001000be008efa07002b
:1023540000007800804078002e08900001707c0016
:102364002e0090000000e8006300b9000006780029
:102374002e0090004200dd00fa004700008040007b
:102384001004be002e0090004200dd00fa00470059
:10239400008040001000be007bfa070000007800b7
:1023a4008000eb0096fa07000001be000800be00a2
:1023b400a1f9070002002000832c2400e5fa07009d
:1023c40071fa0700804078002e08900001707e00aa
:1023d4002e0090000000e80020079800ae00900056
:1023e4000e089000808f5000c0ff35002e09900029
:1023f4000e0890006300b900000078000000e800b7
:1024040080007800a0022000160c07007a00470024
:1024140019120700300f980043110700400f98006d
:102424004e0890000040780020c798003e089000b5
:102434000040780030c798000040eb0040c7980087
:10244400200420000e00400000017800010120005b
:1024540080022000030c07008b0778006000b8009e
:1024640050408800614088006000b80070408800d7
:10247400814088006000b80090408800a140880036
:102484006000b800b0408800c14088006000b80017
:10249400d0408800e14088006000b800f040880027
:1024a40001418800500020001041880088c8bf0006
:1024b4000004e0006c003a00100020001041880085
:1024c400c422a9006d00370076c8bf000004e000f4
:1024d4000300320040002000dd0007000200370046
:1024e40020002000da000700400020004901070016
:1024f40040002000b8010700004080001140800027
:10250400204188003141880060002000104188008b
:102514005a003700807d2100104078000004e0005c
:102524002200320010c0800021c0800016fa07008b
:102534008101d1000081d30020418000314180001d
:102544000201400083814800004080001140800067
:10255400800f5100818f590028003e00f4be800096
:1025640005bf800030bf800041bf800018c0b300a9
:102574000001be000400be00def907000000e00018
:10258400010035000044eb000804e0001b003200a9
:1025940000408000114080002041880031418800c3
:1025a40020002000104188001400370010c0800073
:1025b40021c08000f4f907000001be002041800022
:1025c40031418000020140008381480000408000c6
:1025d40011408000800f5100818f590007003e0098
:1025e400c542a800004080001140800020418800be
:1025f40031418800200020001041880088c8bf00b5
:102604000004e0001a003a00100020001041880085
:10261400c422a9001900370000842100104078006a
:102624000004e00014003a0010002000104188006b
:10263400c422a90011003700000000000f00370079
:10264400000000000d003700000000000b00370000
:1026540000000000090037000000000007003700f8
:1026640000000000050037000000000003003700f0
:102674000000000001003700000000008a07780015
:102684004f0678004f05be004f04be000080fa00dc
:10269400000006000000fa00889fbe00b0418000e0
:1026a400e30f500031003200e30f500005003e00fc
:1026b400e10f500017003200e10f500021003e00ee
:1026c40007003700e50f50003e003200e50f5000d0
:1026d40030003900e60f5000500032005900370036
:1026e400e0438000f143800002002000a34724005f
:1026f400d1f807000002be0002002500337c2c0044
:1027040010c0b300c904070010002000b0418800c5
:102714004c00370050168000680060000000e000a4
:1027240043003a0010c0b300540507006000b8002d
:10273400e0c08800f1c0880040002000b04188005b
:1027440040003700a0c08000b1c080000002be007d
:102754000200200083242c0010c0b300b30407003f
:1027640030002000b0418800360037005016800049
:10277400680060000000e0002f003a006000b8002c
:10278400e0c08800f1c0880060002000b0418800eb
:102794002c003700e8438000f943800070c08000bb
:1027a40081c0800093f907000802be000001be004a
:1027b40010c0b3009d04070050002000b041880001
:1027c4002000370050168000640060000000e00024
:1027d4000d003200e4c08000f5c0800040c18000dc
:1027e40051c1800018c0b3000001be000400be0047
:1027f40042f907000000e00001003d000044eb0046
:102804000804e0000e00320060002000b04188009f
:1028140010c0b30032e8b7000a00370010c0b3009c
:102824001605070070002000b0418800050037003d
:102834000000000003003700000000000100370022
:10284400000000004f04be000080fa0000000600f3
:102854000200fa00000f78009e007800b141880061
:102864000080fa00000006000000fa00889fbe0005
:10287400c0418000e30f500031003200e30f5000ec
:1028840005003e00e10f500017003200e10f500038
:1028940021003e0007003700e50f50003e003200e3
:1028a400e50f500030003900e60f50004c003200b4
:1028b40055003700e0438000f1438000020020000f
:1028c400a34724005cf807000002be0002002500b4
:1028d400337c2c0020c0b3005404070010002000f7
:1028e400c0418800480037009016800062006000f4
:1028f4000000e0003f003a0020c0b300df040700fe
:102904006000b80000c1880011c1880040002000a8
:10291400c04188003c003700a0c08000b1c08000e6
:102924000002be000200200083242c0020c0b3005b
:102934003e04070030002000c04188003200370008
:1029440090168000620060000000e0002b003a0056
:102954006000b80000c1880011c188006000200038
:10296400c041880028003700e8438000f943800014
:1029740070c0800081c080001ef907000802be00fc
:102984000001be0020c0b30028040700500020004e
:10299400c04188001c00370004c1800015c18000bc
:1029a40060c1800071c1800018c0b3000001be0086
:1029b4000400be00d1f807000000e00001003d0063
:1029c4000044eb000804e0000e0032006000200028
:1029d400c041880010c0b30033e8b7000a003700d4
:1029e40020c0b300a504070070002000c041880087
:1029f400050037000000000003003700000000005d
:102a040001003700000000004f04be000080fa00ff
:102a1400000006000200fa00000f78009e00780013
:102a2400c14188000080fa00000006000000fa009e
:102a3400889fbe00d0418000e30f50003100320077
:102a4400e30f500005003e00e10f50001700320074
:102a5400e10f500021003e0007003700e50f500051
:102a64003e003200e50f500030003900e60f500000
:102a74004c00320055003700e0438000f1438000f1
:102a840002002000a3472400ebf707000002be0069
:102a940002002500337c2c0030c0b300e3030700a0
:102aa40010002000d04188004800370050168000f4
:102ab400700060000000e0003f003a0030c0b30046
:102ac4006e0407006000b80020c1880031c188008e
:102ad40040002000d04188003c003700a0c08000a6
:102ae400b1c080000002be000200200083242c003c
:102af40030c0b300cd03070030002000d04188006f
:102b04003200370050168000700060000000e000c2
:102b14002b003a006000b80020c1880031c1880051
:102b240060002000d041880028003700e84380007e
:102b3400f943800070c0800081c08000adf80700b8
:102b44000802be000001be0030c0b300b703070096
:102b540050002000d04188001c00370024c18000b0
:102b640035c1800080c1800091c1800018c0b300cd
:102b74000001be000400be0060f807000000e00091
:102b840001003d000044eb000804e0000e003200a8
:102b940060002000d041880010c0b30034e8b700c2
:102ba4000a00370030c0b30034040700700020006e
:102bb400d041880005003700000000000300370002
:102bc4000000000001003700000000004f04be00b8
:102bd4000080fa00000006000200fa00000f7800ee
:102be4009e007800d14188000080fa0000000600b1
:102bf4000000fa0050168000640060000000e0004d
:102c040008003a003cc8bf000004e00005003a0098
:102c140010c0b3003ce8b70010c0b3004d0b070070
:102c24000a00370050168000640060000000e000d5
:102c3400060032003cc8bf00e14f500003003a00d8
:102c44003c68ef0010c0b300850b070090168000ad
:102c5400610060000000e00008003a003dc8bf00c9
:102c64000004e00005003a0010c0b3003de8b700de
:102c740020c0b300370b07000a003700901680000d
:102c8400610060000000e000060032003dc8bf00a3
:102c9400e14f500003003a003d68ef0020c0b3004c
:102ca4006f0b0700d20b07000080fa00000006003b
:102cb4000000fa00881f780076c8bf000004e00016
:102cc4005a00320044c1800055c18000e0c0800039
:102cd400f1c0800018c0b3000001be000400be00b3
:102ce40006f807000000e00001003c000044eb008f
:102cf4000804e0001e003200c522a900a1168000cd
:102d0400000420000080600000f0a7000000ea003a
:102d14000000e9004f00de00004078000080fb0066
:102d2400610060004600dd00a2168000f1fb2f0068
:102d34008100610001007000a0168800a1168000c7
:102d440000042000008060000000e00090003a00d1
:102d5400e0c08000f1c080000200200003f82300de
:102d640036f70700e0c08800f1c08800880037000b
:102d740044c1800055c18000e0c08000f1c08000e3
:102d840018c0b3000001be000400be00d9f707005c
:102d94000000e000010035000044eb000804e000fe
:102da4001e003200c522a800a116800000042000e5
:102db4000080600000f0a7000000ea000000e900c5
:102dc4004f00de00004078000080fb0061006000de
:102dd4004600dd00a2168000f1fb2f008100610097
:102de40001007000a0168800a116800000042000d5
:102df400008060000000e00065003a00e0c0800050
:102e0400f1c080000200200003f823000af7070045
:102e1400e0c08800f1c088005d0037008040eb000e
:102e24000040eb00b10607005900370044c18000a0
:102e340055c18000e0c08000f1c0800018c0b3001c
:102e44000001be000400be00acf707000000e00073
:102e540001003c000044eb000804e0001e003200c6
:102e6400c522a900a1168000000420000080600093
:102e740000f0a7000000ea000000e9004f00de00b7
:102e8400004078000080fb00610060004600dd0027
:102e9400a2168000f1fb2f00810061000100700088
:102ea400a0168800a11680000004200000806000a5
:102eb4000000e00036003a00e0c08000f1c080006d
:102ec4000200200003f82300dcf60700e0c08800bd
:102ed400f1c088002e00370044c1800055c1800035
:102ee400e0c08000f1c0800018c0b3000001be0043
:102ef4000400be007ff707000000e0000100350079
:102f04000044eb000804e0001e003200c522a800c3
:102f1400a1168000000420000080600000f0a700db
:102f24000000ea000000e9004f00de0000407800e5
:102f34000080fb00610060004600dd00a2168000f6
:102f4400f1fb2f008100610001007000a0168800d1
:102f5400a116800000042000008060000000e00052
:102f64000b003a00e0c08000f1c0800002002000a5
:102f740003f82300b0f60700e0c08800f1c0880021
:102f8400030037008040eb000040eb0057060700c9
:102f94004f0478000080fa00000006000000fa00e8
:102fa400881f780076c8bf000004e0005b00320090
:102fb40064c1800075c1800000c1800011c180001f
:102fc40018c0b3000001be000400be004bf70700a8
:102fd4000000e00001003c000044eb000804e000b5
:102fe4001c003200cca2a900a0168000680060007a
:102ff40000f0a7000000ea000000e9004f00de0036
:10300400004078000080fb00610060004300dd00a8
:10301400a216800071ff2f00810061000100700082
:10302400a0168800a0168000680060000000e00080
:1030340034003a0000c1800011c180000200200069
:1030440003f823007df6070000c1880011c1880041
:103054002c00370064c1800075c1800000c180006d
:1030640011c1800018c0b3000001be000400be00fe
:1030740020f707000000e000010035000044eb00e9
:103084000804e0001c003200cca2a800a0168000b6
:103094006800600000f0a7000000ea000000e900fa
:1030a4004f00de00004078000080fb0061006000fb
:1030b4004300dd00a216800071ff2f008100610033
:1030c40001007000a0168800a0168000680060004f
:1030d4000000e0000b003a0000c1800011c1800034
:1030e4000200200003f8230053f6070000c1880003
:1030f40011c18800030037008040eb0010c0b3000a
:10310400fa05070040418000514180006100400001
:10311400e080480040418800514188004f04780015
:103124000080fa00000006000000fa00881f780002
:1031340076c8bf000004e0005900320084c180005a
:1031440095c1800020c1800031c1800018c0b30047
:103154000001be000400be00e8f607000000e00025
:1031640001003c000044eb000804e0001e003200b3
:10317400cde2a900611680000000240000806000f8
:1031840000f0a7000000ea000000e9004f00de00a4
:10319400004078000080fb00610060004e00dd000c
:1031a40062168000f1ff2b008100610001007000b5
:1031b4006016880061168000000024000080600012
:1031c4000000e00036003a0020c1800031c18000d8
:1031d4000200200003f8230018f6070020c188002d
:1031e40031c188002e00370084c1800095c1800061
:1031f40020c1800031c1800018c0b3000001be00ae
:103204000400be00bbf607000000e000010035002a
:103214000044eb000804e0001e003200cde2a800e8
:1032240061168000000024000080600000f0a70008
:103234000000ea000000e9004f00de0000407800d2
:103244000080fb00610060004e00dd00621680001b
:10325400f1ff2b00810061000100700060168800fe
:103264006116800000002400008060000000e0007f
:103274000b003a0020c1800031c180000200200010
:1032840003f82300ecf5070020c1880031c1880051
:10329400030037008040eb0020c0b3009305070013
:1032a4004f0478000080fa00000006000000fa00d5
:1032b400004080001140800061004000e080480030
:1032c4000040880011408800804480000000e8002d
:1032d400804488000080fa00000006001e00fa0006
:1032e400889fbe0000408000114080004808de0036
:1032f40000407800204f980000408000114080007a
:103304004008de0000407800304f98000040800004
:10331400114080004809dd004800de000000710013
:10332400c808de0000407800404f9800004080004c
:103334001140800000407800504f9800f0bf80009a
:1033440001c080006a0247000001be004100200065
:10335400040078000d120700f0be800001bf800059
:103364006a0247000001be008100200004007800ca
:1033740006120700e0c08000f1c080006a02470026
:103384000001be00c100200004007800ff11070006
:103394006a00470000017800010120004006200077
:1033a4003008070008c8bf000004e0004a003200eb
:1033b40090408000a1408000a2702d0033ca2300f9
:1033c4009ef5070090408800a1408800f4bf80006b
:1033d40005c08000504080006140800018c0b300e8
:1033e4000001be000400be0044f607000000e00037
:1033f40001003c000044eb000804e000040032003b
:10340400f0bf800001c08000504088006140880007
:10341400f0bf800001c08000a2702d0033ca2300d9
:10342400ccf607000002be0070408000814080009e
:103434000001be000400be0080f507007040880053
:1034440081408800f040800001418000a2702d007e
:1034540033ca230079f50700f04088000141880051
:10346400f4be800005bf8000b0408000c1408000f1
:1034740018c0b3000001be000400be001ff6070020
:103484000000e00001003c000044eb000804e00000
:1034940004003200f0be800001bf8000b04088000c
:1034a400c1408800f0be800001bf8000a2702d00e2
:1034b40033ca2300a7f607000002be00d0408000f4
:1034c400e14080000001be000400be005bf507007f
:1034d400d0408800e1408800fb0047007a004700a4
:1034e40024002000810178000001eb0080007800b6
:1034f40000c5b300bb0b07004e5890008080fb0052
:103504003e5890000081fb00f003200000006100a1
:103514004800dd008080400060a02f000080400053
:10352400cf80de0033f6070062462f0033e8230025
:1035340088f60700f0be880001bf88003fc8bf00be
:103544008080fb008100ea00cf08de008140780023
:103554000040e8003fe8b7000104e0005e003200ec
:103564003f68ef0003110700d0be8800e1be880069
:1035740010c0b300004f7800d2be8000e3be8000cc
:10358400120798002307980018c0b3006011b80010
:103594001e009000ae009000d6f507000000e00089
:1035a400010035000044eb000804e0000300320091
:1035b40000c0eb00004f78000200370010c0b300d9
:1035c400004f780018c0b3006011b8001e009000ce
:1035d400ae009000c9f507000000e00001003c00c7
:1035e4000044eb000804e000080032001e009000d4
:1035f400ae0090000001be0010f50700420a27004b
:10360400d3f923006af50700080037001e00900074
:10361400ae00900001f0a2000001be0007f5070013
:10362400420a2700d3f9230061f507007df607005d
:103634000004be001e00fb00cf80de00edf5070095
:103644000001be000800be0042f6070030079800e3
:103654004107980020408000314080003e019000e6
:10366400ce0190003bf60700d0bf8800e1bf880080
:1036740018c0b300a2702d0033c223003e00900096
:10368400ce0090009df507000000e00001003d0021
:103694000044eb000804e0000f003200f8bf800093
:1036a40009c08000d0bf8000e1bf8000020020007c
:1036b400a347240027f6070002002000831c2400ef
:1036c4003bf507000001be000800be00dbf4070064
:1036d400f0bf880001c088003ec8bf008080fb00a6
:1036e4008100ea00cf08de00814078000040e80055
:1036f4003ee8b7000104e00007003200704180009a
:10370400814180006011b800ccf40700704188004a
:10371400814188003e68ef004f04be000080fa003b
:10372400000006000000fa0035c8bf000004e000f5
:1037340003003a0010c0b30088e8b7000100370066
:103744008868ef000080fa00000006000000fa001c
:103754004bf907000080fa00000006000800fa0098
:10376400889fbe0020812100104078000080fb006b
:103774008000eb000001be0000a62e000100200026
:103784004df507009bf50700008fbe006000b800f0
:10379400200798003107980076c8bf000004e000b5
:1037a40052003a0070c0800081c0800091f507008b
:1037b4000004be00d2cc2c00c3e423001e00be00d3
:1037c400e4f5070002002000a3472400f8f40700f2
:1037d4000001be000800be00f5f4070020079800b1
:1037e4003107980070c0800081c080000000400054
:1037f400818048007ff507000004be00d2cc2c0075
:10380400c3e423001e00be00d2f50700020020001e
:10381400a3472400e6f407000001be000800be0030
:10382400e3f407000002be00e0438000f14380009f
:1038340018c0b3000001be000400be002df507004f
:103844000000e000010035000044eb000804e00043
:103854001100320070c0800081c080000000400070
:103864008180480063f507000004be00d2cc2c0020
:10387400c3e423001e00be00b6f5070002002000ca
:10388400a3472400caf407000001be000800be00dc
:10389400c7f4070002003700e0438000f1438000d2
:1038a400a0c08800b1c08800d2cc2c00c3e423009f
:1038b4001e00be00a7f50700b0bf8800c1bf880086
:1038c40002002000a34724001e00be00a1f507004b
:1038d400d2cc2c00c3e423009ef507002af5070090
:1038e400e0c18800f1c188004100370070c0800049
:1038f40081c0800000004000818048003df5070041
:103904000004be00d2cc2c00c3e423001e00be0081
:1039140090f5070002002000a3472400a4f4070048
:103924000001be000800be00a1f407000002be00b2
:10393400e0438000f143800018c0b3000001be00e2
:103944000400be00ebf407000000e00001003500b5
:103954000044eb000804e0001100320070c0800055
:1039640081c08000000040008180480021f50700ec
:103974000004be00d2cc2c00c3e423001e00be0011
:1039840074f5070002002000a347240088f4070010
:103994000001be000800be0085f4070002003700e5
:1039a400e0438000f1438000a0c08800b1c08800db
:1039b400d2cc2c00c3e423001e00be0065f5070032
:1039c400b0bf8800c1bf880002002000a3472400c4
:1039d4001e00be005ff50700d2cc2c00c3e4230018
:1039e4005cf50700e8f40700e0c18800f1c1880035
:1039f400a299290093e923001e00be0055f5070093
:103a040090bf8800a1bf88000200200003f02300bb
:103a14001e00be004ff5070010c0880021c08800ba
:103a24004f04be000080fa00000006000a00fa00fd
:103a3400004f780012079800230798003407980075
:103a4400450798001e80fb00e30f5000240032005d
:103a5400e30f500005003c00e10f50000800320065
:103a6400e20f50001200320041003700e40f500012
:103a740027003200e50f5000310032003c003700cf
:103a84003e019000ce0190000040eb00a200070030
:103a94001e019000ae01900042c1880053c188000d
:103aa40011c0b3000040eb00900307003000370062
:103ab4003e019000ce01900010c0b30096000700b4
:103ac4001e019000ae01900062c1880073c188009d
:103ad40011c0b30010c0b3008403070024003700f2
:103ae4003e019000ce01900020c0b3008a00070080
:103af4001e019000ae01900082c1880093c188002d
:103b040011c0b30020c0b3007803070018003700c9
:103b14003e019000ce01900030c0b3007e0007004b
:103b24001e019000ae019000a2c18800b3c18800bc
:103b340011c0b30030c0b3006c0307000c003700a1
:103b44003e019000ce01900040c0b3007200070017
:103b54001e019000ae019000c2c18800d3c188004c
:103b640011c0b30040c0b3006003070000000000b0
:103b74000080fa00000006000400fa00004f7800fc
:103b8400110798001e80fb00e30f50001e00320056
:103b9400e30f500005003c00e10f50000800320024
:103ba400e20f50000f00320032003700e40f5000e3
:103bb4001e003200e50f5000250032002d003700b2
:103bc40011c0b3000040eb00480307001e00900042
:103bd4008000eb008af4070040c1880051c18800ce
:103be4002400370011c0b30010c0b3003f03070026
:103bf4001e0090008000eb0081f4070060c1880083
:103c040071c188001b00370011c0b30020c0b3008d
:103c1400360307001e0090008000eb0078f40700d4
:103c240080c1880091c188001200370011c0b30020
:103c340030c0b3002d0307001e0090008000eb008d
:103c44006ff40700a0c18800b1c1880009003700e3
:103c540011c0b30040c0b300240307001e0090004d
:103c64008000eb0066f40700c0c18800d1c1880061
:103c7400000000000080fa00000006000200fa00c4
:103c8400004f78001e80fb00e30f50001400320048
:103c9400e30f500005003c00e10f50000800320023
:103ca400e20f50000a00320019003700e40f500000
:103cb4000f003200e50f50001100320014003700ed
:103cc4008040eb000040eb000803070010003700c1
:103cd4008040eb0010c0b300040307000c00370061
:103ce4008040eb0020c0b300000307000800370049
:103cf4008040eb0030c0b300fc0207000400370032
:103d04008040eb0040c0b300f80207000000000050
:103d14000080fa00000006000600fa00881f780000
:103d2400004f780012079800230798001e80fb00bc
:103d3400e20f5000ea003200e20f500005003c00a0
:103d44000000e00008003200e10f5000750032006e
:103d540030023700e30f500050013200e40f5000ee
:103d6400bd0132002b02370021088000f0fc2f0037
:103d740000806000200888001e019000ae019000c1
:103d84000068290081c1240089f3070018c0b3002a
:103d940002f02f00f3772400d8f307000000e000be
:103da40001003c000044eb000804e0005400320031
:103db40021088000f0fc2f00008060000040a0007b
:103dc400200888001e019000ae01900000682900c0
:103dd40081c1240076f307000200200003102400b0
:103de40073f3070018c0b30002f02f00f377240028
:103df400c2f307000000e00001003c000044eb00b7
:103e04000804e0003200320021088000f0fc2f009a
:103e1400008060000050a000200888001e0190006f
:103e2400ae0190000068290081c1240060f30700fe
:103e340002002000032824005df3070018c0b3002b
:103e440002f02f00f3772400acf307000000e00039
:103e540001003c000044eb000804e00010003200c4
:103e64002108800000032000010070002008880061
:103e74001e019000ae0190000068290081c1240059
:103e84004bf30700020020000338240048f3070026
:103e94009cf307000000780010088800dd0137005b
:103ea4001e019000ae0190000068290081c1240029
:103eb4003ff3070002002000032824003cf307001e
:103ec40090f307000000780010088800d101370043
:103ed4001e019000ae0190000068290081c12400f9
:103ee40033f30700020020000310240030f307001e
:103ef40084f307000000780010088800c50137002b
:103f04001e019000ae0190000068290081c12400c8
:103f140027f307007bf307000000780010088800ef
:103f2400bc01370081088000f0fc2f000080600095
:103f3400800888001e019000ae01900000682900ee
:103f440081c124001af3070018c0b30002f02f0047
:103f5400f377240069f307000000e00001003c004f
:103f64000044eb000804e0005400320081088000a3
:103f7400f0fc2f00008060000040a0008008880052
:103f84001e019000ae0190000068290081c1240048
:103f940007f30700020020000310240004f30700c5
:103fa40018c0b30002f02f00f377240053f3070086
:103fb4000000e00001003c000044eb000804e000c5
:103fc4003200320081088000f0fc2f000080600085
:103fd4000050a000800888001e019000ae019000ef
:103fe4000068290081c12400f1f2070002002000ca
:103ff40003282400eef2070018c0b30002f02f00db
:10400400f37724003df307000000e00001003c00ca
:104014000044eb000804e000100032008108800036
:104024000003200001007000800888001e01900039
:10403400ae0190000068290081c12400dcf2070071
:104044000200200003382400d9f207002df30700f2
:1040540000007800600888006e0137001e0190009f
:10406400ae0190000068290081c12400d0f207004d
:104074000200200003282400cdf2070021f30700ea
:104084000000780060088800620137001e0190007b
:10409400ae0190000068290081c12400c4f2070029
:1040a4000200200003102400c1f2070015f30700ea
:1040b4000000780060088800560137001e01900057
:1040c400ae0190000068290081c12400b8f2070005
:1040d4000cf3070000007800600888004d013700e9
:1040e40091088000f0fc2f00008060009008880098
:1040f4001e019000ae0190000068290081c12400d7
:10410400abf2070018c0b30002f02f00f3772400cd
:10411400faf207000000e00001003c000044eb005c
:104124000804e0005400320091088000f0fc2f00e5
:10413400008060000040a000900888001e019000ec
:10414400ae0190000068290081c1240098f20700a4
:10415400020020000310240095f2070018c0b300e9
:1041640002f02f00f3772400e4f207000000e000df
:1041740001003c000044eb000804e000320032007f
:1041840091088000f0fc2f00008060000050a00027
:10419400900888001e019000ae019000006829007c
:1041a40081c1240082f207000200200003282400b9
:1041b4007ff2070018c0b30002f02f00f377240049
:1041c400cef207000000e00001003c000044eb00d8
:1041d4000804e00010003200910880000003200071
:1041e40001007000900888001e019000ae0190004c
:1041f4000068290081c124006df20700020020003c
:10420400033824006af20700bef2070000007800b9
:1042140070088800ff0037001e019000ae01900076
:104224000068290081c1240061f207000200200017
:10423400032824005ef20700b2f2070000007800b1
:1042440070088800f30037001e019000ae01900052
:104254000068290081c1240055f2070002002000f3
:104264000310240052f20700a6f2070000007800b1
:1042740070088800e70037001e019000ae0190002e
:104284000068290081c1240049f207009df207005b
:104294000000780070088800de003700f108800014
:1042a400f0fc2f0000806000f00888001e019000e0
:1042b400ae0190000068290081c124003cf207008f
:1042c40018c0b30002f02f00f37724008bf207002c
:1042d4000000e00001003c000044eb000804e000a2
:1042e40054003200f1088000f0fc2f0000806000d0
:1042f4000040a000f00888001e019000ae0190006c
:104304000068290081c1240029f20700020020006e
:104314000310240026f2070018c0b30002f02f0097
:10432400f377240075f207000000e00001003c0070
:104334000044eb000804e00032003200f108800081
:10434400f0fc2f00008060000050a000f0088800fe
:104354001e019000ae0190000068290081c1240074
:1043640013f20700020020000328240010f20700c3
:1043740018c0b30002f02f00f37724005ff20700a7
:104384000000e00001003c000044eb000804e000f1
:1043940010003200f10880000003200001007000ca
:1043a400f00888001e019000ae019000006829000a
:1043b40081c12400fef1070002002000033824001c
:1043c400fbf107004ff2070000007800d0088800d6
:1043d400900037001e019000ae0190000068290093
:1043e40081c12400f2f10700020020000328240008
:1043f400eff1070043f2070000007800d0088800be
:10440400840037001e019000ae019000006829006e
:1044140081c12400e6f107000200200003102400fb
:10442400e3f1070037f2070000007800d0088800a5
:10443400780037001e019000ae019000006829004a
:1044440081c12400daf107002ef207000000780091
:10445400d00888006f00370001098000f0fc2f00ad
:1044640000806000000988001e019000ae019000e9
:104474000068290081c12400cdf1070018c0b300f1
:1044840002f02f00f37724001cf207000000e00084
:1044940001003c000044eb000804e000540032003a
:1044a40001098000f0fc2f00008060000040a000a3
:1044b400000988001e019000ae01900000682900e8
:1044c40081c12400baf10700020020000310240077
:1044d400b7f1070018c0b30002f02f00f3772400ef
:1044e40006f207000000e00001003c000044eb007d
:1044f4000804e0003200320001098000f0fc2f00c3
:10450400008060000050a000000988001e01900097
:10451400ae0190000068290081c12400a4f10700c5
:104524000200200003282400a1f1070018c0b300f2
:1045340002f02f00f3772400f0f107000000e00000
:1045440001003c000044eb000804e00010003200cd
:1045540001098000000320000100700000098800a8
:104564001e019000ae0190000068290081c1240062
:104574008ff1070002002000033824008cf10700ab
:10458400e0f1070000007800e0088800210037000f
:104594001e019000ae0190000068290081c1240032
:1045a40083f10700020020000328240080f10700a3
:1045b400d4f1070000007800e008880015003700f7
:1045c4001e019000ae0190000068290081c1240002
:1045d40077f10700020020000310240074f10700a3
:1045e400c8f1070000007800e008880009003700df
:1045f4001e019000ae0190000068290081c12400d2
:104604006bf10700bff1070000007800e0088800a4
:10461400000000004f0478000080fa00000006004b
:104624000400fa00004f78001147980022479800d0
:104634001e80fb00e20f500036003200e20f5000f3
:1046440005003c000000e00008003200e10f5000cb
:104654001b0032006c003700e30f500041003200b1
:10466400e40f500054003200670037008460a90052
:104674001e4090000080fb00610060004300dd00ec
:10468400a204800071ff2f0081006100010070000e
:10469400a00488002e409000674060000080fb006a
:1046a400670060004c00dd0022058000f1ff280057
:1046b400810061000100700020058800520037006d
:1046c40084e0a9001e4090000080fb0061006000af
:1046d4004700dd00a2048000f1f72f008100610093
:1046e40001007000a00488002e4090006740600024
:1046f4000080fb00670060004c00dd003205800094
:10470400f1ff28008100610001007000300588007d
:104714003d0037008500a9001e4090000080fb008a
:10472400610060004800dd00a2048000f1ef2f006a
:104734008100610001007000a00488002e409000f8
:10474400674060000080fb00670060004205800055
:1047540081ff2f0081006100010070004005880086
:10476400290037008760a9001e4090000080fb00ec
:10477400610060004b00dd00b2048000f17f2f0077
:104784008100610001007000b00488002e40900098
:10479400674060000080fb00670060004c00dd00a3
:1047a40082058000f1ff2800810061000100700093
:1047b40080058800140037008780a9001e409000ff
:1047c4000080fb00610060004c00dd00b20480004a
:1047d400f1ff2e008100610001007000b004880028
:1047e4002e409000674060000080fb00670060007e
:1047f4009205800081ff2f0081006100010070009c
:1048040090058800000000000080fa000000060007
:104814000400fa00004f7800110798001e40780049
:10482400e44f500009003e001e0090000000e0002c
:10483400060032001e80fb00800040002089210019
:10484400008040009e009000010878000080fa007b
:10485400000006000800fa0040479800310798005d
:104864003e0090008000eb0065f10700020020008c
:10487400a3472400cef007000001be000000200082
:1048840001f82300caf00700008fbe001e01be001d
:104894004e40900020fd07000080fa000000060052
:1048a4000800fa0040479800310798003e00900045
:1048b4008000eb0052f107000240220043972400dd
:1048c400bbf007000001be000000200001f8230037
:1048d400b7f00700008fbe001e01be004e409000de
:1048e4000dfd07000080fa00000006000200fa0037
:1048f400004f7800114798001e80fb00e20f500023
:104904001e003200e20f500005003c000000e000f1
:1049140008003200e10f50000f003200320037006f
:10492400e30f50001e003200e40f50002500320057
:104934002d0037001e4090000080fb004f00dd007a
:1049440022088000f1ff270081006100010070004f
:1049540020088800240037001e4090000080fb00df
:104964004f00dd0082088000f1ff27008100610014
:1049740001007000800888001b0037001e40900072
:104984000080fb004f00dd0092088000f1ff27004b
:104994008100610001007000900888001200370057
:1049a4001e4090000080fb004f00dd00f2088000f4
:1049b400f1ff27008100610001007000f008880009
:1049c400090037001e4090000080fb004f00dd000e
:1049d40002098000f1ff27008100610001007000de
:1049e40000098800000000000080fa0000000600b2
:1049f4000a00fa00004f7800120798002307980075
:104a040031079800044f98008040eb001e40780066
:104a1400b6ff07001e019000ae0190001e40780012
:104a2400bdfc0700be0090001e40780078ff070020
:104a34008e4890001e407800acff07000080fa000a
:104a4400000006000c00fa00004f780012079800de
:104a54002307980031079800044f9800154f9800d9
:104a6400264f98008040eb001e4078009fff07000f
:104a74001e019000ae0190001e407800a6fc0700c5
:104a8400be0090001e40780061ff07001e499000a0
:104a94008e4890001e407800e1fe0700ae4890006a
:104aa4001e40780091ff07000080fa000000060015
:104ab4000a00fa002007980031079800420798007e
:104ac4000040eb00004f78000000eb001007980056
:104ad4002e0090004800de00004078001e4f680061
:104ae4002e009000004078001e4f68003e009000a9
:104af4004800de00004078001e4f68003e00900031
:104b0400004078001e4f68000000eb00100798007a
:104b140008003700ce0090001e0090000080400086
:104b2400104078001e4f68001e0090000000e8004e
:104b3400100798009e0090003e009000808f500067
:104b4400f4ff39001e4078000080fa0000000600df
:104b54000200fa00004f780080c8bf000080fb000c
:104b6400e30f500023003200e30f500007003c0025
:104b7400e10f500012003200e10f500016003c001b
:104b84000000e000080032004e003700e50f50003e
:104b940031003200e50f50001c003500e60f5000d4
:104ba4003c003200470037001e407800e24f4000ce
:104bb40047003a0010c0b30080e8b7004700370050
:104bc4001e80fb004800dd001044880020c0b300b4
:104bd40080e8b700410037009e80fb00104480004d
:104be400008040001044880030c0b30080e8b70063
:104bf4003a0037001e80fb004800dd002044880096
:104c040040c0b30080e8b700340037009e80fb004a
:104c1400204480000080400020448800214480001b
:104c240000102000808f5000020036008068ef00e2
:104c34002a003700204480000000e00003003a000e
:104c440060c0b30080e8b7002400370050c0b30050
:104c540080e8b700210037003044800081652100de
:104c64001e41780082707800304480000000e80023
:104c7400304488003144800020448000808f5000fc
:104c840015003a008628ef0060c0b30080e8b70042
:104c94001200370021448000104480008265210006
:104ca40083ff07009e4f500004003a002144800017
:104cb4001044800082652100110007008068ef0025
:104cc400060037008068ef00000000000300370092
:104cd4000000000001003700000000000080fa001e
:104ce400000006000400fa00000f78002147980035
:104cf4009580a8000000eb000080fa000000060088
:104d04000c00fa00300798004107980052079800f9
:104d14000040eb00004f78000000eb001007980003
:104d24000040eb00404798003e009000f50f500013
:104d340016013200f50f500014003e00e50f50003c
:104d440062003200e50f500007003e00e30f500000
:104d540032003200e30f5000b6013e00e10f500074
:104d64001d003200ab013700e70f5000b3003200e2
:104d7400e70f500083003900e80f5000dd003200d7
:104d8400f40f5000e9003200a2013700f90f50007f
:104d94004d013200f90f500005003e00f70f50009e
:104da40026013200f70f500034013e000d01370098
:104db400fb0f50005c013200fb0f5000560139001c
:104dc40091072000810f500067013200e10f40007d
:104dd4008d0132008f0137000040eb00004f780056
:104de4005e009000104078000004e00003003200f0
:104df40010c0b30088e8b700010037008868ef00ee
:104e04008188200091407800807521000148780055
:104e14001000200010079800870137005e00900002
:104e24009040780010842100014878005e009000d2
:104e340064004000104078000081fb008001eb001a
:104e44005e00900063004000104078000082fb0088
:104e54008002eb004828dd00c820de0081007000dd
:104e64004820dd0002014000838148005e0090007c
:104e74000080e800104078000080fb008000eb0018
:104e8400c000dd00000020000201400083814800d2
:104e94005e0090000000e800104078000080fb00f5
:104ea4008000eb00c800dd0000002000020040008c
:104eb4008380480010c2880021c288000084210039
:104ec40011c0b300014878005b0137000040eb00db
:104ed400004f78005e0090006300400010407800ae
:104ee4000081fb008001eb005e0090000080e80080
:104ef400104078000082fb008002eb004828dd00af
:104f0400c820de00810070004820dd00020140005e
:104f1400838148005e0090000000e80010407800a3
:104f24000080fb008000eb00c000dd0000002000da
:104f340002014000838148005e0090001040780028
:104f44000080fb008000eb00c800dd0000002000b2
:104f5400020040008380480030c0880041c08800bf
:104f640030c0800041c080000001be008000eb0022
:104f7400807521001e0b07004000200010079800d8
:104f84002d0137000040eb00004f78005e009000d8
:104f940063004000104078000081fb008001eb00ba
:104fa4005e0090000080e800104078000082fb0062
:104fb4008002eb004828dd00c820de00810070007c
:104fc4004820dd0002014000838148005e0090001b
:104fd4000000e800104078000080fb008000eb0037
:104fe400c000dd0000002000020140008381480071
:104ff4005e009000104078000080fb008000eb0011
:10500400c800dd000000200002004000838048004a
:1050140050c0880061c0880050c0800061c080001a
:105024000001be008000eb0080752100f00a07003b
:105034004000200010079800ff0037000040eb00fc
:10504400004f78005e00900063004000104078003c
:105054000081fb008001eb005e0090000080e8000e
:10506400104078000082fb008002eb004828dd003d
:10507400c820de00810070004820dd0002014000ed
:10508400838148005e0090000000e8001040780032
:105094000080fb008000eb00c000dd000000200069
:1050a40002014000838148005e00900010407800b7
:1050b4000080fb008000eb00c800dd000000200041
:1050c400020040008380480070c0880081c08800ce
:1050d40070c0800081c080000001be008000eb0031
:1050e40080752100c20a07004000200010079800c4
:1050f400d10037000040eb00004f78005e009000c4
:10510400904078002081210001487800208121000e
:105114009040780080752100014878008ff90700dd
:105124001000200010079800c30037000040eb0077
:10513400004f78008000eb005e0090007b0a0700bf
:10514400a0c08800b1c08800a0c08000b1c08000a9
:105154000001be008000eb00807521008b0a07006f
:10516400a0c08000b1c0800002002000031524000c
:1051740078ef07000001be0020c0b300e6fa070084
:105184004000200010079800ab0037000040eb00ff
:10519400004f78008000eb005e009000630a070077
:1051a40002002000a34724006aef070090bf880094
:1051b400a1bf880090bf8000a1bf80000200200032
:1051c400a34724007aee07000001be008000eb0034
:1051d400807521006d0a0700400020001007980028
:1051e400950037000040eb00004f78008000eb0092
:1051f4005e0090004d0a070002002000a34724002f
:1052040054ef070010c0880021c0880010c080003f
:1052140021c0800002002000a347240064ee0700a0
:105224000001be008000eb0080752100570a0700d2
:1052340040002000100798007f0037000040eb007a
:10524400004f78008000eb005e009000370a0700f2
:1052540070bf880081bf880070bf800081bf80005c
:105264000001be008000eb0080752100470a0700a2
:1052740040002000100798006f0037000040eb004a
:10528400004f78008000eb005e009000270a0700c2
:1052940002002000832c24002eef070050bf88005a
:1052a40061bf880050bf800061bf80000001be0064
:1052b4008000eb0080752100340a070040002000c4
:1052c400100798005c0037000040eb00004f7800a6
:1052d4005e009000104078000004e00004003200fa
:1052e400807d210011c0b30001487800030037001d
:1052f400807d21008040eb0001487800807d210002
:10530400904078008075210001487800100020004a
:10531400100798004800370010c0b300004f780011
:1053240057f20700440037000040eb00004f7800bc
:105334008000eb005e009000fc09070030bf88008d
:1053440041bf880030bf800041bf80000001be0023
:105354008000eb00807521000c0a0700400020004b
:10536400100798003400370010c0b300004f7800d5
:105374005e009000104078000081fb008001eb008b
:105384005e0090000000e800104078000082fb00fe
:105394008002eb004828dd00c820de008100700098
:1053a4004820dd0002014000838148005e00900037
:1053b4000080e800104078000080fb008000eb00d3
:1053c400c000dd000000200002014000838148008d
:1053d4005e00900063004000104078000080fb00f5
:1053e4008000eb00c800dd00000020000200400047
:1053f4008380480000408800114088000000eb00d2
:10540400100798000c00370010c0b300004f78005c
:105414000900370010c0b300004f780010002000ce
:1054240010079800807521008040eb000148780047
:1054340001003700000000001e4078000004e00076
:1054440004003a00827521009e0090003e00900006
:10545400040007000040eb00004f78000080fa00d1
:10546400000006000c00fa00889fbe008a1f780026
:105474003007980041079800520798000f047800fd
:105484000f007800800478004e0090006600400011
:10549400800078008100e900110798000000e8000e
:1054a4000000e8000000d100800040000f007800f8
:1054b400818747000000e8000000d10000004000a0
:1054c400200798002e009000e1cfb3000148780037
:1054d4003e0090004800de00804078002e009000de
:1054e400114098003e009000804078002e0090000b
:1054f400214098004e0090004800de008040780073
:105504002e009000314098004e00900080407800ba
:105514002e009000414098000000eb00000f78003e
:10552400090037009e007800658040009e007800e6
:105534005e0190008100410011417800ae009000ae
:10554400827078001e0fe8009e0078004e009000e4
:10555400808f5000f3ff39004e0090006505400035
:105564005e019000ce0090003e00900050fd0700c8
:10557400ae00900080707d004e009000e600400078
:105584002e0090000600070089077800880778003d
:105594004f0578004f04be000080fa0000000600aa
:1055a4000600fa001007980021079800e807070092
:1055b400ae009000810f50000d0036000000eb009b
